:030000000214895E
:0C148900787FE4F6D8FD75818F0214D046
:100A1800E563B4020E755D00755E01755B07755C74
:100A2800D0800C755D00755E32755BEA755C60E5BB
:100A38005414601214602F146054240370562095C7
:100A480053755401801930950280460553E553705B
:100A5800020552D3955EE552955D4038755402E41F
:100A6800F552F553802E30950AE4F554756801D295
:100A78000080210553E55370020552D3955CE55279
:100A8800955B4010756802D2007554038006309556
:100A980003E4F554E55714601214602F14605424CD
:100AA800037056209453755701801930940280467C
:100AB8000556E55670020555D3955EE555955D409A
:100AC80038755702E4F555F556802E30940AE4F54A
:100AD80057756901D20080210556E5567002055503
:100AE800D3955CE555955B4010756902D200755742
:100AF800038006309403E4F557E55A146012146035
:100B08002E14605124037053209350755A01801994
:100B180030930280430559E55970020558D3955E14
:100B2800E558955D4035755A02E4F558F559223077
:100B38009309E4F55A756A01D200220559E55970FE
:100B4800020558D3955CE558955B400F756A02D24B
:0C0B580000755A0322309303E4F55A2282
:0A1B3400E4F568F569F56AC20022C5
:101A8B00E4F568F569F56AC200F554F557F55AF5B2
:0C1A9B0052F553F555F556F558F5592253
:10194A00200005120A1880F8E56860031206FCE513
:10195A00696007AA7BA97C1206FCE56A6007AA7E71
:08196A00A97F1206FC021B34E8
:0B1B2900200005120A1880F8021A8B39
:101B0A00496E66696E697465001F111B0A0A0A0428
:011B1A0004C6
:101AF400C2B2D2B3D2B47F067E0012000EA2A79265
:051B040007C2B4A207B6
:011B090022B9
:101A07008F76121AF440FBC2B2C2B3C2B48576A075
:101A17007F067E0012000ED2B47F067E0012000EF3
:031A2700C2B42224
:0E1B1B00ED60054307C08003430780021A07F0
:10187800AE40AF417C007D641204A67F0A7E00CF93
:0C188800CDCFCECCCE1204A6EF2430FF52
:101894008F76121AF440FBD2B2C2B3C2B48576A0DA
:1018A4007F067E0012000ED2B47F067E0012000E68
:0318B400C2B42299
:10161D007F0F7E00121A2A7F38121A077F057E006F
:10162D00121A2A7F38121A077F057E00121A2A7F96
:10163D0038121A077F057E00121A2A7F0C121A071C
:10164D007F057E00121A2A7F06121A077F057E007B
:10165D00121A2A7F40121A07E4F56BE56B901B13E3
:10166D0093FF121894056BE56BC3940840ED7F0151
:10167D00121A077F057E00121A2AE4FDFF021B1BBA
:050003007F01021A0755
:0A1B3E008B6D121B1BAF6D02189493
:1013F80012021F8F728E718D708C6F1203788E504F
:101408008F51AC50AD51EC12033FA804A905AA06B0
:10141800AB07AF72AE71AD70AC6F120021E4FBFA8E
:10142800797A78441201161203788E408F41AB51B5
:06143800AA50AD6EAF6D7D
:04143E008A738B74AE
:10144200E4F575121B1BAE73AF747C007D0A1204A7
:1014520051AF05AE75057574422EF8A607AE73AF8F
:10146200747C007D0A1204518E738F74E574457387
:1014720070D4E5756010157574422575F8E6243050
:06148200FF12189480EC3B
:011488002241
:081515008F6D8D6E8A6F8B70E3
:10151D00E4754F01F54EF54DF54C757201E572C34D
:10152D009571501DAF4FAE4EAD4DAC4CE47B0AFAEC
:10153D00F9F81204DC8F4F8E4E8D4D8C4C05728058
:10154D00DCAD6EAF6D121B1BAF711571EF603FAE51
:10155D006FAF70E4FCFDAB4FAA4EA94DA84C120520
:10156D0067121890AE6FAF70AC4EAD4F1204518C28
:10157D006F8D70AF4FAE4EAD4DAC4CE47B0AFAF9AA
:0E158D00F81205678F4F8E4E8D4D8C4C80BA34
:01159B00222D
:100C9C008F6D8D6E7F287E6B7D6E7C4EAB72AA71D4
:100CAC00A970A86F1202BC400D7BFF7A1B790AADAC
:100CBC006EAF6D0219727F007E247D747C49AB721D
:100CCC00AA71A970A86F1202BC403DAF72AE71AD93
:100CDC0070AC6F7B007A24797478491213F87F2EEC
:100CEC00121894AE40AF417C007D6412188D12181E
:100CFC0078AE40AF417C007D0A1204A6ED2430FF93
:100D0C001218947F4D020DC5E4FFFE7D7A7C44AB36
:100D1C0072AA71A970A86F1202BCAF72AE71AD70DD
:100D2C00AC6F60364034E4FBFA797A78441213F8ED
:100D3C007F2E121894AE40AF417C007D6412188D4A
:100D4C00121878AE40AF417C007D0A1204A6ED2447
:100D5C0030FF1218947F4B020DC51203788E508F02
:100D6C0051AC50AD51EC12033FA804A905AA06AB37
:100D7C0007AF72AE71AD70AC6F1200217B007A4080
:100D8C00791C784612142C7F2E121894AE40AF4169
:100D9C007C037DE812188DAE40AF417C037DE812D8
:100DAC0004A67F64121885121878AE40AF417C00FF
:0D0DBC007D0A1204A6ED2430FF12189422C7
:101972008B738A748975121B1BAB73AA74A97512B7
:1019820003F9FF601012189474012575F575E4359A
:0619920074F57480E422EC
:0A17F0008F6D8D6E8B6F8A7089710A
:1017FA00E4FF121B1BE4F5727F201218940572E5B0
:10180A0072C3941040F2AD6EAF6D121B1BAB6FAA80
:10181A0070A9711203F9FF601012189474012571EE
:09182A00F571E43570F57080E4FD
:011833002292
:101747008B6B8A6C896D7F01121A07E4FDFF121BF0
:101757001BAB6BAA6CA96D1203F96013056DE56DE0
:101767007002056C14F91203F9FF12189480E27DD8
:1017770001E4FF121B1BAB6EAA6FA9701203F9607D
:10178700130570E5707002056F14F91203F9FF1263
:05179700189480E2221D
:021AC2008B6B2C
:101AC400121B1BE4F56CE56CC3956B50097F201267
:061AD4001894056C80F07F
:011ADA0022E9
:051B48007F0F021A07E7
:051B4D007F0C021A07E5
:10159C004D656172737572696E672E2E2E004372E3
:1015AC006F73732050726F62657320416E640050CC
:1015BC007265737320416E7920427574746F6E007E
:1015CC00506C65617365205761697400546F2053CA
:1015DC0077697463682043617000536574205A65A1
:1015EC00726F0046696E6973686564004C4F5700F2
:1015FC00484947480050726F63657373696E672E74
:10160C002E2E00523D00496E20004F757400FF15C0
:01161C009C31
:021A6D00C18234
:10199800121A4C121271C2051218EDC2B77FE87EF6
:1019A80003121A2A120A1830000312168D3004F492
:0519B8001210B880EFE1
:101A4C007592477591B8E4F5B275B120C292C29106
:101A5C00C29012161D1219BD121A8B1213460219BE
:011A6C002158
:10127100D2B7D205756EFF756F157570BB7BFF7A9E
:101281001579AA121747121B29756EFF756F15750F
:1012910070CC90161AE493FB740193FA740293F9DB
:1012A1001217471218ED3004FD120FCB7884120685
:1012B100187880120631756EFF756F157570D87BC1
:1012C100FF7A1579BB121747121B29C2B77FE87E37
:1012D10003121A2A1218ED3004FD120FCB78841272
:1012E1000618788C120631756EFF756F157570EFE3
:1012F1007BFF7A1579E6121747D2B77FE87E031292
:101301001A2A30023F1200037BFF7A1579F8E4FDB7
:10131100FF1219727880120618AB07AA06E4FD7F46
:101321000612143E7BFF7A1579FC7D01E4FF121948
:1013310072788C120618AB07AA067D017F0612147B
:051341003E121B2922F1
:10168D00E56824FE6007047006B2028002B201E52F
:10169D006924FE602A04702D121A8B7F03121ADB47
:1016AD001218B7E4FF121ADB1218ED121A8B120082
:1016BD00037BFF7A167901E4FDFF1219728006C2D1
:1016CD0090C291C292E56A24FE6010047013121A42
:1016DD008B7F03121ADB1216F18006D290D291D2B3
:0416ED0092021B3416
:1010B800120FCB1218ED1200037BFF7A16790FE49A
:1010C800FDFF12197278881206188F728E718D7052
:1010D8008C6FE4FD7F02120C9C3002127884120699
:1010E80018AB07AA067D017F0812143E80097B0809
:1010F8007D017F08121AC2200103021197E4FBFD4B
:101108007F0F121B3EAB62AA61A960A85FC000787E
:1011180088120618D000120021AB62AA61A960A843
:101128005F12021FAB67AA66A965A8641202BC60B9
:1011380051404FAB62AA61A960A85FC000788812CD
:101148000618D000120021AB62AA61A960A85F123C
:10115800021FC004C005C006C007AF67AE66AD6514
:10116800AC64120329A804A905AA06AB07D007D0C6
:1011780006D005D0041202BC50087BFF7A167912FB
:1011880080067BFF7A1679167D01E4FF1219722218
:041A2A008E6D8F6EC0
:101A2E00E4F56FF570C3E570956EE56F956D500D2D
:0D1A3E00121AA70570E57070EC056F80E8C6
:011A4B002278
:101AA7007F017E007D587C03ED1D70011CED4C709D
:0A1AB700F7EF1F70011EEF4E70EAFA
:011AC1002202
:0D000E00EF4E600800EF1F70F71E80F42217
:1019BD00D2AFD2A9D2ABD2B9C2BB758951C204E4A0
:1019CD00F508F509F58AF58CF58BF58DC28CC28E6F
:0519DD00F563D20522B4
:101ADB008F63C28CC28EEF14600B146008240270EB
:091AEB0007758951227589112249
:1018ED00C204E4F508F509E56314601514601A24C3
:1018FD00027020E4F58AF58CF58BF58DD28CD28EA5
:10190D0022758DFE758B338006758DFC758B6AC2C5
:04191D008CD28E22B8
:03001B0002179C2D
:10179C00C0E0C0F0C083C082C0D075D010E5631427
:1017AC00600E14601714602D2403702D0509802918
:1017BC00758DFC758B6A0509D204801D758B33758C
:1017CC008DFED2040509E509C39402400C7509008D
:1017DC00120A188004C28CC28ED0D0D082D083D092
:0417EC00F0D0E03227
:03000B000219E2F5
:1019E200C0E0C0D02005090508E508B40302800A5A
:1019F20030050D0508E508B40306C28EC28CD20478
:051A0200D0D0D0E0325D
:100EDE00596573004E6F004465627567204D6F64EF
:100EEE0065204F6E004176657267204D6F646520F8
:100EFE004F6E005369657665204D6F6465204F6EA9
:100F0E00005365742053696576650053746172747D
:100F1E0020506C6F74005265736574204465766959
:100F2E00636500457869740007FF0EDE000000FF60
:100F3E00183408FF0EE2000000FF183400002309E9
:100F4E00FF0EDE000000FF18340AFF0EE200000064
:100F5E00FF18340000350BFF0EDE000000FF1834C2
:100F6E000CFF0EE2000000FF183400002C00FF0EF4
:100F7E00E50000230000000DFF0EF300002C000022
:100F8E000001FF0F0100003500000003FF0F0F00EE
:100F9E000000FF074404FF0F19000000FF0B64055B
:100FAE00FF0F24000000FF16F106FF0F31000000B6
:0D0FBE00FF000807000000FF0F7BFF0FC1C0
:101A6F00072302000000FF0F36073502000000FFBA
:0B1A7F000F4D072C02000000FF0F6459
:10134600900FC8E493FB740193FA740293F9C003F7
:10135600C002C001900F4AE493FB740193FA740231
:1013660093F99000011206A3900FC8E493FB740151
:1013760093FA740293F9C003C002C001900F61E4AE
:1013860093FB740193FA740293F99000011206A379
:10139600900FC8E493FB740193FA740293F9C003A7
:1013A600C002C001900F78E493FB740193FA7402B3
:1013B60093F99000011206A3900FC8E493FB740101
:1013C60093FA7402938B3C8A3DF53EE4F521C206FE
:1013D600C201F562F561F560F55FF567F566F565DD
:1013E600F564F533F534752220F53FD202F52BF579
:0213F6002A22A9
:1018B700900FC8E493FB740193FA7402938B3C8AEC
:1018C7003DF53EE4F521C206121198800E2006155B
:1018D7003000FA7F03121ADB120DC97F02121ADBDE
:0618E7001218ED80E8225A
:10119800120003E5216068E4FD7F01121B1BAB3CD4
:1011A800AA3DA93E900004120673AF21EF3395E0E3
:1011B800FE7C007D0A12043FE92FF9EA3EFA90FF0F
:1011C800F7120673E4FD7F01121972AB3CAA3DA920
:1011D8003E900004120673AF21EF3395E0FE7C00C9
:1011E8007D0A12043FE92FF9EA3EFA90000112063F
:1011F800737D017F011219727B3E7D01E48065E4F5
:10120800FD7F01121B1BAB3CAA3DA93E90000412B6
:101218000673AF21EF3395E0FE7C007D0A12043F90
:10122800E92FF9EA3EFA900001120673E4FD7F0106
:10123800121972AB3CAA3DA93E900004120673AF86
:1012480021EF3395E0FE7C007D0A12043FE92FF977
:10125800EA3EFA90000B1206737D017F01121972A3
:091268007B3EE4FDFF121B3E2257
:100DC900E568603024FE601D046003020EDBAB3C65
:100DD900AA3DA93E1203F9FF0521E5218FF084857B
:100DE900F021020ED8AB3CAA3DA93E1203F914F535
:100DF90021020ED8E569603024FE602604600302F2
:100E09000EDB1521C3E52164809480500EAB3CAA0A
:100E19003DA93E1203F92521FF8002AF218F21024E
:100E29000ED8E4F521020ED8E56A24FE607B046041
:100E390003020EDBAB3CAA3DA93E900004120673E7
:100E4900AF21EF3395E0FE7C007D0A12043FE92FC4
:100E5900F9EA3EFA900004120673E94A4B6023ABA3
:100E69003CAA3DA93E900004120673E92FF9EA3E17
:100E7900FA9000041206738B3C8A3D893EE4F52101
:100E8900804D121A8BD206AB3CAA3DA93E900004B4
:100E9900120673E52175F00AA429F9E43AFA9000DB
:100EA900071206731206FC8029AB3CAA3DA93E90A5
:100EB9000001120673E94A4B6018AB3CAA3DA93EF2
:100EC9009000011206738B3C8A3D893EE4F521129C
:050ED9001198021B341A
:0100080022D5
:1016F100756B0B756CB8C290C291C2927F02121ABF
:10170100DB1218EDE56C456B602F300424C204E553
:101711006C156C7002156BE56CB4D009E56BB40700
:1017210004D292800CE56CB4E807E56BB40302D2F5
:10173100913000D0C291C29222D2907FF47E0112E8
:051741001A2A75E760A3
:011746002280
:10183400AB3CAA3DA93E900004120673AF21EF33DE
:1018440095E08F82F583740A12066212041224F85A
:1018540060131460131460131460131460132405CC
:101864007011D20222C20222D20122C20122D20368
:0418740022C2032267
:100B640012000390161AE493FB740193FA7402932F
:100B7400F9E4FDFF1217F0E4F52BF52A805D30044B
:100B8400FDE52B6411605EE509B4C905052A750904
:100B940001E52B2407FFE433FED3E5099FEE6480CF
:100BA400F87480985004D2B78002C2B7E52AB4140E
:100BB400CDE4F52AFF121ADB1218ED3004FD120FF2
:100BC400CB7888120618AB2B052BEB25E025E02407
:100BD40000F582E43400F58312063D7F01121ADB2E
:100BE4001218ED8099E4F56BF56C120003E56B25A2
:100BF400E025E02400F582E43400F583E0FCA3E082
:100C0400FDA3E0FEA3E0F5728E718D708C6FE4FDA0
:100C1400FF120C9C7F02121ADB1218EDE56C707740
:100C24003000F9E568601924FE601004703D056B1E
:100C3400E56B75F0118485F06B8030756B10802B3B
:100C4400E569601F24FE6016047020156BE56BC314
:100C5400940050047F108002AF6B8F6B800DE4F51D
:100C64006B8008E56A147003756C01E56B25E0255B
:100C7400E02400F582E43400F583E0FCA3E0FDA366
:100C8400E0FEA3E0F5728E718D708C6FE4FDFF12AF
:070C94000C9C121B3480854B
:010C9B002236
:10074400E4F56BF56C120003757103AB34AA33E462
:10075400FDFF121515AB22E4FD7F03121B3E7B5EE9
:100764007D01AF6B121B3E7F02121ADB1218EDE5FE
:100774006C60030208973000F6E5687003020851C4
:1007840024FE604D04600302083CE56B14601314FE
:1007940060161460222403600302083CE5342464D8
:1007A400800AE534240A8004E5342401FFE4353367
:1007B400FE7C037DE88031E52224B5600D24FE60D3
:1007C4000E242D707375224B806E75224D806980C6
:1007D40064E56B14601B146044146059240370585E
:1007E400AE33AF347C007D641204518C338D34807D
:1007F40047AE33AF347C007D641204517E007F0A1F
:10080400CFCDCFCECCCE1204517C007D0A12043F52
:10081400C3E5349FF534E5339EF533801BAE33AF27
:10082400347C007D0A120451C3E5349DF534E5336C
:100834009CF5338003752220757103AB34AA33E42D
:10084400FDFF121515AB22E4FD7F038033E56960DB
:10085400347B207D01AF6B121B3EE56924FE600DE5
:10086400047017056BE56B5403F56B800DE56BB4F1
:100874000305E4F56B8003756B037B5E7D01AF6B51
:10088400121B3E8008E56A147003756C01121B3458
:10089400020773E4F56BF56C120003E53FFB7A0085
:1008A400757102E4FDFF1215157B25E4FD7F02122C
:1008B4001B3E7B5E7D01AF6B121B3EE56C60030249
:1008C40009643000F6E568605B24FE602704704428
:1008D400E56B14601604703CE53F240AFFE433FE24
:1008E4007C007D641204518D3F8029053FE53F75EE
:1008F400F064800DE56B14600E047018E53F75F02C
:100904000A8485F03F800DE53F75F00A84C3E53F16
:1009140095F0F53FE53FFB7A00757102E4FDFF12A7
:1009240015158036E569602A7B207D01AF6B121BAB
:100934003EE56924FE600D04700D056BE56B540102
:10094400F56B8003E4F56B7B5E7D01AF6B121B3EA0
:100954008008E56A147003756C01121B340208BF29
:10096400E52224B5601224FE6022242D7039AC33B4
:10097400AD34E412033F8027AC33AD34E412033FBB
:10098400E4FBFA797A78441201168013AC33AD345F
:10099400E412033F7B007A24797478491201168F9C
:1009A400628E618D608C5FAC3FE4120344E4FBFA19
:1009B40079C8784212021F8F678E668D658C641227
:1009C4000003757103AB34AA33E4FDFF121515ABB4
:1009D40022E4FD7F03121B3EE53FFB7A00757102A2
:1009E4007D01E4FF12151585627285617185607061
:1009F400855F6FE4FD7F08120C9C856772856671C4
:100A040085657085646F7D017F08120C9C7FB87EBC
:040A14000B021A2A8D
:100FCB00AF8DE4FCFDFEFB7A01F9F81204DCC004E2
:100FDB00C005C006C007AF09E4FCFDFEFBFA7901B2
:100FEB00F81204DCD003D002D001D000EF2BFBEEC3
:100FFB003AFAED39F9EC38F8AF8BE4FCFDFEEB2F48
:10100B00FFEE3AFEED39FDEC38FC7884120631E444
:10101B00FFFEFDFC7884120624C3120607700A78C3
:10102B0088120649501502F922788430B73112061E
:10103B0018E412033AA804A905AA06AB07E4FFFEBD
:10104B007D807C3F12021F7B9C7AE47926784C12C0
:10105B0001167B007AC079F278C412002580481201
:10106B000618788C1206241204DCC004C005C006D6
:10107B00C0077884120624C000788C120618D000A2
:10108B00C3EF9BFFEE9AFEED99FDEC98FCD003D0DD
:10109B0002D001D000120567E412033A7BA27A5109
:0D10AB00790F785212011678881206312252
:10192100D2B778881206490000000078841206496F
:1019310000000000788012064900000000788C1237
:09194100064900000000C2032267
:10001E000203E4E86480F8E933E83360110460F029
:10002E00ED33EC337009E8FCE9FDEAFEEBFF220448
:10003E0060DED3EB9FEA9EE99DE8C2E78CF0C2F743
:10004E0095F0400CE8CCF8E9CDF9EACEFAEBCFFB0F
:10005E001203AF85D0F05804700320D5B3E80470B6
:10006E00075002B2D50203EE92D5EC0460F7E4CC51
:10007E00C0E0C398F8603B94186008400DD0E0FBD8
:10008E000203C6E4FBFAC9FC8028E830E406E4C9A2
:10009E00FBE4CAFCE830E305E4C9CACBFCE854072C
:1000AE006010F8C3E913F9EA13FAEB13FBEC13FC37
:1000BE00D8F130F52FC3E49CFCEF9BFFEE9AFEEDDA
:1000CE0099FDD0E0FBEF4E4D4C701222DB03020384
:1000DE00EBEC2CFCEF33FFEE33FEED33FDED30E7B2
:1000EE00EB0203C6EF2BFFEE3AFEED39FDD0E0FB3F
:1000FE0050130BBB00030203EEED13FDEE13FEEFE8
:08010E0013FFEC13FC0203C611
:10011600EC4D6011E8497017ED33EC3304600DE4E3
:10012600FCFFFEFD22E933E8330470F80203E41213
:1001360003AF58046009E4CC248150062850090214
:1001460003EE2840030203EBC0E0EB4A7044B9809B
:1001560006D0E0FB0203DAEF4E701CBD8008EBFF11
:10016600EAFEE9FD80EBE98DF0A4FEE5F00201FF71
:10017600E9CDF9EAFEEBFFEF89F0A4FCE5F0CE89C4
:10018600F0A42EFFE435F0CD89F0A42DFEE435F081
:100196008067EF4E7005BD80D780C3EF8BF0A4ACAF
:1001A600F0EE8BF0A42CFCE435F0F8EF8AF0A42CEA
:1001B600E5F038FCE433CB8DF0A42CFCE5F03BF8FD
:1001C600EE8AF0A42CFCE5F038F8E433CF89F0A4ED
:1001D6002CFCE5F038CF3400CE89F0A42FFFE5F0F3
:1001E6003EFEE433C98DF0A42EFEE5F039CD8AF04B
:1001F600A42FFFE5F03EFEE43DFD33D0E0FB5007C3
:100206000BBB000F0203EEEC2CFCEF33FFEE33FECC
:06021600ED33FD0203C6FA
:10021C000203EEEC5D046005E8590470030203E48C
:10022C001203AF580460F6EC4860F2EC7004FDFE6B
:10023C00FF22C860DB2481C85009C39860025006B5
:10024C000203EB9850CAF582E9294B4A7005AB8240
:10025C000203DA75F0007C1A7880C3EF9BEE9AEDFE
:10026C0099400DC3EF9BFFEE9AFEED99FDE842F02D
:10027C00DC23ACF0D0E0FFD0E0FED0E0FDAB822080
:10028C00E7101BEB60BAEC2CFCEF33FFEE33FEED0A
:10029C0033FD0203C6E803F830E705C0F075F00043
:1002AC00EF2FFFEE33FEED33FD40B830E7C280AAEE
:1002BC0074F8CC6480CCC86480C8F582046043C3F5
:1002CC00EB9FF5F0EA9E42F0E99D42F0E89C45F088
:1002DC0060305018E5825FFFE582F42B5582FB50AD
:1002EC00210ABA001D09B90019088016E5825BFBCA
:1002FC00E582F42F5582FF50090EBE00050DBD009E
:10030C00010CC3EB9FF5F0EA9E42F0E99D42F0E848
:0D031C009C45F06007CC4820E701B3EC22BF
:10032900ED33EC33600A047003BD8004ECB2E7FCE2
:0103390022A1
:10033A0075F020800E75F010800575F0087D007E3E
:10034A00007F003392D530D5031205F9EC33401003
:10035A00EF33FFEE33FEED33FDEC33FCD5F0ED2247
:0E036A00E5F0247EA2D513CC92E7CDCEFF2283
:10037800EDD2E7CD33EC3392D524814006E4FFFE7D
:10038800FDFC22FCE4CFCECDCC24E0501174FF80DC
:10039800EDC3CC13CCCD13CDCE13CECF13CF047079
:0703A800F030D5DE0205F97B
:1003AF00E9D2E7C933E833F892D5EDD2E7CD33EC94
:0703BF0033FC5002B2D5220D
:1003C600EC30E7100FBF000C0EBE00080DBD000498
:1003D6000BEB6014A2D5EB13FCED92E7FD2274FF44
:1003E600FCFDFEFF22E480F8A2D574FF13FC7D809D
:0303F600E480EFB1
:10149500021998E493A3F8E493A34003F68001F2BC
:1014A50008DFF48029E493A3F85407240CC8C33358
:1014B500C4540F4420C8834004F456800146F6DF27
:1014C500E4800B0102040810204080901A6DE47E30
:1014D500019360BCA3FF543F30E509541FFEE4931C
:1014E500A360010ECF54C025E060A840B8E493A3E3
:1014F500FAE493A3F8E493A3C8C582C8CAC583CA0E
:10150500F0A3C8C582C8CAC583CADFE9DEE780BEC5
:011A8A00005B
:1003F900BB010689828A83E0225002E722BBFE0202
:09040900E32289828A83E4932234
:10041200BB010CE58229F582E5833AF583E022509F
:1004220006E92582F8E622BBFE06E92582F8E222E9
:0D043200E58229F582E5833AF583E4932203
:10043F00EF8DF0A4A8F0CF8CF0A428CE8DF0A42ED1
:02044F00FE228B
:10045100BC000BBE0029EF8DF084FFADF022E4CC8F
:10046100F875F008EF2FFFEE33FEEC33FCEE9DEC58
:10047100984005FCEE9DFE0FD5F0E9E4CEFD22ED9E
:10048100F8F5F0EE8420D21CFEADF075F008EF2FE8
:10049100FFED33FD4007985006D5F0F222C398FDD9
:0504A1000FD5F0EA2276
:1004A600C2D5EC30E709B2D5E4C39DFDE49CFCEE71
:1004B60030E715B2D5E4C39FFFE49EFE120451C394
:1004C600E49DFDE49CFC800312045130D507C3E48F
:0604D6009FFFE49EFE22E0
:1004DC00E88FF0A4CC8BF0A42CFCE98EF0A42CFCBF
:1004EC008AF0EDA42CFCEA8EF0A4CDA8F08BF0A43D
:1004FC002DCC3825F0FDE98FF0A42CCD35F0FCEB9C
:10050C008EF0A4FEA9F0EB8FF0A4CFC5F02ECD3960
:0F051C00FEE43CFCEAA42DCE35F0FDE43CFC22CD
:10052B0075F008758200EF2FFFEE33FECD33CDCC87
:10053B0033CCC58233C5829BED9AEC99E58298400A
:10054B000CF582EE9BFEED9AFDEC99FC0FD5F0D6E7
:10055B00E4CEFBE4CDFAE4CCF9A88222B800C1B911
:10056B000059BA002DEC8BF084CFCECDFCE5F0CB4F
:10057B00F97818EF2FFFEE33FEED33FDEC33FCEB88
:10058B0033FB10D703994004EB99FB0FD8E5E4F943
:10059B00FA227818EF2FFFEE33FEED33FDEC33FC30
:1005AB00C933C910D7059BE99A4007EC9BFCE99A24
:1005BB00F90FD8E0E4C9FAE4CCFB2275F010EF2F69
:1005CB00FFEE33FEED33FDCC33CCC833C810D70769
:1005DB009BEC9AE899400AED9BFDEC9AFCE899F8A4
:0E05EB000FD5F0DAE4CDFBE4CCFAE4C8F92237
:0E05F900C3E49FFFE49EFEE49DFDE49CFC2213
:10060700EB9FF5F0EA9E42F0E99D42F0E89C45F049
:0106170022C0
:0C061800E6FC08E6FD08E6FE08E6FF220E
:0D062400E6FB08E6F908E6FA08E6CBF82246
:0C063100ECF608EDF608EEF608EFF622F5
:0C063D00ECF0A3EDF0A3EEF0A3EFF02230
:10064900D083D082E493F608740193F60874029378
:09065900F608740393F6740473AF
:10066200F5F0C582A4C582C5F0C583A42583F583B0
:010672002265
:10067300BB010DE58229F582E5833AF58302071470
:100683005007E92582F8020702BBFE07E92582F835
:10069300020726E58229F582E5833AF583020738C6
:1006A300BB0120E58229F582E5833AF583D0F0D0BA
:1006B300E0F8D0E0F9D0E0FAD0E0FBE8C0E0C0F029
:1006C30002071D5018E92582F8D083D082D0E0F9C3
:1006D300D0E0FAD0E0FBC082C08302070BBBFE1858
:1006E300E92582F8D083D082D0E0F9D0E0FAD0E0D7
:0906F300FBC082C08302072F2224
:0606FC008A838982E47389
:09070200E6FB08E6FA08E6F9221C
:09070B00EBF608EAF608E9F62213
:09071400E0FBA3E0FAA3E0F922E6
:09071D00EBF0A3EAF0A3E9F022DD
:09072600E2FB08E2FA08E2F92204
:09072F00EBF208EAF208E9F222FB
:0C073800E493FB740193FA740293F9221D
:00000001FF
