:030000000215489E
:0C154800787FE4F6D8FD75818B02158FCA
:100CDC00E561B4020E755B00755C01755907755AB8
:100CEC00D0800C755B00755C327559EA755A60E5FD
:100CFC005214601214602F14605424037056209503
:100D0C0053755201801930950280460551E551709A
:100D1C00020550D3955CE550955B4038755202E462
:100D2C00F550F551802E30950AE4F552756601D2D6
:100D3C000080210551E55170020550D3955AE550BC
:100D4C0095594010756602D2007552038006309595
:100D5C0003E4F552E55514601214602F146054240A
:100D6C0003705620945375550180193094028046B7
:100D7C000554E55470020553D3955CE553955B40DF
:100D8C0038755502E4F553F554802E30940AE4F589
:100D9C0055756701D20080210554E5547002055346
:100DAC00D3955AE55395594010756702D200755585
:100DBC00038006309403E4F555E558146012146072
:100DCC002E146051240370532093507558018019D0
:100DDC0030930280430557E55770020556D3955C56
:100DEC00E556955B4035755802E4F556F5572230BB
:100DFC009309E4F558756801D200220557E5577040
:100E0C00020556D3955AE5569559400F756802D28E
:0C0E1C000075580322309303E4F55822BF
:0A1BEA00E4F566F567F568C2002215
:101B2500E4F566F567F568C200F552F555F558F523
:0C1B350050F551F553F554F556F55722C4
:101A0900200005120CDC80F8E56660031206FCE58F
:101A1900676007AA6DA96E1206FCE5686007AA70DF
:081A2900A9711206FC021BEA80
:0B1BDF00200005120CDC80F8021B2522
:101BC000496E66696E697465001F111B0A0A0A0472
:011BD0000410
:101BAA00C2B2D2B3D2B47F067E0012000EA2A792AE
:051BBA0007C2B4A20700
:011BBF002203
:101AA1008F4F121BAA40FBC2B2C2B3C2B4854FA072
:101AB1007F067E0012000ED2B47F067E0012000E59
:031AC100C2B4228A
:0E1BD100ED60054307C08003430780021AA1A0
:10193700AE08AF097C007D641204A67F0A7E00CF43
:0C194700CDCFCECCCE1204A6EF2430FF92
:101953008F4F121BAA40FBD2B2C2B3C2B4854FA0B1
:101963007F067E0012000ED2B47F067E0012000EA8
:03197300C2B422D9
:1016DC007F0F7E00121AC47F38121AA17F057E007C
:1016EC00121AC47F38121AA17F057E00121AC47F09
:1016FC0038121AA17F057E00121AC47F0C121AA18F
:10170C007F057E00121AC47F06121AA17F057E0087
:10171C00121AC47F40121AA1E4F540E540901BC98F
:10172C0093FF1219530540E540C3940840ED7F0127
:10173C00121AA17F057E00121AC4E4FDFF021BD110
:050003007F01021AA1BB
:0A1BF4008B42121BD1AF42021953BD
:1014A00012021F8F478E468D458C441203788E0E94
:1014B0008F0FAC0EAD0FEC12033FA804A905AA06CE
:1014C000AB07AF47AE46AD45AC44120021E4FBFA92
:1014D000797A78441201161203788E088F09AE0EBD
:1014E000EE3395E0850F4D8E4CF54BF54AAD43AF8D
:0114F00042B9
:1014F100E4F54E121BD1E47B0AFAF9F8AF4DAE4C7C
:10150100AD4BAC4A120567AF03AE4E054E74822E49
:10151100F8A607AF4DAE4CAD4BAC4AE47B0AFAF9E5
:10152100F81205678F4D8E4C8D4B8C4AEC4D4E4F0A
:1015310070C4E54E6010154E7482254EF8E62430D5
:06154100FF12195380ECBB
:011547002281
:0815D4008F428D438A448B45D0
:1015DC00E4750D01F50CF50BF50A754701E547C3EC
:1015EC009546501DAF0DAE0CAD0BAC0AE47B0AFA60
:1015FC00F9F81204DC8F0D8E0C8D0B8C0A054780CC
:10160C00DCAD43AF42121BD1AF461546EF603FAE87
:10161C0044AF45E4FCFDAB0DAA0CA90BA80A1205BE
:10162C006712194FAE44AF45AC0CAD0D1204518C82
:10163C00448D45AF0DAE0CAD0BAC0AE47B0AFAF948
:0E164C00F81205678F0D8E0C8D0B8C0A80BA7C
:01165A00226D
:100B8B008F428D43E4FFFEFDFCAB47AA46A945A867
:100B9B00441202BC60025010E4F54DF54CF54BF5D8
:100BAB004AAD43AF420214F17F287E6B7D6E7C4EC3
:100BBB00AB47AA46A945A8441202BC400D7BFF7A5D
:100BCB001B79C0AD43AF42021A317F007E247D7486
:100BDB007C49AB47AA46A945A8441202BC403DAF8D
:100BEB0047AE46AD45AC447B007A24797478491204
:100BFB0014A07F2E121953AE08AF097C007D64122E
:100C0B00194C121937AE08AF097C007D0A1204A6E5
:100C1B00ED2430FF1219537F4D020CD8E4FFFE7DFB
:100C2B007A7C44AB47AA46A945A8441202BCAF47FD
:100C3B00AE46AD45AC4460364034E4FBFA797A7885
:100C4B00441214A07F2E121953AE08AF097C007DFD
:100C5B006412194C121937AE08AF097C007D0A12C9
:100C6B0004A6ED2430FF1219537F4B020CD812034C
:100C7B00788E0E8F0FAC0EAD0FEC12033FA804A9AC
:100C8B0005AA06AB07AF47AE46AD45AC44120021F3
:100C9B007B007A40791C78461214D47F2E1219539C
:100CAB00AE08AF097C037DE812194CAE08AF097C86
:100CBB00037DE81204A67F64121944121937AE089B
:100CCB00AF097C007D0A1204A6ED2430FF121953E4
:010CDB0022F6
:101A31008B488A49894A121BD1AB48AA49A94A1243
:101A410003F9FF60101219537401254AF54AE43570
:061A510049F54980E42282
:0A18AF008F428D438B448A45894621
:1018B900E4FF121BD1E4F5477F201219530547E5D0
:1018C90047C3941040F2AD43AF42121BD1AB44AAB7
:1018D90045A9461203F9FF601012195374012546F0
:0918E900F546E43545F54580E4BF
:0118F20022D3
:101806008B408A4189427F01121AA1E4FDFF121B17
:10181600D1AB40AA41A9421203F960130542E54241
:101826007002054114F91203F9FF12195380E27D83
:1018360001E4FF121BD1AB43AA44A9451203F96088
:10184600130545E5457002054414F91203F9FF1224
:05185600195380E2229D
:021B78008B40A0
:101B7A00121BD1E4F541E541C3954050097F20127B
:061B8A001953054180F033
:011B90002232
:051BFE007F0F021AA197
:051C03007F0C021AA194
:10165B004D656172737572696E672E2E2E00437223
:10166B006F73732050726F62657320416E6400500C
:10167B007265737320416E7920427574746F6E00BE
:10168B00506C65617365205761697400546F20530A
:10169B0077697463682043617000536574205A65E1
:1016AB00726F0046696E6973686564004C4F570032
:1016BB00484947480050726F63657373696E672EB4
:1016CB002E2E00523D00496E20004F757400FF1600
:0116DB005BB3
:021B0700C18299
:101B4100121AE6121238C2051219AC120CDC30005E
:0C1B51000312174C3004F412115480EF02
:101AE6007592477591B8E4F5B275B120C292C2916C
:101AF600C2901216DC121A57121B251213EE021987
:011B0600E0FE
:10123800D2B7D2057543FF75441675457A7BFF7A98
:10124800167969121806121BDF7543FF7544167567
:10125800458B9016D9E493FB740193FA740293F9C1
:101268001218061219AC3004FD12104B78761206CB
:101278001878721206317543FF7544167545977BC9
:10128800FF7A16797A121806121BDFC2B77FE87E3A
:1012980003121AC41219AC3004FD12104B787612DE
:1012A8000618787E1206317543FF7544167545AEEB
:1012B8007BFF7A1679A5121806D2B77FE87E03124B
:1012C8001AC43002471200037BFF7A1679B7E4FD8F
:1012D800FF121A3178721206188F4D8E4C8D4B8C76
:1012E8004AE4FD7F061214F17BFF7A1679BB7D0173
:1012F800E4FF121A31787E1206188F4D8E4C8D4BF2
:0D1308008C4A7D017F061214F1121BDF22BA
:10174C00E56624FE6007047006B2028002B201E571
:10175C006724FE602A04702D121B257F03121B9137
:10176C00121976E4FF121B911219AC121B251200F0
:10177C00037BFF7A1679C0E4FDFF121A318006C292
:10178C0090C291C292E56824FE6010047013121B83
:10179C00257F03121B911217B08006D290D291D2E2
:0417AC0092021BEAA0
:1011540012104B1219AC1200037BFF7A1679CEE4FD
:10116400FDFF121A31787A1206188F478E468D4584
:101174008C44E4FD7F02120B8B3002167876120643
:10118400188F4D8E4C8D4B8C4A7D017F081214F1C3
:1011940080097B087D017F08121B7820010302125D
:1011A40037E4FBFD7F0F121BF4AB60AA5FA95EA8B6
:1011B4005DC000787A120618D000120021AB60AA34
:1011C4005FA95EA85D12021FAB65AA64A963A86249
:1011D4001202BC6051404FAB60AA5FA95EA85DC01B
:1011E40000787A120618D000120021AB60AA5FA919
:1011F4005EA85D12021FC004C005C006C007AF652B
:10120400AE64AD63AC62120329A804A905AA06ABB7
:1012140007D007D006D005D0041202BC50087BFFCB
:101224007A1679D180067BFF7A1679D57D01E4FFA1
:04123400121A312237
:041AC4008E428F437C
:101AC800E4F544F545C3E5459543E5449542500D95
:0D1AD800121B5D0545E54570EC054480E8F6
:011AE50022DE
:101B5D007F017E007D587C03ED1D70011CED4C70E6
:0A1B6D00F7EF1F70011EEF4E70EA43
:011B7700224B
:0D000E00EF4E600800EF1F70F71E80F42217
:101A5700D2AFD2A9D2ABD2B9C2BB758951C204E405
:101A6700F518F519F58AF58CF58BF58DC28CC28EB4
:051A7700F561D205221B
:101B91008F61C28CC28EEF14600B14600824027036
:091BA10007758951227589112292
:1019AC00C204E4F518F519E56114601514601A24E5
:1019BC00027020E4F58AF58CF58BF58DD28CD28EE5
:1019CC0022758DFF758BA48006758DFE758B33C2C9
:0419DC008CD28E22F9
:03001B0002185B6D
:10185B00C0E0C0F0C083C082C0D075D010E5611469
:10186B00600E14601714602D2403702D0519802948
:10187B00758DFF758BA40519D204801D758B33757F
:10188B008DFED2040519E519C39402400C7519009D
:10189B00120CDC8004C28CC28ED0D0D082D083D00C
:0418AB00F0D0E03267
:03000B00021A7C5A
:101A7C00C0E0C0D02005090518E518B40302800A9F
:101A8C0030050D0518E518B40306C28EC28CD204BD
:051A9C00D0D0D0E032C3
:100F3D00596573004E6F004465627567204D6F648F
:100F4D0065204F6E004176657267204D6F64652098
:100F5D004F6E005369657665204D6F6465204F6E49
:100F6D00005365742053696576650053746172741E
:100F7D0020506C6F740052657365742044657669FA
:100F8D006365004578697400446973636F6E6E65BF
:100F9D0063742050333700436F6E6E656374205059
:100FAD0033370007FF0F3D000000FF18F308FF0F58
:100FBD0041000000FF18F300002309FF0F3D000062
:100FCD0000FF18F30AFF0F41000000FF18F30000A7
:100FDD00350BFF0F3D000000FF18F30CFF0F410014
:100FED000000FF18F300002C00FF0F440000230049
:100FFD0000000DFF0F5200002C00000001FF0F60DC
:10100D0000003500000003FF0F6E000000FF0744D5
:10101D0004FF0F78000000FF0A1805FF0F83000082
:10102D0000FF17B006FF0F90000000FF000807003B
:0E103D000000FF0FF5FF103BFF0F95FF0FA403
:101B0900072302000000FF0FB0073502000000FFA5
:0B1B19000FC7072C02000000FF0FDECA
:1013EE00901042E493FB740193FA740293F9C003D4
:1013FE00C002C001900FC4E493FB740193FA74020F
:10140E0093F99000011206A3901042E493FB74012D
:10141E0093FA740293F9C003C002C001900FDBE48B
:10142E0093FB740193FA740293F99000011206A3D0
:10143E00901042E493FB740193FA740293F9C00383
:10144E00C002C001900FF2E493FB740193FA740290
:10145E0093F99000011206A3901042E493FB7401DD
:10146E0093FA7402938B3C8A3DF53EE4F521C20655
:10147E00C201F560F55FF55EF55DF565F564F56342
:10148E00F562F533F534752220F53FD202F52BF5D2
:02149E002A2200
:10197600901042E493FB740193FA7402938B3C8AB1
:101986003DF53EE4F521C206121315800E2006151C
:101996003000FA7F03121B91120E287F02121B9150
:0619A6001219AC80E822DA
:10131500120003E5216068E4FD7F01121BD1AB3C9F
:10132500AA3DA93E900004120673AF21EF3395E064
:10133500FE7C007D0A12043FE92FF9EA3EFA90FF90
:10134500F7120673E4FD7F01121A31AB3CAA3DA9E1
:101355003E900004120673AF21EF3395E0FE7C004A
:101365007D0A12043FE92FF9EA3EFA9000011206C0
:10137500737D017F01121A317B3E7D01E48065E4B6
:10138500FD7F01121BD1AB3CAA3DA93E9000041282
:101395000673AF21EF3395E0FE7C007D0A12043F12
:1013A500E92FF9EA3EFA900001120673E4FD7F0188
:1013B500121A31AB3CAA3DA93E900004120673AF48
:1013C50021EF3395E0FE7C007D0A12043FE92FF9F9
:1013D500EA3EFA90000B1206737D017F01121A3165
:0913E5007B3EE4FDFF121BF42223
:100E2800E566603024FE601D046003020F3AAB3CA7
:100E3800AA3DA93E1203F9FF0521E5218FF084851B
:100E4800F021020F37AB3CAA3DA93E1203F914F575
:100E580021020F37E567603024FE60260460030234
:100E68000F3A1521C3E52164809480500EAB3CAA4B
:100E78003DA93E1203F92521FF8002AF218F2102EF
:100E88000F37E4F521020F37E56824FE607B046024
:100E980003020F3AAB3CAA3DA93E90000412067328
:100EA800AF21EF3395E0FE7C007D0A12043FE92F65
:100EB800F9EA3EFA900004120673E94A4B6023AB44
:100EC8003CAA3DA93E900004120673E92FF9EA3EB8
:100ED800FA9000041206738B3C8A3D893EE4F521A2
:100EE800804D121B25D206AB3CAA3DA93E900004BA
:100EF800120673E52175F00AA429F9E43AFA90007C
:100F0800071206731206FC8029AB3CAA3DA93E9045
:100F18000001120673E94A4B6018AB3CAA3DA93E92
:100F28009000011206738B3C8A3D893EE4F521123C
:050F38001315021BEA85
:0100080022D5
:1017B00075400B7541B8C290C291C2927F02121B54
:1017C000911219ACE5414540602F300424C204E574
:1017D00041154170021540E541B4D009E540B40718
:1017E00004D292800CE541B4E807E540B40302D28C
:1017F000913000D0C291C29222D2907FF47E011229
:051800001AC475E76049
:0118050022C0
:1018F300AB3CAA3DA93E900004120673AF21EF331F
:1019030095E08F82F583740A12066212041224F89A
:10191300601314601314601314601314601324050C
:101923007011D20222C20222D20122C20122D203A8
:0419330022C20322A7
:100A1800120003D2B77FF47E01121AC4901045E485
:100A280093FB740193FA740293F9E4FDFF1218AF73
:100A3800121BDF9016D9E493FB740193FA740293A6
:100A4800F9E4FDFF1218AFE4F52BF52A805F3004B6
:100A5800FDE52B64116060E519B4C905052A75190F
:100A680001E52B2407FFE433FED3E5199FEE6480EC
:100A7800F87480985004D2B78002C2B7E52AB464EB
:100A8800CDC2B7E4F52AFF121B911219AC3004FD50
:100A980012104B787A120618AB2B052BEB25E025A4
:100AA800E02400F582E43400F58312063D7F01124C
:100AB8001B911219AC8097E4F540F541120003E54B
:100AC8004025E025E02400F582E43400F583E0FCCD
:100AD800A3E0FDA3E0FEA3E0F5478E468D458C44D8
:100AE800E4FDFF120B8B7F02121B911219ACE5413A
:100AF80070773000F9E566601924FE601004703DD7
:100B08000540E54075F0118485F04080307540104F
:100B1800802BE567601F24FE60160470201540E5F1
:100B280040C3940050047F108002AF408F40800D76
:100B3800E4F5408008E568147003754101E5402537
:100B4800E025E02400F582E43400F583E0FCA3E02E
:100B5800FDA3E0FEA3E0F5478E468D458C44E4FDF9
:100B6800FF120B8B121BEA8085901048E493FB74EC
:100B78000193FA740293F9E4FDFF1218AF121BDF18
:020B8800D2B7E2
:010B8A002248
:10074400E4F540F541120003754603AB34AA33E4E3
:10075400FDFF1215D4AB22E4FD7F03121BF47B5E74
:100764007D01AF40121BF47F02121B911219ACE5FC
:100774004160030208973000F6E5667003020851F1
:1007840024FE604D04600302083CE5401460131429
:1007940060161460222403600302083CE5342464D8
:1007A400800AE534240A8004E5342401FFE4353367
:1007B400FE7C037DE88031E52224B5600D24FE60D3
:1007C4000E242D707375224B806E75224D806980C6
:1007D40064E54014601B1460441460592403705889
:1007E400AE33AF347C007D641204518C338D34807D
:1007F40047AE33AF347C007D641204517E007F0A1F
:10080400CFCDCFCECCCE1204517C007D0A12043F52
:10081400C3E5349FF534E5339EF533801BAE33AF27
:10082400347C007D0A120451C3E5349DF534E5336C
:100834009CF5338003752220754603AB34AA33E458
:10084400FDFF1215D4AB22E4FD7F038033E567601E
:10085400347B207D01AF40121BF4E56724FE600D5C
:100864000470170540E5405403F540800DE540B49D
:100874000305E4F54080037540037B5E7D01AF40D2
:10088400121BF48008E568147003754101121BEA19
:10089400020773E4F540F541120003E53FFB7A00DB
:1008A400754602E4FDFF1215D47B25E4FD7F021298
:1008B4001BF47B5E7D01AF40121BF4E54160030233
:1008C40009643000F6E566605B24FE60270470442A
:1008D400E54014601604703CE53F240AFFE433FE4F
:1008E4007C007D641204518D3F8029053FE53F75EE
:1008F400F064800DE54014600E047018E53F75F057
:100904000A8485F03F800DE53F75F00A84C3E53F16
:1009140095F0F53FE53FFB7A00754602E4FDFF12D2
:1009240015D48036E567602A7B207D01AF40121B19
:10093400F4E56724FE600D04700D0540E5405401A4
:10094400F5408003E4F5407B5E7D01AF40121BF46B
:100954008008E568147003754101121BEA0208BFA0
:10096400E52224B5601224FE6022242D7039AC33B4
:10097400AD34E412033F8027AC33AD34E412033FBB
:10098400E4FBFA797A78441201168013AC33AD345F
:10099400E412033F7B007A24797478491201168F9C
:1009A400608E5F8D5E8C5DAC3FE4120344E4FBFA21
:1009B40079C8784212021F8F658E648D638C62122F
:1009C4000003754603AB34AA33E4FDFF1215D4AB20
:1009D40022E4FD7F03121BF4E53FFB7A0075460217
:1009E4007D01E4FF1215D4856047855F46855E4529
:1009F400855D44E4FD7F08120B8B8565478564465D
:100A04008563458562447D017F08120B8B7FB87E28
:040A14000B021AC4F3
:10104B00AF8DE4FCFDFEFB7A01F9F81204DCC00461
:10105B00C005C006C007AF19E4FCFDFEFBFA790121
:10106B00F81204DCD003D002D001D000EF2BFBEE42
:10107B003AFAED39F9EC38F8AF8BE4FCFDFEEB2FC7
:10108B00FFEE3AFEED39FDEC38FC7876120631E4D2
:10109B007F0FFEFDFC7876120624D3120607500A4A
:1010AB00787A120649501502F922787630B72E124B
:1010BB000618E412033AA804A905AA06AB07E4FF35
:1010CB00FE7D807C3F12021F7B9C7AE47926784C54
:1010DB001201167B007AC079F278C4802C120618A4
:1010EB00E412033AA804A905AA06AB07E4FFFE7DA8
:1010FB00807C3F12021F7B907A9B791578501201EE
:10110B00167B007A7079B778C7120025787A1206A9
:10111B003130B716E47F5E7E01FDFC787612062433
:10112B00C31206075004C2B7801720B71BE47FF920
:10113B007EFFFDFC7876120624D31206074009D2F7
:09114B00B77FF47E01121AC422E0
:1019E000D2B7787A120649000000007876120649CC
:1019F00000000000787212064900000000787E1294
:091A0000064900000000C20322A7
:10001E000203E4E86480F8E933E83360110460F029
:10002E00ED33EC337009E8FCE9FDEAFEEBFF220448
:10003E0060DED3EB9FEA9EE99DE8C2E78CF0C2F743
:10004E0095F0400CE8CCF8E9CDF9EACEFAEBCFFB0F
:10005E001203AF85D0F05804700320D5B3E80470B6
:10006E00075002B2D50203EE92D5EC0460F7E4CC51
:10007E00C0E0C398F8603B94186008400DD0E0FBD8
:10008E000203C6E4FBFAC9FC8028E830E406E4C9A2
:10009E00FBE4CAFCE830E305E4C9CACBFCE854072C
:1000AE006010F8C3E913F9EA13FAEB13FBEC13FC37
:1000BE00D8F130F52FC3E49CFCEF9BFFEE9AFEEDDA
:1000CE0099FDD0E0FBEF4E4D4C701222DB03020384
:1000DE00EBEC2CFCEF33FFEE33FEED33FDED30E7B2
:1000EE00EB0203C6EF2BFFEE3AFEED39FDD0E0FB3F
:1000FE0050130BBB00030203EEED13FDEE13FEEFE8
:08010E0013FFEC13FC0203C611
:10011600EC4D6011E8497017ED33EC3304600DE4E3
:10012600FCFFFEFD22E933E8330470F80203E41213
:1001360003AF58046009E4CC248150062850090214
:1001460003EE2840030203EBC0E0EB4A7044B9809B
:1001560006D0E0FB0203DAEF4E701CBD8008EBFF11
:10016600EAFEE9FD80EBE98DF0A4FEE5F00201FF71
:10017600E9CDF9EAFEEBFFEF89F0A4FCE5F0CE89C4
:10018600F0A42EFFE435F0CD89F0A42DFEE435F081
:100196008067EF4E7005BD80D780C3EF8BF0A4ACAF
:1001A600F0EE8BF0A42CFCE435F0F8EF8AF0A42CEA
:1001B600E5F038FCE433CB8DF0A42CFCE5F03BF8FD
:1001C600EE8AF0A42CFCE5F038F8E433CF89F0A4ED
:1001D6002CFCE5F038CF3400CE89F0A42FFFE5F0F3
:1001E6003EFEE433C98DF0A42EFEE5F039CD8AF04B
:1001F600A42FFFE5F03EFEE43DFD33D0E0FB5007C3
:100206000BBB000F0203EEEC2CFCEF33FFEE33FECC
:06021600ED33FD0203C6FA
:10021C000203EEEC5D046005E8590470030203E48C
:10022C001203AF580460F6EC4860F2EC7004FDFE6B
:10023C00FF22C860DB2481C85009C39860025006B5
:10024C000203EB9850CAF582E9294B4A7005AB8240
:10025C000203DA75F0007C1A7880C3EF9BEE9AEDFE
:10026C0099400DC3EF9BFFEE9AFEED99FDE842F02D
:10027C00DC23ACF0D0E0FFD0E0FED0E0FDAB822080
:10028C00E7101BEB60BAEC2CFCEF33FFEE33FEED0A
:10029C0033FD0203C6E803F830E705C0F075F00043
:1002AC00EF2FFFEE33FEED33FD40B830E7C280AAEE
:1002BC0074F8CC6480CCC86480C8F582046043C3F5
:1002CC00EB9FF5F0EA9E42F0E99D42F0E89C45F088
:1002DC0060305018E5825FFFE582F42B5582FB50AD
:1002EC00210ABA001D09B90019088016E5825BFBCA
:1002FC00E582F42F5582FF50090EBE00050DBD009E
:10030C00010CC3EB9FF5F0EA9E42F0E99D42F0E848
:0D031C009C45F06007CC4820E701B3EC22BF
:10032900ED33EC33600A047003BD8004ECB2E7FCE2
:0103390022A1
:10033A0075F020800E75F010800575F0087D007E3E
:10034A00007F003392D530D5031205F9EC33401003
:10035A00EF33FFEE33FEED33FDEC33FCD5F0ED2247
:0E036A00E5F0247EA2D513CC92E7CDCEFF2283
:10037800EDD2E7CD33EC3392D524814006E4FFFE7D
:10038800FDFC22FCE4CFCECDCC24E0501174FF80DC
:10039800EDC3CC13CCCD13CDCE13CECF13CF047079
:0703A800F030D5DE0205F97B
:1003AF00E9D2E7C933E833F892D5EDD2E7CD33EC94
:0703BF0033FC5002B2D5220D
:1003C600EC30E7100FBF000C0EBE00080DBD000498
:1003D6000BEB6014A2D5EB13FCED92E7FD2274FF44
:1003E600FCFDFEFF22E480F8A2D574FF13FC7D809D
:0303F600E480EFB1
:10155400021B41E493A3F8E493A34003F68001F251
:1015640008DFF48029E493A3F85407240CC8C33398
:10157400C4540F4420C8834004F456800146F6DF67
:10158400E4800B0102040810204080901B07E47ED5
:10159400019360BCA3FF543F30E509541FFEE4935C
:1015A400A360010ECF54C025E060A840B8E493A323
:1015B400FAE493A3F8E493A3C8C582C8CAC583CA4E
:1015C400F0A3C8C582C8CAC583CADFE9DEE780BE06
:011B240000C0
:1003F900BB010689828A83E0225002E722BBFE0202
:09040900E32289828A83E4932234
:10041200BB010CE58229F582E5833AF583E022509F
:1004220006E92582F8E622BBFE06E92582F8E222E9
:0D043200E58229F582E5833AF583E4932203
:10043F00EF8DF0A4A8F0CF8CF0A428CE8DF0A42ED1
:02044F00FE228B
:10045100BC000BBE0029EF8DF084FFADF022E4CC8F
:10046100F875F008EF2FFFEE33FEEC33FCEE9DEC58
:10047100984005FCEE9DFE0FD5F0E9E4CEFD22ED9E
:10048100F8F5F0EE8420D21CFEADF075F008EF2FE8
:10049100FFED33FD4007985006D5F0F222C398FDD9
:0504A1000FD5F0EA2276
:1004A600C2D5EC30E709B2D5E4C39DFDE49CFCEE71
:1004B60030E715B2D5E4C39FFFE49EFE120451C394
:1004C600E49DFDE49CFC800312045130D507C3E48F
:0604D6009FFFE49EFE22E0
:1004DC00E88FF0A4CC8BF0A42CFCE98EF0A42CFCBF
:1004EC008AF0EDA42CFCEA8EF0A4CDA8F08BF0A43D
:1004FC002DCC3825F0FDE98FF0A42CCD35F0FCEB9C
:10050C008EF0A4FEA9F0EB8FF0A4CFC5F02ECD3960
:0F051C00FEE43CFCEAA42DCE35F0FDE43CFC22CD
:10052B0075F008758200EF2FFFEE33FECD33CDCC87
:10053B0033CCC58233C5829BED9AEC99E58298400A
:10054B000CF582EE9BFEED9AFDEC99FC0FD5F0D6E7
:10055B00E4CEFBE4CDFAE4CCF9A88222B800C1B911
:10056B000059BA002DEC8BF084CFCECDFCE5F0CB4F
:10057B00F97818EF2FFFEE33FEED33FDEC33FCEB88
:10058B0033FB10D703994004EB99FB0FD8E5E4F943
:10059B00FA227818EF2FFFEE33FEED33FDEC33FC30
:1005AB00C933C910D7059BE99A4007EC9BFCE99A24
:1005BB00F90FD8E0E4C9FAE4CCFB2275F010EF2F69
:1005CB00FFEE33FEED33FDCC33CCC833C810D70769
:1005DB009BEC9AE899400AED9BFDEC9AFCE899F8A4
:0E05EB000FD5F0DAE4CDFBE4CCFAE4C8F92237
:0E05F900C3E49FFFE49EFEE49DFDE49CFC2213
:10060700EB9FF5F0EA9E42F0E99D42F0E89C45F049
:0106170022C0
:0C061800E6FC08E6FD08E6FE08E6FF220E
:0D062400E6FB08E6F908E6FA08E6CBF82246
:0C063100ECF608EDF608EEF608EFF622F5
:0C063D00ECF0A3EDF0A3EEF0A3EFF02230
:10064900D083D082E493F608740193F60874029378
:09065900F608740393F6740473AF
:10066200F5F0C582A4C582C5F0C583A42583F583B0
:010672002265
:10067300BB010DE58229F582E5833AF58302071470
:100683005007E92582F8020702BBFE07E92582F835
:10069300020726E58229F582E5833AF583020738C6
:1006A300BB0120E58229F582E5833AF583D0F0D0BA
:1006B300E0F8D0E0F9D0E0FAD0E0FBE8C0E0C0F029
:1006C30002071D5018E92582F8D083D082D0E0F9C3
:1006D300D0E0FAD0E0FBC082C08302070BBBFE1858
:1006E300E92582F8D083D082D0E0F9D0E0FAD0E0D7
:0906F300FBC082C08302072F2224
:0606FC008A838982E47389
:09070200E6FB08E6FA08E6F9221C
:09070B00EBF608EAF608E9F62213
:09071400E0FBA3E0FAA3E0F922E6
:09071D00EBF0A3EAF0A3E9F022DD
:09072600E2FB08E2FA08E2F92204
:09072F00EBF208EAF208E9F222FB
:0C073800E493FB740193FA740293F9221D
:00000001FF
