:03000000021523C3
:0C152300787FE4F6D8FD75818B02156A14
:100B8B00E561B4020E755B00755C01755907755A0A
:100B9B00D0800C755B00755C327559EA755A60E54F
:100BAB005214601214602F14605424037056209555
:100BBB0053755201801930950280460551E55170ED
:100BCB00020550D3955CE550955B4038755202E4B5
:100BDB00F550F551802E30950AE4F552756601D229
:100BEB000080210551E55170020550D3955AE5500F
:100BFB0095594010756602D20075520380063095E8
:100C0B0003E4F552E55514601214602F146054245C
:100C1B000370562094537555018019309402804609
:100C2B000554E55470020553D3955CE553955B4031
:100C3B0038755502E4F553F554802E30940AE4F5DB
:100C4B0055756701D20080210554E5547002055398
:100C5B00D3955AE55395594010756702D2007555D7
:100C6B00038006309403E4F555E5581460121460C4
:100C7B002E14605124037053209350755801801922
:100C8B0030930280430557E55770020556D3955CA8
:100C9B00E556955B4035755802E4F556F55722300D
:100CAB009309E4F558756801D200220557E5577092
:100CBB00020556D3955AE5569559400F756802D2E1
:0C0CCB000075580322309303E4F5582212
:0A1BC500E4F566F567F568C200223A
:101B0000E4F566F567F568C200F552F555F558F548
:0C1B100050F551F553F554F556F55722E9
:1019E400200005120B8B80F8E56660031206FCE507
:1019F400676007AA6DA96E1206FCE5686007AA7005
:081A0400A9711206FC021BC5CA
:0B1BBA00200005120B8B80F8021B00BE
:101B9B00496E66696E697465001F111B0A0A0A0497
:011BAB000435
:101B8500C2B2D2B3D2B47F067E0012000EA2A792D3
:051B950007C2B4A20725
:011B9A002228
:101A7C008F4F121B8540FBC2B2C2B3C2B4854FA0BC
:101A8C007F067E0012000ED2B47F067E0012000E7E
:031A9C00C2B422AF
:0E1BAC00ED60054307C08003430780021A7CEA
:10191200AE08AF097C007D641204A67F0A7E00CF68
:0C192200CDCFCECCCE1204A6EF2430FFB7
:10192E008F4F121B8540FBD2B2C2B3C2B4854FA0FB
:10193E007F067E0012000ED2B47F067E0012000ECD
:03194E00C2B422FE
:1016B7007F0F7E00121A9F7F38121A7C7F057E00EB
:1016C700121A9F7F38121A7C7F057E00121A9F7F9D
:1016D70038121A7C7F057E00121A9F7F0C121A7C23
:1016E7007F057E00121A9F7F06121A7C7F057E00F7
:1016F700121A9F7F40121A7CE4F540E540901BA424
:1017070093FF12192E0540E540C3940840ED7F0171
:10171700121A7C7F057E00121A9FE4FDFF021BACA4
:050003007F01021A7CE0
:0A1BCF008B42121BACAF4202192E2C
:10147B0012021F8F478E468D458C441203788E0EB9
:10148B008F0FAC0EAD0FEC12033FA804A905AA06F3
:10149B00AB07AF47AE46AD45AC44120021E4FBFAB7
:1014AB00797A78441201161203788E088F09AE0EE2
:1014BB00EE3395E0850F4D8E4CF54BF54AAD43AFB2
:0114CB0042DE
:1014CC00E4F54E121BACE47B0AFAF9F8AF4DAE4CC6
:1014DC00AD4BAC4A120567AF03AE4E054E74822E6F
:1014EC00F8A607AF4DAE4CAD4BAC4AE47B0AFAF90B
:1014FC00F81205678F4D8E4C8D4B8C4AEC4D4E4F30
:10150C0070C4E54E6010154E7482254EF8E62430FA
:06151C00FF12192E80EC05
:0115220022A6
:0815AF008F428D438A448B45F5
:1015B700E4750D01F50CF50BF50A754701E547C311
:1015C7009546501DAF0DAE0CAD0BAC0AE47B0AFA85
:1015D700F9F81204DC8F0D8E0C8D0B8C0A054780F1
:1015E700DCAD43AF42121BACAF461546EF603FAED2
:1015F70044AF45E4FCFDAB0DAA0CA90BA80A1205E4
:101607006712192AAE44AF45AC0CAD0D1204518CCC
:10161700448D45AF0DAE0CAD0BAC0AE47B0AFAF96D
:0E162700F81205678F0D8E0C8D0B8C0A80BAA1
:011635002292
:100CD7008F428D437F287E6B7D6E7C4EAB47AA4645
:100CE700A945A8441202BC400D7BFF7A1B799BAD36
:100CF70043AF42021A0C7F007E247D747C49AB47C8
:100D0700AA46A945A8441202BC403DAF47AE46AD2E
:100D170045AC447B007A247974784912147B7F2E82
:100D270012192EAE08AF097C007D6412192712191B
:100D370012AE08AF097C007D0A1204A6ED2430FF2D
:100D470012192E7F4D020E00E4FFFE7D7A7C44AB24
:100D570047AA46A945A8441202BCAF47AE46AD45CF
:100D6700AC4460364034E4FBFA797A784412147B59
:100D77007F2E12192EAE08AF097C007D6412192749
:100D8700121912AE08AF097C007D0A1204A6ED24E1
:100D970030FF12192E7F4B020E001203788E0E8F32
:100DA7000FAC0EAD0FEC12033FA804A905AA06ABC2
:100DB70007AF47AE46AD45AC441200217B007A40F1
:100DC700791C78461214AF7F2E12192EAE08AF0980
:100DD7007C037DE8121927AE08AF097C037DE81272
:100DE70004A67F6412191F121912AE08AF097C00FE
:0D0DF7007D0A1204A6ED2430FF12192E22F1
:101A0C008B488A49894A121BACAB48AA49A94A128D
:101A1C0003F9FF601012192E7401254AF54AE435BA
:061A2C0049F54980E422A7
:0A188A008F428D438B448A45894646
:10189400E4FF121BACE4F5477F2012192E0547E53F
:1018A40047C3941040F2AD43AF42121BACAB44AA01
:1018B40045A9461203F9FF601012192E740125463A
:0918C400F546E43545F54580E4E4
:0118CD0022F8
:1017E1008B408A4189427F01121A7CE4FDFF121B62
:1017F100ACAB40AA41A9421203F960130542E5428C
:101801007002054114F91203F9FF12192E80E27DCD
:1018110001E4FF121BACAB43AA44A9451203F960D2
:10182100130545E5457002054414F91203F9FF1249
:05183100192E80E222E7
:021B53008B40C5
:101B5500121BACE4F541E541C3954050097F2012C5
:061B6500192E054180F07D
:011B6B002257
:051BD9007F0F021A7CE1
:051BDE007F0C021A7CDF
:101636004D656172737572696E672E2E2E00437248
:101646006F73732050726F62657320416E64005031
:101656007265737320416E7920427574746F6E00E3
:10166600506C65617365205761697400546F20532F
:1016760077697463682043617000536574205A6506
:10168600726F0046696E6973686564004C4F570057
:10169600484947480050726F63657373696E672ED9
:1016A6002E2E00523D00496E20004F757400FF1625
:0116B60036FD
:021AE200C182BF
:101B1C00121AC1121213C205121987120B8B300044
:0C1B2C00031217273004F412112F80EF71
:101AC1007592477591B8E4F5B275B120C292C29191
:101AD100C2901216B7121A32121B001213C9021940
:011AE100BB49
:10121300D2B7D2057543FF7544167545557BFF7AE2
:101223001679441217E1121BBA7543FF75441675FC
:1012330045669016B4E493FB740193FA740293F930
:101243001217E11219873004FD121027787612065F
:101253001878721206317543FF7544167545727B13
:10126300FF7A1679551217E1121BBAC2B77FE87ECF
:1012730003121A9F1219873004FD12102778761271
:101283000618787E1206317543FF75441675458935
:101293007BFF7A1679801217E1D2B77FE87E0312BB
:1012A3001A9F3002471200037BFF7A167992E4FDFE
:1012B300FF121A0C78721206188F4D8E4C8D4B8CC0
:1012C3004AE4FD7F061214CC7BFF7A1679967D01E2
:1012D300E4FF121A0C787E1206188F4D8E4C8D4B3C
:0D12E3008C4A7D017F061214CC121BBA222A
:10172700E56624FE6007047006B2028002B201E596
:101737006724FE602A04702D121B007F03121B6CA6
:10174700121951E4FF121B6C121987121B001200A9
:10175700037BFF7A16799BE4FDFF121A0C8006C201
:1017670090C291C292E56824FE6010047013121BA8
:10177700007F03121B6C12178B8006D290D291D276
:0417870092021BC5EA
:10112F001210271219871200037BFF7A1679A9E490
:10113F00FDFF121A0C787A1206188F478E468D45CE
:10114F008C44E4FD7F02120CD7300216787612061B
:10115F00188F4D8E4C8D4B8C4A7D017F081214CC0D
:10116F0080097B087D017F08121B532001030212A7
:10117F0012E4FBFD7F0F121BCFAB60AA5FA95EA825
:10118F005DC000787A120618D000120021AB60AA59
:10119F005FA95EA85D12021FAB65AA64A963A8626E
:1011AF001202BC6051404FAB60AA5FA95EA85DC040
:1011BF0000787A120618D000120021AB60AA5FA93E
:1011CF005EA85D12021FC004C005C006C007AF6550
:1011DF00AE64AD63AC62120329A804A905AA06ABDD
:1011EF0007D007D006D005D0041202BC50087BFFF1
:1011FF007A1679AC80067BFF7A1679B07D01E4FF11
:04120F00121A0C2281
:041A9F008E428F43A1
:101AA300E4F544F545C3E5459543E5449542500DBA
:0D1AB300121B380545E54570EC054480E840
:011AC0002203
:101B38007F017E007D587C03ED1D70011CED4C700B
:0A1B4800F7EF1F70011EEF4E70EA68
:011B52002270
:0D000E00EF4E600800EF1F70F71E80F42217
:101A3200D2AFD2A9D2ABD2B9C2BB758951C204E42A
:101A4200F518F519F58AF58CF58BF58DC28CC28ED9
:051A5200F561D2052240
:101B6C008F61C28CC28EEF14600B1460082402705B
:091B7C00077589512275891122B7
:10198700C204E4F518F519E56114601514601A240A
:10199700027020E4F58AF58CF58BF58DD28CD28E0A
:1019A70022758DFF758BA48006758DFE758B33C2EE
:0419B7008CD28E221E
:03001B0002183692
:10183600C0E0C0F0C083C082C0D075D010E561148E
:10184600600E14601714602D2403702D051980296D
:10185600758DFF758BA40519D204801D758B3375A4
:101866008DFED2040519E519C39402400C751900C2
:10187600120B8B8004C28CC28ED0D0D082D083D083
:04188600F0D0E0328C
:03000B00021A577F
:101A5700C0E0C0D02005090518E518B40302800AC4
:101A670030050D0518E518B40306C28EC28CD204E2
:051A7700D0D0D0E032E8
:100F1900596573004E6F004465627567204D6F64B3
:100F290065204F6E004176657267204D6F646520BC
:100F39004F6E005369657665204D6F6465204F6E6D
:100F49000053657420536965766500537461727442
:100F590020506C6F7400526573657420446576691E
:100F69006365004578697400446973636F6E6E65E3
:100F790063742050333700436F6E6E65637420507D
:100F890033370007FF0F19000000FF18CE08FF0FC5
:100F99001D000000FF18CE00002309FF0F190000F3
:100FA90000FF18CE0AFF0F1D000000FF18CE000039
:100FB900350BFF0F19000000FF18CE0CFF0F1D00A5
:100FC9000000FF18CE00002C00FF0F2000002300B6
:100FD90000000DFF0F2E00002C00000001FF0F3C48
:100FE90000003500000003FF0F4A000000FF07441E
:100FF90004FF0F54000000FF0A1805FF0F5F0000EF
:1010090000FF178B06FF0F6C000000FF00080700A8
:0E1019000000FF0FD1FF1017FF0F71FF0F80B7
:101AE400072302000000FF0F8C073502000000FFEF
:0B1AF4000FA3072C02000000FF0FBA38
:1013C90090101EE493FB740193FA740293F9C0031D
:1013D900C002C001900FA0E493FB740193FA740258
:1013E90093F99000011206A390101EE493FB740177
:1013F90093FA740293F9C003C002C001900FB7E4D5
:1014090093FB740193FA740293F99000011206A3F5
:1014190090101EE493FB740193FA740293F9C003CC
:10142900C002C001900FCEE493FB740193FA7402D9
:1014390093F99000011206A390101EE493FB740126
:1014490093FA7402938B3C8A3DF53EE4F521C2067A
:10145900C201F560F55FF55EF55DF565F564F56367
:10146900F562F533F534752220F53FD202F52BF5F7
:021479002A2225
:1019510090101EE493FB740193FA7402938B3C8AFA
:101961003DF53EE4F521C2061212F0800E20061567
:101971003000FA7F03121B6C120E047F02121B6CE3
:0619810012198780E82224
:1012F000120003E5216068E4FD7F01121BACAB3CEA
:10130000AA3DA93E900004120673AF21EF3395E089
:10131000FE7C007D0A12043FE92FF9EA3EFA90FFB5
:10132000F7120673E4FD7F01121A0CAB3CAA3DA92B
:101330003E900004120673AF21EF3395E0FE7C006F
:101340007D0A12043FE92FF9EA3EFA9000011206E5
:10135000737D017F01121A0C7B3E7D01E48065E400
:10136000FD7F01121BACAB3CAA3DA93E90000412CC
:101370000673AF21EF3395E0FE7C007D0A12043F37
:10138000E92FF9EA3EFA900001120673E4FD7F01AD
:10139000121A0CAB3CAA3DA93E900004120673AF92
:1013A00021EF3395E0FE7C007D0A12043FE92FF91E
:1013B000EA3EFA90000B1206737D017F01121A0CAF
:0913C0007B3EE4FDFF121BCF226D
:100E0400E566603024FE601D046003020F16AB3CEF
:100E1400AA3DA93E1203F9FF0521E5218FF084853F
:100E2400F021020F13AB3CAA3DA93E1203F914F5BD
:100E340021020F13E567603024FE6026046003027C
:100E44000F161521C3E52164809480500EAB3CAA93
:100E54003DA93E1203F92521FF8002AF218F210213
:100E64000F13E4F521020F13E56824FE607B046090
:100E740003020F16AB3CAA3DA93E90000412067370
:100E8400AF21EF3395E0FE7C007D0A12043FE92F89
:100E9400F9EA3EFA900004120673E94A4B6023AB68
:100EA4003CAA3DA93E900004120673E92FF9EA3EDC
:100EB400FA9000041206738B3C8A3D893EE4F521C6
:100EC400804D121B00D206AB3CAA3DA93E90000403
:100ED400120673E52175F00AA429F9E43AFA9000A0
:100EE400071206731206FC8029AB3CAA3DA93E906A
:100EF4000001120673E94A4B6018AB3CAA3DA93EB7
:100F04009000011206738B3C8A3D893EE4F5211260
:050F140012F0021BC5F4
:0100080022D5
:10178B0075400B7541B8C290C291C2927F02121B79
:10179B006C121987E5414540602F300424C204E5E3
:1017AB0041154170021540E541B4D009E540B4073D
:1017BB0004D292800CE541B4E807E540B40302D2B1
:1017CB00913000D0C291C29222D2907FF47E01124E
:0517DB001A9F75E76094
:0117E00022E6
:1018CE00AB3CAA3DA93E900004120673AF21EF3344
:1018DE0095E08F82F583740A12066212041224F8C0
:1018EE006013146013146013146013146013240532
:1018FE007011D20222C20222D20122C20122D203CE
:04190E0022C20322CC
:100A1800120003D2B77FF47E01121A9F901021E4CE
:100A280093FB740193FA740293F9E4FDFF12188A98
:100A3800121BBA9016B4E493FB740193FA740293F0
:100A4800F9E4FDFF12188AE4F52BF52A805F3004DB
:100A5800FDE52B64116060E519B4C905052A75190F
:100A680001E52B2407FFE433FED3E5199FEE6480EC
:100A7800F87480985004D2B78002C2B7E52AB464EB
:100A8800CDC2B7E4F52AFF121B6C1219873004FD9A
:100A9800121027787A120618AB2B052BEB25E025C8
:100AA800E02400F582E43400F58312063D7F01124C
:100AB8001B6C1219878097E4F540F541120003E595
:100AC8004025E025E02400F582E43400F583E0FCCD
:100AD800A3E0FDA3E0FEA3E0F5478E468D458C44D8
:100AE800E4FDFF120CD77F02121B6C121987E54137
:100AF80070773000F9E566601924FE601004703DD7
:100B08000540E54075F0118485F04080307540104F
:100B1800802BE567601F24FE60160470201540E5F1
:100B280040C3940050047F108002AF408F40800D76
:100B3800E4F5408008E568147003754101E5402537
:100B4800E025E02400F582E43400F583E0FCA3E02E
:100B5800FDA3E0FEA3E0F5478E468D458C44E4FDF9
:100B6800FF120CD7121BC58085901024E493FB74E8
:100B78000193FA740293F9E4FDFF12188A121BBA62
:020B8800D2B7E2
:010B8A002248
:10074400E4F540F541120003754603AB34AA33E4E3
:10075400FDFF1215AFAB22E4FD7F03121BCF7B5EBE
:100764007D01AF40121BCF7F02121B6C121987E56B
:100774004160030208973000F6E5667003020851F1
:1007840024FE604D04600302083CE5401460131429
:1007940060161460222403600302083CE5342464D8
:1007A400800AE534240A8004E5342401FFE4353367
:1007B400FE7C037DE88031E52224B5600D24FE60D3
:1007C4000E242D707375224B806E75224D806980C6
:1007D40064E54014601B1460441460592403705889
:1007E400AE33AF347C007D641204518C338D34807D
:1007F40047AE33AF347C007D641204517E007F0A1F
:10080400CFCDCFCECCCE1204517C007D0A12043F52
:10081400C3E5349FF534E5339EF533801BAE33AF27
:10082400347C007D0A120451C3E5349DF534E5336C
:100834009CF5338003752220754603AB34AA33E458
:10084400FDFF1215AFAB22E4FD7F038033E5676043
:10085400347B207D01AF40121BCFE56724FE600D81
:100864000470170540E5405403F540800DE540B49D
:100874000305E4F54080037540037B5E7D01AF40D2
:10088400121BCF8008E568147003754101121BC563
:10089400020773E4F540F541120003E53FFB7A00DB
:1008A400754602E4FDFF1215AF7B25E4FD7F0212BD
:1008B4001BCF7B5E7D01AF40121BCFE5416003027D
:1008C40009643000F6E566605B24FE60270470442A
:1008D400E54014601604703CE53F240AFFE433FE4F
:1008E4007C007D641204518D3F8029053FE53F75EE
:1008F400F064800DE54014600E047018E53F75F057
:100904000A8485F03F800DE53F75F00A84C3E53F16
:1009140095F0F53FE53FFB7A00754602E4FDFF12D2
:1009240015AF8036E567602A7B207D01AF40121B3E
:10093400CFE56724FE600D04700D0540E5405401C9
:10094400F5408003E4F5407B5E7D01AF40121BCF90
:100954008008E568147003754101121BC50208BFC5
:10096400E52224B5601224FE6022242D7039AC33B4
:10097400AD34E412033F8027AC33AD34E412033FBB
:10098400E4FBFA797A78441201168013AC33AD345F
:10099400E412033F7B007A24797478491201168F9C
:1009A400608E5F8D5E8C5DAC3FE4120344E4FBFA21
:1009B40079C8784212021F8F658E648D638C62122F
:1009C4000003754603AB34AA33E4FDFF1215AFAB45
:1009D40022E4FD7F03121BCFE53FFB7A007546023C
:1009E4007D01E4FF1215AF856047855F46855E454E
:1009F400855D44E4FD7F08120CD785654785644610
:100A04008563458562447D017F08120CD77FB87EDB
:040A14000B021A9F18
:10102700AF8DE4FCFDFEFB7A01F9F81204DCC00485
:10103700C005C006C007AF19E4FCFDFEFBFA790145
:10104700F81204DCD003D002D001D000EF2BFBEE66
:101057003AFAED39F9EC38F8AF8BE4FCFDFEEB2FEB
:10106700FFEE3AFEED39FDEC38FC7876120631E4F6
:10107700FFFEFDFC7876120624C3120607700A7875
:101087007A120649501502F922787630B72E1206E1
:1010970018E412033AA804A905AA06AB07E4FFFE61
:1010A7007D807C3F12021F7B9C7AE47926784C1264
:1010B70001167B007AC079F278C4802C120618E4F6
:1010C70012033AA804A905AA06AB07E4FFFE7D8030
:1010D7007C3F12021F7B907A9B791578501201167C
:1010E7007B007A7079B778C7120025787A120631B3
:1010F70030B716E47F5E7E01FDFC7876120624C3C6
:101107001206075004C2B7801720B71BE47FF97E89
:10111700FFFDFC7876120624D31206074009D2B7E2
:081127007FF47E01121A9F22E1
:1019BB00D2B7787A120649000000007876120649F1
:1019CB0000000000787212064900000000787E12B9
:0919DB00064900000000C20322CD
:10001E000203E4E86480F8E933E83360110460F029
:10002E00ED33EC337009E8FCE9FDEAFEEBFF220448
:10003E0060DED3EB9FEA9EE99DE8C2E78CF0C2F743
:10004E0095F0400CE8CCF8E9CDF9EACEFAEBCFFB0F
:10005E001203AF85D0F05804700320D5B3E80470B6
:10006E00075002B2D50203EE92D5EC0460F7E4CC51
:10007E00C0E0C398F8603B94186008400DD0E0FBD8
:10008E000203C6E4FBFAC9FC8028E830E406E4C9A2
:10009E00FBE4CAFCE830E305E4C9CACBFCE854072C
:1000AE006010F8C3E913F9EA13FAEB13FBEC13FC37
:1000BE00D8F130F52FC3E49CFCEF9BFFEE9AFEEDDA
:1000CE0099FDD0E0FBEF4E4D4C701222DB03020384
:1000DE00EBEC2CFCEF33FFEE33FEED33FDED30E7B2
:1000EE00EB0203C6EF2BFFEE3AFEED39FDD0E0FB3F
:1000FE0050130BBB00030203EEED13FDEE13FEEFE8
:08010E0013FFEC13FC0203C611
:10011600EC4D6011E8497017ED33EC3304600DE4E3
:10012600FCFFFEFD22E933E8330470F80203E41213
:1001360003AF58046009E4CC248150062850090214
:1001460003EE2840030203EBC0E0EB4A7044B9809B
:1001560006D0E0FB0203DAEF4E701CBD8008EBFF11
:10016600EAFEE9FD80EBE98DF0A4FEE5F00201FF71
:10017600E9CDF9EAFEEBFFEF89F0A4FCE5F0CE89C4
:10018600F0A42EFFE435F0CD89F0A42DFEE435F081
:100196008067EF4E7005BD80D780C3EF8BF0A4ACAF
:1001A600F0EE8BF0A42CFCE435F0F8EF8AF0A42CEA
:1001B600E5F038FCE433CB8DF0A42CFCE5F03BF8FD
:1001C600EE8AF0A42CFCE5F038F8E433CF89F0A4ED
:1001D6002CFCE5F038CF3400CE89F0A42FFFE5F0F3
:1001E6003EFEE433C98DF0A42EFEE5F039CD8AF04B
:1001F600A42FFFE5F03EFEE43DFD33D0E0FB5007C3
:100206000BBB000F0203EEEC2CFCEF33FFEE33FECC
:06021600ED33FD0203C6FA
:10021C000203EEEC5D046005E8590470030203E48C
:10022C001203AF580460F6EC4860F2EC7004FDFE6B
:10023C00FF22C860DB2481C85009C39860025006B5
:10024C000203EB9850CAF582E9294B4A7005AB8240
:10025C000203DA75F0007C1A7880C3EF9BEE9AEDFE
:10026C0099400DC3EF9BFFEE9AFEED99FDE842F02D
:10027C00DC23ACF0D0E0FFD0E0FED0E0FDAB822080
:10028C00E7101BEB60BAEC2CFCEF33FFEE33FEED0A
:10029C0033FD0203C6E803F830E705C0F075F00043
:1002AC00EF2FFFEE33FEED33FD40B830E7C280AAEE
:1002BC0074F8CC6480CCC86480C8F582046043C3F5
:1002CC00EB9FF5F0EA9E42F0E99D42F0E89C45F088
:1002DC0060305018E5825FFFE582F42B5582FB50AD
:1002EC00210ABA001D09B90019088016E5825BFBCA
:1002FC00E582F42F5582FF50090EBE00050DBD009E
:10030C00010CC3EB9FF5F0EA9E42F0E99D42F0E848
:0D031C009C45F06007CC4820E701B3EC22BF
:10032900ED33EC33600A047003BD8004ECB2E7FCE2
:0103390022A1
:10033A0075F020800E75F010800575F0087D007E3E
:10034A00007F003392D530D5031205F9EC33401003
:10035A00EF33FFEE33FEED33FDEC33FCD5F0ED2247
:0E036A00E5F0247EA2D513CC92E7CDCEFF2283
:10037800EDD2E7CD33EC3392D524814006E4FFFE7D
:10038800FDFC22FCE4CFCECDCC24E0501174FF80DC
:10039800EDC3CC13CCCD13CDCE13CECF13CF047079
:0703A800F030D5DE0205F97B
:1003AF00E9D2E7C933E833F892D5EDD2E7CD33EC94
:0703BF0033FC5002B2D5220D
:1003C600EC30E7100FBF000C0EBE00080DBD000498
:1003D6000BEB6014A2D5EB13FCED92E7FD2274FF44
:1003E600FCFDFEFF22E480F8A2D574FF13FC7D809D
:0303F600E480EFB1
:10152F00021B1CE493A3F8E493A34003F68001F29B
:10153F0008DFF48029E493A3F85407240CC8C333BD
:10154F00C4540F4420C8834004F456800146F6DF8C
:10155F00E4800B0102040810204080901AE2E47E20
:10156F00019360BCA3FF543F30E509541FFEE49381
:10157F00A360010ECF54C025E060A840B8E493A348
:10158F00FAE493A3F8E493A3C8C582C8CAC583CA73
:10159F00F0A3C8C582C8CAC583CADFE9DEE780BE2B
:011AFF0000E6
:1003F900BB010689828A83E0225002E722BBFE0202
:09040900E32289828A83E4932234
:10041200BB010CE58229F582E5833AF583E022509F
:1004220006E92582F8E622BBFE06E92582F8E222E9
:0D043200E58229F582E5833AF583E4932203
:10043F00EF8DF0A4A8F0CF8CF0A428CE8DF0A42ED1
:02044F00FE228B
:10045100BC000BBE0029EF8DF084FFADF022E4CC8F
:10046100F875F008EF2FFFEE33FEEC33FCEE9DEC58
:10047100984005FCEE9DFE0FD5F0E9E4CEFD22ED9E
:10048100F8F5F0EE8420D21CFEADF075F008EF2FE8
:10049100FFED33FD4007985006D5F0F222C398FDD9
:0504A1000FD5F0EA2276
:1004A600C2D5EC30E709B2D5E4C39DFDE49CFCEE71
:1004B60030E715B2D5E4C39FFFE49EFE120451C394
:1004C600E49DFDE49CFC800312045130D507C3E48F
:0604D6009FFFE49EFE22E0
:1004DC00E88FF0A4CC8BF0A42CFCE98EF0A42CFCBF
:1004EC008AF0EDA42CFCEA8EF0A4CDA8F08BF0A43D
:1004FC002DCC3825F0FDE98FF0A42CCD35F0FCEB9C
:10050C008EF0A4FEA9F0EB8FF0A4CFC5F02ECD3960
:0F051C00FEE43CFCEAA42DCE35F0FDE43CFC22CD
:10052B0075F008758200EF2FFFEE33FECD33CDCC87
:10053B0033CCC58233C5829BED9AEC99E58298400A
:10054B000CF582EE9BFEED9AFDEC99FC0FD5F0D6E7
:10055B00E4CEFBE4CDFAE4CCF9A88222B800C1B911
:10056B000059BA002DEC8BF084CFCECDFCE5F0CB4F
:10057B00F97818EF2FFFEE33FEED33FDEC33FCEB88
:10058B0033FB10D703994004EB99FB0FD8E5E4F943
:10059B00FA227818EF2FFFEE33FEED33FDEC33FC30
:1005AB00C933C910D7059BE99A4007EC9BFCE99A24
:1005BB00F90FD8E0E4C9FAE4CCFB2275F010EF2F69
:1005CB00FFEE33FEED33FDCC33CCC833C810D70769
:1005DB009BEC9AE899400AED9BFDEC9AFCE899F8A4
:0E05EB000FD5F0DAE4CDFBE4CCFAE4C8F92237
:0E05F900C3E49FFFE49EFEE49DFDE49CFC2213
:10060700EB9FF5F0EA9E42F0E99D42F0E89C45F049
:0106170022C0
:0C061800E6FC08E6FD08E6FE08E6FF220E
:0D062400E6FB08E6F908E6FA08E6CBF82246
:0C063100ECF608EDF608EEF608EFF622F5
:0C063D00ECF0A3EDF0A3EEF0A3EFF02230
:10064900D083D082E493F608740193F60874029378
:09065900F608740393F6740473AF
:10066200F5F0C582A4C582C5F0C583A42583F583B0
:010672002265
:10067300BB010DE58229F582E5833AF58302071470
:100683005007E92582F8020702BBFE07E92582F835
:10069300020726E58229F582E5833AF583020738C6
:1006A300BB0120E58229F582E5833AF583D0F0D0BA
:1006B300E0F8D0E0F9D0E0FAD0E0FBE8C0E0C0F029
:1006C30002071D5018E92582F8D083D082D0E0F9C3
:1006D300D0E0FAD0E0FBC082C08302070BBBFE1858
:1006E300E92582F8D083D082D0E0F9D0E0FAD0E0D7
:0906F300FBC082C08302072F2224
:0606FC008A838982E47389
:09070200E6FB08E6FA08E6F9221C
:09070B00EBF608EAF608E9F62213
:09071400E0FBA3E0FAA3E0F922E6
:09071D00EBF0A3EAF0A3E9F022DD
:09072600E2FB08E2FA08E2F92204
:09072F00EBF208EAF208E9F222FB
:0C073800E493FB740193FA740293F9221D
:00000001FF
