:03000000020A866B
:0C0A8600787FE4F6D8FD75816E020ACD81
:1005BD00E52E700DF55B755C327559EA755A6080E4
:1005CD000C755B00755C01755907755AD0E55214B1
:1005DD00601214602F1460542403705620955375C7
:1005ED005201801930950280460551E55170020582
:1005FD0050D3955CE550955B4038755202E4F5504B
:10060D00F551802E30950AE4F552753701D20080F0
:10061D00210551E55170020550D3955AE550955974
:10062D004010753702D2007552038006309503E4F1
:10063D00F552E55514601214602F146054240370A4
:10064D0056209453755501801930940280460554F7
:10065D00E55470020553D3955CE553955B403875B1
:10066D005502E4F553F554802E30940AE4F5557592
:10067D003801D20080210554E55470020553D395FD
:10068D005AE55395594010753802D20075550380BF
:10069D0006309403E4F555E55814601214602E14D9
:1006AD006051240370532093507558018019309375
:1006BD000280430557E55770020556D3955CE55604
:1006CD00955B4035755802E4F556F5572230930980
:1006DD00E4F558753901D200220557E5577002052A
:1006ED0056D3955AE5569559400F753902D2007576
:0A06FD00580322309303E4F558225D
:0A101500E4F537F538F539C2002282
:100F7000E4F537F538F539C200F552F555F558F571
:0C0F800050F551F553F554F556F5572285
:100E95002000051205BD80F8E5376003120494E5CE
:100EA500386007AA61A962120494E5396007AA644B
:080EB500A96512049402101556
:0B100A002000051205BD80F802101543
:09102900496E66696E6974650088
:0A000E00083A1F111B0A0A0A040435
:100FD900C2B2D2B3D2B47F047E00120FFDA2A7928F
:050FE90004C2B4A204E3
:010FEE0022E0
:100F08008F0E120FD940FBC2B2C2B3C2B4850EA075
:100F18007F047E00120FFDD2B47F047E00120FFD05
:030F2800C2B4222E
:0E0FEF00ED60054307C08003430780020F0832
:100E2A00AE42AF437C007D641204017F0A7E00CF8C
:0C0E3A00CDCFCECCCE120401EF2430FF4F
:100E46008F0E120FD940FBD2B2C2B3C2B4850EA028
:100E56007F047E00120FFDD2B47F047E00120FFDC8
:030E6600C2B422F1
:100C0A007F0F7E00120F4E7F38120F087F057E007D
:100C1A00120F4E7F38120F087F057E00120F4E7F8B
:100C2A0038120F087F057E00120F4E7F0C120F0834
:100C3A007F057E00120F4E7F06120F087F057E0089
:100C4A00120F4E7F40120F08E4F50F743A250FF881
:100C5A00E6FF120E46050FE50FC3940840ED7F012B
:100C6A00120F087F057E00120F4EE4FDFF020FEF00
:050003007F01020F085F
:0A101F008B6E120FEFAF6E020E464B
:1009F50012021F8F1D8E1C8D1B8C1A1203678E4EC3
:100A05008F4FAC4EAD4FEC12032EA804A905AA06D4
:100A1500AB07AF1DAE1CAD1BAC1A120021E4FBFAEF
:100A2500797A78441201161203678E428F43AB4FD1
:060A3500AA4EAD19AF1836
:040A3B008A088B0991
:100A3F00E4F50A120FEFAE08AF097C007D0A12042D
:100A4F0001AF05AE0A050A74442EF8A607AE08AF2B
:100A5F00097C007D0A1204018E088F09E5094508FB
:100A6F0070D4E50A6010150A7444250AF8E624309C
:060A7F00FF120E4680ECA0
:010A8500224E
:100707008F188D197F287E6B7D6E7C4EAB1DAA1CC2
:10071700A91BA81A1202BC400D7BFF7A107929ADDC
:1007270019AF18020EBD7F007E247D747C49AB1D76
:10073700AA1CA91BA81A1202BC403DAF1DAE1CADD6
:100747001BAC1A7B007A24797478491209F57F2E3D
:10075700120E46AE42AF437C007D64120E3F120E6E
:100767002AAE42AF437C007D0A120401ED2430FF1C
:10077700120E467F4D020830E4FFFE7D7A7C44ABC3
:100787001DAA1CA91BA81A1202BCAF1DAE1CAD1BCB
:10079700AC1A60364034E4FBFA797A78441209F5EA
:1007A7007F2E120E46AE42AF437C007D64120E3F91
:1007B700120E2AAE42AF437C007D0A120401ED24DB
:1007C70030FF120E467F4B0208301203678E4E8FA2
:1007D7004FAC4EAD4FEC12032EA804A905AA06ABE9
:1007E70007AF1DAE1CAD1BAC1A1200217B007A406F
:1007F700791C7846120A297F2E120E46AE42AF4365
:100807007C037DE8120E3FAE42AF437C037DE812C6
:1008170004017F64120E37120E2AAE42AF437C00EA
:0D0827007D0A120401ED2430FF120E46225E
:100EBD008B088A09890A120FEFAB08AA09A90A1231
:100ECD0003E8FF6010120E467401250AF50AE43599
:060EDD0009F50980E42282
:0A0D1C008F668D678B688A69896A0B
:100D2600E4FF120FEFE4F56B7F20120E46056BE52C
:100D36006BC3941040F2AD67AF66120FEFAB68AAB3
:100D460069A96A1203E8FF6010120E467401256A4B
:090D5600F56AE43569F56980E4F1
:010D5F002271
:100C7A008B088A09890A7F01120F08E4FDFF120F07
:100C8A00EFAB08AA09A90A1203E86013050AE50AE4
:100C9A007002050914F91203E8FF120E4680E27D7C
:100CAA0001E4FF120FEFAB0BAA0CA90D1203E860C7
:100CBA0013050DE50D7002050C14F91203E8FF1275
:050CCA000E4680E2224D
:020FA7008B1E9F
:100FA900120FEFE4F51FE51FC3951E50097F2012AC
:060FB9000E46051F80F04A
:010FBF00220F
:051032007F0F020F0812
:051037007F0C020F0810
:100B120043726F73732050726F62657320416E640B
:100B220000507265737320416E7920427574746F40
:100B32006E004D656172737572696E672E2E2E009E
:100B4200506C656173652057616974005365742048
:100B52005A65726F0046696E6973686564004C4F2E
:100B6200570048494748004B4559310053484F52B6
:100B7200545F5052455353004C4F4E475F505245BD
:100B82005353004B455932004B45593300523D00F7
:02001800C182A3
:100F2B007592077591F875B28075B120C292C29116
:100F3B00C290120CCF120F70120934C292C291C21E
:030F4B009080F59E
:10093400750BFF750C0B750D237BFF7A0B79121267
:100944000C7A12100A750BFF750C0B750D427BFFA8
:100954007A0B7934120C7AC2A47FB87E0B120F4E34
:10096400120E693003FD120834E58B7002D29085B3
:100974002824852723852622852521D2A47FE87E65
:1009840003120F4E120E693003FD120834E58B700A
:1009940002D29285283685273585263485253375F8
:1009A4000BFF750C0B750D577BFF7A0B794E120CF0
:1009B4007A7FD07E07120F4E3002351200037BFF80
:1009C4007A0B7960E4FDFF120EBDAA23AB24E4FD8B
:1009D4007F06120A3B7BFF7A0B79647D01E4FF12E8
:1009E4000EBDAA35AB367D017F06120A3B12100AF2
:0109F40022E0
:100B9200E53724FE600E04701D750BFF750C0B7596
:100BA2000D6E8009750BFF750C0B750D7A7BFF7A44
:100BB2000B7969120C7AE53824FE600E04701D75FB
:100BC2000BFF750C0B750D6E8009750BFF750C0B09
:100BD200750D7A7BFF7A0B7985120C7AE53924FE42
:100BE200600E04701D750BFF750C0B750D6E800980
:100BF200750BFF750C0B750D7A7BFF7A0B798A12D8
:080C02000C7A12101502100A11
:100DE800120834120E691200037BFF7A0B798FE424
:100DF800FDFF120EBD852C1D852B1C852A1B852900
:100E08001AE4FD7F0212070730020BAA27AB287DE0
:100E1800017F08120A3B300108E4FBFD7F0F121026
:020E28001F2287
:040F4E008E088F0971
:100F5200E4F50AF50BC3E50B9509E50A9508500D72
:0D0F6200120F8C050BE50B70EC050A80E802
:010F6F00225F
:100F8C007F017E007DF47C01ED1D70011CED4C7029
:0A0F9C00F7EF1F70011EEF4E70EA20
:010FA6002228
:0D0FFD00EF4E600800EF1F70F71E80F42219
:100CCF00D2AFD2A9D2ABD2B9C2BB758951C2A4E4FB
:100CDF00F52CF52BF52AF529C203F528F527F5266E
:100CEF00F525F532F531F530F52FF524F523F522FD
:100CFF00F521F536F535F534F533F56CF56DF58AE7
:0D0D0F00F58CF58BF58DC28CC28EF52E2271
:100FC0008F2EC28CC28EEF14600B14600824027046
:090FD0000775895122758911226F
:100E6900C203E4F56CF56DE52E14601514601224C7
:100E7900027018E4F58AF58CF58BF58DD28CD28E3B
:0C0E890022758DFE758B33C28CD28E2238
:03001B00020D6073
:100D6000C0E0C0F0C083C082C0D075D010E52E2492
:100D7000FE600B14601F2403701F056D801B758BB4
:100D800033758DFE056DE56DC39402400C756D00E5
:100D90001205BD8004C28CC28ED0D0D082D083D048
:040DA000F0D0E0327D
:03000B00020EE3FF
:100EE300C0E0C0D020A409056CE56CB40202800AFE
:100EF30030A40D056CE56CB40F06C28EC28CD20310
:050F0300D0D0D0E03267
:10083400C203AF6DE4FCFDFEFBFA7901F812043744
:10084400A804A905AA06AB07AF8DEFFEE4FCFD2BB7
:10085400FBEA3EFAED39F9EC38F8AF8BE4FEEB2F06
:10086400F528EE3AF527ED39F526EC38F52520A4E0
:10087400597F957EBA7D0AAB28AA27A926F81204C7
:10088400378F328E318D308C2FAF28AE27AD26AC0A
:1008940025AB24AA23A922A821120437A804A90558
:1008A400AA06AB07C3E5249528FFE5239527FEE5B3
:1008B400229526FDE5219525FC120DA4EC120329B1
:1008C4007BCC7A8A79C9784E805A7F367E6E7D01D8
:1008D4007C00AB28AA27A926A8251204378F328EBC
:1008E400318D308C2FAF28AE27AD26AC25AB36AA80
:1008F40035A934A833120437A804A905AA06AB07FE
:10090400C3E5369528FFE5359527FEE5349526FDA4
:10091400E5339525FC120DA4EC1203297BA27A5130
:10092400790F78521201168F2C8E2B8D2A8C292246
:10001E000203D3E86480F8E933E83360110460F03A
:10002E00ED33EC337009E8FCE9FDEAFEEBFF220448
:10003E0060DED3EB9FEA9EE99DE8C2E78CF0C2F743
:10004E0095F0400CE8CCF8E9CDF9EACEFAEBCFFB0F
:10005E0012039E85D0F05804700320D5B3E80470C7
:10006E00075002B2D50203DD92D5EC0460F7E4CC62
:10007E00C0E0C398F8603B94186008400DD0E0FBD8
:10008E000203B5E4FBFAC9FC8028E830E406E4C9B3
:10009E00FBE4CAFCE830E305E4C9CACBFCE854072C
:1000AE006010F8C3E913F9EA13FAEB13FBEC13FC37
:1000BE00D8F130F52FC3E49CFCEF9BFFEE9AFEEDDA
:1000CE0099FDD0E0FBEF4E4D4C701222DB03020384
:1000DE00DAEC2CFCEF33FFEE33FEED33FDED30E7C3
:1000EE00EB0203B5EF2BFFEE3AFEED39FDD0E0FB50
:1000FE0050130BBB00030203DDED13FDEE13FEEFF9
:08010E0013FFEC13FC0203B522
:10011600EC4D6011E8497017ED33EC3304600DE4E3
:10012600FCFFFEFD22E933E8330470F80203D31224
:10013600039E58046009E4CC248150062850090225
:1001460003DD2840030203DAC0E0EB4A7044B980BD
:1001560006D0E0FB0203C9EF4E701CBD8008EBFF22
:10016600EAFEE9FD80EBE98DF0A4FEE5F00201FF71
:10017600E9CDF9EAFEEBFFEF89F0A4FCE5F0CE89C4
:10018600F0A42EFFE435F0CD89F0A42DFEE435F081
:100196008067EF4E7005BD80D780C3EF8BF0A4ACAF
:1001A600F0EE8BF0A42CFCE435F0F8EF8AF0A42CEA
:1001B600E5F038FCE433CB8DF0A42CFCE5F03BF8FD
:1001C600EE8AF0A42CFCE5F038F8E433CF89F0A4ED
:1001D6002CFCE5F038CF3400CE89F0A42FFFE5F0F3
:1001E6003EFEE433C98DF0A42EFEE5F039CD8AF04B
:1001F600A42FFFE5F03EFEE43DFD33D0E0FB5007C3
:100206000BBB000F0203DDEC2CFCEF33FFEE33FEDD
:06021600ED33FD0203B50B
:10021C000203DDEC5D046005E8590470030203D3AE
:10022C0012039E580460F6EC4860F2EC7004FDFE7C
:10023C00FF22C860DB2481C85009C39860025006B5
:10024C000203DA9850CAF582E9294B4A7005AB8251
:10025C000203C975F0007C1A7880C3EF9BEE9AED0F
:10026C0099400DC3EF9BFFEE9AFEED99FDE842F02D
:10027C00DC23ACF0D0E0FFD0E0FED0E0FDAB822080
:10028C00E7101BEB60BAEC2CFCEF33FFEE33FEED0A
:10029C0033FD0203B5E803F830E705C0F075F00054
:1002AC00EF2FFFEE33FEED33FD40B830E7C280AAEE
:1002BC0074F8CC6480CCC86480C8F582046043C3F5
:1002CC00EB9FF5F0EA9E42F0E99D42F0E89C45F088
:1002DC0060305018E5825FFFE582F42B5582FB50AD
:1002EC00210ABA001D09B90019088016E5825BFBCA
:1002FC00E582F42F5582FF50090EBE00050DBD009E
:10030C00010CC3EB9FF5F0EA9E42F0E99D42F0E848
:0D031C009C45F06007CC4820E701B3EC22BF
:1003290075F020800E75F010800575F0087D007E4F
:10033900007F003392D530D503120486EC33401088
:10034900EF33FFEE33FEED33FDEC33FCD5F0ED2258
:0E035900E5F0247EA2D513CC92E7CDCEFF2294
:10036700EDD2E7CD33EC3392D524814006E4FFFE8E
:10037700FDFC22FCE4CFCECDCC24E0501174FF80ED
:10038700EDC3CC13CCCD13CDCE13CECF13CF04708A
:07039700F030D5DE02048600
:10039E00E9D2E7C933E833F892D5EDD2E7CD33ECA5
:0703AE0033FC5002B2D5221E
:1003B500EC30E7100FBF000C0EBE00080DBD0004A9
:1003C5000BEB6014A2D5EB13FCED92E7FD2274FF55
:1003D500FCFDFEFF22E480F8A2D574FF13FC7D80AE
:0303E500E480EFC2
:100A9200020F2BE493A3F8E493A34003F68001F240
:100AA20008DFF48029E493A3F85407240CC8C33365
:100AB200C4540F4420C8834004F456800146F6DF34
:100AC200E4800B010204081020408090000EE47EB6
:100AD200019360BCA3FF543F30E509541FFEE49329
:100AE200A360010ECF54C025E060A840B8E493A3F0
:100AF200FAE493A3F8E493A3C8C582C8CAC583CA1B
:100B0200F0A3C8C582C8CAC583CADFE9DEE780BED2
:01001A0000E5
:1003E800BB010689828A83E0225002E722BBFE0213
:0903F800E32289828A83E4932246
:10040100C2D5EC30E709B2D5E4C39DFDE49CFCEE16
:1004110030E715B2D5E4C39FFFE49EFE12049AC3F0
:10042100E49DFDE49CFC800312049A30D507C3E4EB
:060431009FFFE49EFE2285
:10043700E88FF0A4CC8BF0A42CFCE98EF0A42CFC64
:100447008AF0EDA42CFCEA8EF0A4CDA8F08BF0A4E2
:100457002DCC3825F0FDE98FF0A42CCD35F0FCEB41
:100467008EF0A4FEA9F0EB8FF0A4CFC5F02ECD3906
:0F047700FEE43CFCEAA42DCE35F0FDE43CFC2273
:100DA400C2D5E830E70FB2D5E4C39BFBE49AFAE47A
:100DB40099F9E498F8EC30E717B2D5120DDA120578
:100DC4002BE4C39BFBE49AFAE499F9E498F88003D2
:100DD40012052B30D50DE4C39FFFE49EFEE49DFD78
:040DE400E49CFC226D
:0E048600C3E49FFFE49EFEE49DFDE49CFC2287
:060494008A838982E473F3
:10049A00BC000BBE0029EF8DF084FFADF022E4CC46
:1004AA00F875F008EF2FFFEE33FEEC33FCEE9DEC0F
:1004BA00984005FCEE9DFE0FD5F0E9E4CEFD22ED55
:1004CA00F8F5F0EE8420D21CFEADF075F008EF2F9F
:1004DA00FFED33FD4007985006D5F0F222C398FD90
:0504EA000FD5F0EA222D
:1004EF0075F008758200EF2FFFEE33FECD33CDCCC4
:1004FF0033CCC58233C5829BED9AEC99E582984047
:10050F000CF582EE9BFEED9AFDEC99FC0FD5F0D623
:10051F00E4CEFBE4CDFAE4CCF9A88222B800C1B94D
:10052F000059BA002DEC8BF084CFCECDFCE5F0CB8B
:10053F00F97818EF2FFFEE33FEED33FDEC33FCEBC4
:10054F0033FB10D703994004EB99FB0FD8E5E4F97F
:10055F00FA227818EF2FFFEE33FEED33FDEC33FC6C
:10056F00C933C910D7059BE99A4007EC9BFCE99A60
:10057F00F90FD8E0E4C9FAE4CCFB2275F010EF2FA5
:10058F00FFEE33FEED33FDCC33CCC833C810D707A5
:10059F009BEC9AE899400AED9BFDEC9AFCE899F8E0
:0E05AF000FD5F0DAE4CDFBE4CCFAE4C8F92273
:00000001FF
