:030000000209BF33
:0C09BF00787FE4F6D8FD758153020A062B
:1005E500E54514601214602F14605D2403705F20CC
:1005F500955C7545018019309502804F0544E544A9
:1006050070020543D39432E5439400404175450299
:10061500E4F543F544803730950AE4F5457537012F
:10062500D200802A0544E54470020543FFAE43E449
:10063500FCFD7B607AEAF9F8C31204A65010753701
:1006450002D2007545038006309503E4F545E5487B
:1006550014601214602F14605D2403705F20945C95
:100665007548018019309402804F0547E5477002AF
:100675000546D39432E54694004041754802E4F5B9
:1006850046F547803730940AE4F548753801D200BD
:10069500802A0547E54770020546FFAE46E4FCFDA6
:1006A5007B607AEAF9F8C31204A65010753802D2B5
:1006B500007548038006309403E4F548E54B146063
:1006C5001214602E14605A2403705C209359754BE4
:1006D500018019309302804C054AE54A70020549AC
:1006E500D39432E5499400403E754B02E4F549F553
:1006F5004A22309309E4F54B753901D20022054AA7
:10070500E54A70020549FFAE49E4FCFD7B607AEAE3
:10071500F9F8C31204A6500F753902D200754B03C0
:0807250022309303E4F54B229E
:0A0EDF00E4F537F538F539C20022BA
:100DF600E4F537F538F539C200F545F548F54BF514
:0C0E060043F544F546F547F549F54A224E
:100CFB008B3A8A3B893C2000051205E580F8E537E5
:100D0B006007AA3BA93C1204BCE5386007AA3EA9C0
:100D1B003F1204BCE5396007AA41A9421204BC0288
:020D2B000EDFD9
:0B0EC9002000051205E580F8020EDF96
:090EF300496E66696E69746500C0
:0A000E0008081F111B0A0A0A040467
:100E8800C2B2D2B3D2B400000000A2A79204C2B486
:020E9800A204B2
:010E9A002235
:100E1200120E8840FBC2B2C2B3C2B48FA00000005F
:0A0E220000D2B400000000C2B422A8
:0E0EAE00ED60054307C08003430780020E126B
:060DD60014F91203E8FF0E
:100DDC00120E8840FBD2B2C2B3C2B48FA000000086
:0A0DEC0000D2B400000000C2B422DF
:100BCB007F0F120E747F38120E127F05120E747F78
:100BDB0038120E127F05120E747F38120E127F051B
:100BEB00120E747F0C120E127F05120E747F0612FA
:100BFB000E121F120E747F40120E12E4FE74082E9A
:100C0B00F8E6FF120DDC0EBE08F37F01120E127F09
:0A0C1B0005120E74E4FDFF020EAE98
:050003007F01020E1256
:0A0EE900AC03120EAEAF04020DDCE4
:100A4B0012021F8F518E508D4F8C4E1203678E1CCE
:100A5B008F1DAC1CAD1DEC12032EA804A905AA0614
:100A6B00AB07AF51AE50AD4FAC4E12002112036726
:100A7B007C037DE81204018E108F11AB1DAA1CADF7
:030A8B004DAF4C20
:100A8E00E4F552120EAE7C007D0AAF03AE021204E4
:100A9E0013AF05AE52055274122EF8A6077C007DD8
:100AAE000AAF03AE02120413AA06AB07EB4A70D6C6
:100ABE00E5526010155274122552F8E62430FF12DA
:040ACE000DDC80ECCF
:010AD2002201
:10082D008F4C8D4D7F287E6B7D6E7C4EAB51AA50CB
:10083D00A94FA84E1202BC400D7BFF7A0E79F3AD85
:10084D004DAF4C020E5E7F007E247D747C49AB5112
:10085D00AA50A94FA84E1202BC402BAF51AE50ADBD
:10086D004FAC4E7B007A2479747849120A4B7F2E57
:10087D00120DDCE54C2404FFAB11AA10AD4D120A8C
:10088D008E7F4D0208D0E4FFFE7D7A7C44AB51AAE9
:10089D0050A94FA84E1202BCAF51AE50AD4FAC4E49
:1008AD0060244022E4FBFA797A7844120A4B7F2EB9
:1008BD00120DDCE54C2404FFAB11AA10AD4D120A4C
:1008CD008E7F4B020DDC1203678E1C8F1DAC1CAD91
:1008DD001DEC12032EA804A905AA06AB07AF51AE55
:1008ED0050AD4FAC4E1200211203677C277D1012C4
:1008FD000A7F7F2E120DDCE54C2404FFAB11AA10EC
:06090D00AD4D120A8E221E
:100E5E00120EAE1203E8FF600C120DDC740129F9BC
:060E6E00E43AFA80EE22D6
:040D5D008F53AE05FD
:100D6100E4FF120EAEE4FD7F20120DDC0DBD10F785
:100D7100AD06AF53120EAE1203E8FF600C120DDC8C
:090D8100740129F9E43AFA80EE4C
:010D8A002246
:100C25008B4C8A4D894E7F01120E12E4FD1F120E68
:100C3500AEAB4CAA4DA94E1203E8600D054EE54E2C
:100C45007002054D120DD680E87D01E4FF120EAE4F
:100C5500AB4FAA50A9511203E8600D0551E551703B
:090C6500020550120DD680E822B0
:100E9B00120EAEE4FEEEC39B50087F20120DDC0E4B
:020EAB0080F3D2
:010EAD002222
:050EFC007F0F020E1241
:050F01007F0C020E123E
:100AD30043726F73732050726F62657320416E644B
:100AE30000507265737320416E7920427574746F80
:100AF3006E004D656172737572696E672E2E2E00DE
:100B0300506C656173652057616974005365742087
:100B13005A65726F0046696E6973686564004C4F6D
:100B2300570048494748004B4559310053484F52F5
:100B3300545F5052455353004C4F4E475F505245FC
:100B43005353004B455932004B45593300523D0036
:02001800C181A4
:100D8B007591F8759207120C6E120DF6120BCB12B1
:100D9B000913120E451205E5300003120B533003F5
:060DAB00F4120D2D80EF93
:10091300754FFF75500A7551E47BFF7A0A79D3123C
:100923000C25120EC9754FFF75500B7551037BFFD4
:100933007A0A79F5120C25C2A47FB8120E74120E2E
:10094300453003FD12072D8528248527238526227C
:10095300852521D2A47FC8120E74120E453003FDE3
:1009630012072D8528368527358526348525337549
:100973004FFF75500B7551187BFF7A0B790F120CD3
:10098300257FD0120E743001321200037BFF7A0BE5
:100993007921E4FDFF120E5EAA23AB24E4FD7F065A
:1009A300120A8E7BFF7A0B79257D01E4FF120E5E1E
:0C09B300AA35AB367D017F06120A8E22A9
:100B5300E53724FE600E04701D754FFF75500B754D
:100B6300512F8009754FFF75500B75513B7BFF7AF1
:100B73000B792A120C25E53824FE600E04701D75CE
:100B83004FFF75500B75512F8009754FFF75500B33
:100B930075513B7BFF7A0B7946120C25E53924FE10
:100BA300600E04701D754FFF75500B75512F800932
:100BB300754FFF75500B75513B7BFF7A0B794B12C9
:080BC3000C25120EDF020EC921
:100D2D0012072D120E451200037BFF7A0B7950E44A
:100D3D00FDFF120E5E852C51852B50852A4F85297E
:100D4D004EE4FD7F0212082DE4FBFD7F0F020EE93C
:020E74008F4CA1
:100E7600E4F54DE54DC3954C5007120EBC054D806B
:010E8600F279
:010E87002248
:0C0EBC00E4FFE4FE0EBE21FC0FBF0AF6AE
:010EC8002207
:100C6E00D2AFD2A9D2ABD2B9C2BB758951C2A4E45C
:100C7E00F52CF52BF52AF529C203F528F527F526CF
:100C8E00F525F532F531F530F52FF524F523F5225E
:100C9E00F521F536F535F534F533F51EF51FF58AE4
:090CAE00F58CF58BF58DF52E2275
:100E2C008F2EC28CC28EEF14600B146008240270DB
:090E3C0007758951227589112204
:100E4500C203E4F51EF51FE52E700DE4F58AF58C59
:090E5500F58BF58DD28CD28E22B2
:03001B00020ED4FE
:0B0ED400C0E0E52E7002051FD0E032E8
:03000B00020DB132
:100DB100C0E0C0D020A409051EE51EB40202800ACD
:100DC10030A40D051EE51EB40F06C28EC28CD203DF
:050DD100D0D0D0E0329B
:10072D00C203AF1FE4FCFDFEFBFA7901F812044988
:10073D00A804A905AA06AB07AF8DEFFEE4FCFD2BBF
:10074D00FBEA3EFAED39F9EC38F8AF8BE4FEEB2F0E
:10075D00F528EE3AF527ED39F526EC38F52520A4E8
:10076D00597F957EBA7D0AAB28AA27A926F81204CF
:10077D00498F328E318D308C2FAF28AE27AD26AC00
:10078D0025AB24AA23A922A821120449A804A9054E
:10079D00AA06AB07C3E5249528FFE5239527FEE5BB
:1007AD00229526FDE5219525FC120CB7EC120329A7
:1007BD007BCC7A8A79C9784E805A7F367E6E7D01E0
:1007CD007C00AB28AA27A926A8251204498F328EB2
:1007DD00318D308C2FAF28AE27AD26AC25AB36AA88
:1007ED0035A934A833120449A804A905AA06AB07F4
:1007FD00C3E5369528FFE5359527FEE5349526FDAD
:10080D00E5339525FC120CB7EC1203297BA27A5126
:10081D00790F78521201168F2C8E2B8D2A8C29224E
:10001E000203D3E86480F8E933E83360110460F03A
:10002E00ED33EC337009E8FCE9FDEAFEEBFF220448
:10003E0060DED3EB9FEA9EE99DE8C2E78CF0C2F743
:10004E0095F0400CE8CCF8E9CDF9EACEFAEBCFFB0F
:10005E0012039E85D0F05804700320D5B3E80470C7
:10006E00075002B2D50203DD92D5EC0460F7E4CC62
:10007E00C0E0C398F8603B94186008400DD0E0FBD8
:10008E000203B5E4FBFAC9FC8028E830E406E4C9B3
:10009E00FBE4CAFCE830E305E4C9CACBFCE854072C
:1000AE006010F8C3E913F9EA13FAEB13FBEC13FC37
:1000BE00D8F130F52FC3E49CFCEF9BFFEE9AFEEDDA
:1000CE0099FDD0E0FBEF4E4D4C701222DB03020384
:1000DE00DAEC2CFCEF33FFEE33FEED33FDED30E7C3
:1000EE00EB0203B5EF2BFFEE3AFEED39FDD0E0FB50
:1000FE0050130BBB00030203DDED13FDEE13FEEFF9
:08010E0013FFEC13FC0203B522
:10011600EC4D6011E8497017ED33EC3304600DE4E3
:10012600FCFFFEFD22E933E8330470F80203D31224
:10013600039E58046009E4CC248150062850090225
:1001460003DD2840030203DAC0E0EB4A7044B980BD
:1001560006D0E0FB0203C9EF4E701CBD8008EBFF22
:10016600EAFEE9FD80EBE98DF0A4FEE5F00201FF71
:10017600E9CDF9EAFEEBFFEF89F0A4FCE5F0CE89C4
:10018600F0A42EFFE435F0CD89F0A42DFEE435F081
:100196008067EF4E7005BD80D780C3EF8BF0A4ACAF
:1001A600F0EE8BF0A42CFCE435F0F8EF8AF0A42CEA
:1001B600E5F038FCE433CB8DF0A42CFCE5F03BF8FD
:1001C600EE8AF0A42CFCE5F038F8E433CF89F0A4ED
:1001D6002CFCE5F038CF3400CE89F0A42FFFE5F0F3
:1001E6003EFEE433C98DF0A42EFEE5F039CD8AF04B
:1001F600A42FFFE5F03EFEE43DFD33D0E0FB5007C3
:100206000BBB000F0203DDEC2CFCEF33FFEE33FEDD
:06021600ED33FD0203B50B
:10021C000203DDEC5D046005E8590470030203D3AE
:10022C0012039E580460F6EC4860F2EC7004FDFE7C
:10023C00FF22C860DB2481C85009C39860025006B5
:10024C000203DA9850CAF582E9294B4A7005AB8251
:10025C000203C975F0007C1A7880C3EF9BEE9AED0F
:10026C0099400DC3EF9BFFEE9AFEED99FDE842F02D
:10027C00DC23ACF0D0E0FFD0E0FED0E0FDAB822080
:10028C00E7101BEB60BAEC2CFCEF33FFEE33FEED0A
:10029C0033FD0203B5E803F830E705C0F075F00054
:1002AC00EF2FFFEE33FEED33FD40B830E7C280AAEE
:1002BC0074F8CC6480CCC86480C8F582046043C3F5
:1002CC00EB9FF5F0EA9E42F0E99D42F0E89C45F088
:1002DC0060305018E5825FFFE582F42B5582FB50AD
:1002EC00210ABA001D09B90019088016E5825BFBCA
:1002FC00E582F42F5582FF50090EBE00050DBD009E
:10030C00010CC3EB9FF5F0EA9E42F0E99D42F0E848
:0D031C009C45F06007CC4820E701B3EC22BF
:1003290075F020800E75F010800575F0087D007E4F
:10033900007F003392D530D503120498EC33401076
:10034900EF33FFEE33FEED33FDEC33FCD5F0ED2258
:0E035900E5F0247EA2D513CC92E7CDCEFF2294
:10036700EDD2E7CD33EC3392D524814006E4FFFE8E
:10037700FDFC22FCE4CFCECDCC24E0501174FF80ED
:10038700EDC3CC13CCCD13CDCE13CECF13CF04708A
:07039700F030D5DE020498EE
:10039E00E9D2E7C933E833F892D5EDD2E7CD33ECA5
:0703AE0033FC5002B2D5221E
:1003B500EC30E7100FBF000C0EBE00080DBD0004A9
:1003C5000BEB6014A2D5EB13FCED92E7FD2274FF55
:1003D500FCFDFEFF22E480F8A2D574FF13FC7D80AE
:0303E500E480EFC2
:1009CB00020D8BE493A3F8E493A34003F68001F2AA
:1009DB0008DFF48029E493A3F85407240CC8C3332D
:1009EB00C4540F4420C8834004F456800146F6DFFC
:1009FB00E4800B010204081020408090000EE47E7E
:100A0B00019360BCA3FF543F30E509541FFEE493F0
:100A1B00A360010ECF54C025E060A840B8E493A3B7
:100A2B00FAE493A3F8E493A3C8C582C8CAC583CAE2
:100A3B00F0A3C8C582C8CAC583CADFE9DEE780BE9A
:01001A0000E5
:1003E800BB010689828A83E0225002E722BBFE0213
:0903F800E32289828A83E4932246
:10040100EF8DF0A4A8F0CF8CF0A428CE8DF0A42E0F
:02041100FE22C9
:10041300C2D5EC30E709B2D5E4C39DFDE49CFCEE04
:1004230030E715B2D5E4C39FFFE49EFE1204C2C3B6
:10043300E49DFDE49CFC80031204C230D507C3E4B1
:060443009FFFE49EFE2273
:10044900E88FF0A4CC8BF0A42CFCE98EF0A42CFC52
:100459008AF0EDA42CFCEA8EF0A4CDA8F08BF0A4D0
:100469002DCC3825F0FDE98FF0A42CCD35F0FCEB2F
:100479008EF0A4FEA9F0EB8FF0A4CFC5F02ECD39F4
:0F048900FEE43CFCEAA42DCE35F0FDE43CFC2261
:100CB700C2D5E830E70FB2D5E4C39BFBE49AFAE468
:100CC70099F9E498F8EC30E717B2D5120CED120554
:100CD70053E4C39BFBE49AFAE499F9E498F8800398
:100CE70012055330D50DE4C39FFFE49EFEE49DFD3E
:040CF700E49CFC225B
:0E049800C3E49FFFE49EFEE49DFDE49CFC2275
:1004A600EB9FF5F0EA9E42F0E99D42F0EC6480C8CD
:0604B60064809845F0226D
:0604BC008A838982E473CB
:1004C200BC000BBE0029EF8DF084FFADF022E4CC1E
:1004D200F875F008EF2FFFEE33FEEC33FCEE9DECE7
:1004E200984005FCEE9DFE0FD5F0E9E4CEFD22ED2D
:1004F200F8F5F0EE8420D21CFEADF075F008EF2F77
:10050200FFED33FD4007985006D5F0F222C398FD67
:050512000FD5F0EA2204
:1005170075F008758200EF2FFFEE33FECD33CDCC9B
:1005270033CCC58233C5829BED9AEC99E58298401E
:100537000CF582EE9BFEED9AFDEC99FC0FD5F0D6FB
:10054700E4CEFBE4CDFAE4CCF9A88222B800C1B925
:100557000059BA002DEC8BF084CFCECDFCE5F0CB63
:10056700F97818EF2FFFEE33FEED33FDEC33FCEB9C
:1005770033FB10D703994004EB99FB0FD8E5E4F957
:10058700FA227818EF2FFFEE33FEED33FDEC33FC44
:10059700C933C910D7059BE99A4007EC9BFCE99A38
:1005A700F90FD8E0E4C9FAE4CCFB2275F010EF2F7D
:1005B700FFEE33FEED33FDCC33CCC833C810D7077D
:1005C7009BEC9AE899400AED9BFDEC9AFCE899F8B8
:0E05D7000FD5F0DAE4CDFBE4CCFAE4C8F9224B
:00000001FF
