:0300000002158E58
:0C158E00787FE4F6D8FD75818B0215D53E
:100D2200E561B4020E755B00755C01755907755A71
:100D3200D0800C755B00755C327559EA755A60E5B6
:100D42005214601214602F146054240370562095BC
:100D520053755201801930950280460551E5517054
:100D6200020550D3955CE550955B4038755202E41C
:100D7200F550F551802E30950AE4F552756601D290
:100D82000080210551E55170020550D3955AE55076
:100D920095594010756602D200755203800630954F
:100DA20003E4F552E55514601214602F14605424C4
:100DB2000370562094537555018019309402804671
:100DC2000554E55470020553D3955CE553955B4099
:100DD20038755502E4F553F554802E30940AE4F543
:100DE20055756701D20080210554E5547002055300
:100DF200D3955AE55395594010756702D20075553F
:100E0200038006309403E4F555E55814601214602B
:100E12002E14605124037053209350755801801989
:100E220030930280430557E55770020556D3955C0F
:100E3200E556955B4035755802E4F556F557223074
:100E42009309E4F558756801D200220557E55770F9
:100E5200020556D3955AE5569559400F756802D248
:0C0E62000075580322309303E4F5582279
:0A1C3000E4F566F567F568C20022CE
:101B6B00E4F566F567F568C200F552F555F558F5DD
:0C1B7B0050F551F553F554F556F557227E
:101A4F00200005120D2280F8E56660031206FCE502
:101A5F00676007AA6DA96E1206FCE5686007AA7099
:081A6F00A9711206FC021C30F3
:0B1C2500200005120D2280F8021B6B4E
:101C0600496E66696E697465001F111B0A0A0A042B
:011C160004C9
:101BF000C2B2D2B3D2B47F067E0012000EA2A79268
:051C000007C2B4A207B9
:011C050022BC
:101AE7008F4F121BF040FBC2B2C2B3C2B4854FA0E6
:101AF7007F067E0012000ED2B47F067E0012000E13
:031B0700C2B42243
:0E1C1700ED60054307C08003430780021AE713
:10197D00AE08AF097C007D641204A67F0A7E00CFFD
:0C198D00CDCFCECCCE1204A6EF2430FF4C
:101999008F4F121BF040FBD2B2C2B3C2B4854FA025
:1019A9007F067E0012000ED2B47F067E0012000E62
:0319B900C2B42293
:101722007F0F7E00121B0A7F38121AE77F057E00A8
:10173200121B0A7F38121AE77F057E00121B0A7FEE
:1017420038121AE77F057E00121B0A7F0C121AE775
:101752007F057E00121B0A7F06121AE77F057E00B4
:10176200121B0A7F40121AE7E4F540E540901C0F75
:1017720093FF1219990540E540C3940840ED7F019B
:10178200121AE77F057E00121B0AE4FDFF021C17F6
:050003007F01021AE775
:0A1C3A008B42121C17AF42021999E9
:1014E60012021F8F478E468D458C441203788E0E4E
:1014F6008F0FAC0EAD0FEC12033FA804A905AA0688
:10150600AB07AF47AE46AD45AC44120021E4FBFA4B
:10151600797A78441201161203788E088F09AE0E76
:10152600EE3395E0850F4D8E4CF54BF54AAD43AF46
:011536004272
:10153700E4F54E121C17E47B0AFAF9F8AF4DAE4CEE
:10154700AD4BAC4A120567AF03AE4E054E74822E03
:10155700F8A607AF4DAE4CAD4BAC4AE47B0AFAF99F
:10156700F81205678F4D8E4C8D4B8C4AEC4D4E4FC4
:1015770070C4E54E6010154E7482254EF8E624308F
:06158700FF12199980EC2F
:01158D00223B
:08161A008F428D438A448B4589
:10162200E4750D01F50CF50BF50A754701E547C3A5
:101632009546501DAF0DAE0CAD0BAC0AE47B0AFA19
:10164200F9F81204DC8F0D8E0C8D0B8C0A05478085
:10165200DCAD43AF42121C17AF461546EF603FAEFA
:1016620044AF45E4FCFDAB0DAA0CA90BA80A120578
:1016720067121995AE44AF45AC0CAD0D1204518CF6
:10168200448D45AF0DAE0CAD0BAC0AE47B0AFAF902
:0E169200F81205678F0D8E0C8D0B8C0A80BA36
:0116A0002227
:100BD1008F428D43E4FFFEFDFCAB47AA46A945A821
:100BE100441202BC60025010E4F54DF54CF54BF592
:100BF1004AAD43AF420215377F287E6B7D6E7C4E36
:100C0100AB47AA46A945A8441202BC400D7BFF7A16
:100C11001C7906AD43AF42021A777F007E247D74B2
:100C21007C49AB47AA46A945A8441202BC403DAF46
:100C310047AE46AD45AC447B007A247974784912BD
:100C410014E67F2E121999AE08AF097C007D64125B
:100C5100199212197DAE08AF097C007D0A1204A613
:100C6100ED2430FF1219997F4D020D1EE4FFFE7D28
:100C71007A7C44AB47AA46A945A8441202BCAF47B7
:100C8100AE46AD45AC4460364034E4FBFA797A783F
:100C9100441214E67F2E121999AE08AF097C007D2B
:100CA1006412199212197DAE08AF097C007D0A12F7
:100CB10004A6ED2430FF1219997F4B020D1E120379
:100CC100788E0E8F0FAC0EAD0FEC12033FA804A966
:100CD10005AA06AB07AF47AE46AD45AC44120021AD
:100CE1007B007A40791C784612151A7F2E121999C9
:100CF100AE08AF097C037DE8121992AE08AF097CFA
:100D0100037DE81204A67F6412198A12197DAE08C8
:100D1100AF097C007D0A1204A6ED2430FF12199957
:010D210022AF
:101A77008B488A49894A121C17AB48AA49A94A12B6
:101A870003F9FF60101219997401254AF54AE435E4
:061A970049F54980E4223C
:0A18F5008F428D438B448A458946DB
:1018FF00E4FF121C17E4F5477F201219990547E5FD
:10190F0047C3941040F2AD43AF42121C17AB44AA29
:10191F0045A9461203F9FF60101219997401254663
:09192F00F546E43545F54580E478
:01193800228C
:10184C008B408A4189427F01121AE7E4FDFF121C8A
:10185C0017AB40AA41A9421203F960130542E542B5
:10186C007002054114F91203F9FF12199980E27DF7
:10187C0001E4FF121C17AB43AA44A9451203F960FB
:10188C00130545E5457002054414F91203F9FF12DE
:05189C00199980E22211
:021BBE008B405A
:101BC000121C17E4F541E541C3954050097F2012EE
:061BD0001999054180F0A7
:011BD60022EC
:051C44007F0F021AE70A
:051C49007F0C021AE708
:1016A1004D656172737572696E672E2E2E004372DD
:1016B1006F73732050726F62657320416E640050C6
:1016C1007265737320416E7920427574746F6E0078
:1016D100506C65617365205761697400546F2053C4
:1016E10077697463682043617000536574205A659B
:1016F100726F0046696E6973686564004C4F5700EC
:10170100484947480050726F63657373696E672E6D
:101711002E2E00523D00496E20004F757400FF16B9
:01172100A126
:021B4D00C18253
:101B8700121B2C12127EC2051219F2120D223000FE
:0C1B9700031217923004F412119A80EF30
:101B2C007592477591B8E4F5B275B120C292C29125
:101B3C00C290121722121A9D121B6B121434021A25
:011B4C002672
:10127E00D2B7D2057543FF7544167545C07BFF7A0C
:10128E001679AF12184C121C257543FF754416754E
:10129E0045D190171FE493FB740193FA740293F9EE
:1012AE0012184C1219F23004FD12109178761206B3
:1012BE001878721206317543FF7544167545DD7B3D
:1012CE00FF7A1679C012184C121C25C2B77FE87E21
:1012DE0003121B0A1219F23004FD121091787612C5
:1012EE000618787E1206317543FF7544167545F45F
:1012FE007BFF7A1679EB12184CD2B77FE87E031279
:10130E001B0A3002471200037BFF7A1679FDE4FDBB
:10131E00FF121A7778721206188F4D8E4C8D4B8CE9
:10132E004AE4FD7F061215377BFF7A1779017D019E
:10133E00E4FF121A77787E1206188F4D8E4C8D4B65
:0D134E008C4A7D017F06121537121C2522E6
:10179200E56624FE6007047006B2028002B201E52B
:1017A2006724FE602A04702D121B6B7F03121BD765
:1017B2001219BCE4FF121BD71219F2121B6B120092
:1017C200037BFF7A177906E4FDFF121A778006C2BF
:1017D20090C291C292E56824FE6010047013121B3D
:1017E2006B7F03121BD71217F68006D290D291D2CA
:0417F20092021C3013
:10119A001210911219F21200037BFF7A177914E4E4
:1011AA00FDFF121A77787A1206188F478E468D45F8
:1011BA008C44E4FD7F02120BD130021678761206B7
:1011CA00188F4D8E4C8D4B8C4A7D017F0812153736
:1011DA0080097B087D017F08121BBE2001030212D1
:1011EA007DE4FBFD7F0F121C3AAB60AA5FA95EA8E3
:1011FA005DC000787A120618D000120021AB60AAEE
:10120A005FA95EA85D12021FAB65AA64A963A86202
:10121A001202BC6051404FAB60AA5FA95EA85DC0D4
:10122A0000787A120618D000120021AB60AA5FA9D2
:10123A005EA85D12021FC004C005C006C007AF65E4
:10124A00AE64AD63AC62120329A804A905AA06AB71
:10125A0007D007D006D005D0041202BC50087BFF85
:10126A007A17791780067BFF7A17791B7D01E4FFCD
:04127A00121A7722AB
:041B0A008E428F4335
:101B0E00E4F544F545C3E5459543E5449542500D4E
:0D1B1E00121BA30545E54570EC054480E869
:011B2B002297
:101BA3007F017E007D587C03ED1D70011CED4C70A0
:0A1BB300F7EF1F70011EEF4E70EAFD
:011BBD002205
:0D000E00EF4E600800EF1F70F71E80F42217
:101A9D00D2AFD2A9D2ABD2B9C2BB758951C204E4BF
:101AAD00F518F519F58AF58CF58BF58DC28CC28E6E
:051ABD00F561D20522D5
:101BD7008F61C28CC28EEF14600B146008240270F0
:091BE7000775895122758911224C
:1019F200C204E4F518F519E56114601514601A249F
:101A0200027020E4F58AF58CF58BF58DD28CD28E9E
:101A120022758DFF758BA48006758DFE758B33C282
:041A22008CD28E22B2
:03001B000218A127
:1018A100C0E0C0F0C083C082C0D075D010E5611423
:1018B100600E14601714602D2403702D0519802902
:1018C100758DFF758BA40519D204801D758B337539
:1018D1008DFED2040519E519C39402400C75190057
:1018E100120D228004C28CC28ED0D0D082D083D07F
:0418F100F0D0E03221
:03000B00021AC214
:101AC200C0E0C0D02005090518E518B40302800A59
:101AD20030050D0518E518B40306C28EC28CD20477
:051AE200D0D0D0E0327D
:100F8300596573004E6F004465627567204D6F6449
:100F930065204F6E004176657267204D6F64652052
:100FA3004F6E005369657665204D6F6465204F6E03
:100FB30000536574205369657665005374617274D8
:100FC30020506C6F740052657365742044657669B4
:100FD3006365004578697400446973636F6E6E6579
:100FE30063742050333700436F6E6E656374205013
:100FF30033370007FF0F83000000FF193908FF0F85
:1010030087000000FF193900002309FF0F83000048
:1010130000FF19390AFF0F87000000FF193900008C
:10102300350BFF0F83000000FF19390CFF0F8700FA
:101033000000FF193900002C00FF0F8A0000230075
:1010430000000DFF0F9800002C00000001FF0FA609
:1010530000003500000003FF0FB4000000FF074449
:1010630004FF0FBE000000FF0A1805FF0FC90000B0
:1010730000FF17F606FF0FD6000000FF0008070069
:0E1083000000FF103BFF1081FF0FDBFF0FEAA4
:101B4F00072302000000FF0FF6073502000000FF19
:0B1B5F00100D072C02000000FF1024F6
:10143400901088E493FB740193FA740293F9C00347
:10144400C002C00190100AE493FB740193FA740281
:1014540093F99000011206A3901088E493FB7401A1
:1014640093FA740293F9C003C002C001901021E4FE
:1014740093FB740193FA740293F99000011206A38A
:10148400901088E493FB740193FA740293F9C003F7
:10149400C002C001901038E493FB740193FA740203
:1014A40093F99000011206A3901088E493FB740151
:1014B40093FA7402938B3C8A3DF53EE4F521C2060F
:1014C400C201F560F55FF55EF55DF565F564F563FC
:1014D400F562F533F534752220F53FD202F52BF58C
:0214E4002A22BA
:1019BC00901088E493FB740193FA7402938B3C8A25
:1019CC003DF53EE4F521C20612135B800E20061590
:1019DC003000FA7F03121BD7120E6E7F02121BD738
:0619EC001219F280E8224E
:10135B00120003E5216068E4FD7F01121C17AB3C12
:10136B00AA3DA93E900004120673AF21EF3395E01E
:10137B00FE7C007D0A12043FE92FF9EA3EFA90FF4A
:10138B00F7120673E4FD7F01121A77AB3CAA3DA955
:10139B003E900004120673AF21EF3395E0FE7C0004
:1013AB007D0A12043FE92FF9EA3EFA90000112067A
:1013BB00737D017F01121A777B3E7D01E48065E42A
:1013CB00FD7F01121C17AB3CAA3DA93E90000412F5
:1013DB000673AF21EF3395E0FE7C007D0A12043FCC
:1013EB00E92FF9EA3EFA900001120673E4FD7F0142
:1013FB00121A77AB3CAA3DA93E900004120673AFBC
:10140B0021EF3395E0FE7C007D0A12043FE92FF9B2
:10141B00EA3EFA90000B1206737D017F01121A77D8
:09142B007B3EE4FDFF121C3A2295
:100E6E00E566603024FE601D046003020F80AB3C1B
:100E7E00AA3DA93E1203F9FF0521E5218FF08485D5
:100E8E00F021020F7DAB3CAA3DA93E1203F914F5E9
:100E9E0021020F7DE567603024FE602604600302A8
:100EAE000F801521C3E52164809480500EAB3CAABF
:100EBE003DA93E1203F92521FF8002AF218F2102A9
:100ECE000F7DE4F521020F7DE56824FE607B046052
:100EDE0003020F80AB3CAA3DA93E9000041206739C
:100EEE00AF21EF3395E0FE7C007D0A12043FE92F1F
:100EFE00F9EA3EFA900004120673E94A4B6023ABFE
:100F0E003CAA3DA93E900004120673E92FF9EA3E71
:100F1E00FA9000041206738B3C8A3D893EE4F5215B
:100F2E00804D121B6BD206AB3CAA3DA93E9000042D
:100F3E00120673E52175F00AA429F9E43AFA900035
:100F4E00071206731206FC8029AB3CAA3DA93E90FF
:100F5E000001120673E94A4B6018AB3CAA3DA93E4C
:100F6E009000011206738B3C8A3D893EE4F52112F6
:050F7E00135B021C30B2
:0100080022D5
:1017F60075400B7541B8C290C291C2927F02121B0E
:10180600D71219F2E5414540602F300424C204E5A1
:1018160041154170021540E541B4D009E540B407D1
:1018260004D292800CE541B4E807E540B40302D245
:10183600913000D0C291C29222D2907FF47E0112E2
:051846001B0A75E760BC
:01184B00227A
:10193900AB3CAA3DA93E900004120673AF21EF33D8
:1019490095E08F82F583740A12066212041224F854
:1019590060131460131460131460131460132405C6
:101969007011D20222C20222D20122C20122D20362
:0419790022C2032261
:100A1800120003D2B77FF47E01121B0A90108BE4F8
:100A280093FB740193FA740293F9E4FDFF1218F52D
:100A3800121C2590171FE493FB740193FA74029318
:100A4800F9E4FDFF1218F5E4F52BF52A7F01121BD6
:100A5800D71219F230B702D2903004FDE52B641199
:100A68007003020AFAE519B4C905052A751901E5E2
:100A78002B2407FFE433FED3E5199FEE6480F87456
:100A880080985004D2B78002C2B7E52AB432CAC2ED
:100A9800B7E4F52AFF121BD71219F23004FD121021
:100AA800917876120618E412033AA804A905AA0652
:100AB800AB07E4FFFE7D807C3F12021F7B3C7AC5BA
:100AC8007919784C1201167B007A8079DC78C41287
:100AD8000025AB2B052BEB25E025E02400F582E46F
:100AE8003400F58312063D7F01121BD71219F2025A
:100AF8000A61E4F540F541120003E54025E025E0F0
:100B08002400F582E43400F583E0FCA3E0FDA3E0D3
:100B1800FEA3E0F5478E468D458C44E4FDFF120B9D
:100B2800D17F02121BD71219F2E541707A3000F911
:100B3800E566601924FE601004703D0540E54075C7
:100B4800F0118485F0408030754010802BE5676097
:100B58001F24FE60160470201540E540C394005021
:100B6800047F108002AF408F40800DE4F54080087C
:100B7800E568147003754101120003E54025E0257E
:100B8800E02400F582E43400F583E0FCA3E0FDA353
:100B9800E0FEA3E0F5478E468D458C44E4FDFF1248
:100BA8000BD1121C30808290108EE493FB74019359
:100BB800FA740293F9E4FDFF1218F5121C25D2B756
:090BC800C2907FF47E01021B0AB9
:10074400E4F540F541120003754603AB34AA33E4E3
:10075400FDFF12161AAB22E4FD7F03121C3A7B5EE6
:100764007D01AF40121C3A7F02121BD71219F2E529
:100774004160030208973000F6E5667003020851F1
:1007840024FE604D04600302083CE5401460131429
:1007940060161460222403600302083CE5342464D8
:1007A400800AE534240A8004E5342401FFE4353367
:1007B400FE7C037DE88031E52224B5600D24FE60D3
:1007C4000E242D707375224B806E75224D806980C6
:1007D40064E54014601B1460441460592403705889
:1007E400AE33AF347C007D641204518C338D34807D
:1007F40047AE33AF347C007D641204517E007F0A1F
:10080400CFCDCFCECCCE1204517C007D0A12043F52
:10081400C3E5349FF534E5339EF533801BAE33AF27
:10082400347C007D0A120451C3E5349DF534E5336C
:100834009CF5338003752220754603AB34AA33E458
:10084400FDFF12161AAB22E4FD7F038033E56760D7
:10085400347B207D01AF40121C3AE56724FE600D15
:100864000470170540E5405403F540800DE540B49D
:100874000305E4F54080037540037B5E7D01AF40D2
:10088400121C3A8008E568147003754101121C308B
:10089400020773E4F540F541120003E53FFB7A00DB
:1008A400754602E4FDFF12161A7B25E4FD7F021251
:1008B4001C3A7B5E7D01AF40121C3AE541600302A5
:1008C40009643000F6E566605B24FE60270470442A
:1008D400E54014601604703CE53F240AFFE433FE4F
:1008E4007C007D641204518D3F8029053FE53F75EE
:1008F400F064800DE54014600E047018E53F75F057
:100904000A8485F03F800DE53F75F00A84C3E53F16
:1009140095F0F53FE53FFB7A00754602E4FDFF12D2
:10092400161A8036E567602A7B207D01AF40121CD1
:100934003AE56724FE600D04700D0540E54054015E
:10094400F5408003E4F5407B5E7D01AF40121C3A24
:100954008008E568147003754101121C300208BF59
:10096400E52224B5601224FE6022242D7039AC33B4
:10097400AD34E412033F8027AC33AD34E412033FBB
:10098400E4FBFA797A78441201168013AC33AD345F
:10099400E412033F7B007A24797478491201168F9C
:1009A400608E5F8D5E8C5DAC3FE4120344E4FBFA21
:1009B40079C8784212021F8F658E648D638C62122F
:1009C4000003754603AB34AA33E4FDFF12161AABD9
:1009D40022E4FD7F03121C3AE53FFB7A00754602D0
:1009E4007D01E4FF12161A856047855F46855E45E2
:1009F400855D44E4FD7F08120BD185654785644617
:100A04008563458562447D017F08120BD17FB87EE2
:040A14000B021B0AAC
:10109100AF8DE4FCFDFEFB7A01F9F81204DCC0041B
:1010A100C005C006C007AF19E4FCFDFEFBFA7901DB
:1010B100F81204DCD003D002D001D000EF2BFBEEFC
:1010C1003AFAED39F9EC38F8AF8BE4FCFDFEEB2F81
:1010D100FFEE3AFEED39FDEC38FC7876120631E48C
:1010E100FFFEFDFC7876120624C3120607700A780B
:1010F1007A120649501502F922787630B72E120677
:1011010018E412033AA804A905AA06AB07E4FFFEF6
:101111007D807C3F12021F7B3C7AC57919784C1285
:1011210001167B007A8079DC78C4802C120618E4E1
:1011310012033AA804A905AA06AB07E4FFFE7D80C5
:101141007C3F12021F7B907A9B7915785012011611
:101151007B007A7079B778C7120025787A12063148
:1011610030B716E47F5E7E01FDFC7876120624C35B
:101171001206075004C2B7801820B71C7F707E1179
:101181007D017C007876120624D31206074009D22D
:09119100B77FF47E01121B0A2253
:101A2600D2B7787A12064900000000787612064985
:101A360000000000787212064900000000787E124D
:091A4600064900000000C2032261
:10001E000203E4E86480F8E933E83360110460F029
:10002E00ED33EC337009E8FCE9FDEAFEEBFF220448
:10003E0060DED3EB9FEA9EE99DE8C2E78CF0C2F743
:10004E0095F0400CE8CCF8E9CDF9EACEFAEBCFFB0F
:10005E001203AF85D0F05804700320D5B3E80470B6
:10006E00075002B2D50203EE92D5EC0460F7E4CC51
:10007E00C0E0C398F8603B94186008400DD0E0FBD8
:10008E000203C6E4FBFAC9FC8028E830E406E4C9A2
:10009E00FBE4CAFCE830E305E4C9CACBFCE854072C
:1000AE006010F8C3E913F9EA13FAEB13FBEC13FC37
:1000BE00D8F130F52FC3E49CFCEF9BFFEE9AFEEDDA
:1000CE0099FDD0E0FBEF4E4D4C701222DB03020384
:1000DE00EBEC2CFCEF33FFEE33FEED33FDED30E7B2
:1000EE00EB0203C6EF2BFFEE3AFEED39FDD0E0FB3F
:1000FE0050130BBB00030203EEED13FDEE13FEEFE8
:08010E0013FFEC13FC0203C611
:10011600EC4D6011E8497017ED33EC3304600DE4E3
:10012600FCFFFEFD22E933E8330470F80203E41213
:1001360003AF58046009E4CC248150062850090214
:1001460003EE2840030203EBC0E0EB4A7044B9809B
:1001560006D0E0FB0203DAEF4E701CBD8008EBFF11
:10016600EAFEE9FD80EBE98DF0A4FEE5F00201FF71
:10017600E9CDF9EAFEEBFFEF89F0A4FCE5F0CE89C4
:10018600F0A42EFFE435F0CD89F0A42DFEE435F081
:100196008067EF4E7005BD80D780C3EF8BF0A4ACAF
:1001A600F0EE8BF0A42CFCE435F0F8EF8AF0A42CEA
:1001B600E5F038FCE433CB8DF0A42CFCE5F03BF8FD
:1001C600EE8AF0A42CFCE5F038F8E433CF89F0A4ED
:1001D6002CFCE5F038CF3400CE89F0A42FFFE5F0F3
:1001E6003EFEE433C98DF0A42EFEE5F039CD8AF04B
:1001F600A42FFFE5F03EFEE43DFD33D0E0FB5007C3
:100206000BBB000F0203EEEC2CFCEF33FFEE33FECC
:06021600ED33FD0203C6FA
:10021C000203EEEC5D046005E8590470030203E48C
:10022C001203AF580460F6EC4860F2EC7004FDFE6B
:10023C00FF22C860DB2481C85009C39860025006B5
:10024C000203EB9850CAF582E9294B4A7005AB8240
:10025C000203DA75F0007C1A7880C3EF9BEE9AEDFE
:10026C0099400DC3EF9BFFEE9AFEED99FDE842F02D
:10027C00DC23ACF0D0E0FFD0E0FED0E0FDAB822080
:10028C00E7101BEB60BAEC2CFCEF33FFEE33FEED0A
:10029C0033FD0203C6E803F830E705C0F075F00043
:1002AC00EF2FFFEE33FEED33FD40B830E7C280AAEE
:1002BC0074F8CC6480CCC86480C8F582046043C3F5
:1002CC00EB9FF5F0EA9E42F0E99D42F0E89C45F088
:1002DC0060305018E5825FFFE582F42B5582FB50AD
:1002EC00210ABA001D09B90019088016E5825BFBCA
:1002FC00E582F42F5582FF50090EBE00050DBD009E
:10030C00010CC3EB9FF5F0EA9E42F0E99D42F0E848
:0D031C009C45F06007CC4820E701B3EC22BF
:10032900ED33EC33600A047003BD8004ECB2E7FCE2
:0103390022A1
:10033A0075F020800E75F010800575F0087D007E3E
:10034A00007F003392D530D5031205F9EC33401003
:10035A00EF33FFEE33FEED33FDEC33FCD5F0ED2247
:0E036A00E5F0247EA2D513CC92E7CDCEFF2283
:10037800EDD2E7CD33EC3392D524814006E4FFFE7D
:10038800FDFC22FCE4CFCECDCC24E0501174FF80DC
:10039800EDC3CC13CCCD13CDCE13CECF13CF047079
:0703A800F030D5DE0205F97B
:1003AF00E9D2E7C933E833F892D5EDD2E7CD33EC94
:0703BF0033FC5002B2D5220D
:1003C600EC30E7100FBF000C0EBE00080DBD000498
:1003D6000BEB6014A2D5EB13FCED92E7FD2274FF44
:1003E600FCFDFEFF22E480F8A2D574FF13FC7D809D
:0303F600E480EFB1
:10159A00021B87E493A3F8E493A34003F68001F2C5
:1015AA0008DFF48029E493A3F85407240CC8C33352
:1015BA00C4540F4420C8834004F456800146F6DF21
:1015CA00E4800B0102040810204080901B4DE47E49
:1015DA00019360BCA3FF543F30E509541FFEE49316
:1015EA00A360010ECF54C025E060A840B8E493A3DD
:1015FA00FAE493A3F8E493A3C8C582C8CAC583CA08
:10160A00F0A3C8C582C8CAC583CADFE9DEE780BEBF
:011B6A00007A
:1003F900BB010689828A83E0225002E722BBFE0202
:09040900E32289828A83E4932234
:10041200BB010CE58229F582E5833AF583E022509F
:1004220006E92582F8E622BBFE06E92582F8E222E9
:0D043200E58229F582E5833AF583E4932203
:10043F00EF8DF0A4A8F0CF8CF0A428CE8DF0A42ED1
:02044F00FE228B
:10045100BC000BBE0029EF8DF084FFADF022E4CC8F
:10046100F875F008EF2FFFEE33FEEC33FCEE9DEC58
:10047100984005FCEE9DFE0FD5F0E9E4CEFD22ED9E
:10048100F8F5F0EE8420D21CFEADF075F008EF2FE8
:10049100FFED33FD4007985006D5F0F222C398FDD9
:0504A1000FD5F0EA2276
:1004A600C2D5EC30E709B2D5E4C39DFDE49CFCEE71
:1004B60030E715B2D5E4C39FFFE49EFE120451C394
:1004C600E49DFDE49CFC800312045130D507C3E48F
:0604D6009FFFE49EFE22E0
:1004DC00E88FF0A4CC8BF0A42CFCE98EF0A42CFCBF
:1004EC008AF0EDA42CFCEA8EF0A4CDA8F08BF0A43D
:1004FC002DCC3825F0FDE98FF0A42CCD35F0FCEB9C
:10050C008EF0A4FEA9F0EB8FF0A4CFC5F02ECD3960
:0F051C00FEE43CFCEAA42DCE35F0FDE43CFC22CD
:10052B0075F008758200EF2FFFEE33FECD33CDCC87
:10053B0033CCC58233C5829BED9AEC99E58298400A
:10054B000CF582EE9BFEED9AFDEC99FC0FD5F0D6E7
:10055B00E4CEFBE4CDFAE4CCF9A88222B800C1B911
:10056B000059BA002DEC8BF084CFCECDFCE5F0CB4F
:10057B00F97818EF2FFFEE33FEED33FDEC33FCEB88
:10058B0033FB10D703994004EB99FB0FD8E5E4F943
:10059B00FA227818EF2FFFEE33FEED33FDEC33FC30
:1005AB00C933C910D7059BE99A4007EC9BFCE99A24
:1005BB00F90FD8E0E4C9FAE4CCFB2275F010EF2F69
:1005CB00FFEE33FEED33FDCC33CCC833C810D70769
:1005DB009BEC9AE899400AED9BFDEC9AFCE899F8A4
:0E05EB000FD5F0DAE4CDFBE4CCFAE4C8F92237
:0E05F900C3E49FFFE49EFEE49DFDE49CFC2213
:10060700EB9FF5F0EA9E42F0E99D42F0E89C45F049
:0106170022C0
:0C061800E6FC08E6FD08E6FE08E6FF220E
:0D062400E6FB08E6F908E6FA08E6CBF82246
:0C063100ECF608EDF608EEF608EFF622F5
:0C063D00ECF0A3EDF0A3EEF0A3EFF02230
:10064900D083D082E493F608740193F60874029378
:09065900F608740393F6740473AF
:10066200F5F0C582A4C582C5F0C583A42583F583B0
:010672002265
:10067300BB010DE58229F582E5833AF58302071470
:100683005007E92582F8020702BBFE07E92582F835
:10069300020726E58229F582E5833AF583020738C6
:1006A300BB0120E58229F582E5833AF583D0F0D0BA
:1006B300E0F8D0E0F9D0E0FAD0E0FBE8C0E0C0F029
:1006C30002071D5018E92582F8D083D082D0E0F9C3
:1006D300D0E0FAD0E0FBC082C08302070BBBFE1858
:1006E300E92582F8D083D082D0E0F9D0E0FAD0E0D7
:0906F300FBC082C08302072F2224
:0606FC008A838982E47389
:09070200E6FB08E6FA08E6F9221C
:09070B00EBF608EAF608E9F62213
:09071400E0FBA3E0FAA3E0F922E6
:09071D00EBF0A3EAF0A3E9F022DD
:09072600E2FB08E2FA08E2F92204
:09072F00EBF208EAF208E9F222FB
:0C073800E493FB740193FA740293F9221D
:00000001FF
