:03000000020A8869
:0C0A8800787FE4F6D8FD758161020ACF8A
:1005D300E54514601214602F14605D2403705F20DE
:1005E300955C7545018019309502804F0544E544BB
:1005F30070020543D39432E54394004041754502AC
:10060300E4F543F544803730950AE4F54575370141
:10061300D200802A0544E54470020543FFAE43E45B
:10062300FCFD7B607AEAF9F8C31204945010753725
:1006330002D2007545038006309503E4F545E5488D
:1006430014601214602F14605D2403705F20945CA7
:100653007548018019309402804F0547E5477002C1
:100663000546D39432E54694004041754802E4F5CB
:1006730046F547803730940AE4F548753801D200CF
:10068300802A0547E54770020546FFAE46E4FCFDB8
:100693007B607AEAF9F8C31204945010753802D2D9
:1006A300007548038006309403E4F548E54B146075
:1006B3001214602E14605A2403705C209359754BF6
:1006C300018019309302804C054AE54A70020549BE
:1006D300D39432E5499400403E754B02E4F549F565
:1006E3004A22309309E4F54B753901D20022054AB9
:1006F300E54A70020549FFAE49E4FCFD7B607AEAF6
:10070300F9F8C3120494500F753902D200754B03E4
:0807130022309303E4F54B22B0
:0A0FE000E4F537F538F539C20022B8
:100F0500E4F537F538F539C200F545F548F54BF503
:0C0F150043F544F546F547F549F54A223E
:100E10008B3A8A3B893C2000051205D380F8E537E0
:100E20006007AA3BA93C1204AAE5386007AA3EA9BC
:100E30003F1204AAE5396007AA41A9421204AA0296
:020E40000FE0C1
:0B0FCA002000051205D380F8020FE0A4
:100F9D00496E66696E6974650030303000303030EE
:020FAD00300012
:0A000E0008081F111B0A0A0A040467
:100F8700C2B2D2B3D2B47F047E00120FBDA2A79221
:050F970004C2B4A20435
:010F9C002232
:100EC0008F52120F8740FBC2B2C2B3C2B48552A088
:100ED0007F047E00120FBDD2B47F047E00120FBDCE
:030EE000C2B42277
:0E0FAF00ED60054307C08003430780020EC0BB
:060E720014F91203E8FF71
:100E78008F52120F8740FBD2B2C2B3C2B48552A0C0
:100E88007F047E00120FBDD2B47F047E00120FBD16
:030E9800C2B422BF
:100C0C007F0F7E00120EE37F38120EC07F057E0030
:100C1C00120EE37F38120EC07F057E00120EE37FAA
:100C2C0038120EC07F057E00120EE37F0C120EC030
:100C3C007F057E00120EE37F06120EC07F057E003C
:100C4C00120EE37F40120EC0E4F54C7408254CF8EC
:100C5C00E6FF120E78054CE54CC3940840ED7F017D
:100C6C00120EC07F057E00120EE3E4FDFF020FAFF3
:050003007F01020EC0A8
:0A0FEA008B61120FAFAF61020E78A9
:1009F70012021F8F588E578D568C551203678E1C07
:100A07008F1DAC1CAD1DEC12032EA804A905AA0668
:100A1700AB07AF58AE57AD56AC55120021E4FBFA01
:100A2700797A78441201161203678E108F11AB1D65
:060A3700AA1CAD54AF53F0
:040A3D008A4C8B4D07
:100A4100E4F54E120FAFAE4CAF4D7C007D0A12049F
:100A510001AF05AE4E054E74122EF8A607AE4CAF8F
:100A61004D7C007D0A1204018E4C8F4DE54D454CA5
:100A710070D4E54E6010154E7412254EF8E6243000
:060A8100FF120E7880EC6C
:010A8700224C
:10071B008F538D547F287E6B7D6E7C4EAB58AA57C2
:10072B00A956A8551202BC400D7BFF7A0F799DADDF
:10073B0054AF530208327F007E247D747C49AB5842
:10074B00AA57A956A8551202BC4036AF58AE57ADA2
:10075B0056AC557B007A24797478491209F77F2EB1
:10076B00120E78E51145106010E5532404FFAB1110
:10077B00AA10AD54120A3D8003120DDD7F4D020706
:10078B00D4E4FFFE7D7A7C44AB58AA57A956A855F2
:10079B001202BC60374035AF58AE57AD56AC55E47E
:1007AB00FBFA797A78441209F77F2E120E78E5114D
:1007BB0045106010E5532404FFAB11AA10AD541281
:1007CB000A3D8003120DDD7F4B020E78AF58AE57FA
:1007DB00AD56AC551203678E1C8F1DAC1CAD1DECBA
:1007EB0012032EA804A905AA06AB07AF58AE57AD46
:1007FB0056AC551200217B007A40791C7846120AC0
:10080B002B7F2E120E78E5114510600EE553240454
:10081B00FFAB11AA10AD54020A3DE5532404FF7B34
:0B082B00FF7A0F79AAAD54120DEA22EB
:0D0DDD00E5532404FF7BFF7A0F79A6AD5487
:100DEA008B4C8A4D894E120FAFAB4CAA4DA94E12AD
:100DFA0003E8FF6010120E787401254EF54EE435B3
:060E0A004DF54D80E422CD
:0A0D55008F598D5A8B5B8A5C895D13
:100D5F00E4FF120FAFE4F55E7F20120E78055EE51B
:100D6F005EC3941040F2AD5AAF59120FAFAB5BAAEE
:100D7F005CA95D1203E8FF6010120E787401255D07
:090D8F00F55DE4355CF55C80E4DF
:010D98002238
:100C7C008B4C8A4D894E7F01120EC0E4FDFF120F82
:100C8C00AFAB4CAA4DA94E1203E8600D054EE54ED4
:100C9C007002054D120E7280E87D01E4FF120FAF59
:100CAC00AB4FAA50A9511203E8600D0551E55170E4
:090CBC00020550120E7280E822BC
:020F3C008B1E0A
:100F3E00120FAFE4F51FE51FC3951E50097F201257
:060F4E000E78051F80F083
:010F5400227A
:050FF4007F0F020EC09A
:050FF9007F0C020EC098
:100B140043726F73732050726F62657320416E6409
:100B240000507265737320416E7920427574746F3E
:100B34006E004D656172737572696E672E2E2E009C
:100B4400506C656173652057616974005365742046
:100B54005A65726F0046696E6973686564004C4F2C
:100B6400570048494748004B4559310053484F52B4
:100B7400545F5052455353004C4F4E475F505245BB
:100B84005353004B455932004B45593300523D00F5
:02001800C181A4
:100D0E007592077591F875B28075B120C292C29135
:100D1E00C290120CC5120F05D2907FE87E03120E00
:100D2E00E3120C0CD2917FE87E03120EE3D2927F77
:100D3E00E87E03120EE3C292C291C290120936C22D
:070D4E0092C291C29080F5F2
:10093600754FFF75500B7551257BFF7A0B79141295
:100946000C7C120FCA754FFF75500B7551447BFF17
:100956007A0B7936120C7CC2A47FB87E0B120EE39A
:10096600120F6E3003FD120836E58A7002D29085AA
:100976002824852723852622852521D2A47FE87E63
:1009860003120EE3120F6E3003FD120836E58A706D
:1009960002D29285283685273585263485253375F6
:1009A6004FFF75500B7551597BFF7A0B7950120C1E
:1009B6007C7FD07E07120EE33001351200037BFFE9
:1009C6007A0B7962E4FDFF120DEAAA23AB24E4FD5B
:1009D6007F06120A3D7BFF7A0B79667D01E4FF12E2
:1009E6000DEAAA35AB367D017F06120A3D120FCA03
:0109F60022DE
:100B9400E53724FE600E04701D754FFF75500B750C
:100BA40051708009754FFF75500B75517C7BFF7A2E
:100BB4000B796B120C7CE53824FE600E04701D75F5
:100BC4004FFF75500B7551708009754FFF75500BB1
:100BD40075517C7BFF7A0B7987120C7CE53924FEF6
:100BE400600E04701D754FFF75500B7551708009B0
:100BF400754FFF75500B75517C7BFF7A0B798C1206
:080C04000C7C120FE0020FCA84
:100E4200120836120F6E1200037BFF7A0B7991E4BF
:100E5200FDFF120DEA852C58852B57852A568529C8
:100E620055E4FD7F0212071BE4FBFD7F0F020FEA30
:040EE3008E4D8F4E53
:100EE700E4F54FF550C3E550954EE54F954D500D40
:0D0EF700120F210550E55070EC054F80E80A
:010F040022CA
:100F21007F017E007DF47C01ED1D70011CED4C7094
:0A0F3100F7EF1F70011EEF4E70EA8B
:010F3B002293
:0D0FBD00EF4E600800EF1F70F71E80F42259
:100CC500D2AFD2A9D2ABD2B9C2BB758951C2A4E405
:100CD500F52CF52BF52AF529C203F528F527F52678
:100CE500F525F532F531F530F52FF524F523F52207
:100CF500F521F536F535F534F533F55FF560F58A0B
:090D0500F58CF58BF58DF52E221D
:100F55008F2EC28CC28EEF14600B146008240270B1
:090F6500077589512275891122DA
:100F6E00C203E4F55FF560E52E700DE4F58AF58CAD
:090F7E00F58BF58DD28CD28E2288
:03001B00020FD5FC
:0B0FD500C0E0E52E70020560D0E032A5
:03000B00020E9B47
:100E9B00C0E0C0D020A409055FE55FB40202800A60
:100EAB0030A40D055FE55FB40F06C28EC28CD20372
:050EBB00D0D0D0E032B0
:10083600C203AF60E4FCFDFEFBFA7901F81204374F
:10084600A804A905AA06AB07AF8DEFFEE4FCFD2BB5
:10085600FBEA3EFAED39F9EC38F8AF8BE4FEEB2F04
:10086600F528EE3AF527ED39F526EC38F52520A4DE
:10087600597F957EBA7D0AAB28AA27A926F81204C5
:10088600378F328E318D308C2FAF28AE27AD26AC08
:1008960025AB24AA23A922A821120437A804A90556
:1008A600AA06AB07C3E5249528FFE5239527FEE5B1
:1008B600229526FDE5219525FC120D99EC120329BA
:1008C6007BCC7A8A79C9784E805A7F367E6E7D01D6
:1008D6007C00AB28AA27A926A8251204378F328EBA
:1008E600318D308C2FAF28AE27AD26AC25AB36AA7E
:1008F60035A934A833120437A804A905AA06AB07FC
:10090600C3E5369528FFE5359527FEE5349526FDA2
:10091600E5339525FC120D99EC1203297BA27A5139
:10092600790F78521201168F2C8E2B8D2A8C292244
:10001E000203D3E86480F8E933E83360110460F03A
:10002E00ED33EC337009E8FCE9FDEAFEEBFF220448
:10003E0060DED3EB9FEA9EE99DE8C2E78CF0C2F743
:10004E0095F0400CE8CCF8E9CDF9EACEFAEBCFFB0F
:10005E0012039E85D0F05804700320D5B3E80470C7
:10006E00075002B2D50203DD92D5EC0460F7E4CC62
:10007E00C0E0C398F8603B94186008400DD0E0FBD8
:10008E000203B5E4FBFAC9FC8028E830E406E4C9B3
:10009E00FBE4CAFCE830E305E4C9CACBFCE854072C
:1000AE006010F8C3E913F9EA13FAEB13FBEC13FC37
:1000BE00D8F130F52FC3E49CFCEF9BFFEE9AFEEDDA
:1000CE0099FDD0E0FBEF4E4D4C701222DB03020384
:1000DE00DAEC2CFCEF33FFEE33FEED33FDED30E7C3
:1000EE00EB0203B5EF2BFFEE3AFEED39FDD0E0FB50
:1000FE0050130BBB00030203DDED13FDEE13FEEFF9
:08010E0013FFEC13FC0203B522
:10011600EC4D6011E8497017ED33EC3304600DE4E3
:10012600FCFFFEFD22E933E8330470F80203D31224
:10013600039E58046009E4CC248150062850090225
:1001460003DD2840030203DAC0E0EB4A7044B980BD
:1001560006D0E0FB0203C9EF4E701CBD8008EBFF22
:10016600EAFEE9FD80EBE98DF0A4FEE5F00201FF71
:10017600E9CDF9EAFEEBFFEF89F0A4FCE5F0CE89C4
:10018600F0A42EFFE435F0CD89F0A42DFEE435F081
:100196008067EF4E7005BD80D780C3EF8BF0A4ACAF
:1001A600F0EE8BF0A42CFCE435F0F8EF8AF0A42CEA
:1001B600E5F038FCE433CB8DF0A42CFCE5F03BF8FD
:1001C600EE8AF0A42CFCE5F038F8E433CF89F0A4ED
:1001D6002CFCE5F038CF3400CE89F0A42FFFE5F0F3
:1001E6003EFEE433C98DF0A42EFEE5F039CD8AF04B
:1001F600A42FFFE5F03EFEE43DFD33D0E0FB5007C3
:100206000BBB000F0203DDEC2CFCEF33FFEE33FEDD
:06021600ED33FD0203B50B
:10021C000203DDEC5D046005E8590470030203D3AE
:10022C0012039E580460F6EC4860F2EC7004FDFE7C
:10023C00FF22C860DB2481C85009C39860025006B5
:10024C000203DA9850CAF582E9294B4A7005AB8251
:10025C000203C975F0007C1A7880C3EF9BEE9AED0F
:10026C0099400DC3EF9BFFEE9AFEED99FDE842F02D
:10027C00DC23ACF0D0E0FFD0E0FED0E0FDAB822080
:10028C00E7101BEB60BAEC2CFCEF33FFEE33FEED0A
:10029C0033FD0203B5E803F830E705C0F075F00054
:1002AC00EF2FFFEE33FEED33FD40B830E7C280AAEE
:1002BC0074F8CC6480CCC86480C8F582046043C3F5
:1002CC00EB9FF5F0EA9E42F0E99D42F0E89C45F088
:1002DC0060305018E5825FFFE582F42B5582FB50AD
:1002EC00210ABA001D09B90019088016E5825BFBCA
:1002FC00E582F42F5582FF50090EBE00050DBD009E
:10030C00010CC3EB9FF5F0EA9E42F0E99D42F0E848
:0D031C009C45F06007CC4820E701B3EC22BF
:1003290075F020800E75F010800575F0087D007E4F
:10033900007F003392D530D503120486EC33401088
:10034900EF33FFEE33FEED33FDEC33FCD5F0ED2258
:0E035900E5F0247EA2D513CC92E7CDCEFF2294
:10036700EDD2E7CD33EC3392D524814006E4FFFE8E
:10037700FDFC22FCE4CFCECDCC24E0501174FF80ED
:10038700EDC3CC13CCCD13CDCE13CECF13CF04708A
:07039700F030D5DE02048600
:10039E00E9D2E7C933E833F892D5EDD2E7CD33ECA5
:0703AE0033FC5002B2D5221E
:1003B500EC30E7100FBF000C0EBE00080DBD0004A9
:1003C5000BEB6014A2D5EB13FCED92E7FD2274FF55
:1003D500FCFDFEFF22E480F8A2D574FF13FC7D80AE
:0303E500E480EFC2
:100A9400020D0EE493A3F8E493A34003F68001F25D
:100AA40008DFF48029E493A3F85407240CC8C33363
:100AB400C4540F4420C8834004F456800146F6DF32
:100AC400E4800B010204081020408090000EE47EB4
:100AD400019360BCA3FF543F30E509541FFEE49327
:100AE400A360010ECF54C025E060A840B8E493A3EE
:100AF400FAE493A3F8E493A3C8C582C8CAC583CA19
:100B0400F0A3C8C582C8CAC583CADFE9DEE780BED0
:01001A0000E5
:1003E800BB010689828A83E0225002E722BBFE0213
:0903F800E32289828A83E4932246
:10040100C2D5EC30E709B2D5E4C39DFDE49CFCEE16
:1004110030E715B2D5E4C39FFFE49EFE1204B0C3DA
:10042100E49DFDE49CFC80031204B030D507C3E4D5
:060431009FFFE49EFE2285
:10043700E88FF0A4CC8BF0A42CFCE98EF0A42CFC64
:100447008AF0EDA42CFCEA8EF0A4CDA8F08BF0A4E2
:100457002DCC3825F0FDE98FF0A42CCD35F0FCEB41
:100467008EF0A4FEA9F0EB8FF0A4CFC5F02ECD3906
:0F047700FEE43CFCEAA42DCE35F0FDE43CFC2273
:100D9900C2D5E830E70FB2D5E4C39BFBE49AFAE485
:100DA90099F9E498F8EC30E717B2D5120DCF12058E
:100DB90041E4C39BFBE49AFAE499F9E498F88003C7
:100DC90012054130D50DE4C39FFFE49EFEE49DFD6D
:040DD900E49CFC2278
:0E048600C3E49FFFE49EFEE49DFDE49CFC2287
:10049400EB9FF5F0EA9E42F0E99D42F0EC6480C8DF
:0604A40064809845F0227F
:0604AA008A838982E473DD
:1004B000BC000BBE0029EF8DF084FFADF022E4CC30
:1004C000F875F008EF2FFFEE33FEEC33FCEE9DECF9
:1004D000984005FCEE9DFE0FD5F0E9E4CEFD22ED3F
:1004E000F8F5F0EE8420D21CFEADF075F008EF2F89
:1004F000FFED33FD4007985006D5F0F222C398FD7A
:050500000FD5F0EA2216
:1005050075F008758200EF2FFFEE33FECD33CDCCAD
:1005150033CCC58233C5829BED9AEC99E582984030
:100525000CF582EE9BFEED9AFDEC99FC0FD5F0D60D
:10053500E4CEFBE4CDFAE4CCF9A88222B800C1B937
:100545000059BA002DEC8BF084CFCECDFCE5F0CB75
:10055500F97818EF2FFFEE33FEED33FDEC33FCEBAE
:1005650033FB10D703994004EB99FB0FD8E5E4F969
:10057500FA227818EF2FFFEE33FEED33FDEC33FC56
:10058500C933C910D7059BE99A4007EC9BFCE99A4A
:10059500F90FD8E0E4C9FAE4CCFB2275F010EF2F8F
:1005A500FFEE33FEED33FDCC33CCC833C810D7078F
:1005B5009BEC9AE899400AED9BFDEC9AFCE899F8CA
:0E05C5000FD5F0DAE4CDFBE4CCFAE4C8F9225D
:00000001FF
