:03000000020B2DC3
:0C0B2D00787FE4F6D8FD758164020B743B
:1005D300E54F14601214602F14605D2403705F20D4
:1005E300955C754F018019309502804F054EE54E9D
:1005F3007002054DD39432E54D94004041754F028E
:10060300E4F54DF54E803730950AE4F54F75370123
:10061300D200802A054EE54E7002054DFFAE4DE433
:10062300FCFD7B607AEAF9F8C31204945010753725
:1006330002D200754F038006309503E4F54FE5526F
:1006430014601214602F14605D2403705F20945CA7
:100653007552018019309402804F0551E5517002A3
:100663000550D39432E55094004041755202E4F5AD
:1006730050F551803730940AE4F552753801D200B1
:10068300802A0551E55170020550FFAE50E4FCFD90
:100693007B607AEAF9F8C31204945010753802D2D9
:1006A300007552038006309403E4F552E555146057
:1006B3001214602E14605A2403705C2093597555EC
:1006C300018019309302804C0554E55470020553A0
:1006D300D39432E5539400403E755502E4F553F547
:1006E3005422309309E4F555753901D2002205549B
:1006F300E55470020553FFAE53E4FCFD7B607AEAD8
:10070300F9F8C3120494500F753902D200755503DA
:0807130022309303E4F55522A6
:0A103E00E4F537F538F539C2002259
:100F6300E4F537F538F539C200F54FF552F555F587
:0C0F73004DF54EF550F551F553F55422A4
:100E6E008B448A4589462000051205D380F8E53764
:100E7E006007AA45A9461204AAE5386007AA48A940
:100E8E00491204AAE5396007AA4BA94C1204AA021A
:020E9E00103E04
:0B1028002000051205D380F802103EE6
:100FFB00496E66696E697465003030300030303090
:02100B003000B3
:0A000E0008081F111B0A0A0A040467
:100FE500C2B2D2B3D2B47F047E0012101BA2A79264
:050FF50004C2B4A204D7
:010FFA0022D4
:100F1E008F43120FE540FBC2B2C2B3C2B48543A0E9
:100F2E007F047E0012101BD2B47F047E0012101BB1
:030F3E00C2B42218
:0E100D00ED60054307C08003430780020F1EFD
:060ED00014F91203E8FF13
:100ED6008F43120FE540FBD2B2C2B3C2B48543A022
:100EE6007F047E0012101BD2B47F047E0012101BFA
:030EF600C2B42261
:100CB1007F0F7E00120F417F38120F1E7F057E00CD
:100CC100120F417F38120F1E7F057E00120F417FE8
:100CD10038120F1E7F057E00120F417F0C120F1E6E
:100CE1007F057E00120F417F06120F1E7F057E00D9
:100CF100120F417F40120F1EE4F53A7408253AF8AD
:100D0100E6FF120ED6053AE53AC3940840ED7F019D
:100D1100120F1E7F057E00120F41E4FDFF02100D30
:050003007F01020F1E49
:0A1048008B6412100DAF64020ED687
:100A9C0012021F8F3F8E3E8D3D8C3C1203678E1CC5
:100AAC008F1DAC1CAD1DEC12032EA804A905AA06C3
:100ABC00AB07AF3FAE3EAD3DAC3C120021E4FBFAC0
:100ACC00797A78441201161203678E108F11AB1DC0
:060ADC00AA1CAD3BAF3A7D
:040AE2008A408B417A
:100AE600E4F54212100DAE40AF417C007D0A1204BF
:100AF60001AF05AE42054274122EF8A607AE40AF0E
:100B0600417C007D0A1204018E408F41E54145403B
:100B160070D4E5426010154274122542F8E624307E
:060B2600FF120ED680EC68
:010B2C0022A6
:10071B008F3A8D3B7F287E6B7D6E7C4EAB3FAA3E26
:10072B00A93DA83C1202BC400D7BFF7A0F79FBADB3
:10073B003BAF3A0208327F007E247D747C49AB3F8D
:10074B00AA3EA93DA83C1202BC4036AF3FAE3EAD1F
:10075B003DAC3C7B007A2479747849120A9C7F2E3D
:10076B00120ED6E51145106010E53A2404FFAB11CB
:10077B00AA10AD3B120AE28003120E3B7F4D02071B
:10078B00D4E4FFFE7D7A7C44AB3FAA3EA93DA83C56
:10079B001202BC60374035AF3FAE3EAD3DAC3CE4E2
:1007AB00FBFA797A7844120A9C7F2E120ED6E51149
:1007BB0045106010E53A2404FFAB11AA10AD3B12B3
:1007CB000AE28003120E3B7F4B020ED6AF3FAE3ECA
:1007DB00AD3DAC3C1203678E1C8F1DAC1CAD1DECEC
:1007EB0012032EA804A905AA06AB07AF3FAE3EAD78
:1007FB003DAC3C1200217B007A40791C7846120AF2
:10080B00D07F2E120ED6E5114510600EE53A24046A
:10081B00FFAB11AA10AD3B020AE2E53A2404FF7BC1
:0B082B00FF7A107908AD3B120E482246
:0D0E3B00E53A2404FF7BFF7A107904AD3BFB
:100E48008B408A41894212100DAB40AA41A9421237
:100E580003E8FF6010120ED674012542F542E4350E
:060E680041F54180E42287
:0A0DB3008F568D578B588A59895AC4
:100DBD00E4FF12100DE4F55B7F20120ED6055BE506
:100DCD005BC3941040F2AD57AF5612100DAB58AA3D
:100DDD0059A95A1203E8FF6010120ED67401255A54
:090DED00F55AE43559F55980E48A
:010DF60022DA
:100D21008B5C8A5D895E7F01120F1EE4FDFF12104C
:100D31000DAB5CAA5DA95E1203E8600D055EE55E80
:100D41007002055D120ED080E87D01E4FF12100DE6
:100D5100AB5FAA60A9611203E8600D0561E56170EE
:090D6100020560120ED080E822A8
:020F9A008B1EAC
:100F9C0012100DE4F51FE51FC3951E50097F20129A
:060FAC000ED6051F80F0C7
:010FB200221C
:051052007F0F020F1EDC
:051057007F0C020F1EDA
:100BB90043726F73732050726F62657320416E6464
:100BC90000507265737320416E7920427574746F99
:100BD9006E004D656172737572696E672E2E2E00F7
:100BE900506C6561736520576169740053657420A1
:100BF9005A65726F0046696E6973686564004C4F87
:100C0900570048494748004B4559310053484F520E
:100C1900545F5052455353004C4F4E475F50524515
:100C29005353004B455932004B45593300523D004F
:02001800C181A4
:1009F7007592077591F875B28075B120C292C29150
:100A0700C290120D6A120F63D2907FE87E03120F15
:100A170041120CB1D2917FE87E03120F41D2927F2F
:100A2700E87E03120F41C292C291C290753FA17531
:100A37003E78753DC8753C42E4FDFF12071B7FE811
:100A47007E03120F41753FDA753EA8753D63753C0D
:100A570048E4FDFF12071B7FE87E03120F41753F35
:100A6700D2753E9B753D06753C4EE4FDFF12071B94
:100A77007FE87E03120F41753F56753E21753D8312
:100A8700753C4EE4FDFF12071B7FE87E03120F4102
:050A97001210288097F9
:10093600755FFF75600B7561CA7BFF7A0B79B9121B
:100946000D21121028755FFF75600B7561E97BFF3D
:100956007A0B79DB120D21C2A47FB87E0B120F41F0
:10096600120FCC3003FD120836E58B7002D290854B
:100976002824852723852622852521D2A47FE87E63
:1009860003120F41120FCC3003FD120836E58B70AF
:1009960002D29285283685273585263485253375F6
:1009A6005FFF75600B7561FE7BFF7A0B79F5120DA3
:1009B600217FD07E07120F413001351200037BFFE5
:1009C6007A0C7907E4FDFF120E48AA23AB24E4FD56
:1009D6007F06120AE27BFF7A0C790B7D01E4FF1297
:1009E6000E48AA35AB367D017F06120AE2121028A0
:0109F60022DE
:100C3900E53724FE600E04701D755FFF75600C7545
:100C490061158009755FFF75600C7561217BFF7AFD
:100C59000C7910120D21E53824FE600E04701D7503
:100C69005FFF75600C7561158009755FFF75600C14
:100C79007561217BFF7A0C792C120D21E53924FE4F
:100C8900600E04701D755FFF75600C756115800934
:100C9900755FFF75600C7561217BFF7A0C793112E4
:080CA9000D2112103E0210287B
:100EA000120836120FCC1200037BFF7A0C7936E45D
:100EB000FDFF120E48852C3F852B3E852A3D852956
:100EC0003CE4FD7F0212071BE4FBFD7F0F0210488C
:040F41008E3B8F3C18
:100F4500E4F53DF53EC3E53E953CE53D953B500D4D
:0D0F5500120F7F053EE53E70EC053D80E883
:010F6200226C
:100F7F007F017E007DF47C01ED1D70011CED4C7036
:0A0F8F00F7EF1F70011EEF4E70EA2D
:010F99002235
:0D101B00EF4E600800EF1F70F71E80F422FA
:100D6A00D2AFD2A9D2ABD2B9C2BB758951C2A4E45F
:100D7A00F52CF52BF52AF529C203F528F527F526D2
:100D8A00F525F532F531F530F52FF524F523F52261
:100D9A00F521F536F535F534F533F562F563F58A5F
:090DAA00F58CF58BF58DF52E2278
:100FB3008F2EC28CC28EEF14600B14600824027053
:090FC3000775895122758911227C
:100FCC00C203E4F562F563E52E700DE4F58AF58C49
:090FDC00F58BF58DD28CD28E222A
:03001B000210339D
:0B103300C0E0E52E70020563D0E03243
:03000B00020EF9E9
:100EF900C0E0C0D020A4090562E562B40202800AFC
:100F090030A40D0562E562B40F06C28EC28CD2030D
:050F1900D0D0D0E03251
:10083600C203AF63E4FCFDFEFBFA7901F81204374C
:10084600A804A905AA06AB07AF8DEFFEE4FCFD2BB5
:10085600FBEA3EFAED39F9EC38F8AF8BE4FEEB2F04
:10086600F528EE3AF527ED39F526EC38F52520A4DE
:10087600597F957EBA7D0AAB28AA27A926F81204C5
:10088600378F328E318D308C2FAF28AE27AD26AC08
:1008960025AB24AA23A922A821120437A804A90556
:1008A600AA06AB07C3E5249528FFE5239527FEE5B1
:1008B600229526FDE5219525FC120DF7EC1203295C
:1008C6007BCC7A8A79C9784E805A7F367E6E7D01D6
:1008D6007C00AB28AA27A926A8251204378F328EBA
:1008E600318D308C2FAF28AE27AD26AC25AB36AA7E
:1008F60035A934A833120437A804A905AA06AB07FC
:10090600C3E5369528FFE5359527FEE5349526FDA2
:10091600E5339525FC120DF7EC1203297BA27A51DB
:10092600790F78521201168F2C8E2B8D2A8C292244
:10001E000203D3E86480F8E933E83360110460F03A
:10002E00ED33EC337009E8FCE9FDEAFEEBFF220448
:10003E0060DED3EB9FEA9EE99DE8C2E78CF0C2F743
:10004E0095F0400CE8CCF8E9CDF9EACEFAEBCFFB0F
:10005E0012039E85D0F05804700320D5B3E80470C7
:10006E00075002B2D50203DD92D5EC0460F7E4CC62
:10007E00C0E0C398F8603B94186008400DD0E0FBD8
:10008E000203B5E4FBFAC9FC8028E830E406E4C9B3
:10009E00FBE4CAFCE830E305E4C9CACBFCE854072C
:1000AE006010F8C3E913F9EA13FAEB13FBEC13FC37
:1000BE00D8F130F52FC3E49CFCEF9BFFEE9AFEEDDA
:1000CE0099FDD0E0FBEF4E4D4C701222DB03020384
:1000DE00DAEC2CFCEF33FFEE33FEED33FDED30E7C3
:1000EE00EB0203B5EF2BFFEE3AFEED39FDD0E0FB50
:1000FE0050130BBB00030203DDED13FDEE13FEEFF9
:08010E0013FFEC13FC0203B522
:10011600EC4D6011E8497017ED33EC3304600DE4E3
:10012600FCFFFEFD22E933E8330470F80203D31224
:10013600039E58046009E4CC248150062850090225
:1001460003DD2840030203DAC0E0EB4A7044B980BD
:1001560006D0E0FB0203C9EF4E701CBD8008EBFF22
:10016600EAFEE9FD80EBE98DF0A4FEE5F00201FF71
:10017600E9CDF9EAFEEBFFEF89F0A4FCE5F0CE89C4
:10018600F0A42EFFE435F0CD89F0A42DFEE435F081
:100196008067EF4E7005BD80D780C3EF8BF0A4ACAF
:1001A600F0EE8BF0A42CFCE435F0F8EF8AF0A42CEA
:1001B600E5F038FCE433CB8DF0A42CFCE5F03BF8FD
:1001C600EE8AF0A42CFCE5F038F8E433CF89F0A4ED
:1001D6002CFCE5F038CF3400CE89F0A42FFFE5F0F3
:1001E6003EFEE433C98DF0A42EFEE5F039CD8AF04B
:1001F600A42FFFE5F03EFEE43DFD33D0E0FB5007C3
:100206000BBB000F0203DDEC2CFCEF33FFEE33FEDD
:06021600ED33FD0203B50B
:10021C000203DDEC5D046005E8590470030203D3AE
:10022C0012039E580460F6EC4860F2EC7004FDFE7C
:10023C00FF22C860DB2481C85009C39860025006B5
:10024C000203DA9850CAF582E9294B4A7005AB8251
:10025C000203C975F0007C1A7880C3EF9BEE9AED0F
:10026C0099400DC3EF9BFFEE9AFEED99FDE842F02D
:10027C00DC23ACF0D0E0FFD0E0FED0E0FDAB822080
:10028C00E7101BEB60BAEC2CFCEF33FFEE33FEED0A
:10029C0033FD0203B5E803F830E705C0F075F00054
:1002AC00EF2FFFEE33FEED33FD40B830E7C280AAEE
:1002BC0074F8CC6480CCC86480C8F582046043C3F5
:1002CC00EB9FF5F0EA9E42F0E99D42F0E89C45F088
:1002DC0060305018E5825FFFE582F42B5582FB50AD
:1002EC00210ABA001D09B90019088016E5825BFBCA
:1002FC00E582F42F5582FF50090EBE00050DBD009E
:10030C00010CC3EB9FF5F0EA9E42F0E99D42F0E848
:0D031C009C45F06007CC4820E701B3EC22BF
:1003290075F020800E75F010800575F0087D007E4F
:10033900007F003392D530D503120486EC33401088
:10034900EF33FFEE33FEED33FDEC33FCD5F0ED2258
:0E035900E5F0247EA2D513CC92E7CDCEFF2294
:10036700EDD2E7CD33EC3392D524814006E4FFFE8E
:10037700FDFC22FCE4CFCECDCC24E0501174FF80ED
:10038700EDC3CC13CCCD13CDCE13CECF13CF04708A
:07039700F030D5DE02048600
:10039E00E9D2E7C933E833F892D5EDD2E7CD33ECA5
:0703AE0033FC5002B2D5221E
:1003B500EC30E7100FBF000C0EBE00080DBD0004A9
:1003C5000BEB6014A2D5EB13FCED92E7FD2274FF55
:1003D500FCFDFEFF22E480F8A2D574FF13FC7D80AE
:0303E500E480EFC2
:100B39000209F7E493A3F8E493A34003F68001F2D2
:100B490008DFF48029E493A3F85407240CC8C333BD
:100B5900C4540F4420C8834004F456800146F6DF8C
:100B6900E4800B010204081020408090000EE47E0E
:100B7900019360BCA3FF543F30E509541FFEE49381
:100B8900A360010ECF54C025E060A840B8E493A348
:100B9900FAE493A3F8E493A3C8C582C8CAC583CA73
:100BA900F0A3C8C582C8CAC583CADFE9DEE780BE2B
:01001A0000E5
:1003E800BB010689828A83E0225002E722BBFE0213
:0903F800E32289828A83E4932246
:10040100C2D5EC30E709B2D5E4C39DFDE49CFCEE16
:1004110030E715B2D5E4C39FFFE49EFE1204B0C3DA
:10042100E49DFDE49CFC80031204B030D507C3E4D5
:060431009FFFE49EFE2285
:10043700E88FF0A4CC8BF0A42CFCE98EF0A42CFC64
:100447008AF0EDA42CFCEA8EF0A4CDA8F08BF0A4E2
:100457002DCC3825F0FDE98FF0A42CCD35F0FCEB41
:100467008EF0A4FEA9F0EB8FF0A4CFC5F02ECD3906
:0F047700FEE43CFCEAA42DCE35F0FDE43CFC2273
:100DF700C2D5E830E70FB2D5E4C39BFBE49AFAE427
:100E070099F9E498F8EC30E717B2D5120E2D1205D0
:100E170041E4C39BFBE49AFAE499F9E498F8800368
:100E270012054130D50DE4C39FFFE49EFEE49DFD0E
:040E3700E49CFC2219
:0E048600C3E49FFFE49EFEE49DFDE49CFC2287
:10049400EB9FF5F0EA9E42F0E99D42F0EC6480C8DF
:0604A40064809845F0227F
:0604AA008A838982E473DD
:1004B000BC000BBE0029EF8DF084FFADF022E4CC30
:1004C000F875F008EF2FFFEE33FEEC33FCEE9DECF9
:1004D000984005FCEE9DFE0FD5F0E9E4CEFD22ED3F
:1004E000F8F5F0EE8420D21CFEADF075F008EF2F89
:1004F000FFED33FD4007985006D5F0F222C398FD7A
:050500000FD5F0EA2216
:1005050075F008758200EF2FFFEE33FECD33CDCCAD
:1005150033CCC58233C5829BED9AEC99E582984030
:100525000CF582EE9BFEED9AFDEC99FC0FD5F0D60D
:10053500E4CEFBE4CDFAE4CCF9A88222B800C1B937
:100545000059BA002DEC8BF084CFCECDFCE5F0CB75
:10055500F97818EF2FFFEE33FEED33FDEC33FCEBAE
:1005650033FB10D703994004EB99FB0FD8E5E4F969
:10057500FA227818EF2FFFEE33FEED33FDEC33FC56
:10058500C933C910D7059BE99A4007EC9BFCE99A4A
:10059500F90FD8E0E4C9FAE4CCFB2275F010EF2F8F
:1005A500FFEE33FEED33FDCC33CCC833C810D7078F
:1005B5009BEC9AE899400AED9BFDEC9AFCE899F8CA
:0E05C5000FD5F0DAE4CDFBE4CCFAE4C8F9225D
:00000001FF
