:03000000021248A1
:0C124800787FE4F6D8FD75818502128FD6
:10098D00E555B4020E754F00755001754D07754E46
:10099D00D0800C754F00755032754DEA754E60E57F
:1009AD004614601214602F14605424037056209561
:1009BD0053754601801930950280460545E5457011
:1009CD00020544D39550E544954F4038754602E4F1
:1009DD00F544F545802E30950AE4F546755A01D259
:1009ED000080210545E54570020544D3954EE5444B
:1009FD00954D4010755A02D200754603800630950C
:100A0D0003E4F546E54914601214602F1460542474
:100A1D000370562094537549018019309402804615
:100A2D000548E54870020547D39550E547954F4079
:100A3D0038754902E4F547F548802E30940AE4F5FF
:100A4D0049755B01D20080210548E54870020547D4
:100A5D00D3954EE547954D4010755B02D200754913
:100A6D00038006309403E4F549E54C1460121460DC
:100A7D002E14605124037053209350754C0180192E
:100A8D003093028043054BE54B7002054AD39550D8
:100A9D00E54A954F4035754C02E4F54AF54B223049
:100AAD009309E4F54C755C01D20022054BE54B70C2
:100ABD0002054AD3954EE54A954D400F755C02D21D
:0C0ACD0000754C0322309303E4F54C222A
:0A186100E4F55AF55BF55CC20022C5
:1017A300E4F55AF55BF55CC200F546F549F54CF5F1
:0C17B30044F545F547F548F54AF54B2292
:1016B00020000512098D80F8E55A60031205EEE559
:1016C0005B6007AA6DA96E1205EEE55C6007AA7063
:0816D000A9711205EE02186178
:0B18560020000512098D80F80217A386
:10183700496E66696E697465001F111B0A0A0A04FE
:01184700049C
:10180C00C2B2D2B3D2B47F067E0012000EA2A7924F
:05181C0005C2B4A205A5
:0118210022A4
:101723008F6812180C40FBC2B2C2B3C2B48568A062
:101733007F067E0012000ED2B47F067E0012000EDA
:03174300C2B4220B
:0E184800ED60054307C08003430780021723AD
:1015A800AE36AF377C007D641204947F0A7E00CF8C
:0C15B800CDCFCECCCE120494EF2430FF37
:1015C4008F6812180C40FBD2B2C2B3C2B48568A0B3
:1015D4007F067E0012000ED2B47F067E0012000E3B
:0315E400C2B4226C
:101358007F0F7E001217467F381217237F057E0005
:101368001217467F381217237F057E001217467F13
:10137800381217237F057E001217467F0C12172399
:101388007F057E001217467F061217237F057E0011
:101398001217467F40121723E4F55DE55D9018406B
:1013A80093FF1215C4055DE55DC3940840ED7F0108
:1013B8001217237F057E00121746E4FDFF02184826
:050003007F010217233C
:0A186B008B5F121848AF5F0215C42E
:1011280012021F8F648E638D628C611203788E4267
:101138008F43AC42AD43EC12033FA804A905AA06AD
:10114800AB07AF64AE63AD62AC61120021E4FBFA99
:10115800797A78441201161203788E368F37AB43AA
:06116800AA42AD60AF5F7A
:04116E008A658B669D
:10117200E4F567121848AE65AF667C007D0A12047A
:101182003FAF05AE67056774382EF8A607AE65AFA8
:10119200667C007D0A12043F8E658F66E5664565B2
:1011A20070D4E5676010156774382567F8E6243057
:0611B200FF1215C480ECE1
:0111B8002214
:101651008A618B62121848E56360271563E563644C
:101661000AFD7C00AE61AF6212043F1215C0AE618B
:10167100AF62E563640AFD7C0012043F8C618D62F8
:0316810080D522EF
:100AD9008F5F8D607F287E6B7D6E7C4EAB64AA63D1
:100AE900A962A8611202BC400D7BFF7A187937AD63
:100AF90060AF5F0216D87F007E247D747C49AB64A9
:100B0900AA63A962A8611202BC403DAF64AE63AD9D
:100B190062AC617B007A24797478491211287F2E9E
:100B29001215C4AE36AF377C007D641215BD12159F
:100B3900A8AE36AF377C007D0A120494ED2430FF4D
:100B49001215C47F4D020C02E4FFFE7D7A7C44AB92
:100B590064AA63A962A8611202BCAF64AE63AD6204
:100B6900AC6160364034E4FBFA797A784412112892
:100B79007F2E1215C4AE36AF377C007D641215BDC9
:100B89001215A8AE36AF377C007D0A120494ED2405
:100B990030FF1215C47F4B020C021203788E428F6C
:100BA90043AC42AD43EC12033FA804A905AA06AB26
:100BB90007AF64AE63AD62AC611200217B007A407D
:100BC900791C784612115C7F2E1215C4AE36AF37E8
:100BD9007C037DE81215BDAE36AF377C037DE81284
:100BE90004947F641215B51215A8AE36AF377C0090
:0D0BF9007D0A120494ED2430FF1215C42271
:1016D8008B658A668967121848AB65AA66A967127E
:1016E80003F9FF60101215C474012567F567E43526
:0616F80066F56680E422A5
:0A1520008F088D098B0A8A0B890CD5
:10152A00E4FF121848E4F50D7F201215C4050DE5F5
:10153A000DC3941040F2AD09AF08121848AB0AAABD
:10154A000BA90C1203F9FF60101215C47401250CC3
:09155A00F50CE4350BF50B80E4FF
:011563002265
:101433008B5D8A5E895F7F01121723E4FDFF12181B
:1014430048AB5DAA5EA95F1203F96013055FE55F10
:101453007002055E14F91203F9FF1215C480E27DD0
:1014630001E4FF121848AB60AA61A9621203F96094
:10147300130562E5627002056114F91203F9FF12A4
:0514830015C480E22207
:0217DA008B5D25
:1017DC00121848E4F55EE55EC3955D50097F201252
:0617EC0015C4055E80F04B
:0117F20022D4
:051875007F0F021723A4
:05187A007F0C021723A2
:1011B90043726F73732050726F62657320416E645E
:1011C90000507265737320416E7920427574746F93
:1011D9006E004D656172737572696E672E2E2E00F1
:1011E900506C65617365205761697400546F2053B1
:1011F90077697463682043617000536574205A6588
:10120900726F0046696E6973686564004C4F5700D8
:10121900484947480050726F63657373696E672E5A
:101229002E2E004B4559330053484F52545F5052AC
:0F12390045535300523D00496E20004F7574001D
:02182200C18281
:10178600121768C292C291C29012168412098D3045
:0D17960000031213C83003F4120DFC80EFA5
:101768007592477591B8E4F5B275B120C292C291ED
:0E177800C2901213581214881217A30212D432
:100EDC007560FF7561117562CA7BFF7A1179B91261
:100EEC0014331218567560FF7561117562E97BFF3A
:100EFC007A1179DB121433D2B77FB87E0B121746F6
:100F0C001216843003FD120C0678761205277872BF
:100F1C001205401200037560FF7561117562F57B57
:100F2C00FF7A1179CA121433121856C2B77FE87EB1
:100F3C00031217461216843003FD120C0678761233
:100F4C00052778821205407560FF75611275620C79
:100F5C007BFF7A127903121433D2B77FD07E07123B
:100F6C00174630023F1200037BFF7A127915E4FD1D
:100F7C00FF1216D87872120527AB07AA06E4FD7F7C
:100F8C000612116E7BFF7A1279197D01E4FF12169D
:100F9C00D87882120527AB07AA067D017F061211AD
:050FAC006E1218562230
:1013C800E55A24FE6007047006B2028002B201E505
:1013D8005B24FE602A04702D1217A37F031217F3F3
:1013E8001215E7E4FF1217F31216841217A312005E
:1013F800037BFF7A12791EE4FDFF1216D88006C21D
:1014080090C291C292E55C24FE601704701A756060
:10141800FF7561127562317BFF7A12792C121433D1
:0B1428008006D290D291D2920218618F
:100DFC00120C061216841200037BFF7A12793DE462
:100E0C00FDFF1216D8787A1205278F648E638D62D7
:100E1C008C61E4FD7F02120AD93002127876120539
:100E2C0027AB07AA067D017F0812116E80097B088B
:100E3C007D017F081217DA200103020EDBE4FBFDB3
:100E4C007F0F12186BAB54AA53A952A851C000784B
:100E5C007A120527D000120021AB54AA53A952A82C
:100E6C005112021FAB59AA58A957A8561202BC60BE
:100E7C0051404FAB54AA53A952A851C000787A12D2
:100E8C000527D000120021AB54AA53A952A8511225
:100E9C00021FC004C005C006C007AF59AE58AD57FD
:100EAC00AC56120329A804A905AA06AB07D007D093
:100EBC0006D005D0041202BC50087BFF7A12794090
:100ECC0080067BFF7A1279447D01E4FF1216D8224A
:041746008E5F8F60C3
:10174A00E4F561F562C3E5629560E561955F500D68
:0D175A001217BF0562E56270EC056180E8C2
:01176700225F
:1017BF007F017E007D587C03ED1D70011CED4C7088
:0A17CF00F7EF1F70011EEF4E70EAE5
:0117D90022ED
:0D000E00EF4E600800EF1F70F71E80F42217
:10148800D2AFD2A9D2ABD2B9C2BB758951D2A47896
:101498007A12054C00000000C203787612054C0051
:1014A800000000787E12054C0000000078721205DA
:1014B8004C00000000788212054C00000000E4F5A2
:1014C8000EF50FF58AF58CF58BF58DC28CC28EF56D
:0214D80055229B
:1017F3008F55C28CC28EEF14600B146008240270E4
:0918030007758951227589112233
:10168400C203E4F50EF50FE5551460151460122439
:10169400027018E4F58AF58CF58BF58DD28CD28E18
:0C16A40022758DFE758B33C28CD28E2215
:03001B000214DAF2
:1014DA00C0E0C0F0C083C082C0D075D010E55524EA
:1014EA00FE600B14602124037021050F801D758B8B
:1014FA0033758DFED203050FE50FC39402400C75B8
:10150A000F0012098D8004C28CC28ED0D0D082D036
:06151A0083D0F0D0E032A6
:03000B000216FEDC
:1016FE00C0E0C0D030A409050EE50EB40202800A87
:10170E0020A40D050EE50EB40F06C28EC28CD203B8
:05171E00D0D0D0E03244
:100C0600C203AF0FE4FCFDFEFBFA7901F81204CA39
:100C1600A804A905AA06AB07AF8DEFFEE4FCFD2BE1
:100C2600FBEA3EFAED39F9EC38F8AF8BE4FEEB2F30
:100C3600FFEE3AFEED39FDEC38FC787612054030D1
:100C4600A45E7F957EBA7D0A7C0078761205331203
:100C560004CA787E12054078761205277872120546
:100C6600331204CAC004C005C006C0077876120550
:100C760033C0007872120527D000C3EF9BFFEE9AAF
:100C8600FEED99FDEC98FCD003D002D001D0001205
:100C96001564EC12033A7BCC7A8A79C9784E805C6B
:100CA6007F367E6E7D017C0078761205331204CA8B
:100CB600787E12054078761205277882120533125F
:100CC60004CAC004C005C006C0077876120533C042
:100CD600007882120527D000C3EF9BFFEE9AFEED47
:100CE60099FDEC98FCD003D002D001D00012156417
:100CF600EC12033A7BA27A51790F785212011678D8
:050D06007A12054022F5
:100FB100596573004E6F004465627567204D6F641B
:100FC10065204F6E005369657665204D6F6465201D
:100FD1004F6E0053657420536965766500537461E3
:100FE100727420506C6F740052657365742044658F
:100FF1007669636500457869740007FF0FB10000E9
:1010010000FF161D08FF0FB5000000FF161D0000B0
:101011002309FF0FB1000000FF161D0AFF0FB500E5
:101021000000FF161D00002B00FF0FB80000230079
:10103100000001FF0FC600002B00000003FF0FD4CA
:10104100000000FF070404FF0FDE000000FF000A9C
:1010510005FF0FE9000000FF000906FF0FF6000081
:0E10610000FF000806000000FF1029FF1065C8
:10182400072302000000FF0FFB072B02000000FF4C
:02183400101290
:1012D40090106CE493FB740193FA740293F9C003C5
:1012E400C002C00190100FE493FB740193FA7402DE
:1012F40093F990000112059590106CE493FB74012E
:1013040093FA740293F9C003C002C001901026E45A
:1013140093FB740193FA740293F9900001120595FA
:1013240090106CE493FB740193FA7402938B328AE9
:1013340033F534E4F521C204C201F554F553F552F2
:10134400F551F559F558F557F556F52A752220F556
:0413540035D202226A
:1015E70090106CE493FB740193FA7402938B328A24
:1015F70033F534E4F521C20412106F800E20041570
:101607003000FA7F031217F3120D0B7F021217F344
:0616170012168480E82297
:10106F00120003E5216058E4FD7F01121848AB32EE
:10107F00AA33A934900004120565E52175F00AA47E
:10108F0029F9EA35F0FA90FFF7120565E4FD7F01C3
:10109F001216D8AB32AA33A934900004120565E5B5
:1010AF002175F00AA429F9EA35F0FA90000112052A
:1010BF00657D017F011216D87B3E7D01E48055E4EA
:1010CF00FD7F01121848AB32AA33A93490000412E5
:1010DF000565E52175F00AA429F9EA35F0FA9000C3
:1010EF0001120565E4FD7F011216D8AB32AA33A9B0
:1010FF0034900004120565E52175F00AA429F9EA78
:10110F0035F0FA90000B1205657D017F011216D89C
:09111F007B3EE4FDFF12186B2277
:100D0B00E55A6024146003020DF9AB32AA33A934FF
:100D1B001203F9FF0521E5218FF08485F021E521F0
:100D2B00B40102D290020DF6E55B601D1460030264
:100D3B000DF9AB32AA33A9341203F9FF1521E521C2
:100D4B008FF08485F021020DF6E55C24FE607604BD
:100D5B006003020DF9AB32AA33A9349000041205DB
:100D6B0065E52175F00AA4FFAEF029F9EA3EFA9089
:100D7B000004120565E94A4B6023AB32AA33A93450
:100D8B00900004120565E92FF9EA3EFA900004126F
:100D9B0005658B328A338934E4F521804E1217A313
:100DAB00D204AB32AA33A934900004120565E521B5
:100DBB0075F00AA429F9EA35F0FA900007120565D7
:100DCB001205EE8029AB32AA33A93490000112052B
:100DDB0065E94A4B6018AB32AA33A9349000011273
:100DEB0005658B328A338934E4F52112106F0218B2
:010DFB006196
:0100080022D5
:0100090022D4
:10161D00AB32AA33A93490000412056575F00AE5C2
:10162D0021A4F58285F08312041224F8600D146054
:10163D000D14600D2403700BD20222C20222D201BE
:04164D0022C2012292
:01000A0022D3
:10070400E4F55DF55E120003E52AFB7A00756303E8
:10071400E4FDFF121651AB22E4FD7F0312186B7B3C
:100724005E7D01AF5D12186B7F021217F3121684FF
:10073400E55E600302083B3000F6E55A70030207E9
:10074400F524FE60510460030207DFE55D146013C5
:10075400146016146026240360030207DFE52A24CC
:1007640064800AE52A240A8004E52A2401FFE4338C
:10077400FE7C037DE812043F8D2A805FE52224B5C8
:10078400600D24FE600E242D705175224B804C7533
:10079400224D80478042E55D14601514602B14607F
:1007A4003724037036E52A75F0648485F02A802B9B
:1007B400E52A75F06484E5F075F00A8475F00AA4FE
:1007C400FFC3E52A9FF52A8012E52A75F00A84C33F
:1007D400E52A95F0F52A8003752220E52AFB7A00A4
:1007E400756303E4FDFF121651AB22E4FD7F038021
:1007F40033E55B60347B207D01AF5D12186BE55BF4
:1008040024FE600D047017055DE55D5403F55D80FD
:100814000DE55DB40305E4F55D8003755D037B5E62
:100824007D01AF5D12186B8008E55C147003755E82
:1008340001121861020734E4F55DF55E120003E568
:1008440035FB7A00756302E4FDFF1216517B25E443
:10085400FD7F0212186B7B5E7D01AF5D12186BE5A4
:100864005E60030209083000F6E55A605B24FE600E
:1008740027047044E55D14601604703CE535240AD1
:10088400FFE433FE7C007D6412043F8D358029052E
:1008940035E53575F064800DE55D14600E0470185F
:1008A400E53575F00A8485F035800DE53575F00A77
:1008B40084C3E53595F0F535E535FB7A00756302BB
:1008C400E4FDFF1216518036E55B602A7B207D0132
:1008D400AF5D12186BE55B24FE600D04700D055DC1
:1008E400E55D5401F55D8003E4F55D7B5E7D01AF5C
:1008F4005D12186B8008E55C147003755E011218B4
:1009040061020863E52224B5601024FE601E242DD4
:100914007033AC2AE41203448023AC2AE412034467
:10092400E4FBFA797A78441201168011AC2AE412B5
:1009340003447B007A24797478491201168F548E0B
:10094400538D528C51AC35E4120344E4FBFA79C85C
:10095400784212021F8F598E588D578C56855464D5
:10096400855363855262855161E4FDFF120AD9857E
:1009740059648558638557628556617D01E4FF1289
:090984000AD97FB87E0B02174668
:10001E000203E4E86480F8E933E83360110460F029
:10002E00ED33EC337009E8FCE9FDEAFEEBFF220448
:10003E0060DED3EB9FEA9EE99DE8C2E78CF0C2F743
:10004E0095F0400CE8CCF8E9CDF9EACEFAEBCFFB0F
:10005E001203AF85D0F05804700320D5B3E80470B6
:10006E00075002B2D50203EE92D5EC0460F7E4CC51
:10007E00C0E0C398F8603B94186008400DD0E0FBD8
:10008E000203C6E4FBFAC9FC8028E830E406E4C9A2
:10009E00FBE4CAFCE830E305E4C9CACBFCE854072C
:1000AE006010F8C3E913F9EA13FAEB13FBEC13FC37
:1000BE00D8F130F52FC3E49CFCEF9BFFEE9AFEEDDA
:1000CE0099FDD0E0FBEF4E4D4C701222DB03020384
:1000DE00EBEC2CFCEF33FFEE33FEED33FDED30E7B2
:1000EE00EB0203C6EF2BFFEE3AFEED39FDD0E0FB3F
:1000FE0050130BBB00030203EEED13FDEE13FEEFE8
:08010E0013FFEC13FC0203C611
:10011600EC4D6011E8497017ED33EC3304600DE4E3
:10012600FCFFFEFD22E933E8330470F80203E41213
:1001360003AF58046009E4CC248150062850090214
:1001460003EE2840030203EBC0E0EB4A7044B9809B
:1001560006D0E0FB0203DAEF4E701CBD8008EBFF11
:10016600EAFEE9FD80EBE98DF0A4FEE5F00201FF71
:10017600E9CDF9EAFEEBFFEF89F0A4FCE5F0CE89C4
:10018600F0A42EFFE435F0CD89F0A42DFEE435F081
:100196008067EF4E7005BD80D780C3EF8BF0A4ACAF
:1001A600F0EE8BF0A42CFCE435F0F8EF8AF0A42CEA
:1001B600E5F038FCE433CB8DF0A42CFCE5F03BF8FD
:1001C600EE8AF0A42CFCE5F038F8E433CF89F0A4ED
:1001D6002CFCE5F038CF3400CE89F0A42FFFE5F0F3
:1001E6003EFEE433C98DF0A42EFEE5F039CD8AF04B
:1001F600A42FFFE5F03EFEE43DFD33D0E0FB5007C3
:100206000BBB000F0203EEEC2CFCEF33FFEE33FECC
:06021600ED33FD0203C6FA
:10021C000203EEEC5D046005E8590470030203E48C
:10022C001203AF580460F6EC4860F2EC7004FDFE6B
:10023C00FF22C860DB2481C85009C39860025006B5
:10024C000203EB9850CAF582E9294B4A7005AB8240
:10025C000203DA75F0007C1A7880C3EF9BEE9AEDFE
:10026C0099400DC3EF9BFFEE9AFEED99FDE842F02D
:10027C00DC23ACF0D0E0FFD0E0FED0E0FDAB822080
:10028C00E7101BEB60BAEC2CFCEF33FFEE33FEED0A
:10029C0033FD0203C6E803F830E705C0F075F00043
:1002AC00EF2FFFEE33FEED33FD40B830E7C280AAEE
:1002BC0074F8CC6480CCC86480C8F582046043C3F5
:1002CC00EB9FF5F0EA9E42F0E99D42F0E89C45F088
:1002DC0060305018E5825FFFE582F42B5582FB50AD
:1002EC00210ABA001D09B90019088016E5825BFBCA
:1002FC00E582F42F5582FF50090EBE00050DBD009E
:10030C00010CC3EB9FF5F0EA9E42F0E99D42F0E848
:0D031C009C45F06007CC4820E701B3EC22BF
:10032900ED33EC33600A047003BD8004ECB2E7FCE2
:0103390022A1
:10033A0075F020800E75F010800575F0087D007E3E
:10034A00007F003392D530D503120519EC334010E3
:10035A00EF33FFEE33FEED33FDEC33FCD5F0ED2247
:0E036A00E5F0247EA2D513CC92E7CDCEFF2283
:10037800EDD2E7CD33EC3392D524814006E4FFFE7D
:10038800FDFC22FCE4CFCECDCC24E0501174FF80DC
:10039800EDC3CC13CCCD13CDCE13CECF13CF047079
:0703A800F030D5DE0205195B
:1003AF00E9D2E7C933E833F892D5EDD2E7CD33EC94
:0703BF0033FC5002B2D5220D
:1003C600EC30E7100FBF000C0EBE00080DBD000498
:1003D6000BEB6014A2D5EB13FCED92E7FD2274FF44
:1003E600FCFDFEFF22E480F8A2D574FF13FC7D809D
:0303F600E480EFB1
:10125400021786E493A3F8E493A34003F68001F213
:1012640008DFF48029E493A3F85407240CC8C3339B
:10127400C4540F4420C8834004F456800146F6DF6A
:10128400E4800B0102040810204080901822E47EC0
:10129400019360BCA3FF543F30E509541FFEE4935F
:1012A400A360010ECF54C025E060A840B8E493A326
:1012B400FAE493A3F8E493A3C8C582C8CAC583CA51
:1012C400F0A3C8C582C8CAC583CADFE9DEE780BE09
:0118360000B1
:1003F900BB010689828A83E0225002E722BBFE0202
:09040900E32289828A83E4932234
:10041200BB010CE58229F582E5833AF583E022509F
:1004220006E92582F8E622BBFE06E92582F8E222E9
:0D043200E58229F582E5833AF583E4932203
:10043F00BC000BBE0029EF8DF084FFADF022E4CCA1
:10044F00F875F008EF2FFFEE33FEEC33FCEE9DEC6A
:10045F00984005FCEE9DFE0FD5F0E9E4CEFD22EDB0
:10046F00F8F5F0EE8420D21CFEADF075F008EF2FFA
:10047F00FFED33FD4007985006D5F0F222C398FDEB
:05048F000FD5F0EA2288
:10049400C2D5EC30E709B2D5E4C39DFDE49CFCEE83
:1004A40030E715B2D5E4C39FFFE49EFE12043FC3B8
:1004B400E49DFDE49CFC800312043F30D507C3E4B3
:0604C4009FFFE49EFE22F2
:1004CA00E88FF0A4CC8BF0A42CFCE98EF0A42CFCD1
:1004DA008AF0EDA42CFCEA8EF0A4CDA8F08BF0A44F
:1004EA002DCC3825F0FDE98FF0A42CCD35F0FCEBAE
:1004FA008EF0A4FEA9F0EB8FF0A4CFC5F02ECD3973
:0F050A00FEE43CFCEAA42DCE35F0FDE43CFC22DF
:10156400C2D5E830E70FB2D5E4C39BFBE49AFAE4B2
:1015740099F9E498F8EC30E717B2D512159A1206E7
:1015840030E4C39BFBE49AFAE499F9E498F8800305
:1015940012063030D50DE4C39FFFE49EFEE49DFDAA
:0415A400E49CFC22A5
:0E051900C3E49FFFE49EFEE49DFDE49CFC22F3
:0C052700E6FC08E6FD08E6FE08E6FF2200
:0D053300E6FB08E6F908E6FA08E6CBF82238
:0C054000ECF608EDF608EEF608EFF622E7
:10054C00D083D082E493F608740193F60874029376
:09055C00F608740393F6740473AD
:10056500BB010DE58229F582E5833AF5830206D4C0
:100575005007E92582F80206C2BBFE07E92582F885
:100585000206E6E58229F582E5833AF5830206F857
:10059500BB0120E58229F582E5833AF583D0F0D0C9
:1005A500E0F8D0E0F9D0E0FAD0E0FBE8C0E0C0F038
:1005B5000206DD5018E92582F8D083D082D0E0F913
:1005C500D0E0FAD0E0FBC082C0830206CBBBFE18A8
:1005D500E92582F8D083D082D0E0F9D0E0FAD0E0E6
:0905E500FBC082C0830206EF2274
:0605EE008A838982E47398
:1005F40075F008758200EF2FFFEE33FECD33CDCCBE
:1006040033CCC58233C5829BED9AEC99E582984040
:100614000CF582EE9BFEED9AFDEC99FC0FD5F0D61D
:10062400E4CEFBE4CDFAE4CCF9A88222B800C1B947
:100634000059BA002DEC8BF084CFCECDFCE5F0CB85
:10064400F97818EF2FFFEE33FEED33FDEC33FCEBBE
:1006540033FB10D703994004EB99FB0FD8E5E4F979
:10066400FA227818EF2FFFEE33FEED33FDEC33FC66
:10067400C933C910D7059BE99A4007EC9BFCE99A5A
:10068400F90FD8E0E4C9FAE4CCFB2275F010EF2F9F
:10069400FFEE33FEED33FDCC33CCC833C810D7079F
:1006A4009BEC9AE899400AED9BFDEC9AFCE899F8DA
:0E06B4000FD5F0DAE4CDFBE4CCFAE4C8F9226D
:0906C200E6FB08E6FA08E6F9225D
:0906CB00EBF608EAF608E9F62254
:0906D400E0FBA3E0FAA3E0F92227
:0906DD00EBF0A3EAF0A3E9F0221E
:0906E600E2FB08E2FA08E2F92245
:0906EF00EBF208EAF208E9F2223C
:0C06F800E493FB740193FA740293F9225E
:00000001FF
