:030000000214C91E
:0C14C900787FE4F6D8FD75818B021510C9
:100A1800E561B4020E755B00755C01755907755A7E
:100A2800D0800C755B00755C327559EA755A60E5C3
:100A38005214601214602F146054240370562095C9
:100A480053755201801930950280460551E5517061
:100A5800020550D3955CE550955B4038755202E429
:100A6800F550F551802E30950AE4F552756601D29D
:100A78000080210551E55170020550D3955AE55083
:100A880095594010756602D200755203800630955C
:100A980003E4F552E55514601214602F14605424D1
:100AA800037056209453755501801930940280467E
:100AB8000554E55470020553D3955CE553955B40A6
:100AC80038755502E4F553F554802E30940AE4F550
:100AD80055756701D20080210554E554700205530D
:100AE800D3955AE55395594010756702D20075554C
:100AF800038006309403E4F555E558146012146039
:100B08002E14605124037053209350755801801996
:100B180030930280430557E55770020556D3955C1C
:100B2800E556955B4035755802E4F556F557223081
:100B38009309E4F558756801D200220557E5577006
:100B4800020556D3955AE5569559400F756802D255
:0C0B58000075580322309303E4F5582286
:0A1B6B00E4F566F567F568C2002294
:101AA600E4F566F567F568C200F552F555F558F5A3
:0C1AB60050F551F553F554F556F5572244
:10198A00200005120A1880F8E56660031206FCE5D5
:10199A00676007AA6DA96E1206FCE5686007AA705F
:0819AA00A9711206FC021B6B7F
:0B1B6000200005120A1880F8021AA6E7
:101B4100496E66696E697465001F111B0A0A0A04F1
:011B5100048F
:101B2B00C2B2D2B3D2B47F067E0012000EA2A7922D
:051B3B0007C2B4A2077F
:011B40002282
:101A22008F4F121B2B40FBC2B2C2B3C2B4854FA070
:101A32007F067E0012000ED2B47F067E0012000ED8
:031A4200C2B42209
:0E1B5200ED60054307C08003430780021A229E
:1018B800AE08AF097C007D641204A67F0A7E00CFC3
:0C18C800CDCFCECCCE1204A6EF2430FF12
:1018D4008F4F121B2B40FBD2B2C2B3C2B4854FA0B0
:1018E4007F067E0012000ED2B47F067E0012000E28
:0318F400C2B42259
:10165D007F0F7E00121A457F38121A227F057E00F9
:10166D00121A457F38121A227F057E00121A457F05
:10167D0038121A227F057E00121A457F0C121A228B
:10168D007F057E00121A457F06121A227F057E0005
:10169D00121A457F40121A22E4F540E540901B4A8C
:1016AD0093FF1218D40540E540C3940840ED7F0127
:1016BD00121A227F057E00121A45E4FDFF021B520D
:050003007F01021A223A
:0A1B75008B42121B52AF420218D43B
:1014210012021F8F478E468D458C441203788E0E13
:101431008F0FAC0EAD0FEC12033FA804A905AA064D
:10144100AB07AF47AE46AD45AC44120021E4FBFA11
:10145100797A78441201161203788E088F09AE0E3C
:10146100EE3395E0850F4D8E4CF54BF54AAD43AF0C
:011471004238
:10147200E4F54E121B52E47B0AFAF9F8AF4DAE4C7A
:10148200AD4BAC4A120567AF03AE4E054E74822EC9
:10149200F8A607AF4DAE4CAD4BAC4AE47B0AFAF965
:1014A200F81205678F4D8E4C8D4B8C4AEC4D4E4F8A
:1014B20070C4E54E6010154E7482254EF8E6243055
:0614C200FF1218D480ECBB
:0114C8002201
:081555008F428D438A448B454F
:10155D00E4750D01F50CF50BF50A754701E547C36B
:10156D009546501DAF0DAE0CAD0BAC0AE47B0AFADF
:10157D00F9F81204DC8F0D8E0C8D0B8C0A0547804B
:10158D00DCAD43AF42121B52AF461546EF603FAE86
:10159D0044AF45E4FCFDAB0DAA0CA90BA80A12053E
:1015AD00671218D0AE44AF45AC0CAD0D1204518C82
:1015BD00448D45AF0DAE0CAD0BAC0AE47B0AFAF9C8
:0E15CD00F81205678F0D8E0C8D0B8C0A80BAFC
:0115DB0022ED
:100C9E008F428D437F287E6B7D6E7C4EAB47AA467E
:100CAE00A945A8441202BC400D7BFF7A1B7941ADC9
:100CBE0043AF420219B27F007E247D747C49AB475C
:100CCE00AA46A945A8441202BC403DAF47AE46AD68
:100CDE0045AC447B007A24797478491214217F2E16
:100CEE001218D4AE08AF097C007D641218CD12180C
:100CFE00B8AE08AF097C007D0A1204A6ED2430FFC1
:100D0E001218D47F4D020DC7E4FFFE7D7A7C44ABF2
:100D1E0047AA46A945A8441202BCAF47AE46AD4508
:100D2E00AC4460364034E4FBFA797A7844121421EC
:100D3E007F2E1218D4AE08AF097C007D641218CD38
:100D4E001218B8AE08AF097C007D0A1204A6ED2475
:100D5E0030FF1218D47F4B020DC71203788E0E8F00
:100D6E000FAC0EAD0FEC12033FA804A905AA06ABFB
:100D7E0007AF47AE46AD45AC441200217B007A402A
:100D8E00791C78461214557F2E1218D4AE08AF096E
:100D9E007C037DE81218CDAE08AF097C037DE81206
:100DAE0004A67F641218C51218B8AE08AF097C00ED
:0D0DBE007D0A1204A6ED2430FF1218D42285
:1019B2008B488A49894A121B52AB48AA49A94A1242
:1019C20003F9FF60101218D47401254AF54AE43570
:0619D20049F54980E42202
:0A1830008F428D438B448A458946A0
:10183A00E4FF121B52E4F5477F201218D40547E54E
:10184A0047C3941040F2AD43AF42121B52AB44AAB5
:10185A0045A9461203F9FF60101218D474012546EF
:09186A00F546E43545F54580E43E
:011873002252
:101787008B408A4189427F01121A22E4FDFF121B16
:1017970052AB40AA41A9421203F960130542E54240
:1017A7007002054114F91203F9FF1218D480E27D83
:1017B70001E4FF121B52AB43AA44A9451203F96087
:1017C700130545E5457002054414F91203F9FF12A4
:0517D70018D480E2229D
:021AF9008B4020
:101AFB00121B52E4F541E541C3954050097F20127A
:061B0B0018D4054180F032
:011B110022B1
:051B7F007F0F021A2295
:051B84007F0C021A2293
:1015DC004D656172737572696E672E2E2E004372A3
:1015EC006F73732050726F62657320416E6400508C
:1015FC007265737320416E7920427574746F6E003E
:10160C00506C65617365205761697400546F205389
:10161C0077697463682043617000536574205A6560
:10162C00726F0046696E6973686564004C4F5700B1
:10163C00484947480050726F63657373696E672E33
:10164C002E2E00523D00496E20004F757400FF1580
:01165C00DCB1
:021A8800C18219
:101AC200121A671211B9C20512192D120A18300022
:0C1AD200031216CD3004F41210D580EF82
:101A67007592477591B8E4F5B275B120C292C291EB
:101A7700C29012165D1219D8121AA612136F021904
:011A870061FD
:1011B900D2B7D2057543FF7544157545FB7BFF7A98
:1011C9001579EA121787121B607543FF7544167566
:1011D900450C90165AE493FB740193FA740293F93F
:1011E90012178712192D3004FD120EE078761206B7
:1011F9001878721206317543FF7544167545187BC8
:10120900FF7A1579FB121787121B60C2B77FE87E38
:1012190003121A4512192D3004FD120EE0787612C8
:101229000618787E1206317543FF75441675452FE9
:101239007BFF7A167926121787D2B77FE87E0312C9
:101249001A453002471200037BFF7A167938E4FD0C
:10125900FF1219B278721206188F4D8E4C8D4B8C75
:101269004AE4FD7F061214727BFF7A16793C7D01F0
:10127900E4FF1219B2787E1206188F4D8E4C8D4BF1
:0D1289008C4A7D017F06121472121B602238
:1016CD00E56624FE6007047006B2028002B201E5F1
:1016DD006724FE602A04702D121AA67F03121B12B6
:1016ED001218F7E4FF121B1212192D121AA612006E
:1016FD00037BFF7A167941E4FDFF1219B28006C211
:10170D0090C291C292E56824FE6010047013121A03
:10171D00A67F03121B121217318006D290D291D2DE
:04172D0092021B6B9E
:1010D500120EE012192D1200037BFF7A16794FE4E8
:1010E500FDFF1219B2787A1206188F478E468D4584
:1010F5008C44E4FD7F02120C9E30021678761206AF
:10110500188F4D8E4C8D4B8C4A7D017F08121472C1
:1011150080097B087D017F08121AF920010302115D
:10112500B8E4FBFD7F0F121B75AB60AA5FA95EA833
:101135005DC000787A120618D000120021AB60AAB3
:101145005FA95EA85D12021FAB65AA64A963A862C8
:101155001202BC6051404FAB60AA5FA95EA85DC09A
:1011650000787A120618D000120021AB60AA5FA998
:101175005EA85D12021FC004C005C006C007AF65AA
:10118500AE64AD63AC62120329A804A905AA06AB37
:1011950007D007D006D005D0041202BC50087BFF4B
:1011A5007A16795280067BFF7A1679567D01E4FF1F
:0411B5001219B22237
:041A45008E428F43FB
:101A4900E4F544F545C3E5459543E5449542500D14
:0D1A5900121ADE0545E54570EC054480E8F5
:011A6600225D
:101ADE007F017E007D587C03ED1D70011CED4C7066
:0A1AEE00F7EF1F70011EEF4E70EAC3
:011AF80022CB
:0D000E00EF4E600800EF1F70F71E80F42217
:1019D800D2AFD2A9D2ABD2B9C2BB758951C204E485
:1019E800F518F519F58AF58CF58BF58DC28CC28E34
:0519F800F561D205229B
:101B12008F61C28CC28EEF14600B146008240270B5
:091B220007758951227589112211
:10192D00C204E4F518F519E56114601514601A2464
:10193D00027020E4F58AF58CF58BF58DD28CD28E64
:10194D0022758DFE758B338006758DFC758B6AC285
:04195D008CD28E2278
:03001B000217DCED
:1017DC00C0E0C0F0C083C082C0D075D010E56114E9
:1017EC00600E14601714602D2403702D05198029C8
:1017FC00758DFC758B6A0519D204801D758B33753C
:10180C008DFED2040519E519C39402400C7519001C
:10181C00120A188004C28CC28ED0D0D082D083D051
:04182C00F0D0E032E6
:03000B000219FDDA
:1019FD00C0E0C0D02005090518E518B40302800A1F
:101A0D0030050D0518E518B40306C28EC28CD2043C
:051A1D00D0D0D0E03242
:100FE800596573004E6F004465627567204D6F64E4
:100FF80065204F6E004176657267204D6F646520ED
:101008004F6E005369657665204D6F6465204F6E9D
:101018000053657420536965766500537461727472
:1010280020506C6F7400526573657420446576694E
:10103800636500457869740007FF0FE8000000FF4A
:10104800187408FF0FEC000000FF18740000230953
:10105800FF0FE8000000FF18740AFF0FEC00000003
:10106800FF18740000350BFF0FE8000000FF18742C
:101078000CFF0FEC000000FF187400002C00FF0F9D
:10108800EF0000230000000DFF0FFD00002C000002
:101098000001FF100B00003500000003FF101900CD
:1010A8000000FF074404FF1023000000FF0B640545
:1010B800FF102E000000FF173106FF103B00000054
:0D10C800FF000807000000FF1085FF10CB9F
:101A8A00072302000000FF1040073502000000FF94
:0B1A9A001057072C02000000FF106E28
:10136F009010D2E493FB740193FA740293F9C003C3
:10137F00C002C001901054E493FB740193FA7402FD
:10138F0093F99000011206A39010D2E493FB74011D
:10139F0093FA740293F9C003C002C00190106BE47A
:1013AF0093FB740193FA740293F99000011206A350
:1013BF009010D2E493FB740193FA740293F9C00373
:1013CF00C002C001901082E493FB740193FA74027F
:1013DF0093F99000011206A39010D2E493FB7401CD
:1013EF0093FA7402938B3C8A3DF53EE4F521C206D5
:1013FF00C201F560F55FF55EF55DF565F564F563C2
:10140F00F562F533F534752220F53FD202F52BF551
:02141F002A227F
:1018F7009010D2E493FB740193FA7402938B3C8AA1
:101907003DF53EE4F521C206121296800E2006151B
:101917003000FA7F03121B12120DCB7F02121B122B
:0619270012192D80E822D8
:10129600120003E5216068E4FD7F01121B52AB3C9E
:1012A600AA3DA93E900004120673AF21EF3395E0E4
:1012B600FE7C007D0A12043FE92FF9EA3EFA90FF10
:1012C600F7120673E4FD7F011219B2AB3CAA3DA9E1
:1012D6003E900004120673AF21EF3395E0FE7C00CA
:1012E6007D0A12043FE92FF9EA3EFA900001120640
:1012F600737D017F011219B27B3E7D01E48065E4B6
:10130600FD7F01121B52AB3CAA3DA93E9000041280
:101316000673AF21EF3395E0FE7C007D0A12043F91
:10132600E92FF9EA3EFA900001120673E4FD7F0107
:101336001219B2AB3CAA3DA93E900004120673AF47
:1013460021EF3395E0FE7C007D0A12043FE92FF978
:10135600EA3EFA90000B1206737D017F011219B264
:091366007B3EE4FDFF121B752221
:100DCB00E566603024FE601D046003020EDDAB3C63
:100DDB00AA3DA93E1203F9FF0521E5218FF0848579
:100DEB00F021020EDAAB3CAA3DA93E1203F914F531
:100DFB0021020EDAE567603024FE602604600302F0
:100E0B000EDD1521C3E52164809480500EAB3CAA06
:100E1B003DA93E1203F92521FF8002AF218F21024C
:100E2B000EDAE4F521020EDAE56824FE607B04603D
:100E3B0003020EDDAB3CAA3DA93E900004120673E3
:100E4B00AF21EF3395E0FE7C007D0A12043FE92FC2
:100E5B00F9EA3EFA900004120673E94A4B6023ABA1
:100E6B003CAA3DA93E900004120673E92FF9EA3E15
:100E7B00FA9000041206738B3C8A3D893EE4F521FF
:100E8B00804D121AA6D206AB3CAA3DA93E90000497
:100E9B00120673E52175F00AA429F9E43AFA9000D9
:100EAB00071206731206FC8029AB3CAA3DA93E90A3
:100EBB000001120673E94A4B6018AB3CAA3DA93EF0
:100ECB009000011206738B3C8A3D893EE4F521129A
:050EDB001296021B6BE2
:0100080022D5
:1017310075400B7541B8C290C291C2927F02121BD3
:101741001212192DE5414540602F300424C204E5F1
:1017510041154170021540E541B4D009E540B40797
:1017610004D292800CE541B4E807E540B40302D20B
:10177100913000D0C291C29222D2907FF47E0112A8
:051781001A4575E76048
:011786002240
:10187400AB3CAA3DA93E900004120673AF21EF339E
:1018840095E08F82F583740A12066212041224F81A
:10189400601314601314601314601314601324058C
:1018A4007011D20222C20222D20122C20122D20328
:0418B40022C2032227
:100B640012000390165AE493FB740193FA740293EF
:100B7400F9E4FDFF121830E4F52BF52A805F300408
:100B8400FDE52B64116060E519B4C905052A7519E2
:100B940001E52B2407FFE433FED3E5199FEE6480BF
:100BA400F87480985004D2B78002C2B7E52AB4140E
:100BB400CDC2B7E4F52AFF121B1212192D3004FD21
:100BC400120EE0787A120618AB2B052BEB25E025E4
:100BD400E02400F582E43400F58312063D7F01121F
:100BE4001B1212192D8097E4F540F541120003E51C
:100BF4004025E025E02400F582E43400F583E0FCA0
:100C0400A3E0FDA3E0FEA3E0F5478E468D458C44AA
:100C1400E4FDFF120C9E7F02121B1212192DE541F6
:100C240070773000F9E566601924FE601004703DA9
:100C34000540E54075F0118485F040803075401022
:100C4400802BE567601F24FE60160470201540E5C4
:100C540040C3940050047F108002AF408F40800D49
:100C6400E4F5408008E568147003754101E540250A
:100C7400E025E02400F582E43400F583E0FCA3E001
:100C8400FDA3E0FEA3E0F5478E468D458C44E4FDCC
:090C9400FF120C9E121B6B8085FF
:010C9D002234
:10074400E4F540F541120003754603AB34AA33E4E3
:10075400FDFF121555AB22E4FD7F03121B757B5E72
:100764007D01AF40121B757F02121B1212192DE579
:100774004160030208973000F6E5667003020851F1
:1007840024FE604D04600302083CE5401460131429
:1007940060161460222403600302083CE5342464D8
:1007A400800AE534240A8004E5342401FFE4353367
:1007B400FE7C037DE88031E52224B5600D24FE60D3
:1007C4000E242D707375224B806E75224D806980C6
:1007D40064E54014601B1460441460592403705889
:1007E400AE33AF347C007D641204518C338D34807D
:1007F40047AE33AF347C007D641204517E007F0A1F
:10080400CFCDCFCECCCE1204517C007D0A12043F52
:10081400C3E5349FF534E5339EF533801BAE33AF27
:10082400347C007D0A120451C3E5349DF534E5336C
:100834009CF5338003752220754603AB34AA33E458
:10084400FDFF121555AB22E4FD7F038033E567609D
:10085400347B207D01AF40121B75E56724FE600DDB
:100864000470170540E5405403F540800DE540B49D
:100874000305E4F54080037540037B5E7D01AF40D2
:10088400121B758008E568147003754101121B6B17
:10089400020773E4F540F541120003E53FFB7A00DB
:1008A400754602E4FDFF1215557B25E4FD7F021217
:1008B4001B757B5E7D01AF40121B75E54160030231
:1008C40009643000F6E566605B24FE60270470442A
:1008D400E54014601604703CE53F240AFFE433FE4F
:1008E4007C007D641204518D3F8029053FE53F75EE
:1008F400F064800DE54014600E047018E53F75F057
:100904000A8485F03F800DE53F75F00A84C3E53F16
:1009140095F0F53FE53FFB7A00754602E4FDFF12D2
:1009240015558036E567602A7B207D01AF40121B98
:1009340075E56724FE600D04700D0540E540540123
:10094400F5408003E4F5407B5E7D01AF40121B75EA
:100954008008E568147003754101121B6B0208BF1F
:10096400E52224B5601224FE6022242D7039AC33B4
:10097400AD34E412033F8027AC33AD34E412033FBB
:10098400E4FBFA797A78441201168013AC33AD345F
:10099400E412033F7B007A24797478491201168F9C
:1009A400608E5F8D5E8C5DAC3FE4120344E4FBFA21
:1009B40079C8784212021F8F658E648D638C62122F
:1009C4000003754603AB34AA33E4FDFF121555AB9F
:1009D40022E4FD7F03121B75E53FFB7A0075460296
:1009E4007D01E4FF121555856047855F46855E45A8
:1009F400855D44E4FD7F08120C9E85654785644649
:100A04008563458562447D017F08120C9E7FB87E14
:040A14000B021A4572
:100EE000AF8DE4FCFDFEFB7A01F9F81204DCC004CE
:100EF000C005C006C007AF19E4FCFDFEFBFA79018E
:100F0000F81204DCD003D002D001D000EF2BFBEEAE
:100F10003AFAED39F9EC38F8AF8BE4FCFDFEEB2F33
:100F2000FFEE3AFEED39FDEC38FC7876120631E43E
:100F3000FFFEFDFC7876120624C3120607700A78BD
:100F40007A120649501502F922787630B72E120629
:100F500018E412033AA804A905AA06AB07E4FFFEA9
:100F60007D807C3F12021F7B9C7AE47926784C12AC
:100F700001167B007AC079F278C4802C120618E43E
:100F800012033AA804A905AA06AB07E4FFFE7D8078
:100F90007C3F12021F7B907A9B79157850120116C4
:100FA0007B007A7079B778C7120025787A120631FB
:100FB00030B716E47F5E7E01FDFC7876120624C30E
:100FC0001206075004C2B7801720B71BE47FF97ED2
:100FD000FFFDFC7876120624D31206074009D2B72B
:080FE0007FF47E01121A452284
:10196100D2B7787A1206490000000078761206494B
:1019710000000000787212064900000000787E1213
:09198100064900000000C2032227
:10001E000203E4E86480F8E933E83360110460F029
:10002E00ED33EC337009E8FCE9FDEAFEEBFF220448
:10003E0060DED3EB9FEA9EE99DE8C2E78CF0C2F743
:10004E0095F0400CE8CCF8E9CDF9EACEFAEBCFFB0F
:10005E001203AF85D0F05804700320D5B3E80470B6
:10006E00075002B2D50203EE92D5EC0460F7E4CC51
:10007E00C0E0C398F8603B94186008400DD0E0FBD8
:10008E000203C6E4FBFAC9FC8028E830E406E4C9A2
:10009E00FBE4CAFCE830E305E4C9CACBFCE854072C
:1000AE006010F8C3E913F9EA13FAEB13FBEC13FC37
:1000BE00D8F130F52FC3E49CFCEF9BFFEE9AFEEDDA
:1000CE0099FDD0E0FBEF4E4D4C701222DB03020384
:1000DE00EBEC2CFCEF33FFEE33FEED33FDED30E7B2
:1000EE00EB0203C6EF2BFFEE3AFEED39FDD0E0FB3F
:1000FE0050130BBB00030203EEED13FDEE13FEEFE8
:08010E0013FFEC13FC0203C611
:10011600EC4D6011E8497017ED33EC3304600DE4E3
:10012600FCFFFEFD22E933E8330470F80203E41213
:1001360003AF58046009E4CC248150062850090214
:1001460003EE2840030203EBC0E0EB4A7044B9809B
:1001560006D0E0FB0203DAEF4E701CBD8008EBFF11
:10016600EAFEE9FD80EBE98DF0A4FEE5F00201FF71
:10017600E9CDF9EAFEEBFFEF89F0A4FCE5F0CE89C4
:10018600F0A42EFFE435F0CD89F0A42DFEE435F081
:100196008067EF4E7005BD80D780C3EF8BF0A4ACAF
:1001A600F0EE8BF0A42CFCE435F0F8EF8AF0A42CEA
:1001B600E5F038FCE433CB8DF0A42CFCE5F03BF8FD
:1001C600EE8AF0A42CFCE5F038F8E433CF89F0A4ED
:1001D6002CFCE5F038CF3400CE89F0A42FFFE5F0F3
:1001E6003EFEE433C98DF0A42EFEE5F039CD8AF04B
:1001F600A42FFFE5F03EFEE43DFD33D0E0FB5007C3
:100206000BBB000F0203EEEC2CFCEF33FFEE33FECC
:06021600ED33FD0203C6FA
:10021C000203EEEC5D046005E8590470030203E48C
:10022C001203AF580460F6EC4860F2EC7004FDFE6B
:10023C00FF22C860DB2481C85009C39860025006B5
:10024C000203EB9850CAF582E9294B4A7005AB8240
:10025C000203DA75F0007C1A7880C3EF9BEE9AEDFE
:10026C0099400DC3EF9BFFEE9AFEED99FDE842F02D
:10027C00DC23ACF0D0E0FFD0E0FED0E0FDAB822080
:10028C00E7101BEB60BAEC2CFCEF33FFEE33FEED0A
:10029C0033FD0203C6E803F830E705C0F075F00043
:1002AC00EF2FFFEE33FEED33FD40B830E7C280AAEE
:1002BC0074F8CC6480CCC86480C8F582046043C3F5
:1002CC00EB9FF5F0EA9E42F0E99D42F0E89C45F088
:1002DC0060305018E5825FFFE582F42B5582FB50AD
:1002EC00210ABA001D09B90019088016E5825BFBCA
:1002FC00E582F42F5582FF50090EBE00050DBD009E
:10030C00010CC3EB9FF5F0EA9E42F0E99D42F0E848
:0D031C009C45F06007CC4820E701B3EC22BF
:10032900ED33EC33600A047003BD8004ECB2E7FCE2
:0103390022A1
:10033A0075F020800E75F010800575F0087D007E3E
:10034A00007F003392D530D5031205F9EC33401003
:10035A00EF33FFEE33FEED33FDEC33FCD5F0ED2247
:0E036A00E5F0247EA2D513CC92E7CDCEFF2283
:10037800EDD2E7CD33EC3392D524814006E4FFFE7D
:10038800FDFC22FCE4CFCECDCC24E0501174FF80DC
:10039800EDC3CC13CCCD13CDCE13CECF13CF047079
:0703A800F030D5DE0205F97B
:1003AF00E9D2E7C933E833F892D5EDD2E7CD33EC94
:0703BF0033FC5002B2D5220D
:1003C600EC30E7100FBF000C0EBE00080DBD000498
:1003D6000BEB6014A2D5EB13FCED92E7FD2274FF44
:1003E600FCFDFEFF22E480F8A2D574FF13FC7D809D
:0303F600E480EFB1
:1014D500021AC2E493A3F8E493A34003F68001F251
:1014E50008DFF48029E493A3F85407240CC8C33318
:1014F500C4540F4420C8834004F456800146F6DFE7
:10150500E4800B0102040810204080901A88E47ED4
:10151500019360BCA3FF543F30E509541FFEE493DB
:10152500A360010ECF54C025E060A840B8E493A3A2
:10153500FAE493A3F8E493A3C8C582C8CAC583CACD
:10154500F0A3C8C582C8CAC583CADFE9DEE780BE85
:011AA5000040
:1003F900BB010689828A83E0225002E722BBFE0202
:09040900E32289828A83E4932234
:10041200BB010CE58229F582E5833AF583E022509F
:1004220006E92582F8E622BBFE06E92582F8E222E9
:0D043200E58229F582E5833AF583E4932203
:10043F00EF8DF0A4A8F0CF8CF0A428CE8DF0A42ED1
:02044F00FE228B
:10045100BC000BBE0029EF8DF084FFADF022E4CC8F
:10046100F875F008EF2FFFEE33FEEC33FCEE9DEC58
:10047100984005FCEE9DFE0FD5F0E9E4CEFD22ED9E
:10048100F8F5F0EE8420D21CFEADF075F008EF2FE8
:10049100FFED33FD4007985006D5F0F222C398FDD9
:0504A1000FD5F0EA2276
:1004A600C2D5EC30E709B2D5E4C39DFDE49CFCEE71
:1004B60030E715B2D5E4C39FFFE49EFE120451C394
:1004C600E49DFDE49CFC800312045130D507C3E48F
:0604D6009FFFE49EFE22E0
:1004DC00E88FF0A4CC8BF0A42CFCE98EF0A42CFCBF
:1004EC008AF0EDA42CFCEA8EF0A4CDA8F08BF0A43D
:1004FC002DCC3825F0FDE98FF0A42CCD35F0FCEB9C
:10050C008EF0A4FEA9F0EB8FF0A4CFC5F02ECD3960
:0F051C00FEE43CFCEAA42DCE35F0FDE43CFC22CD
:10052B0075F008758200EF2FFFEE33FECD33CDCC87
:10053B0033CCC58233C5829BED9AEC99E58298400A
:10054B000CF582EE9BFEED9AFDEC99FC0FD5F0D6E7
:10055B00E4CEFBE4CDFAE4CCF9A88222B800C1B911
:10056B000059BA002DEC8BF084CFCECDFCE5F0CB4F
:10057B00F97818EF2FFFEE33FEED33FDEC33FCEB88
:10058B0033FB10D703994004EB99FB0FD8E5E4F943
:10059B00FA227818EF2FFFEE33FEED33FDEC33FC30
:1005AB00C933C910D7059BE99A4007EC9BFCE99A24
:1005BB00F90FD8E0E4C9FAE4CCFB2275F010EF2F69
:1005CB00FFEE33FEED33FDCC33CCC833C810D70769
:1005DB009BEC9AE899400AED9BFDEC9AFCE899F8A4
:0E05EB000FD5F0DAE4CDFBE4CCFAE4C8F92237
:0E05F900C3E49FFFE49EFEE49DFDE49CFC2213
:10060700EB9FF5F0EA9E42F0E99D42F0E89C45F049
:0106170022C0
:0C061800E6FC08E6FD08E6FE08E6FF220E
:0D062400E6FB08E6F908E6FA08E6CBF82246
:0C063100ECF608EDF608EEF608EFF622F5
:0C063D00ECF0A3EDF0A3EEF0A3EFF02230
:10064900D083D082E493F608740193F60874029378
:09065900F608740393F6740473AF
:10066200F5F0C582A4C582C5F0C583A42583F583B0
:010672002265
:10067300BB010DE58229F582E5833AF58302071470
:100683005007E92582F8020702BBFE07E92582F835
:10069300020726E58229F582E5833AF583020738C6
:1006A300BB0120E58229F582E5833AF583D0F0D0BA
:1006B300E0F8D0E0F9D0E0FAD0E0FBE8C0E0C0F029
:1006C30002071D5018E92582F8D083D082D0E0F9C3
:1006D300D0E0FAD0E0FBC082C08302070BBBFE1858
:1006E300E92582F8D083D082D0E0F9D0E0FAD0E0D7
:0906F300FBC082C08302072F2224
:0606FC008A838982E47389
:09070200E6FB08E6FA08E6F9221C
:09070B00EBF608EAF608E9F62213
:09071400E0FBA3E0FAA3E0F922E6
:09071D00EBF0A3EAF0A3E9F022DD
:09072600E2FB08E2FA08E2F92204
:09072F00EBF208EAF208E9F222FB
:0C073800E493FB740193FA740293F9221D
:00000001FF
