:030000000214A93E
:0C14A900787FE4F6D8FD75818F0214F006
:100A1800E563B4020E755D00755E01755B07755C74
:100A2800D0800C755D00755E32755BEA755C60E5BB
:100A38005414601214602F146054240370562095C7
:100A480053755401801930950280460553E553705B
:100A5800020552D3955EE552955D4038755402E41F
:100A6800F552F553802E30950AE4F554756801D295
:100A78000080210553E55370020552D3955CE55279
:100A8800955B4010756802D2007554038006309556
:100A980003E4F554E55714601214602F14605424CD
:100AA800037056209453755701801930940280467C
:100AB8000556E55670020555D3955EE555955D409A
:100AC80038755702E4F555F556802E30940AE4F54A
:100AD80057756901D20080210556E5567002055503
:100AE800D3955CE555955B4010756902D200755742
:100AF800038006309403E4F557E55A146012146035
:100B08002E14605124037053209350755A01801994
:100B180030930280430559E55970020558D3955E14
:100B2800E558955D4035755A02E4F558F559223077
:100B38009309E4F55A756A01D200220559E55970FE
:100B4800020558D3955CE558955B400F756A02D24B
:0C0B580000755A0322309303E4F55A2282
:0A1B4B00E4F568F569F56AC20022AE
:101A8600E4F568F569F56AC200F554F557F55AF5B7
:0C1A960052F553F555F556F558F5592258
:10196A00200005120A1880F8E56860031206FCE5F3
:10197A00696007AA7BA97C1206FCE56A6007AA7E51
:08198A00A97F1206FC021B4BB1
:0B1B4000200005120A1880F8021A8627
:101B2100496E66696E697465001F111B0A0A0A0411
:011B310004AF
:101B0B00C2B2D2B3D2B47F067E0012000EA2A7924D
:051B1B0007C2B4A2079F
:011B200022A2
:101A02008F76121B0B40FBC2B2C2B3C2B48576A062
:101A12007F067E0012000ED2B47F067E0012000EF8
:031A2200C2B42229
:0E1B3200ED60054307C08003430780021A02DE
:10189800AE40AF417C007D641204A67F0A7E00CF73
:0C18A800CDCFCECCCE1204A6EF2430FF32
:1018B4008F76121B0B40FBD2B2C2B3C2B48576A0A2
:1018C4007F067E0012000ED2B47F067E0012000E48
:0318D400C2B42279
:10163D007F0F7E00121A257F38121A027F057E0059
:10164D00121A257F38121A027F057E00121A257F85
:10165D0038121A027F057E00121A257F0C121A020B
:10166D007F057E00121A257F06121A027F057E0065
:10167D00121A257F40121A02E4F56BE56B901B2AB6
:10168D0093FF1218B4056BE56BC3940840ED7F0111
:10169D00121A027F057E00121A25E4FDFF021B328D
:050003007F01021A025A
:0A1B55008B6D121B32AF6D0218B445
:1014180012021F8F728E718D708C6F1203788E502E
:101428008F51AC50AD51EC12033FA804A905AA0690
:10143800AB07AF72AE71AD70AC6F120021E4FBFA6E
:10144800797A78441201161203788E408F41AB5195
:06145800AA50AD6EAF6D5D
:04145E008A738B748E
:10146200E4F575121B32AE73AF747C007D0A120470
:1014720051AF05AE75057574422EF8A607AE73AF6F
:10148200747C007D0A1204518E738F74E574457367
:1014920070D4E5756010157574422575F8E6243030
:0614A200FF1218B480ECFB
:0114A8002221
:081535008F6D8D6E8A6F8B70C3
:10153D00E4754F01F54EF54DF54C757201E572C32D
:10154D009571501DAF4FAE4EAD4DAC4CE47B0AFACC
:10155D00F9F81204DC8F4F8E4E8D4D8C4C05728038
:10156D00DCAD6EAF6D121B32AF711571EF603FAE1A
:10157D006FAF70E4FCFDAB4FAA4EA94DA84C120500
:10158D00671218B0AE6FAF70AC4EAD4F1204518CE8
:10159D006F8D70AF4FAE4EAD4DAC4CE47B0AFAF98A
:0E15AD00F81205678F4F8E4E8D4D8C4C80BA14
:0115BB00220D
:100C9C008F6D8D6E7F287E6B7D6E7C4EAB72AA71D4
:100CAC00A970A86F1202BC400D7BFF7A1B7921AD95
:100CBC006EAF6D0219927F007E247D747C49AB72FD
:100CCC00AA71A970A86F1202BC403DAF72AE71AD93
:100CDC0070AC6F7B007A24797478491214187F2ECB
:100CEC001218B4AE40AF417C007D641218AD1218DE
:100CFC0098AE40AF417C007D0A1204A6ED2430FF73
:100D0C001218B47F4D020DC5E4FFFE7D7A7C44AB16
:100D1C0072AA71A970A86F1202BCAF72AE71AD70DD
:100D2C00AC6F60364034E4FBFA797A7844121418CC
:100D3C007F2E1218B4AE40AF417C007D641218AD0A
:100D4C00121898AE40AF417C007D0A1204A6ED2427
:100D5C0030FF1218B47F4B020DC51203788E508FE2
:100D6C0051AC50AD51EC12033FA804A905AA06AB37
:100D7C0007AF72AE71AD70AC6F1200217B007A4080
:100D8C00791C784612144C7F2E1218B4AE40AF4129
:100D9C007C037DE81218ADAE40AF417C037DE812B8
:100DAC0004A67F641218A5121898AE40AF417C00BF
:0D0DBC007D0A1204A6ED2430FF1218B422A7
:101992008B738A748975121B32AB73AA74A9751280
:1019A20003F9FF60101218B474012575F575E4355A
:0619B20074F57480E422CC
:0A1810008F6D8D6E8B6F8A708971E9
:10181A00E4FF121B32E4F5727F201218B40572E558
:10182A0072C3941040F2AD6EAF6D121B32AB6FAA49
:10183A0070A9711203F9FF60101218B474012571AE
:09184A00F571E43570F57080E4DD
:011853002272
:101767008B6B8A6C896D7F01121A02E4FDFF121BD5
:1017770032AB6BAA6CA96D1203F96013056DE56DA9
:101787007002056C14F91203F9FF1218B480E27D98
:1017970001E4FF121B32AB6EAA6FA9701203F96046
:1017A700130570E5707002056F14F91203F9FF1243
:0517B70018B480E222DD
:021AD9008B6B15
:101ADB00121B32E4F56CE56CC3956B50097F201239
:061AEB0018B4056C80F048
:011AF10022D2
:051B5F007F0F021A02D5
:051B64007F0C021A02D3
:1015BC004D656172737572696E672E2E2E004372C3
:1015CC006F73732050726F62657320416E640050AC
:1015DC007265737320416E7920427574746F6E005E
:1015EC00506C65617365205761697400546F2053AA
:1015FC0077697463682043617000536574205A6581
:10160C00726F0046696E6973686564004C4F5700D1
:10161C00484947480050726F63657373696E672E53
:10162C002E2E00523D00496E20004F757400FF15A0
:01163C00BCF1
:021A6800C18239
:101AA200121A4712128EC20512190D120A183000AC
:0C1AB200031216AD3004F41210D580EFC2
:101A47007592477591B8E4F5B275B120C292C2910B
:101A5700C29012163D1219B8121A8612136602198D
:011A6700413D
:10128E00D2B7D205756EFF756F157570DB7BFF7A61
:10129E001579CA121767121B40756EFF756F15759B
:1012AE0070EC90163AE493FB740193FA740293F97E
:1012BE0012176712190D3004FD120EDE7884120615
:1012CE00187880120631120003756EFF756F157552
:1012DE0070F87BFF7A1579DB121767121B40C2B7C5
:1012EE007FE87E03121A2512190D3004FD120EDE50
:1012FE007884120618788C120631756EFF756F168B
:10130E0075700F7BFF7A167906121767D2B77FE8D2
:10131E007E03121A2530023F1200037BFF7A1679E4
:10132E0018E4FDFF1219927880120618AB07AA0670
:10133E00E4FD7F0612145E7BFF7A16791C7D01E4B4
:10134E00FF121992788C120618AB07AA067D017F40
:08135E000612145E121B40226E
:1016AD00E56824FE6007047006B2028002B201E50F
:1016BD006924FE602A04702D121A867F03121AF215
:1016CD001218D7E4FF121AF212190D121A8612000F
:1016DD00037BFF7A167921E4FDFF1219928006C271
:1016ED0090C291C292E56A24FE6010047013121A22
:1016FD00867F03121AF21217118006D290D291D260
:04170D0092021B4BDE
:1010D500120EDE12190D1200037BFF7A16792FE42A
:1010E500FDFF12199278881206188F728E718D7015
:1010F5008C6FE4FD7F02120C9C300212788412067C
:1011050018AB07AA067D017F0812145E80097B08CB
:101115007D017F08121AD92001030211B4E4FBFDF9
:101125007F0F121B55AB62AA61A960A85FC000784A
:1011350088120618D000120021AB62AA61A960A826
:101145005F12021FAB67AA66A965A8641202BC609C
:1011550051404FAB62AA61A960A85FC000788812B0
:101165000618D000120021AB62AA61A960A85F121F
:10117500021FC004C005C006C007AF67AE66AD65F7
:10118500AC64120329A804A905AA06AB07D007D0A9
:1011950006D005D0041202BC50087BFF7A167932BE
:1011A50080067BFF7A1679367D01E4FF12199222BB
:041A25008E6D8F6EC5
:101A2900E4F56FF570C3E570956EE56F956D500D32
:0D1A3900121ABE0570E57070EC056F80E8B4
:011A4600227D
:101ABE007F017E007D587C03ED1D70011CED4C7086
:0A1ACE00F7EF1F70011EEF4E70EAE3
:011AD80022EB
:0D000E00EF4E600800EF1F70F71E80F42217
:1019B800D2AFD2A9D2ABD2B9C2BB758951C204E4A5
:1019C800F508F509F58AF58CF58BF58DC28CC28E74
:0519D800F563D20522B9
:101AF2008F63C28CC28EEF14600B146008240270D4
:091B020007758951227589112231
:10190D00C204E4F508F509E56314601514601A24A2
:10191D00027020E4F58AF58CF58BF58DD28CD28E84
:10192D0022758DFE758B338006758DFC758B6AC2A5
:04193D008CD28E2298
:03001B000217BC0D
:1017BC00C0E0C0F0C083C082C0D075D010E5631407
:1017CC00600E14601714602D2403702D05098029F8
:1017DC00758DFC758B6A0509D204801D758B33756C
:1017EC008DFED2040509E509C39402400C7509006D
:1017FC00120A188004C28CC28ED0D0D082D083D072
:04180C00F0D0E03206
:03000B000219DDFA
:1019DD00C0E0C0D02005090508E508B40302800A5F
:1019ED0030050D0508E508B41E06C28EC28CD20462
:0519FD00D0D0D0E03263
:100FE800596573004E6F004465627567204D6F64E4
:100FF80065204F6E004176657267204D6F646520ED
:101008004F6E005369657665204D6F6465204F6E9D
:101018000053657420536965766500537461727472
:1010280020506C6F7400526573657420446576694E
:10103800636500457869740007FF0FE8000000FF4A
:10104800185408FF0FEC000000FF18540000230993
:10105800FF0FE8000000FF18540AFF0FEC00000023
:10106800FF18540000350BFF0FE8000000FF18546C
:101078000CFF0FEC000000FF185400002C00FF0FBD
:10108800EF0000230000000DFF0FFD00002C000002
:101098000001FF100B00003500000003FF101900CD
:1010A8000000FF074404FF1023000000FF0B640545
:1010B800FF102E000000FF171106FF103B00000074
:0D10C800FF000807000000FF1085FF10CB9F
:101A6A00072302000000FF1040073502000000FFB4
:0B1A7A001057072C02000000FF106E48
:101366009010D2E493FB740193FA740293F9C003CC
:10137600C002C001901054E493FB740193FA740206
:1013860093F99000011206A39010D2E493FB740126
:1013960093FA740293F9C003C002C00190106BE483
:1013A60093FB740193FA740293F99000011206A359
:1013B6009010D2E493FB740193FA740293F9C0037C
:1013C600C002C001901082E493FB740193FA740288
:1013D60093F99000011206A39010D2E493FB7401D6
:1013E60093FA7402938B3C8A3DF53EE4F521C206DE
:1013F600C201F562F561F560F55FF567F566F565BD
:10140600F564F533F534752220F53FD202F52BF558
:021416002A2288
:1018D7009010D2E493FB740193FA7402938B3C8AC1
:1018E7003DF53EE4F521C2061211B5800E2006151E
:1018F7003000FA7F03121AF2120DC97F02121AF290
:0619070012190D80E82218
:1011B500120003E5216068E4FD7F01121B32AB3CA0
:1011C500AA3DA93E900004120673AF21EF3395E0C6
:1011D500FE7C007D0A12043FE92FF9EA3EFA90FFF2
:1011E500F7120673E4FD7F01121992AB3CAA3DA9E3
:1011F5003E900004120673AF21EF3395E0FE7C00AC
:101205007D0A12043FE92FF9EA3EFA900001120621
:10121500737D017F011219927B3E7D01E48065E4B7
:10122500FD7F01121B32AB3CAA3DA93E9000041282
:101235000673AF21EF3395E0FE7C007D0A12043F73
:10124500E92FF9EA3EFA900001120673E4FD7F01E9
:10125500121992AB3CAA3DA93E900004120673AF49
:1012650021EF3395E0FE7C007D0A12043FE92FF95A
:10127500EA3EFA90000B1206737D017F0112199266
:091285007B3EE4FDFF121B552223
:100DC900E568603024FE601D046003020EDBAB3C65
:100DD900AA3DA93E1203F9FF0521E5218FF084857B
:100DE900F021020ED8AB3CAA3DA93E1203F914F535
:100DF90021020ED8E569603024FE602604600302F2
:100E09000EDB1521C3E52164809480500EAB3CAA0A
:100E19003DA93E1203F92521FF8002AF218F21024E
:100E29000ED8E4F521020ED8E56A24FE607B046041
:100E390003020EDBAB3CAA3DA93E900004120673E7
:100E4900AF21EF3395E0FE7C007D0A12043FE92FC4
:100E5900F9EA3EFA900004120673E94A4B6023ABA3
:100E69003CAA3DA93E900004120673E92FF9EA3E17
:100E7900FA9000041206738B3C8A3D893EE4F52101
:100E8900804D121A86D206AB3CAA3DA93E900004B9
:100E9900120673E52175F00AA429F9E43AFA9000DB
:100EA900071206731206FC8029AB3CAA3DA93E90A5
:100EB9000001120673E94A4B6018AB3CAA3DA93EF2
:100EC9009000011206738B3C8A3D893EE4F521129C
:050ED90011B5021B4BE6
:0100080022D5
:10171100756B0B756CB8C290C291C2927F02121A9E
:10172100F212190DE56C456B602F300424C204E5FB
:101731006C156C7002156BE56CB4D009E56BB407E0
:1017410004D292800CE56CB4E807E56BB40302D2D5
:10175100913000D0C291C29222D2907FF47E0112C8
:051761001A2575E76088
:011766002260
:10185400AB3CAA3DA93E900004120673AF21EF33BE
:1018640095E08F82F583740A12066212041224F83A
:1018740060131460131460131460131460132405AC
:101884007011D20222C20222D20122C20122D20348
:0418940022C2032247
:100B640012000390163AE493FB740193FA7402930F
:100B7400F9E4FDFF121810E4F52BF52A805D30042A
:100B8400FDE52B6411605EE509B4C905052A750904
:100B940001E52B2407FFE433FED3E5099FEE6480CF
:100BA400F87480985004D2B78002C2B7E52AB4140E
:100BB400CDE4F52AFF121AF212190D3004FD120EBB
:100BC400DE7888120618AB2B052BEB25E025E024F4
:100BD40000F582E43400F58312063D7F01121AF217
:100BE40012190D8099E4F56BF56C120003E56B2581
:100BF400E025E02400F582E43400F583E0FCA3E082
:100C0400FDA3E0FEA3E0F5728E718D708C6FE4FDA0
:100C1400FF120C9C7F02121AF212190DE56C707708
:100C24003000F9E568601924FE601004703D056B1E
:100C3400E56B75F0118485F06B8030756B10802B3B
:100C4400E569601F24FE6016047020156BE56BC314
:100C5400940050047F108002AF6B8F6B800DE4F51D
:100C64006B8008E56A147003756C01E56B25E0255B
:100C7400E02400F582E43400F583E0FCA3E0FDA366
:100C8400E0FEA3E0F5728E718D708C6FE4FDFF12AF
:070C94000C9C121B4B808534
:010C9B002236
:10074400E4F56BF56C120003757103AB34AA33E462
:10075400FDFF121535AB22E4FD7F03121B557B5EB2
:100764007D01AF6B121B557F02121AF212190DE5AF
:100774006C60030208973000F6E5687003020851C4
:1007840024FE604D04600302083CE56B14601314FE
:1007940060161460222403600302083CE5342464D8
:1007A400800AE534240A8004E5342401FFE4353367
:1007B400FE7C037DE88031E52224B5600D24FE60D3
:1007C4000E242D707375224B806E75224D806980C6
:1007D40064E56B14601B146044146059240370585E
:1007E400AE33AF347C007D641204518C338D34807D
:1007F40047AE33AF347C007D641204517E007F0A1F
:10080400CFCDCFCECCCE1204517C007D0A12043F52
:10081400C3E5349FF534E5339EF533801BAE33AF27
:10082400347C007D0A120451C3E5349DF534E5336C
:100834009CF5338003752220757103AB34AA33E42D
:10084400FDFF121535AB22E4FD7F038033E56960BB
:10085400347B207D01AF6B121B55E56924FE600DCE
:10086400047017056BE56B5403F56B800DE56BB4F1
:100874000305E4F56B8003756B037B5E7D01AF6B51
:10088400121B558008E56A147003756C01121B4B2A
:10089400020773E4F56BF56C120003E53FFB7A0085
:1008A400757102E4FDFF1215357B25E4FD7F02120C
:1008B4001B557B5E7D01AF6B121B55E56C6003021B
:1008C40009643000F6E568605B24FE602704704428
:1008D400E56B14601604703CE53F240AFFE433FE24
:1008E4007C007D641204518D3F8029053FE53F75EE
:1008F400F064800DE56B14600E047018E53F75F02C
:100904000A8485F03F800DE53F75F00A84C3E53F16
:1009140095F0F53FE53FFB7A00757102E4FDFF12A7
:1009240015358036E569602A7B207D01AF6B121B8B
:1009340055E56924FE600D04700D056BE56B5401EB
:10094400F56B8003E4F56B7B5E7D01AF6B121B5589
:100954008008E56A147003756C01121B4B0208BF12
:10096400E52224B5601224FE6022242D7039AC33B4
:10097400AD34E412033F8027AC33AD34E412033FBB
:10098400E4FBFA797A78441201168013AC33AD345F
:10099400E412033F7B007A24797478491201168F9C
:1009A400628E618D608C5FAC3FE4120344E4FBFA19
:1009B40079C8784212021F8F678E668D658C641227
:1009C4000003757103AB34AA33E4FDFF121535AB94
:1009D40022E4FD7F03121B55E53FFB7A007571028B
:1009E4007D01E4FF12153585627285617185607041
:1009F400855F6FE4FD7F08120C9C856772856671C4
:100A040085657085646F7D017F08120C9C7FB87EBC
:040A14000B021A2592
:100EDE00AF09E4FCFDFEFBFA7901F81204DCA8046C
:100EEE00A905AA06AB07AF8DEFFEE4FCFD2BFBEACE
:100EFE003EFAED39F9EC38F8AF8BE4FEEB2FFFEE4E
:100F0E003AFEED39FDEC38FC7884120631788430E7
:100F1E00B74712061878801206241204DCC004C0EB
:100F2E0005C006C0077884120624C0007880120619
:100F3E0018D000C3EF9BFFEE9AFEED99FDEC98FCE6
:100F4E00D003D002D001D000120567E412033A7B21
:100F5E00CC7A8A79C9784E8045120618788C12069A
:100F6E00241204DCC004C005C006C0077884120633
:100F7E0024C000788C120618D000C3EF9BFFEE9AA7
:100F8E00FEED99FDEC98FCD003D002D001D00012FA
:100F9E000567E412033A7BA27A51790F7852120157
:100FAE0016788812063130B714E4FFFEFDFC788403
:100FBE00120624C31206075004C2B7801520B719B3
:100FCE00E4FFFEFDFC7884120624D31206074009C6
:0A0FDE00D2B77FF47E01121A25221B
:10194100D2B778881206490000000078841206494F
:1019510000000000788012064900000000788C1217
:09196100064900000000C2032247
:10001E000203E4E86480F8E933E83360110460F029
:10002E00ED33EC337009E8FCE9FDEAFEEBFF220448
:10003E0060DED3EB9FEA9EE99DE8C2E78CF0C2F743
:10004E0095F0400CE8CCF8E9CDF9EACEFAEBCFFB0F
:10005E001203AF85D0F05804700320D5B3E80470B6
:10006E00075002B2D50203EE92D5EC0460F7E4CC51
:10007E00C0E0C398F8603B94186008400DD0E0FBD8
:10008E000203C6E4FBFAC9FC8028E830E406E4C9A2
:10009E00FBE4CAFCE830E305E4C9CACBFCE854072C
:1000AE006010F8C3E913F9EA13FAEB13FBEC13FC37
:1000BE00D8F130F52FC3E49CFCEF9BFFEE9AFEEDDA
:1000CE0099FDD0E0FBEF4E4D4C701222DB03020384
:1000DE00EBEC2CFCEF33FFEE33FEED33FDED30E7B2
:1000EE00EB0203C6EF2BFFEE3AFEED39FDD0E0FB3F
:1000FE0050130BBB00030203EEED13FDEE13FEEFE8
:08010E0013FFEC13FC0203C611
:10011600EC4D6011E8497017ED33EC3304600DE4E3
:10012600FCFFFEFD22E933E8330470F80203E41213
:1001360003AF58046009E4CC248150062850090214
:1001460003EE2840030203EBC0E0EB4A7044B9809B
:1001560006D0E0FB0203DAEF4E701CBD8008EBFF11
:10016600EAFEE9FD80EBE98DF0A4FEE5F00201FF71
:10017600E9CDF9EAFEEBFFEF89F0A4FCE5F0CE89C4
:10018600F0A42EFFE435F0CD89F0A42DFEE435F081
:100196008067EF4E7005BD80D780C3EF8BF0A4ACAF
:1001A600F0EE8BF0A42CFCE435F0F8EF8AF0A42CEA
:1001B600E5F038FCE433CB8DF0A42CFCE5F03BF8FD
:1001C600EE8AF0A42CFCE5F038F8E433CF89F0A4ED
:1001D6002CFCE5F038CF3400CE89F0A42FFFE5F0F3
:1001E6003EFEE433C98DF0A42EFEE5F039CD8AF04B
:1001F600A42FFFE5F03EFEE43DFD33D0E0FB5007C3
:100206000BBB000F0203EEEC2CFCEF33FFEE33FECC
:06021600ED33FD0203C6FA
:10021C000203EEEC5D046005E8590470030203E48C
:10022C001203AF580460F6EC4860F2EC7004FDFE6B
:10023C00FF22C860DB2481C85009C39860025006B5
:10024C000203EB9850CAF582E9294B4A7005AB8240
:10025C000203DA75F0007C1A7880C3EF9BEE9AEDFE
:10026C0099400DC3EF9BFFEE9AFEED99FDE842F02D
:10027C00DC23ACF0D0E0FFD0E0FED0E0FDAB822080
:10028C00E7101BEB60BAEC2CFCEF33FFEE33FEED0A
:10029C0033FD0203C6E803F830E705C0F075F00043
:1002AC00EF2FFFEE33FEED33FD40B830E7C280AAEE
:1002BC0074F8CC6480CCC86480C8F582046043C3F5
:1002CC00EB9FF5F0EA9E42F0E99D42F0E89C45F088
:1002DC0060305018E5825FFFE582F42B5582FB50AD
:1002EC00210ABA001D09B90019088016E5825BFBCA
:1002FC00E582F42F5582FF50090EBE00050DBD009E
:10030C00010CC3EB9FF5F0EA9E42F0E99D42F0E848
:0D031C009C45F06007CC4820E701B3EC22BF
:10032900ED33EC33600A047003BD8004ECB2E7FCE2
:0103390022A1
:10033A0075F020800E75F010800575F0087D007E3E
:10034A00007F003392D530D5031205F9EC33401003
:10035A00EF33FFEE33FEED33FDEC33FCD5F0ED2247
:0E036A00E5F0247EA2D513CC92E7CDCEFF2283
:10037800EDD2E7CD33EC3392D524814006E4FFFE7D
:10038800FDFC22FCE4CFCECDCC24E0501174FF80DC
:10039800EDC3CC13CCCD13CDCE13CECF13CF047079
:0703A800F030D5DE0205F97B
:1003AF00E9D2E7C933E833F892D5EDD2E7CD33EC94
:0703BF0033FC5002B2D5220D
:1003C600EC30E7100FBF000C0EBE00080DBD000498
:1003D6000BEB6014A2D5EB13FCED92E7FD2274FF44
:1003E600FCFDFEFF22E480F8A2D574FF13FC7D809D
:0303F600E480EFB1
:1014B500021AA2E493A3F8E493A34003F68001F291
:1014C50008DFF48029E493A3F85407240CC8C33338
:1014D500C4540F4420C8834004F456800146F6DF07
:1014E500E4800B0102040810204080901A68E47E15
:1014F500019360BCA3FF543F30E509541FFEE493FC
:10150500A360010ECF54C025E060A840B8E493A3C2
:10151500FAE493A3F8E493A3C8C582C8CAC583CAED
:10152500F0A3C8C582C8CAC583CADFE9DEE780BEA5
:011A85000060
:1003F900BB010689828A83E0225002E722BBFE0202
:09040900E32289828A83E4932234
:10041200BB010CE58229F582E5833AF583E022509F
:1004220006E92582F8E622BBFE06E92582F8E222E9
:0D043200E58229F582E5833AF583E4932203
:10043F00EF8DF0A4A8F0CF8CF0A428CE8DF0A42ED1
:02044F00FE228B
:10045100BC000BBE0029EF8DF084FFADF022E4CC8F
:10046100F875F008EF2FFFEE33FEEC33FCEE9DEC58
:10047100984005FCEE9DFE0FD5F0E9E4CEFD22ED9E
:10048100F8F5F0EE8420D21CFEADF075F008EF2FE8
:10049100FFED33FD4007985006D5F0F222C398FDD9
:0504A1000FD5F0EA2276
:1004A600C2D5EC30E709B2D5E4C39DFDE49CFCEE71
:1004B60030E715B2D5E4C39FFFE49EFE120451C394
:1004C600E49DFDE49CFC800312045130D507C3E48F
:0604D6009FFFE49EFE22E0
:1004DC00E88FF0A4CC8BF0A42CFCE98EF0A42CFCBF
:1004EC008AF0EDA42CFCEA8EF0A4CDA8F08BF0A43D
:1004FC002DCC3825F0FDE98FF0A42CCD35F0FCEB9C
:10050C008EF0A4FEA9F0EB8FF0A4CFC5F02ECD3960
:0F051C00FEE43CFCEAA42DCE35F0FDE43CFC22CD
:10052B0075F008758200EF2FFFEE33FECD33CDCC87
:10053B0033CCC58233C5829BED9AEC99E58298400A
:10054B000CF582EE9BFEED9AFDEC99FC0FD5F0D6E7
:10055B00E4CEFBE4CDFAE4CCF9A88222B800C1B911
:10056B000059BA002DEC8BF084CFCECDFCE5F0CB4F
:10057B00F97818EF2FFFEE33FEED33FDEC33FCEB88
:10058B0033FB10D703994004EB99FB0FD8E5E4F943
:10059B00FA227818EF2FFFEE33FEED33FDEC33FC30
:1005AB00C933C910D7059BE99A4007EC9BFCE99A24
:1005BB00F90FD8E0E4C9FAE4CCFB2275F010EF2F69
:1005CB00FFEE33FEED33FDCC33CCC833C810D70769
:1005DB009BEC9AE899400AED9BFDEC9AFCE899F8A4
:0E05EB000FD5F0DAE4CDFBE4CCFAE4C8F92237
:0E05F900C3E49FFFE49EFEE49DFDE49CFC2213
:10060700EB9FF5F0EA9E42F0E99D42F0E89C45F049
:0106170022C0
:0C061800E6FC08E6FD08E6FE08E6FF220E
:0D062400E6FB08E6F908E6FA08E6CBF82246
:0C063100ECF608EDF608EEF608EFF622F5
:0C063D00ECF0A3EDF0A3EEF0A3EFF02230
:10064900D083D082E493F608740193F60874029378
:09065900F608740393F6740473AF
:10066200F5F0C582A4C582C5F0C583A42583F583B0
:010672002265
:10067300BB010DE58229F582E5833AF58302071470
:100683005007E92582F8020702BBFE07E92582F835
:10069300020726E58229F582E5833AF583020738C6
:1006A300BB0120E58229F582E5833AF583D0F0D0BA
:1006B300E0F8D0E0F9D0E0FAD0E0FBE8C0E0C0F029
:1006C30002071D5018E92582F8D083D082D0E0F9C3
:1006D300D0E0FAD0E0FBC082C08302070BBBFE1858
:1006E300E92582F8D083D082D0E0F9D0E0FAD0E0D7
:0906F300FBC082C08302072F2224
:0606FC008A838982E47389
:09070200E6FB08E6FA08E6F9221C
:09070B00EBF608EAF608E9F62213
:09071400E0FBA3E0FAA3E0F922E6
:09071D00EBF0A3EAF0A3E9F022DD
:09072600E2FB08E2FA08E2F92204
:09072F00EBF208EAF208E9F222FB
:0C073800E493FB740193FA740293F9221D
:00000001FF
