:03000000021109E1
:0C110900787FE4F6D8FD75818302115058
:1008EE00E555700DF54F755032754DEA754E6080B9
:1008FE000C754F00755001754D07754ED0E54614B9
:10090E00601214602F146054240370562095537592
:10091E004601801930950280460545E54570020571
:10092E0044D39550E544954F4038754602E4F5445E
:10093E00F545802E30950AE4F546755A01D20080B1
:10094E00210545E54570020544D3954EE544954D88
:10095E004010755A02D2007546038006309503E4A6
:10096E00F546E54914601214602F14605424037088
:10097E0056209453754901801930940280460548DB
:10098E00E54870020547D39550E547954F403875B9
:10099E004902E4F547F548802E30940AE4F549758E
:1009AE005B01D20080210548E54870020547D395CA
:1009BE004EE547954D4010755B02D2007549038098
:1009CE0006309403E4F549E54C14601214602E14BD
:1009DE00605124037053209350754C01801930934D
:1009EE00028043054BE54B7002054AD39550E54A0C
:1009FE00954F4035754C02E4F54AF54B223093097C
:100A0E00E4F54C755C01D20022054BE54B700205F6
:100A1E004AD3954EE54A954D400F755C02D200754E
:0A0A2E004C0322309303E4F54C2240
:0A17CD00E4F55AF55BF55CC200225A
:10170F00E4F55AF55BF55CC200F546F549F54CF585
:0C171F0044F545F547F548F54AF54B2226
:101619002000051208EE80F8E55A60031205EEE590
:101629005B6007AA6BA96C1205EEE55C6007AA6E00
:08163900A96F1205EE0217CDA6
:0B17C2002000051208EE80F80217CD91
:1017A300496E66696E697465001F111B0A0A0A0493
:0117B3000431
:10177800C2B2D2B3D2B47F047E0012000EA2A792E6
:0517880005C2B4A2053A
:01178D002239
:10168C008F6612177840FBC2B2C2B3C2B48566A093
:10169C007F047E0012000ED2B47F047E0012000E76
:0316AC00C2B422A3
:0E17B400ED60054307C0800343078002168CDA
:10154400AE36AF377C007D641204947F0A7E00CFF0
:0C155400CDCFCECCCE120494EF2430FF9B
:101560008F6612177840FBD2B2C2B3C2B48566A0B0
:101570007F047E0012000ED2B47F047E0012000EA3
:03158000C2B422D0
:101290007F0F7E001216AF7F3812168C7F057E00FE
:1012A0001216AF7F3812168C7F057E001216AF7FA4
:1012B0003812168C7F057E001216AF7F0C12168C2A
:1012C0007F057E001216AF7F0612168C7F057E000A
:1012D0001216AF7F4012168CE4F55DE55D9017ACF9
:1012E00093FF121560055DE55DC3940840ED7F0135
:1012F00012168C7F057E001216AFE4FDFF0217B4B4
:050003007F0102168CD4
:0A17D7008B5F1217B4AF5F021560BC
:1010780012021F8F628E618D608C5F1203788E4220
:101088008F43AC42AD43EC12033FA804A905AA065E
:10109800AB07AF62AE61AD60AC5F120021E4FBFA52
:1010A800797A78441201161203788E368F37AB435B
:0610B800AA42AD5EAF5D2F
:0410BE008A638B6452
:1010C200E4F5651217B4AE63AF647C007D0A1204C6
:1010D20094AF05AE65056574382EF8A607AE63AF0A
:1010E200647C007D0A1204948E638F64E564456318
:1010F20070D4E5656010156574382565F8E624300E
:06110200FF12156080ECF5
:0111080022C4
:100A38008F5D8D5E7F287E6B7D6E7C4EAB62AA617A
:100A4800A960A85F1202BC400D7BFF7A1779A3AD9D
:100A58005EAF5D0216417F007E247D747C49AB62E7
:100A6800AA61A960A85F1202BC403DAF62AE61AD49
:100A780060AC5F7B007A24797478491210787F2EF5
:100A8800121560AE36AF377C007D64121559121509
:100A980044AE36AF377C007D0A120494ED2430FF53
:100AA8001215607F4D020B61E4FFFE7D7A7C44AB3A
:100AB80062AA61A960A85F1202BCAF62AE61AD60B4
:100AC800AC5F60364034E4FBFA797A7844121078E7
:100AD8007F2E121560AE36AF377C007D6412155933
:100AE800121544AE36AF377C007D0A120494ED240B
:100AF80030FF1215607F4B020B611203788E428F14
:100B080043AC42AD43EC12033FA804A905AA06ABC7
:100B180007AF62AE61AD60AC5F1200217B007A4026
:100B2800791C78461210AC7F2E121560AE36AF379E
:100B38007C037DE8121559AE36AF377C037DE81289
:100B480004947F64121551121544AE36AF377C00F9
:0D0B58007D0A120494ED2430FF1215602276
:101641008B638A6489651217B4AB63AA64A96512B6
:1016510003F9FF601012156074012565F565E43525
:0616610064F56480E42240
:0A14BC008F088D098B0A8A0B890C3A
:1014C600E4FF1217B4E4F50D7F20121560050DE553
:1014D6000DC3941040F2AD09AF081217B4AB0AAAB7
:1014E6000BA90C1203F9FF60101215607401250C8C
:0914F600F50CE4350BF50B80E464
:0114FF0022CA
:1013CF008B5F8A6089617F0112168CE4FDFF121713
:1013DF00B4AB5FAA60A9611203F960130561E561FF
:1013EF007002056014F91203F9FF12156080E27D97
:1013FF0001E4FF1217B4AB62AA63A9641203F96088
:10140F00130564E5647002056314F91203F9FF1202
:05141F00156080E222CF
:021746008B5DB9
:101748001217B4E4F55EE55EC3955D50097F20127B
:061758001560055E80F043
:01175E002268
:0517E1007F0F02168CD1
:0517E6007F0C02168CCF
:1011950043726F73732050726F62657320416E6482
:1011A50000507265737320416E7920427574746FB7
:1011B5006E004D656172737572696E672E2E2E0015
:1011C500506C6561736520576169740053657420BF
:1011D5005A65726F0046696E6973686564004C4FA5
:1011E5005700484947480050726F63657373696ECD
:1011F500672E2E2E004B4559330053484F52545FEE
:10120500505245535300523D00496E20004F7574AE
:0112150000D8
:02178E00C18216
:1016D1001216F1120F09C292C291C2901215ED12A7
:1016E10008EE3000031213003003F4120D4E80EFA8
:1016F1007592077591F875B28075B120C292C29149
:0E170100C29012129012142412170F02121628
:100F09007562FF7563117564A67BFF7A1179951275
:100F190013CF1217C27562FF7563117564C57BFF24
:100F29007A1179B71213CFC2A47FB87E0B1216AF0C
:100F39001215ED3003FD120B65E58B7002D2907826
:100F4900741205277870120540D2A47FE87E031237
:100F590016AF1215ED3003FD120B65E58B7002D249
:100F690092787412052778801205407562FF7563BF
:100F7900117564DA7BFF7A1179D11213CF7FD07E94
:100F8900071216AF30023F1200037BFF7A1179E393
:100F9900E4FDFF1216417870120527AB07AA06E493
:100FA900FD7F061210BE7BFF7A1179E77D01E4FF10
:100FB9001216417880120527AB07AA067D017F0624
:070FC9001210BE1217C22234
:10130000E55A24FE6007047006B2028002B201E5CD
:101310005B24FE602A04702D12170F7F0312175FE3
:10132000121583E4FF12175F1215ED12170F12004A
:10133000037BFF7A1179ECE4FDFF1216418006C2AF
:1013400090C291C292E55C24FE601704701A756227
:10135000FF7563117564FF7BFF7A1179FA1213CF61
:0B1360008006D290D291D2920217CDED
:100D4E00120B651215ED1200037BFF7A12790BE47C
:100D5E00FDFF12164178781205278F628E618D6025
:100D6E008C5FE4FD7F02120A38300212787412058D
:100D7E0027AB07AA067D017F081210BE80097B08EB
:100D8E007D017F08121746200103020E2DE4FBFDA4
:100D9E007F0F1217D7AB54AA53A952A851C000788F
:100DAE0078120527D000120021AB54AA53A952A8DD
:100DBE005112021FAB59AA58A957A8561202BC606D
:100DCE0051404FAB54AA53A952A851C00078781283
:100DDE000527D000120021AB54AA53A952A85112D4
:100DEE00021FC004C005C006C007AF59AE58AD57AC
:100DFE00AC56120329A804A905AA06AB07D007D042
:100E0E0006D005D0041202BC50087BFF7A12790E70
:100E1E0080067BFF7A1279127D01E4FF12164122C1
:0416AF008E5F8F605B
:1016B300E4F561F562C3E5629560E561955F500D00
:0D16C30012172B0562E56270EC056180E8EE
:0116D00022F7
:10172B007F017E007DF47C01ED1D70011CED4C7082
:0A173B00F7EF1F70011EEF4E70EA79
:011745002281
:0D000E00EF4E600800EF1F70F71E80F42217
:10142400D2AFD2A9D2ABD2B9C2BB758951C2A4780A
:101434007812054C00000000C203787412054C00B9
:10144400000000787C12054C000000007870120542
:101454004C00000000788012054C00000000E4F508
:101464000EF50FF58AF58CF58BF58DC28CC28EF5D1
:021474005522FF
:10175F008F55C28CC28EEF14600B14600824027078
:09176F00077589512275891122C8
:1015ED00C203E4F50EF50FE55514601514601224D1
:1015FD00027018E4F58AF58CF58BF58DD28CD28EB0
:0C160D0022758DFE758B33C28CD28E22AC
:03001B0002147656
:10147600C0E0C0F0C083C082C0D075D010E555244E
:10148600FE600B14602124037021050F801D758BEF
:1014960033758DFED203050FE50FC39402400C751C
:1014A6000F001208EE8004C28CC28ED0D0D082D03B
:0614B60083D0F0D0E0320B
:03000B0002166773
:10166700C0E0C0D020A409050EE50EB40202800A2E
:1016770030A40D050EE50EB40F06C28EC28CD20340
:05168700D0D0D0E032DC
:100B6500C203AF0FE4FCFDFEFBFA7901F81204CADB
:100B7500A804A905AA06AB07AF8DEFFEE4FCFD2B83
:100B8500FBEA3EFAED39F9EC38F8AF8BE4FEEB2FD2
:100B9500FFEE3AFEED39FDEC38FC78741205402085
:100BA500A45E7F957EBA7D0A7C00787412053312A7
:100BB50004CA787C120540787412052778701205EE
:100BC500331204CAC004C005C006C00778741205F4
:100BD50033C0007870120527D000C3EF9BFFEE9A53
:100BE500FEED99FDEC98FCD003D002D001D00012A7
:100BF5001500EC12033A7BCC7A8A79C9784E805C71
:100C05007F367E6E7D017C0078741205331204CA2E
:100C1500787C120540787412052778801205331206
:100C250004CAC004C005C006C0077874120533C0E5
:100C3500007880120527D000C3EF9BFFEE9AFEEDEA
:100C450099FDEC98FCD003D002D001D0001215001C
:100C5500EC12033A7BA27A51790F78521201167879
:050C6500781205402299
:100E2E00596573004E6F004465627567204D6F649F
:100E3E0065204F6E005369657665204D6F646520A1
:100E4E004F6E005365742053696576650053746167
:100E5E00727420506C6F7400526573657420446513
:100E6E007669636500457869740050726573732006
:100E7E00416E79204B657920546F0053746F70204A
:100E8E005245534554210007FF0E2E000000FF155A
:100E9E00B908FF0E32000000FF15B900002309FF4C
:100EAE000E2E000000FF15B90AFF0E32000000FFE3
:100EBE0015B900002B00FF0E3500002300000001C5
:100ECE00FF0E4300002B00000003FF0E5100000038
:100EDE00FF070404FF0E5B000000FF000905FF0E74
:100EEE0066000000FF136B06FF0E73000000FF008C
:0B0EFE000806000000FF0EC3FF0EFFFF
:10179000072302000000FF0E95072B02000000FF48
:0217A0000EAC8D
:10121600900F06E493FB740193FA740293F9C003EA
:10122600C002C001900EA9E493FB740193FA740204
:1012360093F9900001120595900F06E493FB740153
:1012460093FA740293F9C003C002C001900EC0E481
:1012560093FB740193FA740293F9900001120595B9
:10126600753200753300753400E4F521C204C201FD
:10127600F554F553F552F551F559F558F557F55618
:0A128600F52A752220F535D2022268
:10158300900F06E493FB740193FA7402938B328AEF
:1015930033F534E4F521C204120FD0800E30041564
:1015A3003000FA7F0312175F120C6A7F0212175F73
:0615B3001215ED80E82294
:100FD000120003E521AB32AA33A934900004604A21
:100FE000120565E52175F00AA429F9EA35F0FA90B1
:100FF000FFF7120565E4FD7F01121641AB32AA33FB
:10100000A934900004120565E52175F00AA429F9B8
:10101000EA35F0FA9000011205657D017F01121694
:10102000417B3E7D01E4FF0217D7120565E521757E
:10103000F00AA429F9EA35F0FA900001120565E4F6
:10104000FD7F01121641AB32AA33A934900004127D
:101050000565E52175F00AA429F9EA35F0FA900052
:101060000B1205657D017F011216417B007A007924
:081070003EE4FDFF12164122CF
:100C6A00E55A6016146003020D4BAB32AA33A9345D
:100C7A001203F9FFAE2105218018E55B601E14609E
:100C8A0003020D4BAB32AA33A9341203F9FFAE218A
:100C9A001521EE8FF08485F021020D48E55C24FED3
:100CAA006076046003020D4BAB32AA33A93490007C
:100CBA0004120565E52175F00AA4FFAEF029F9EAE8
:100CCA003EFA900004120565E94A4B6023AB32AA4A
:100CDA0033A934900004120565E92FF9EA3EFA9027
:100CEA0000041205658B328A338934E4F521804E7B
:100CFA0012170FD204AB32AA33A93490000412059A
:100D0A0065E52175F00AA429F9EA35F0FA90000799
:100D1A001205651205EE8029AB32AA33A934900078
:100D2A0001120565E94A4B6018AB32AA33A934901F
:100D3A0000011205658B328A338934E4F521120FDA
:040D4A00D00217CDEF
:0100080022D5
:10136B00755D17755E70C290C291C2927562FF7502
:10137B00630E7564897BFF7A0E79781213CF7F0227
:10138B0012175F1215EDE55E455D602B300324C22D
:10139B0003E55E155E7002155DE55EB4A009E55DC3
:1013AB00B40F04D292800CE55EB4D007E55DB407B0
:1013BB0002D2913000D022D2907FE87E031216AF7A
:0313CB0075E76063
:0113CE0022FC
:1015B900AB32AA33A93490000412056575F00AE527
:1015C90021A4F58285F08312041224F8600D1460B9
:1015D9000D14600D2403700BD20222C20222D20123
:0415E90022C20122F7
:0100090022D4
:10070400E4F55D755E01120003E52AFB7A00E4FD61
:10071400FF1210BEAB22E4FD7F031217D77B5E7D70
:1007240001AF5D1217D77F0212175F1215EDE55E58
:1007340070030208363000F6E55A70030207F0240D
:10074400FE60510460030207DDE55D14601314606C
:1007540016146026240360030207DDE52A2464805E
:100764000AE52A240A8004E52A2401FFE433FE7CF6
:10077400037DE812043F8D2A805FE52224B36012D2
:1007840024E26009244B705175224B804C75224D34
:1007940080478042E55D14601514602B1460372493
:1007A400037036E52A75F0648485F02A802BE52AE7
:1007B40075F06484E5F075F00A8475F00AA4FFC34B
:1007C400E52A9FF52A8012E52A75F00A84C3E52AF2
:1007D40095F0F52A8003752220E52AFB7A00E4FDD2
:1007E400FF1210BEAB22E4FD7F038033E55B60346F
:1007F4007B207D01AF5D1217D7E55B24FE600D04FD
:100804007017055DE55D5403F55D800DE55DB4038A
:1008140005E4F55D8003755D037B5E7D01AF5D12CC
:1008240017D78008E55C147003E4F55E1217CD0257
:100834000732E4F55D755E01120003E535FB7A00CD
:10084400E4FDFF1210BE7B25E4FD7F021217D77B67
:100854005E7D01AF5D1217D73000FDE55A60582464
:10086400FE6027047044E55D14601604703CE535B1
:10087400240AFFE433FE7C007D6412043F8D35803E
:10088400290535E53575F064800DE55D14600E04C9
:100894007018E53575F00A8485F035800DE53575F9
:1008A400F00A84C3E53595F0F535E535FB7A00E4C7
:1008B400FDFF1210BE802DE55B60217B207D01AF22
:1008C4005D1217D7E55B147008055DE55D5401F50D
:1008D4005D7B5E7D01AF5D1217D78008E55C147007
:0A08E40003E4F55E1217CD02085C74
:10001E000203E4E86480F8E933E83360110460F029
:10002E00ED33EC337009E8FCE9FDEAFEEBFF220448
:10003E0060DED3EB9FEA9EE99DE8C2E78CF0C2F743
:10004E0095F0400CE8CCF8E9CDF9EACEFAEBCFFB0F
:10005E001203AF85D0F05804700320D5B3E80470B6
:10006E00075002B2D50203EE92D5EC0460F7E4CC51
:10007E00C0E0C398F8603B94186008400DD0E0FBD8
:10008E000203C6E4FBFAC9FC8028E830E406E4C9A2
:10009E00FBE4CAFCE830E305E4C9CACBFCE854072C
:1000AE006010F8C3E913F9EA13FAEB13FBEC13FC37
:1000BE00D8F130F52FC3E49CFCEF9BFFEE9AFEEDDA
:1000CE0099FDD0E0FBEF4E4D4C701222DB03020384
:1000DE00EBEC2CFCEF33FFEE33FEED33FDED30E7B2
:1000EE00EB0203C6EF2BFFEE3AFEED39FDD0E0FB3F
:1000FE0050130BBB00030203EEED13FDEE13FEEFE8
:08010E0013FFEC13FC0203C611
:10011600EC4D6011E8497017ED33EC3304600DE4E3
:10012600FCFFFEFD22E933E8330470F80203E41213
:1001360003AF58046009E4CC248150062850090214
:1001460003EE2840030203EBC0E0EB4A7044B9809B
:1001560006D0E0FB0203DAEF4E701CBD8008EBFF11
:10016600EAFEE9FD80EBE98DF0A4FEE5F00201FF71
:10017600E9CDF9EAFEEBFFEF89F0A4FCE5F0CE89C4
:10018600F0A42EFFE435F0CD89F0A42DFEE435F081
:100196008067EF4E7005BD80D780C3EF8BF0A4ACAF
:1001A600F0EE8BF0A42CFCE435F0F8EF8AF0A42CEA
:1001B600E5F038FCE433CB8DF0A42CFCE5F03BF8FD
:1001C600EE8AF0A42CFCE5F038F8E433CF89F0A4ED
:1001D6002CFCE5F038CF3400CE89F0A42FFFE5F0F3
:1001E6003EFEE433C98DF0A42EFEE5F039CD8AF04B
:1001F600A42FFFE5F03EFEE43DFD33D0E0FB5007C3
:100206000BBB000F0203EEEC2CFCEF33FFEE33FECC
:06021600ED33FD0203C6FA
:10021C000203EEEC5D046005E8590470030203E48C
:10022C001203AF580460F6EC4860F2EC7004FDFE6B
:10023C00FF22C860DB2481C85009C39860025006B5
:10024C000203EB9850CAF582E9294B4A7005AB8240
:10025C000203DA75F0007C1A7880C3EF9BEE9AEDFE
:10026C0099400DC3EF9BFFEE9AFEED99FDE842F02D
:10027C00DC23ACF0D0E0FFD0E0FED0E0FDAB822080
:10028C00E7101BEB60BAEC2CFCEF33FFEE33FEED0A
:10029C0033FD0203C6E803F830E705C0F075F00043
:1002AC00EF2FFFEE33FEED33FD40B830E7C280AAEE
:1002BC0074F8CC6480CCC86480C8F582046043C3F5
:1002CC00EB9FF5F0EA9E42F0E99D42F0E89C45F088
:1002DC0060305018E5825FFFE582F42B5582FB50AD
:1002EC00210ABA001D09B90019088016E5825BFBCA
:1002FC00E582F42F5582FF50090EBE00050DBD009E
:10030C00010CC3EB9FF5F0EA9E42F0E99D42F0E848
:0D031C009C45F06007CC4820E701B3EC22BF
:10032900ED33EC33600A047003BD8004ECB2E7FCE2
:0103390022A1
:10033A0075F020800E75F010800575F0087D007E3E
:10034A00007F003392D530D503120519EC334010E3
:10035A00EF33FFEE33FEED33FDEC33FCD5F0ED2247
:0E036A00E5F0247EA2D513CC92E7CDCEFF2283
:10037800EDD2E7CD33EC3392D524814006E4FFFE7D
:10038800FDFC22FCE4CFCECDCC24E0501174FF80DC
:10039800EDC3CC13CCCD13CDCE13CECF13CF047079
:0703A800F030D5DE0205195B
:1003AF00E9D2E7C933E833F892D5EDD2E7CD33EC94
:0703BF0033FC5002B2D5220D
:1003C600EC30E7100FBF000C0EBE00080DBD000498
:1003D6000BEB6014A2D5EB13FCED92E7FD2274FF44
:1003E600FCFDFEFF22E480F8A2D574FF13FC7D809D
:0303F600E480EFB1
:101115000216D1E493A3F8E493A34003F68001F209
:1011250008DFF48029E493A3F85407240CC8C333DB
:10113500C4540F4420C8834004F456800146F6DFAA
:10114500E4800B010204081020408090178EE47E95
:10115500019360BCA3FF543F30E509541FFEE4939F
:10116500A360010ECF54C025E060A840B8E493A366
:10117500FAE493A3F8E493A3C8C582C8CAC583CA91
:10118500F0A3C8C582C8CAC583CADFE9DEE780BE49
:0117A2000046
:1003F900BB010689828A83E0225002E722BBFE0202
:09040900E32289828A83E4932234
:10041200BB010CE58229F582E5833AF583E022509F
:1004220006E92582F8E622BBFE06E92582F8E222E9
:0D043200E58229F582E5833AF583E4932203
:10043F00BC000BBE0029EF8DF084FFADF022E4CCA1
:10044F00F875F008EF2FFFEE33FEEC33FCEE9DEC6A
:10045F00984005FCEE9DFE0FD5F0E9E4CEFD22EDB0
:10046F00F8F5F0EE8420D21CFEADF075F008EF2FFA
:10047F00FFED33FD4007985006D5F0F222C398FDEB
:05048F000FD5F0EA2288
:10049400C2D5EC30E709B2D5E4C39DFDE49CFCEE83
:1004A40030E715B2D5E4C39FFFE49EFE12043FC3B8
:1004B400E49DFDE49CFC800312043F30D507C3E4B3
:0604C4009FFFE49EFE22F2
:1004CA00E88FF0A4CC8BF0A42CFCE98EF0A42CFCD1
:1004DA008AF0EDA42CFCEA8EF0A4CDA8F08BF0A44F
:1004EA002DCC3825F0FDE98FF0A42CCD35F0FCEBAE
:1004FA008EF0A4FEA9F0EB8FF0A4CFC5F02ECD3973
:0F050A00FEE43CFCEAA42DCE35F0FDE43CFC22DF
:10150000C2D5E830E70FB2D5E4C39BFBE49AFAE416
:1015100099F9E498F8EC30E717B2D51215361206AF
:1015200030E4C39BFBE49AFAE499F9E498F8800369
:1015300012063030D50DE4C39FFFE49EFEE49DFD0E
:04154000E49CFC2209
:0E051900C3E49FFFE49EFEE49DFDE49CFC22F3
:0C052700E6FC08E6FD08E6FE08E6FF2200
:0D053300E6FB08E6F908E6FA08E6CBF82238
:0C054000ECF608EDF608EEF608EFF622E7
:10054C00D083D082E493F608740193F60874029376
:09055C00F608740393F6740473AD
:10056500BB010DE58229F582E5833AF5830206D4C0
:100575005007E92582F80206C2BBFE07E92582F885
:100585000206E6E58229F582E5833AF5830206F857
:10059500BB0120E58229F582E5833AF583D0F0D0C9
:1005A500E0F8D0E0F9D0E0FAD0E0FBE8C0E0C0F038
:1005B5000206DD5018E92582F8D083D082D0E0F913
:1005C500D0E0FAD0E0FBC082C0830206CBBBFE18A8
:1005D500E92582F8D083D082D0E0F9D0E0FAD0E0E6
:0905E500FBC082C0830206EF2274
:0605EE008A838982E47398
:1005F40075F008758200EF2FFFEE33FECD33CDCCBE
:1006040033CCC58233C5829BED9AEC99E582984040
:100614000CF582EE9BFEED9AFDEC99FC0FD5F0D61D
:10062400E4CEFBE4CDFAE4CCF9A88222B800C1B947
:100634000059BA002DEC8BF084CFCECDFCE5F0CB85
:10064400F97818EF2FFFEE33FEED33FDEC33FCEBBE
:1006540033FB10D703994004EB99FB0FD8E5E4F979
:10066400FA227818EF2FFFEE33FEED33FDEC33FC66
:10067400C933C910D7059BE99A4007EC9BFCE99A5A
:10068400F90FD8E0E4C9FAE4CCFB2275F010EF2F9F
:10069400FFEE33FEED33FDCC33CCC833C810D7079F
:1006A4009BEC9AE899400AED9BFDEC9AFCE899F8DA
:0E06B4000FD5F0DAE4CDFBE4CCFAE4C8F9226D
:0906C200E6FB08E6FA08E6F9225D
:0906CB00EBF608EAF608E9F62254
:0906D400E0FBA3E0FAA3E0F92227
:0906DD00EBF0A3EAF0A3E9F0221E
:0906E600E2FB08E2FA08E2F92245
:0906EF00EBF208EAF208E9F2223C
:0C06F800E493FB740193FA740293F9225E
:00000001FF
