:0300000002119654
:0C119600787FE4F6D8FD7581830211DD3E
:1008EE00E555700DF54F755032754DEA754E6080B9
:1008FE000C754F00755001754D07754ED0E54614B9
:10090E00601214602F146054240370562095537592
:10091E004601801930950280460545E54570020571
:10092E0044D39550E544954F4038754602E4F5445E
:10093E00F545802E30950AE4F546755A01D20080B1
:10094E00210545E54570020544D3954EE544954D88
:10095E004010755A02D2007546038006309503E4A6
:10096E00F546E54914601214602F14605424037088
:10097E0056209453754901801930940280460548DB
:10098E00E54870020547D39550E547954F403875B9
:10099E004902E4F547F548802E30940AE4F549758E
:1009AE005B01D20080210548E54870020547D395CA
:1009BE004EE547954D4010755B02D2007549038098
:1009CE0006309403E4F549E54C14601214602E14BD
:1009DE00605124037053209350754C01801930934D
:1009EE00028043054BE54B7002054AD39550E54A0C
:1009FE00954F4035754C02E4F54AF54B223093097C
:100A0E00E4F54C755C01D20022054BE54B700205F6
:100A1E004AD3954EE54A954D400F755C02D200754E
:0A0A2E004C0322309303E4F54C2240
:0A177500E4F55AF55BF55CC20022B2
:1016B700E4F55AF55BF55CC200F546F549F54CF5DE
:0C16C70044F545F547F548F54AF54B227F
:1015C1002000051208EE80F8E55A60031205EEE5E9
:1015D1005B6007AA6BA96C1205EEE55C6007AA6E59
:0815E100A96F1205EE02177557
:0B176A002000051208EE80F802177541
:10174B00496E66696E697465001F111B0A0A0A04EB
:01175B000489
:10172000C2B2D2B3D2B47F067E0012000EA2A7923C
:0517300005C2B4A20592
:011735002291
:101634008F6612172040FBC2B2C2B3C2B48566A043
:101644007F067E0012000ED2B47F067E0012000ECA
:03165400C2B422FB
:0E175C00ED60054307C080034307800216348A
:1014EC00AE36AF377C007D641204947F0A7E00CF49
:0C14FC00CDCFCECCCE120494EF2430FFF4
:101508008F6612172040FBD2B2C2B3C2B48566A060
:101518007F067E0012000ED2B47F067E0012000EF7
:03152800C2B42228
:10129C007F0F7E001216577F381216347F057E00A2
:1012AC001216577F381216347F057E001216577FA0
:1012BC00381216347F057E001216577F0C12163426
:1012CC007F057E001216577F061216347F057E00AE
:1012DC001216577F40121634E4F55DE55D901754F5
:1012EC0093FF121508055DE55DC3940840ED7F0181
:1012FC001216347F057E00121657E4FDFF02175CB0
:050003007F010216342C
:0A177F008B5F12175CAF5F021508C4
:1010760012021F8F628E618D608C5F1203788E4222
:101086008F43AC42AD43EC12033FA804A905AA0660
:10109600AB07AF62AE61AD60AC5F120021E4FBFA54
:1010A600797A78441201161203788E368F37AB435D
:0610B600AA42AD5EAF5D31
:0410BC008A638B6454
:1010C000E4F56512175CAE63AF647C007D0A120420
:1010D00094AF05AE65056574382EF8A607AE63AF0C
:1010E000647C007D0A1204948E638F64E56445631A
:1010F00070D4E5656010156574382565F8E6243010
:06110000FF12150880EC4F
:0111060022C6
:100A38008F5D8D5E7F287E6B7D6E7C4EAB62AA617A
:100A4800A960A85F1202BC400D7BFF7A17794BADF5
:100A58005EAF5D0215E97F007E247D747C49AB6240
:100A6800AA61A960A85F1202BC403DAF62AE61AD49
:100A780060AC5F7B007A24797478491210767F2EF7
:100A8800121508AE36AF377C007D641215011214BA
:100A9800ECAE36AF377C007D0A120494ED2430FFAB
:100AA8001215087F4D020B61E4FFFE7D7A7C44AB92
:100AB80062AA61A960A85F1202BCAF62AE61AD60B4
:100AC800AC5F60364034E4FBFA797A7844121076E9
:100AD8007F2E121508AE36AF377C007D64121501E3
:100AE8001214ECAE36AF377C007D0A120494ED2464
:100AF80030FF1215087F4B020B611203788E428F6C
:100B080043AC42AD43EC12033FA804A905AA06ABC7
:100B180007AF62AE61AD60AC5F1200217B007A4026
:100B2800791C78461210AA7F2E121508AE36AF37F8
:100B38007C037DE8121501AE36AF377C037DE812E1
:100B480004947F641214F91214ECAE36AF377C00AB
:0D0B58007D0A120494ED2430FF12150822CE
:1015E9008B638A64896512175CAB63AA64A9651267
:1015F90003F9FF601012150874012565F565E435D6
:0616090064F56480E42298
:0A1464008F088D098B0A8A0B890C92
:10146E00E4FF12175CE4F50D7F20121508050DE55B
:10147E000DC3941040F2AD09AF0812175CAB0AAA67
:10148E000BA90C1203F9FF60101215087401250C3C
:09149E00F50CE4350BF50B80E4BC
:0114A7002222
:101377008B5D8A5E895F7F01121634E4FDFF1217C9
:101387005CAB5DAA5EA95F1203F96013055FE55FB9
:101397007002055E14F91203F9FF12150880E27D49
:1013A70001E4FF12175CAB60AA61A9621203F9603E
:1013B700130562E5627002056114F91203F9FF1261
:0513C700150880E22280
:0216EE008B5D12
:1016F00012175CE4F55EE55EC3955D50097F20122C
:061700001508055E80F0F3
:0117060022C0
:051789007F0F02163481
:05178E007F0C0216347F
:1011070043726F73732050726F62657320416E6410
:1011170000507265737320416E7920427574746F45
:101127006E004D656172737572696E672E2E2E00A3
:10113700506C65617365205761697400546F205363
:1011470077697463682043617000536574205A653A
:10115700726F0046696E6973686564004C4F57008B
:10116700484947480050726F63657373696E672E0D
:101177002E2E004B4559330053484F52545F50525F
:0F11870045535300523D00496E20004F757400D0
:02173600C1826E
:10167900121699120E30C292C291C2901215951289
:1016890008EE30000312130C3003F4120D5080EFF2
:101699007592477591B8E4F5B275B120C292C291BD
:0E16A900C29012129C1213CC1216B70212221B
:100E30007560FF7561117562187BFF7A1179071271
:100E4000137712176A7560FF7561117562377BFF42
:100E50007A117929121377D2B77FB87E0B12165701
:100E60001215953003FD120B657874120527787002
:100E70001205401200037560FF7561117562437BB6
:100E8000FF7A11791812137712176AC2B77FE87EBA
:100E9000031216571215953003FD120B6578741264
:100EA000052778801205407560FF75611175625ADB
:100EB0007BFF7A117951121377D2B77FD07E071258
:100EC000165730023F1200037BFF7A117963E4FD6D
:100ED000FF1215E97870120527AB07AA06E4FD7F1B
:100EE000061210BC7BFF7A1179677D01E4FF1215B1
:100EF000E97880120527AB07AA067D017F0612104C
:050F0000BC12176A227B
:10130C00E55A24FE6007047006B2028002B201E5C1
:10131C005B24FE602A04702D1216B77F0312170788
:10132C0012152BE4FF1217071215951216B712009F
:10133C00037BFF7A11796CE4FDFF1215E98006C27C
:10134C0090C291C292E55C24FE601704701A75601D
:10135C00FF75611175627F7BFF7A11797A121377B1
:0B136C008006D290D291D29202177539
:100D5000120B651215951200037BFF7A11798BE453
:100D6000FDFF1215E978781205278F628E618D607C
:100D70008C5FE4FD7F02120A38300212787412058B
:100D800027AB07AA067D017F081210BC80097B08EB
:100D90007D017F081216EE200103020E2FE4FBFDF9
:100DA0007F0F12177FAB54AA53A952A851C00078E5
:100DB00078120527D000120021AB54AA53A952A8DB
:100DC0005112021FAB59AA58A957A8561202BC606B
:100DD00051404FAB54AA53A952A851C00078781281
:100DE0000527D000120021AB54AA53A952A85112D2
:100DF000021FC004C005C006C007AF59AE58AD57AA
:100E0000AC56120329A804A905AA06AB07D007D03F
:100E100006D005D0041202BC50087BFF7A11798EEF
:100E200080067BFF7A1179927D01E4FF1215E92299
:041657008E5E8F5FB5
:10165B00E4F560F561C3E561955FE560955E500D5E
:0D166B001216D30561E56170EC056080E8A2
:01167800224F
:1016D3007F017E007D587C03ED1D70011CED4C7075
:0A16E300F7EF1F70011EEF4E70EAD2
:0116ED0022DA
:0D000E00EF4E600800EF1F70F71E80F42217
:1013CC00D2AFD2A9D2ABD2B9C2BB758951D2A47853
:1013DC007812054C00000000C203787412054C0012
:1013EC00000000787C12054C00000000787012059B
:1013FC004C00000000788012054C00000000E4F561
:10140C000EF50FF58AF58CF58BF58DC28CC28EF529
:02141C00552257
:101707008F55C28CC28EEF14600B146008240270D0
:0917170007758951227589112220
:10159500C203E4F50EF50FE5551460151460122429
:1015A500027018E4F58AF58CF58BF58DD28CD28E08
:0C15B50022758DFE758B33C28CD28E2205
:03001B0002141EAE
:10141E00C0E0C0F0C083C082C0D075D010E55524A6
:10142E00FE600B14602124037021050F801D758B47
:10143E0033758DFED203050FE50FC39402400C7574
:10144E000F001208EE8004C28CC28ED0D0D082D093
:06145E0083D0F0D0E03263
:03000B0002160FCB
:10160F00C0E0C0D030A409050EE50EB40202800A76
:10161F0020A40D050EE50EB40F06C28EC28CD203A8
:05162F00D0D0D0E03234
:100B6500C203AF0FE4FCFDFEFBFA7901F81204CADB
:100B7500A804A905AA06AB07AF8DEFFEE4FCFD2B83
:100B8500FBEA3EFAED39F9EC38F8AF8BE4FEEB2FD2
:100B9500FFEE3AFEED39FDEC38FC78741205403075
:100BA500A45E7F957EBA7D0A7C00787412053312A7
:100BB50004CA787C120540787412052778701205EE
:100BC500331204CAC004C005C006C00778741205F4
:100BD50033C0007870120527D000C3EF9BFFEE9A53
:100BE500FEED99FDEC98FCD003D002D001D00012A7
:100BF50014A8EC12033A7BCC7A8A79C9784E805CCA
:100C05007F367E6E7D017C0078741205331204CA2E
:100C1500787C120540787412052778801205331206
:100C250004CAC004C005C006C0077874120533C0E5
:100C3500007880120527D000C3EF9BFFEE9AFEEDEA
:100C450099FDEC98FCD003D002D001D0001214A875
:100C5500EC12033A7BA27A51790F78521201167879
:050C6500781205402299
:100F0500596573004E6F004465627567204D6F64C7
:100F150065204F6E005369657665204D6F646520C9
:100F25004F6E00536574205369657665005374618F
:100F3500727420506C6F740052657365742044653B
:100F45007669636500457869740007FF0F05000041
:100F550000FF156108FF0F09000000FF1561000083
:100F65002309FF0F05000000FF15610AFF0F0900A7
:100F75000000FF156100002B00FF0F0C000023008F
:100F8500000001FF0F1A00002B00000003FF0F28CF
:100F9500000000FF070404FF0F32000000FF000AF5
:100FA50005FF0F3D000000FF000906FF0F4A000086
:0E0FB50000FF000806000000FF0F7DFF0FB9CF
:10173800072302000000FF0F4F072B02000000FFE5
:021748000F662A
:10122200900FC0E493FB740193FA740293F9C00324
:10123200C002C001900F63E493FB740193FA74023D
:1012420093F9900001120595900FC0E493FB74018D
:1012520093FA740293F9C003C002C001900F7AE4BA
:1012620093FB740193FA740293F9900001120595AD
:10127200753200753300753400E4F521C204C201F1
:10128200F554F553F552F551F559F558F557F5560C
:0A129200F52A752220F535D202225C
:10152B00900FC0E493FB740193FA7402938B328A8D
:10153B0033F534E4F521C204120FC3800E200415D9
:10154B003000FA7F03121707120C6A7F021217077B
:06155B0012159580E82244
:100FC300120003E5216053AB32AA33A93490000425
:100FD300120565E52175F00AA429F9EA35F0FA90BE
:100FE300FFF7120565E4FD7F011215E9AB32AA3361
:100FF300A934900004120565E52175F00AA429F9C6
:10100300EA35F0FA9000011205657D017F011215A2
:10101300E97B437D01E4FF02177FD291AB32AA3310
:10102300A934900004120565E52175F00AA429F995
:10103300EA35F0FA900001120565E4FD7F0112150F
:10104300E9AB32AA33A934900004120565E5217592
:10105300F00AA429F9EA35F0FA90000B1205657D30
:10106300017F011215E97B007A007943E4FDFF1249
:0310730015E9225A
:100C6A00D291E55A6016146003020D4DAB32AA33D5
:100C7A00A9341203F9FFAE2105218018E55B601E35
:100C8A00146003020D4DAB32AA33A9341203F9FFE3
:100C9A00AE211521EE8FF08485F021020D4AE55C24
:100CAA0024FE6076046003020D4DAB32AA33A934E8
:100CBA00900004120565E52175F00AA4FFAEF0293B
:100CCA00F9EA3EFA900004120565E94A4B6023AB43
:100CDA0032AA33A934900004120565E92FF9EA3ED5
:100CEA00FA9000041205658B328A338934E4F521BF
:100CFA00804E1216B7D204AB32AA33A9349000043C
:100D0A00120565E52175F00AA429F9EA35F0FA9089
:100D1A0000071205651205EE8029AB32AA33A93401
:100D2A00900001120565E94A4B6018AB32AA33A953
:100D3A00349000011205658B328A338934E4F52137
:060D4A00120FC302177531
:0100080022D5
:0100090022D4
:10156100AB32AA33A93490000412056575F00AE57F
:1015710021A4F58285F08312041224F8600D146011
:101581000D14600D2403700BD20222C20222D2017B
:0415910022C201224F
:01000A0022D3
:10070400E4F55D755E01120003E52AFB7A00E4FD61
:10071400FF1210BCAB22E4FD7F0312177F7B5E7DCA
:1007240001AF5D12177F7F02121707121595E55E60
:1007340070030208363000F6E55A70030207F0240D
:10074400FE60510460030207DDE55D14601314606C
:1007540016146026240360030207DDE52A2464805E
:100764000AE52A240A8004E52A2401FFE433FE7CF6
:10077400037DE812043F8D2A805FE52224B36012D2
:1007840024E26009244B705175224B804C75224D34
:1007940080478042E55D14601514602B1460372493
:1007A400037036E52A75F0648485F02A802BE52AE7
:1007B40075F06484E5F075F00A8475F00AA4FFC34B
:1007C400E52A9FF52A8012E52A75F00A84C3E52AF2
:1007D40095F0F52A8003752220E52AFB7A00E4FDD2
:1007E400FF1210BCAB22E4FD7F038033E55B603471
:1007F4007B207D01AF5D12177FE55B24FE600D0455
:100804007017055DE55D5403F55D800DE55DB4038A
:1008140005E4F55D8003755D037B5E7D01AF5D12CC
:10082400177F8008E55C147003E4F55E1217750207
:100834000732E4F55D755E01120003E535FB7A00CD
:10084400E4FDFF1210BC7B25E4FD7F0212177F7BC1
:100854005E7D01AF5D12177F3000FDE55A605824BC
:10086400FE6027047044E55D14601604703CE535B1
:10087400240AFFE433FE7C007D6412043F8D35803E
:10088400290535E53575F064800DE55D14600E04C9
:100894007018E53575F00A8485F035800DE53575F9
:1008A400F00A84C3E53595F0F535E535FB7A00E4C7
:1008B400FDFF1210BC802DE55B60217B207D01AF24
:1008C4005D12177FE55B147008055DE55D5401F565
:1008D4005D7B5E7D01AF5D12177F8008E55C14705F
:0A08E40003E4F55E12177502085CCC
:10001E000203E4E86480F8E933E83360110460F029
:10002E00ED33EC337009E8FCE9FDEAFEEBFF220448
:10003E0060DED3EB9FEA9EE99DE8C2E78CF0C2F743
:10004E0095F0400CE8CCF8E9CDF9EACEFAEBCFFB0F
:10005E001203AF85D0F05804700320D5B3E80470B6
:10006E00075002B2D50203EE92D5EC0460F7E4CC51
:10007E00C0E0C398F8603B94186008400DD0E0FBD8
:10008E000203C6E4FBFAC9FC8028E830E406E4C9A2
:10009E00FBE4CAFCE830E305E4C9CACBFCE854072C
:1000AE006010F8C3E913F9EA13FAEB13FBEC13FC37
:1000BE00D8F130F52FC3E49CFCEF9BFFEE9AFEEDDA
:1000CE0099FDD0E0FBEF4E4D4C701222DB03020384
:1000DE00EBEC2CFCEF33FFEE33FEED33FDED30E7B2
:1000EE00EB0203C6EF2BFFEE3AFEED39FDD0E0FB3F
:1000FE0050130BBB00030203EEED13FDEE13FEEFE8
:08010E0013FFEC13FC0203C611
:10011600EC4D6011E8497017ED33EC3304600DE4E3
:10012600FCFFFEFD22E933E8330470F80203E41213
:1001360003AF58046009E4CC248150062850090214
:1001460003EE2840030203EBC0E0EB4A7044B9809B
:1001560006D0E0FB0203DAEF4E701CBD8008EBFF11
:10016600EAFEE9FD80EBE98DF0A4FEE5F00201FF71
:10017600E9CDF9EAFEEBFFEF89F0A4FCE5F0CE89C4
:10018600F0A42EFFE435F0CD89F0A42DFEE435F081
:100196008067EF4E7005BD80D780C3EF8BF0A4ACAF
:1001A600F0EE8BF0A42CFCE435F0F8EF8AF0A42CEA
:1001B600E5F038FCE433CB8DF0A42CFCE5F03BF8FD
:1001C600EE8AF0A42CFCE5F038F8E433CF89F0A4ED
:1001D6002CFCE5F038CF3400CE89F0A42FFFE5F0F3
:1001E6003EFEE433C98DF0A42EFEE5F039CD8AF04B
:1001F600A42FFFE5F03EFEE43DFD33D0E0FB5007C3
:100206000BBB000F0203EEEC2CFCEF33FFEE33FECC
:06021600ED33FD0203C6FA
:10021C000203EEEC5D046005E8590470030203E48C
:10022C001203AF580460F6EC4860F2EC7004FDFE6B
:10023C00FF22C860DB2481C85009C39860025006B5
:10024C000203EB9850CAF582E9294B4A7005AB8240
:10025C000203DA75F0007C1A7880C3EF9BEE9AEDFE
:10026C0099400DC3EF9BFFEE9AFEED99FDE842F02D
:10027C00DC23ACF0D0E0FFD0E0FED0E0FDAB822080
:10028C00E7101BEB60BAEC2CFCEF33FFEE33FEED0A
:10029C0033FD0203C6E803F830E705C0F075F00043
:1002AC00EF2FFFEE33FEED33FD40B830E7C280AAEE
:1002BC0074F8CC6480CCC86480C8F582046043C3F5
:1002CC00EB9FF5F0EA9E42F0E99D42F0E89C45F088
:1002DC0060305018E5825FFFE582F42B5582FB50AD
:1002EC00210ABA001D09B90019088016E5825BFBCA
:1002FC00E582F42F5582FF50090EBE00050DBD009E
:10030C00010CC3EB9FF5F0EA9E42F0E99D42F0E848
:0D031C009C45F06007CC4820E701B3EC22BF
:10032900ED33EC33600A047003BD8004ECB2E7FCE2
:0103390022A1
:10033A0075F020800E75F010800575F0087D007E3E
:10034A00007F003392D530D503120519EC334010E3
:10035A00EF33FFEE33FEED33FDEC33FCD5F0ED2247
:0E036A00E5F0247EA2D513CC92E7CDCEFF2283
:10037800EDD2E7CD33EC3392D524814006E4FFFE7D
:10038800FDFC22FCE4CFCECDCC24E0501174FF80DC
:10039800EDC3CC13CCCD13CDCE13CECF13CF047079
:0703A800F030D5DE0205195B
:1003AF00E9D2E7C933E833F892D5EDD2E7CD33EC94
:0703BF0033FC5002B2D5220D
:1003C600EC30E7100FBF000C0EBE00080DBD000498
:1003D6000BEB6014A2D5EB13FCED92E7FD2274FF44
:1003E600FCFDFEFF22E480F8A2D574FF13FC7D809D
:0303F600E480EFB1
:1011A200021679E493A3F8E493A34003F68001F2D4
:1011B20008DFF48029E493A3F85407240CC8C3334E
:1011C200C4540F4420C8834004F456800146F6DF1D
:1011D200E4800B0102040810204080901736E47E60
:1011E200019360BCA3FF543F30E509541FFEE49312
:1011F200A360010ECF54C025E060A840B8E493A3D9
:10120200FAE493A3F8E493A3C8C582C8CAC583CA03
:10121200F0A3C8C582C8CAC583CADFE9DEE780BEBB
:01174A00009E
:1003F900BB010689828A83E0225002E722BBFE0202
:09040900E32289828A83E4932234
:10041200BB010CE58229F582E5833AF583E022509F
:1004220006E92582F8E622BBFE06E92582F8E222E9
:0D043200E58229F582E5833AF583E4932203
:10043F00BC000BBE0029EF8DF084FFADF022E4CCA1
:10044F00F875F008EF2FFFEE33FEEC33FCEE9DEC6A
:10045F00984005FCEE9DFE0FD5F0E9E4CEFD22EDB0
:10046F00F8F5F0EE8420D21CFEADF075F008EF2FFA
:10047F00FFED33FD4007985006D5F0F222C398FDEB
:05048F000FD5F0EA2288
:10049400C2D5EC30E709B2D5E4C39DFDE49CFCEE83
:1004A40030E715B2D5E4C39FFFE49EFE12043FC3B8
:1004B400E49DFDE49CFC800312043F30D507C3E4B3
:0604C4009FFFE49EFE22F2
:1004CA00E88FF0A4CC8BF0A42CFCE98EF0A42CFCD1
:1004DA008AF0EDA42CFCEA8EF0A4CDA8F08BF0A44F
:1004EA002DCC3825F0FDE98FF0A42CCD35F0FCEBAE
:1004FA008EF0A4FEA9F0EB8FF0A4CFC5F02ECD3973
:0F050A00FEE43CFCEAA42DCE35F0FDE43CFC22DF
:1014A800C2D5E830E70FB2D5E4C39BFBE49AFAE46F
:1014B80099F9E498F8EC30E717B2D51214DE120661
:1014C80030E4C39BFBE49AFAE499F9E498F88003C2
:1014D80012063030D50DE4C39FFFE49EFEE49DFD67
:0414E800E49CFC2262
:0E051900C3E49FFFE49EFEE49DFDE49CFC22F3
:0C052700E6FC08E6FD08E6FE08E6FF2200
:0D053300E6FB08E6F908E6FA08E6CBF82238
:0C054000ECF608EDF608EEF608EFF622E7
:10054C00D083D082E493F608740193F60874029376
:09055C00F608740393F6740473AD
:10056500BB010DE58229F582E5833AF5830206D4C0
:100575005007E92582F80206C2BBFE07E92582F885
:100585000206E6E58229F582E5833AF5830206F857
:10059500BB0120E58229F582E5833AF583D0F0D0C9
:1005A500E0F8D0E0F9D0E0FAD0E0FBE8C0E0C0F038
:1005B5000206DD5018E92582F8D083D082D0E0F913
:1005C500D0E0FAD0E0FBC082C0830206CBBBFE18A8
:1005D500E92582F8D083D082D0E0F9D0E0FAD0E0E6
:0905E500FBC082C0830206EF2274
:0605EE008A838982E47398
:1005F40075F008758200EF2FFFEE33FECD33CDCCBE
:1006040033CCC58233C5829BED9AEC99E582984040
:100614000CF582EE9BFEED9AFDEC99FC0FD5F0D61D
:10062400E4CEFBE4CDFAE4CCF9A88222B800C1B947
:100634000059BA002DEC8BF084CFCECDFCE5F0CB85
:10064400F97818EF2FFFEE33FEED33FDEC33FCEBBE
:1006540033FB10D703994004EB99FB0FD8E5E4F979
:10066400FA227818EF2FFFEE33FEED33FDEC33FC66
:10067400C933C910D7059BE99A4007EC9BFCE99A5A
:10068400F90FD8E0E4C9FAE4CCFB2275F010EF2F9F
:10069400FFEE33FEED33FDCC33CCC833C810D7079F
:1006A4009BEC9AE899400AED9BFDEC9AFCE899F8DA
:0E06B4000FD5F0DAE4CDFBE4CCFAE4C8F9226D
:0906C200E6FB08E6FA08E6F9225D
:0906CB00EBF608EAF608E9F62254
:0906D400E0FBA3E0FAA3E0F92227
:0906DD00EBF0A3EAF0A3E9F0221E
:0906E600E2FB08E2FA08E2F92245
:0906EF00EBF208EAF208E9F2223C
:0C06F800E493FB740193FA740293F9225E
:00000001FF
