:0300000002126B7E
:0C126B00787FE4F6D8FD75818A0212B28B
:1009FB00E55AB4020E7554007555017552077553BF
:100A0B00D0800C7554007555327552EA755360E5FC
:100A1B004B14601214602F146054240370562095ED
:100A2B0053754B0180193095028046054AE54A7093
:100A3B00020549D39555E54995544038754B02E469
:100A4B00F549F54A802E30950AE4F54B755F01D2D6
:100A5B00008021054AE54A70020549D39553E549C3
:100A6B0095524010755F02D200754B03800630958E
:100A7B0003E4F54BE54E14601214602F14605424FC
:100A8B00037056209453754E0180193094028046A2
:100A9B00054DE54D7002054CD39555E54C955440ED
:100AAB0038754E02E4F54CF54D802E30940AE4F582
:100ABB004E756001D2008021054DE54D7002054C4D
:100ACB00D39553E54C95524010756002D200754E8C
:100ADB00038006309403E4F54EE551146012146064
:100AEB002E146051240370532093507551018019BB
:100AFB0030930280430550E5507002054FD3955556
:100B0B00E54F95544035755102E4F54FF5502230C1
:100B1B009309E4F551756101D200220550E550703F
:100B2B0002054FD39553E54F9552400F756102D295
:0C0B3B000075510322309303E4F55122B1
:0A19AE00E4F55FF560F561C2002268
:1018F000E4F55FF560F561C200F54BF54EF551F585
:0C19000049F54AF54CF54DF54FF5502225
:1017FA002000051209FB80F8E55F60031206DFE5A9
:10180A00606007AA72A9731206DFE5616007AA750C
:08181A00A9761206DF0219AEE7
:0B19A3002000051209FB80F80218F07C
:10198400496E66696E697465001F111B0A0A0A04B0
:01199400044E
:10195900C2B2D2B3D2B47F067E0012000EA2A79201
:0519690005C2B4A20557
:01196E002256
:10186D008F6D12195940FBC2B2C2B3C2B4856DA0BF
:10187D007F067E0012000ED2B47F067E0012000E8F
:03188D00C2B422C0
:0E199500ED60054307C0800343078002186D14
:10172100AE37AF387C007D641204A67F0A7E00CFFD
:0C173100CDCFCECCCE1204A6EF2430FFAA
:10173D008F6D12195940FBD2B2C2B3C2B4856DA0E0
:10174D007F067E0012000ED2B47F067E0012000EC0
:03175D00C2B422F1
:101482007F0F7E001218907F3812186D7F057E0044
:101492001218907F3812186D7F057E001218907F07
:1014A2003812186D7F057E001218907F0C12186D8D
:1014B2007F057E001218907F0612186D7F057E0050
:1014C2001218907F4012186DE4F562E56290198D52
:1014D20093FF12173D0562E562C3940840ED7F0158
:1014E20012186D7F057E00121890E4FDFF02199517
:050003007F0102186DF1
:0A19B8008B64121995AF6402173D0D
:1011DA0012021F8F698E688D678C661203788E479C
:1011EA008F48AC47AD48EC12033FA804A905AA06EC
:1011FA00AB07AF69AE68AD67AC66120021E4FBFAD3
:10120A00797A78441201161203788E378F38AB48F0
:06121A00AA47AD65AF64B8
:041220008A6A8B6BE0
:10122400E4F56C121995AE6AAF6B7C007D0A12046A
:1012340051AF05AE6C056C74392EF8A607AE6AAFD3
:101244006B7C007D0A1204518E6A8F6BE56B456AD4
:1012540070D4E56C6010156C7439256CF8E6243094
:06126400FF12173D80ECB3
:01126A002261
:0812F7008F648D658A668B6728
:1012FF00E4754601F545F544F543756901E569C3A4
:10130F009568501DAF46AE45AD44AC43E47B0AFA39
:10131F00F9F81204DC8F468E458D448C43056980A5
:10132F00DCAD65AF64121995AF681568EF603FAE1D
:10133F0066AF67E4FCFDAB46AA45A944A843120576
:10134F0067121739AE66AF67AC45AD461204518CC4
:10135F00668D67AF46AE45AD44AC43E47B0AFAF900
:0E136F00F81205678F468E458D448C4380BA78
:01137D00224D
:100B47008F648D657F287E6B7D6E7C4EAB69AA684E
:100B5700A967A8661202BC400D7BFF7A197984AD9C
:100B670065AF640218227F007E247D747C49AB69DF
:100B7700AA68A967A8661202BC403DAF69AE68AD16
:100B870067AC667B007A24797478491211DA7F2E74
:100B970012173DAE37AF387C007D64121736121737
:100BA70021AE37AF387C007D0A1204A6ED2430FF52
:100BB70012173D7F4D020C70E4FFFE7D7A7C44AB3B
:100BC70069AA68A967A8661202BCAF69AE68AD6773
:100BD700AC6660364034E4FBFA797A78441211DA6D
:100BE7007F2E12173DAE37AF387C007D6412173663
:100BF700121721AE37AF387C007D0A1204A6ED2408
:100C070030FF12173D7F4B020C701203788E478F0F
:100C170048AC47AD48EC12033FA804A905AA06ABA8
:100C270007AF69AE68AD67AC661200217B007A40FA
:100C3700791C784612120E7F2E12173DAE37AF3849
:100C47007C037DE8121736AE37AF387C037DE81298
:100C570004A67F6412172E121721AE37AF387C0017
:0D0C67007D0A1204A6ED2430FF12173D2275
:101822008B6A8A6B896C121995AB6AAA6BA96C12C6
:1018320003F9FF601012173D7401256CF56CE43555
:061842006BF56B80E4224F
:0A1699008F088D098B0A8A0B890C5B
:1016A300E4FF121995E4F50D7F2012173D050DE5B2
:1016B3000DC3941040F2AD09AF08121995AB0AAAF5
:1016C3000BA90C1203F9FF601012173D7401250CCE
:0916D300F50CE4350BF50B80E485
:0116DC0022EB
:1015AC008B628A6389647F0112186DE4FDFF121946
:1015BC0095AB62AA63A9641203F960130564E56430
:1015CC007002056314F91203F9FF12173D80E27DD6
:1015DC0001E4FF121995AB65AA66A9671203F960BD
:1015EC00130567E5677002056614F91203F9FF121B
:0515FC00173D80E22212
:021927008B62D1
:10192900121995E4F563E563C3956250097F2012A6
:06193900173D056380F07C
:01193F002285
:0519C2007F0F02186D0B
:0519C7007F0C02186D09
:1014040043726F73732050726F62657320416E6410
:1014140000507265737320416E7920427574746F45
:101424006E004D656172737572696E672E2E2E00A3
:10143400506C65617365205761697400546F205363
:1014440077697463682043617000536574205A653A
:10145400726F0046696E6973686564004C4F57008B
:10146400484947480050726F63657373696E672E0D
:0E1474002E2E00523D00496E20004F75740070
:02196F00C18233
:1018B2001218D2121047C292C291C2901217CE12BF
:1018C20009FB3000031214F23003F4120E8E80EF83
:1018D2007592477591B8E4F5B275B120C292C29182
:0E18E200C2901214821216011218F002137E28
:101047007565FF7566147567157BFF7A1479041249
:1010570015AC1219A37565FF7566147567347BFFA8
:101067007A1479261215ACD2B77FB87E0B12189076
:101077001217CE3003FD120D89787B120607787799
:101087001206201200037565FF7566147567407BAD
:10109700FF7A1479151215AC1219A3C2B77FE87E2F
:1010A700031218901217CE3003FD120D89787B12A8
:1010B700060778871206207565FF756614756757EA
:1010C7007BFF7A14794E1215ACD2B77FD07E071208
:1010D700189030023F1200037BFF7A147960E4FD19
:1010E700FF1218227877120607AB07AA06E4FD7FDE
:1010F700061212207BFF7A1479647D01E4FF12182F
:10110700227887120607AB07AA067D017F0612120F
:05111700201219A322C3
:1014F200E55F24FE6007047006B2028002B201E5D5
:101502006024FE602A04702D1218F07F0312194025
:10151200121798E4FF1219401217CE1218F0120097
:10152200037BFF7A147969E4FDFF1218228006C258
:1015320090C291C292E56124FE60100470131218E9
:10154200F07F031219401215568006D290D291D222
:04155200920219AE3A
:100E8E00120D891217CE1200037BFF7A147977E4C4
:100E9E00FDFF121822787F1206078F698E688D6704
:100EAE008C66E4FD7F02120B47300212787B12062D
:100EBE0007AB07AA067D017F0812122080097B0866
:100ECE007D017F08121927200103020F6DE4FBFD3F
:100EDE007F0F1219B8AB59AA58A957A856C0007857
:100EEE007F120607D000120021AB59AA58A957A8A5
:100EFE005612021FAB5EAA5DA95CA85B1202BC6013
:100F0E0051404FAB59AA58A957A856C000787F1226
:100F1E000607D000120021AB59AA58A957A856129D
:100F2E00021FC004C005C006C007AF5EAE5DAD5C5B
:100F3E00AC5B120329A804A905AA06AB07D007D0FB
:100F4E0006D005D0041202BC50087BFF7A14797AC1
:100F5E0080067BFF7A14797E7D01E4FF121822222F
:041890008E648F656E
:10189400E4F566F567C3E5679565E5669564500DFF
:0D18A40012190C0567E56770EC056680E819
:0118B1002214
:10190C007F017E007D587C03ED1D70011CED4C7039
:0A191C00F7EF1F70011EEF4E70EA96
:01192600229E
:0D000E00EF4E600800EF1F70F71E80F42217
:10160100D2AFD2A9D2ABD2B9C2BB758951D2A4781B
:101611007F12062C00000000C203787B12062C000A
:10162100000000788312062C000000007877120673
:101631002C00000000788712062C00000000E4F561
:101641000EF50FF58AF58CF58BF58DC28CC28EF5F2
:021651005A221B
:101940008F5AC28CC28EEF14600B14600824027090
:09195000077589512275891122E5
:1017CE00C203E4F50EF50FE55A14601514601224E9
:1017DE00027018E4F58AF58CF58BF58DD28CD28ECD
:0C17EE0022758DFE758B33C28CD28E22CA
:03001B0002165377
:10165300C0E0C0F0C083C082C0D075D010E55A246A
:10166300FE600B14602124037021050F801D758B10
:1016730033758DFED203050FE50FC39402400C753D
:101683000F001209FB8004C28CC28ED0D0D082D04E
:0616930083D0F0D0E0322C
:03000B0002184890
:10184800C0E0C0D030A409050EE50EB40202800A3B
:1018580020A40D050EE50EB40F06C28EC28CD2036D
:05186800D0D0D0E032F9
:100D8900C203AF0FE4FCFDFEFBFA7901F81204DCA3
:100D9900A804A905AA06AB07AF8DEFFEE4FCFD2B5D
:100DA900FBEA3EFAED39F9EC38F8AF8BE4FEEB2FAC
:100DB900FFEE3AFEED39FDEC38FC787B1206203067
:100DC900A45E7F957EBA7D0A7C00787B1206131299
:100DD90004DC7883120620787B12060778771206DE
:100DE900131204DCC004C005C006C007787B1206D4
:100DF90013C0007877120607D000C3EF9BFFEE9A65
:100E0900FEED99FDEC98FCD003D002D001D0001280
:100E190016DDEC12033A7BCC7A8A79C9784E805C6C
:100E29007F367E6E7D017C00787B1206131204DC0E
:100E39007883120620787B12060778871206131228
:100E490004DCC004C005C006C007787B120613C0C5
:100E5900007887120607D000C3EF9BFFEE9AFEEDDC
:100E690099FDEC98FCD003D002D001D0001216DD18
:100E7900EC12033A7BA27A51790F78521201167853
:050E89007F120620228B
:10111C00596573004E6F004465627567204D6F64AE
:10112C0065204F6E005369657665204D6F646520B0
:10113C004F6E005365742053696576650053746176
:10114C00727420506C6F7400526573657420446522
:10115C007669636500457869740007FF111C00000F
:10116C0000FF176008FF1120000000FF176000004F
:10117C002309FF111C000000FF17600AFF1120005B
:10118C000000FF176000002C00FF1123000023005B
:10119C00000001FF113100002C00000003FF113F83
:1011AC00000000FF072704FF1149000000FF0009A1
:1011BC0005FF1154000000FF155606FF11610000D9
:0E11CC0000FF000806000000FF1194FF11D084
:10197100072302000000FF1166072C02000000FF90
:02198100117DD6
:10137E009011D7E493FB740193FA740293F9C003AE
:10138E00C002C00190117AE493FB740193FA7402C7
:10139E0093F99000011206869011D7E493FB740125
:1013AE0093FA740293F9C003C002C001901191E444
:1013BE0093FB740193FA740293F99000011206865E
:1013CE009011D7E493FB740193FA7402938B338AD2
:1013DE0034F535E4F521C204C201F559F558F55737
:1013EE00F556F55EF55DF55CF55BF52AF52B752288
:0613FE0020F536D20222A8
:101798009011D7E493FB740193FA7402938B338A04
:1017A80034F535E4F521C204120F6E800E200415BD
:1017B8003000FA7F03121940120C747F021219408C
:0617C8001217CE80E8229A
:100F6E00120003E5216068E4FD7F01121995AB3391
:100F7E00AA34A935900004120656AF21EF3395E03E
:100F8E00FE7C007D0A12043FE92FF9EA3EFA90FF3B
:100F9E00F7120656E4FD7F01121822AB33AA34A9CC
:100FAE0035900004120656AF21EF3395E0FE7C001B
:100FBE007D0A12043FE92FF9EA3EFA90000112066B
:100FCE00567D017F011218227B3E7D01E48065E48F
:100FDE00FD7F01121995AB33AA34A9359000041286
:100FEE000656AF21EF3395E0FE7C007D0A12043FDA
:100FFE00E92FF9EA3EFA900001120656E4FD7F0150
:10100E00121822AB33AA34A935900004120656AF3B
:10101E0021EF3395E0FE7C007D0A12043FE92FF9A3
:10102E00EA3EFA90000B1206567D017F011218223D
:09103E007B3EE4FDFF1219B8220B
:100C7400E55F603024FE601D046003020D86AB3323
:100C8400AA34A9351203F9FF0521E5218FF08485E3
:100C9400F021020D83AB33AA34A9351203F914F5FC
:100CA40021020D83E560603024FE602604600302A7
:100CB4000D861521C3E52164809480500EAB33AAC0
:100CC40034A9351203F92521FF8002AF218F2102B7
:100CD4000D83E4F521020D83E56124FE607B04604D
:100CE40003020D86AB33AA34A935900004120656CC
:100CF400AF21EF3395E0FE7C007D0A12043FE92F1B
:100D0400F9EA3EFA900004120656E94A4B6023AB16
:100D140033AA34A935900004120656E92FF9EA3EA5
:100D2400FA9000041206568B338A348935E4F5218F
:100D3400804D1218F0D204AB33AA34A935900004C4
:100D4400120656E52175F00AA429F9E43AFA90004E
:100D5400071206561206DF8029AB33AA34A9359050
:100D64000001120656E94A4B6018AB33AA34A93580
:100D74009000011206568B338A348935E4F521122A
:050D84000F6E0219AE24
:0100080022D5
:1015560075620B7563B8C290C291C2927F0212196E
:10156600401217CEE5634562602F300324C203E5BF
:1015760063156370021562E563B4D009E562B407CA
:1015860004D292800CE563B4E807E562B40302D2A4
:10159600913000D0C291C29222D2907FF47E011285
:0515A600189075E760DC
:0115AB00221D
:10176000AB33AA34A935900004120656AF21EF33EB
:1017700095E08F82F583740A12064512041224F84C
:10178000600D14600D14600D2403700BD20222C290
:081790000222D20122C2012253
:0100090022D4
:10072700E4F562F563120003756803AB2BAA2AE4AC
:10073700FDFF1212F7AB22E4FD7F031219B87B5EAF
:100747007D01AF621219B87F021219401217CEE568
:1007570063600302087A3000F6E55F70030208342D
:1007670024FE604D04600302081FE5621460131441
:1007770060161460222403600302081FE52B24641B
:10078700800AE52B240A8004E52B2401FFE4352A9F
:10079700FE7C037DE88031E52224B5600D24FE60F0
:1007A7000E242D707375224B806E75224D806980E3
:1007B70064E56214601B1460441460592403705884
:1007C700AE2AAF2B7C007D641204518C2A8D2B80BE
:1007D70047AE2AAF2B7C007D641204517E007F0A4E
:1007E700CFCDCFCECCCE1204517C007D0A12043F70
:1007F700C3E52B9FF52BE52A9EF52A801BAE2AAF72
:100807002B7C007D0A120451C3E52B9DF52BE52AAD
:100817009CF52A8003752220756803AB2BAA2AE46E
:10082700FDFF1212F7AB22E4FD7F038033E5606022
:10083700347B207D01AF621219B8E56024FE600D9C
:100847000470170562E5625403F562800DE562B432
:100857000305E4F56280037562037B5E7D01AF6289
:100867001219B88008E5611470037563011219AE97
:10087700020756E4F562F563120003E536FB7A00DA
:10088700756802E4FDFF1212F77B25E4FD7F021273
:1008970019B87B5E7D01AF621219B8E56360030288
:1008A70009473000F6E55F605B24FE60270470446B
:1008B700E56214601604703CE536240AFFE433FE53
:1008C7007C007D641204518D3680290536E5367526
:1008D700F064800DE56214600E047018E53675F05B
:1008E7000A8485F036800DE53675F00A84C3E5364F
:1008F70095F0F536E536FB7A00756802E4FDFF12E0
:1009070012F78036E560602A7B207D01AF621219FD
:10091700B8E56024FE600D04700D0562E5625401C0
:10092700F5628003E4F5627B5E7D01AF621219B860
:100937008008E5611470037563011219AE0208A2FD
:10094700E52224B5601224FE6022242D7039AC2ADA
:10095700AD2BE412033F8027AC2AAD2BE412033FF3
:10096700E4FBFA797A78441201168013AC2AAD2B8E
:10097700E412033F7B007A24797478491201168FB9
:10098700598E588D578C56AC36E4120344E4FBFA63
:1009970079C8784212021F8F5E8E5D8D5C8C5B1268
:1009A7000003756803AB2BAA2AE4FDFF1212F7AB0D
:1009B70022E4FD7F031219B8E536FB7A0075680259
:1009C7007D01E4FF1212F7855969855868855767D5
:1009D700855666E4FD7F08120B47855E69855D686D
:1009E700855C67855B667D017F08120B477FB87E54
:0409F7000B02189047
:10001E000203E4E86480F8E933E83360110460F029
:10002E00ED33EC337009E8FCE9FDEAFEEBFF220448
:10003E0060DED3EB9FEA9EE99DE8C2E78CF0C2F743
:10004E0095F0400CE8CCF8E9CDF9EACEFAEBCFFB0F
:10005E001203AF85D0F05804700320D5B3E80470B6
:10006E00075002B2D50203EE92D5EC0460F7E4CC51
:10007E00C0E0C398F8603B94186008400DD0E0FBD8
:10008E000203C6E4FBFAC9FC8028E830E406E4C9A2
:10009E00FBE4CAFCE830E305E4C9CACBFCE854072C
:1000AE006010F8C3E913F9EA13FAEB13FBEC13FC37
:1000BE00D8F130F52FC3E49CFCEF9BFFEE9AFEEDDA
:1000CE0099FDD0E0FBEF4E4D4C701222DB03020384
:1000DE00EBEC2CFCEF33FFEE33FEED33FDED30E7B2
:1000EE00EB0203C6EF2BFFEE3AFEED39FDD0E0FB3F
:1000FE0050130BBB00030203EEED13FDEE13FEEFE8
:08010E0013FFEC13FC0203C611
:10011600EC4D6011E8497017ED33EC3304600DE4E3
:10012600FCFFFEFD22E933E8330470F80203E41213
:1001360003AF58046009E4CC248150062850090214
:1001460003EE2840030203EBC0E0EB4A7044B9809B
:1001560006D0E0FB0203DAEF4E701CBD8008EBFF11
:10016600EAFEE9FD80EBE98DF0A4FEE5F00201FF71
:10017600E9CDF9EAFEEBFFEF89F0A4FCE5F0CE89C4
:10018600F0A42EFFE435F0CD89F0A42DFEE435F081
:100196008067EF4E7005BD80D780C3EF8BF0A4ACAF
:1001A600F0EE8BF0A42CFCE435F0F8EF8AF0A42CEA
:1001B600E5F038FCE433CB8DF0A42CFCE5F03BF8FD
:1001C600EE8AF0A42CFCE5F038F8E433CF89F0A4ED
:1001D6002CFCE5F038CF3400CE89F0A42FFFE5F0F3
:1001E6003EFEE433C98DF0A42EFEE5F039CD8AF04B
:1001F600A42FFFE5F03EFEE43DFD33D0E0FB5007C3
:100206000BBB000F0203EEEC2CFCEF33FFEE33FECC
:06021600ED33FD0203C6FA
:10021C000203EEEC5D046005E8590470030203E48C
:10022C001203AF580460F6EC4860F2EC7004FDFE6B
:10023C00FF22C860DB2481C85009C39860025006B5
:10024C000203EB9850CAF582E9294B4A7005AB8240
:10025C000203DA75F0007C1A7880C3EF9BEE9AEDFE
:10026C0099400DC3EF9BFFEE9AFEED99FDE842F02D
:10027C00DC23ACF0D0E0FFD0E0FED0E0FDAB822080
:10028C00E7101BEB60BAEC2CFCEF33FFEE33FEED0A
:10029C0033FD0203C6E803F830E705C0F075F00043
:1002AC00EF2FFFEE33FEED33FD40B830E7C280AAEE
:1002BC0074F8CC6480CCC86480C8F582046043C3F5
:1002CC00EB9FF5F0EA9E42F0E99D42F0E89C45F088
:1002DC0060305018E5825FFFE582F42B5582FB50AD
:1002EC00210ABA001D09B90019088016E5825BFBCA
:1002FC00E582F42F5582FF50090EBE00050DBD009E
:10030C00010CC3EB9FF5F0EA9E42F0E99D42F0E848
:0D031C009C45F06007CC4820E701B3EC22BF
:10032900ED33EC33600A047003BD8004ECB2E7FCE2
:0103390022A1
:10033A0075F020800E75F010800575F0087D007E3E
:10034A00007F003392D530D5031205F9EC33401003
:10035A00EF33FFEE33FEED33FDEC33FCD5F0ED2247
:0E036A00E5F0247EA2D513CC92E7CDCEFF2283
:10037800EDD2E7CD33EC3392D524814006E4FFFE7D
:10038800FDFC22FCE4CFCECDCC24E0501174FF80DC
:10039800EDC3CC13CCCD13CDCE13CECF13CF047079
:0703A800F030D5DE0205F97B
:1003AF00E9D2E7C933E833F892D5EDD2E7CD33EC94
:0703BF0033FC5002B2D5220D
:1003C600EC30E7100FBF000C0EBE00080DBD000498
:1003D6000BEB6014A2D5EB13FCED92E7FD2274FF44
:1003E600FCFDFEFF22E480F8A2D574FF13FC7D809D
:0303F600E480EFB1
:101277000218B2E493A3F8E493A34003F68001F2C3
:1012870008DFF48029E493A3F85407240CC8C33378
:10129700C4540F4420C8834004F456800146F6DF47
:1012A700E4800B010204081020408090196FE47E4F
:1012B700019360BCA3FF543F30E509541FFEE4933C
:1012C700A360010ECF54C025E060A840B8E493A303
:1012D700FAE493A3F8E493A3C8C582C8CAC583CA2E
:1012E700F0A3C8C582C8CAC583CADFE9DEE780BEE6
:011983000063
:1003F900BB010689828A83E0225002E722BBFE0202
:09040900E32289828A83E4932234
:10041200BB010CE58229F582E5833AF583E022509F
:1004220006E92582F8E622BBFE06E92582F8E222E9
:0D043200E58229F582E5833AF583E4932203
:10043F00EF8DF0A4A8F0CF8CF0A428CE8DF0A42ED1
:02044F00FE228B
:10045100BC000BBE0029EF8DF084FFADF022E4CC8F
:10046100F875F008EF2FFFEE33FEEC33FCEE9DEC58
:10047100984005FCEE9DFE0FD5F0E9E4CEFD22ED9E
:10048100F8F5F0EE8420D21CFEADF075F008EF2FE8
:10049100FFED33FD4007985006D5F0F222C398FDD9
:0504A1000FD5F0EA2276
:1004A600C2D5EC30E709B2D5E4C39DFDE49CFCEE71
:1004B60030E715B2D5E4C39FFFE49EFE120451C394
:1004C600E49DFDE49CFC800312045130D507C3E48F
:0604D6009FFFE49EFE22E0
:1004DC00E88FF0A4CC8BF0A42CFCE98EF0A42CFCBF
:1004EC008AF0EDA42CFCEA8EF0A4CDA8F08BF0A43D
:1004FC002DCC3825F0FDE98FF0A42CCD35F0FCEB9C
:10050C008EF0A4FEA9F0EB8FF0A4CFC5F02ECD3960
:0F051C00FEE43CFCEAA42DCE35F0FDE43CFC22CD
:10052B0075F008758200EF2FFFEE33FECD33CDCC87
:10053B0033CCC58233C5829BED9AEC99E58298400A
:10054B000CF582EE9BFEED9AFDEC99FC0FD5F0D6E7
:10055B00E4CEFBE4CDFAE4CCF9A88222B800C1B911
:10056B000059BA002DEC8BF084CFCECDFCE5F0CB4F
:10057B00F97818EF2FFFEE33FEED33FDEC33FCEB88
:10058B0033FB10D703994004EB99FB0FD8E5E4F943
:10059B00FA227818EF2FFFEE33FEED33FDEC33FC30
:1005AB00C933C910D7059BE99A4007EC9BFCE99A24
:1005BB00F90FD8E0E4C9FAE4CCFB2275F010EF2F69
:1005CB00FFEE33FEED33FDCC33CCC833C810D70769
:1005DB009BEC9AE899400AED9BFDEC9AFCE899F8A4
:0E05EB000FD5F0DAE4CDFBE4CCFAE4C8F92237
:1016DD00C2D5E830E70FB2D5E4C39BFBE49AFAE438
:1016ED0099F9E498F8EC30E717B2D51217131205F3
:1016FD0067E4C39BFBE49AFAE499F9E498F8800354
:10170D0012056730D50DE4C39FFFE49EFEE49DFDF9
:04171D00E49CFC222A
:0E05F900C3E49FFFE49EFEE49DFDE49CFC2213
:0C060700E6FC08E6FD08E6FE08E6FF221F
:0D061300E6FB08E6F908E6FA08E6CBF82257
:0C062000ECF608EDF608EEF608EFF62206
:10062C00D083D082E493F608740193F60874029395
:09063C00F608740393F6740473CC
:10064500F5F0C582A4C582C5F0C583A42583F583CD
:010655002282
:10065600BB010DE58229F582E5833AF5830206F7AB
:100666005007E92582F80206E5BBFE07E92582F870
:10067600020709E58229F582E5833AF58302071B1D
:10068600BB0120E58229F582E5833AF583D0F0D0D7
:10069600E0F8D0E0F9D0E0FAD0E0FBE8C0E0C0F046
:1006A6000207005018E92582F8D083D082D0E0F9FD
:1006B600D0E0FAD0E0FBC082C0830206EEBBFE1893
:1006C600E92582F8D083D082D0E0F9D0E0FAD0E0F4
:0906D600FBC082C083020712225E
:0606DF008A838982E473A6
:0906E500E6FB08E6FA08E6F9223A
:0906EE00EBF608EAF608E9F62231
:0906F700E0FBA3E0FAA3E0F92204
:09070000EBF0A3EAF0A3E9F022FA
:09070900E2FB08E2FA08E2F92221
:09071200EBF208EAF208E9F22218
:0C071B00E493FB740193FA740293F9223A
:00000001FF
