:030000000213598F
:0C135900787FE4F6D8FD75818D0213A0AA
:100A0C00E561B4020E755B00755C01755907755A8A
:100A1C00D0800C755B00755C327559EA755A60E5CF
:100A2C005214601214602F146054240370562095D5
:100A3C0053755201801930950280460551E551706D
:100A4C00020550D3955CE550955B4038755202E435
:100A5C00F550F551802E30950AE4F552756601D2A9
:100A6C000080210551E55170020550D3955AE5508F
:100A7C0095594010756602D2007552038006309568
:100A8C0003E4F552E55514601214602F14605424DD
:100A9C00037056209453755501801930940280468A
:100AAC000554E55470020553D3955CE553955B40B2
:100ABC0038755502E4F553F554802E30940AE4F55C
:100ACC0055756701D20080210554E5547002055319
:100ADC00D3955AE55395594010756702D200755558
:100AEC00038006309403E4F555E558146012146045
:100AFC002E146051240370532093507558018019A3
:100B0C0030930280430557E55770020556D3955C28
:100B1C00E556955B4035755802E4F556F55722308D
:100B2C009309E4F558756801D200220557E5577012
:100B3C00020556D3955AE5569559400F756802D261
:0C0B4C000075580322309303E4F5582292
:0A19EA00E4F566F567F568C2002217
:10192500E4F566F567F568C200F552F555F558F525
:0C19350050F551F553F554F556F55722C6
:10180900200005120A0C80F8E56660031206F0E56F
:10181900676007AA79A97A1206F0E5686007AA7CC9
:08182900A97D1206F00219EA84
:0B19DF00200005120A0C80F8021925F8
:1019C000496E66696E697465001F111B0A0A0A0474
:0119D0000412
:1019AA00C2B2D2B3D2B47F067E0012000EA2A792B0
:0519BA0007C2B4A20702
:0119BF002205
:1018A1008F741219AA40FBC2B2C2B3C2B48574A02C
:1018B1007F067E0012000ED2B47F067E0012000E5B
:0318C100C2B4228C
:0E19D100ED60054307C080034307800218A1A4
:10173700AE3EAF3F7C007D641204A67F0A7E00CFD9
:0C174700CDCFCECCCE1204A6EF2430FF94
:101753008F741219AA40FBD2B2C2B3C2B48574A06B
:101763007F067E0012000ED2B47F067E0012000EAA
:03177300C2B422DB
:1014EA007F0F7E001218C47F381218A17F057E0074
:1014FA001218C47F381218A17F057E001218C47F03
:10150A00381218A17F057E001218C47F0C1218A188
:10151A007F057E001218C47F061218A17F057E007F
:10152A001218C47F401218A1E4F569E5699019C937
:10153A0093FF1217530569E569C3940840ED7F01CB
:10154A001218A17F057E001218C4E4FDFF0219D10A
:050003007F010218A1BD
:0A19F4008B6B1219D1AF6B02175371
:1012C80012021F8F708E6F8D6E8C6D1203788E4E8A
:1012D8008F4FAC4EAD4FEC12033FA804A905AA06E8
:1012E800AB07AF70AE6FAD6EAC6D120021E4FBFAC8
:1012F800797A78441201161203788E3E8F3FAB4FED
:06130800AA4EAD6CAF6BB4
:04130E008A718B72E3
:10131200E4F5731219D1AE71AF727C007D0A12042A
:1013220051AF05AE73057374402EF8A607AE71AFC8
:10133200727C007D0A1204518E718F72E5724571C2
:1013420070D4E5736010157374402573F8E6243089
:06135200FF12175380ECAE
:011358002272
:0813E5008F6B8D6C8A6D8B6E1D
:1013ED00E4754D01F54CF54BF54A757001E570C38B
:1013FD00956F501DAF4DAE4CAD4BAC4AE47B0AFA28
:10140D00F9F81204DC8F4D8E4C8D4B8C4A05708093
:10141D00DCAD6CAF6B1219D1AF6F156FEF603FAED6
:10142D006DAF6EE4FCFDAB4DAA4CA94BA84A12055D
:10143D006712174FAE6DAF6EAC4CAD4D1204518CA3
:10144D006D8D6EAF4DAE4CAD4BAC4AE47B0AFAF9E7
:0E145D00F81205678F4D8E4C8D4B8C4A80BA6D
:01146B00225E
:100B58008F6B8D6C7F287E6B7D6E7C4EAB70AA6F21
:100B6800A96EA86D1202BC400D7BFF7A1979C0AD41
:100B78006CAF6B0218317F007E247D747C49AB70AA
:100B8800AA6FA96EA86D1202BC403DAF70AE6FADE2
:100B98006EAC6D7B007A24797478491212C87F2E66
:100BA800121753AE3EAF3F7C007D6412174C1217EC
:100BB80037AE3EAF3F7C007D0A1204A6ED2430FF1D
:100BC8001217537F4D020C81E4FFFE7D7A7C44AB03
:100BD80070AA6FA96EA86D1202BCAF70AE6FAD6E31
:100BE800AC6D60364034E4FBFA797A78441212C866
:100BF8007F2E121753AE3EAF3F7C007D6412174C18
:100C0800121737AE3EAF3F7C007D0A1204A6ED24D2
:100C180030FF1217537F4B020C811203788E4E8FD0
:100C28004FAC4EAD4FEC12033FA804A905AA06AB82
:100C380007AF70AE6FAD6EAC6D1200217B007A40CD
:100C4800791C78461212FC7F2E121753AE3EAF3F26
:100C58007C037DE812174CAE3EAF3F7C037DE81263
:100C680004A67F64121744121737AE3EAF3F7C00CC
:0D0C78007D0A1204A6ED2430FF121753224E
:101831008B718A7289731219D1AB71AA72A9731251
:1018410003F9FF601012175374012573F573E43522
:0618510072F57280E42232
:0A16AF008F088D098B0A8A0B890C45
:1016B900E4FF1219D1E4F50D7F20121753050DE54A
:1016C9000DC3941040F2AD09AF081219D1AB0AAAA3
:1016D9000BA90C1203F9FF60101217537401250CA2
:0916E900F50CE4350BF50B80E46F
:0116F20022D5
:101614008B698A6A896B7F011218A1E4FDFF121994
:10162400D1AB69AA6AA96B1203F96013056BE56B68
:101634007002056A14F91203F9FF12175380E27D50
:1016440001E4FF1219D1AB6CAA6DA96E1203F96003
:1016540013056EE56E7002056D14F91203F9FF129D
:05166400175380E22293
:021978008B6979
:10197A001219D1E4F56AE56AC3956950097F201204
:06198A001753056A80F00E
:011990002234
:0519FE007F0F0218A19B
:051A03007F0C0218A198
:10146C0043726F73732050726F62657320416E64A8
:10147C0000507265737320416E7920427574746FDD
:10148C006E004D656172737572696E672E2E2E003B
:10149C00506C65617365205761697400546F2053FB
:1014AC0077697463682043617000536574205A65D2
:1014BC00726F0046696E6973686564004C4F570023
:1014CC00484947480050726F63657373696E672EA5
:0E14DC002E2E00523D00496E20004F75740008
:02190700C1829B
:101941001218E612114AC2051217AC120A0C300025
:0C1951000312155A3004F4120F9180EFBD
:1018E6007592477591B8E4F5B275B120C292C2916E
:1018F600C2901214EA12185712192512121A021758
:01190600E000
:10114A00D2B7D205756CFF756D14756E7D7BFF7A0B
:10115A0014796C1216141219DF756CFF756D1475FB
:10116A006E9C7BFF7A14798E1216141217AC300417
:10117A00FD120D9A7882120618787E120631120034
:10118A0003756CFF756D14756EA87BFF7A14797DF3
:10119A001216141219DFC2B77FE87E031218C4129E
:1011AA0017AC3004FD120D9A7882120618788A124A
:1011BA000631756CFF756D14756EBF7BFF7A1479F5
:1011CA00B6121614D2B77FE87E031218C430023F53
:1011DA001200037BFF7A1479C8E4FDFF12183178F4
:1011EA007E120618AB07AA06E4FD7F0612130E7BD1
:1011FA00FF7A1479CC7D01E4FF121831788A12063D
:10120A0018AB07AA067D017F0612130E1219DF22F8
:10155A00E56624FE6007047006B2028002B201E565
:10156A006724FE602A04702D1219257F031219912F
:10157A00121776E4FF1219911217AC1219251200EC
:10158A00037BFF7A1479D1E4FDFF1218318006C279
:10159A0090C291C292E56824FE6010047013121979
:1015AA00257F031219911215BE8006D290D291D2CC
:0415BA00920219EA96
:100F9100120D9A1217AC1200037BFF7A1479DFE469
:100FA100FDFF12183178861206188F708E6F8D6EC4
:100FB1008C6DE4FD7F02120B58300212788212060A
:100FC10018AB07AA067D017F0812130E80097B0862
:100FD1007D017F08121978200103021070E4FBFDE6
:100FE1007F0F1219F4AB60AA5FA95EA85DC00078FB
:100FF10086120618D000120021AB60AA5FA95EA874
:101001005D12021FAB65AA64A963A8621202BC60EB
:1010110051404FAB60AA5FA95EA85DC000788612FF
:101021000618D000120021AB60AA5FA95EA85D126C
:10103100021FC004C005C006C007AF65AE64AD6342
:10104100AC62120329A804A905AA06AB07D007D0F0
:1010510006D005D0041202BC50087BFF7A1479E255
:1010610080067BFF7A1479E67D01E4FF12183122B4
:0418C4008E6B8F6C2C
:1018C800E4F56DF56EC3E56E956CE56D956B500DA1
:0D18D80012195D056EE56E70EC056D80E87F
:0118E50022E0
:10195D007F017E007D587C03ED1D70011CED4C70E8
:0A196D00F7EF1F70011EEF4E70EA45
:01197700224D
:0D000E00EF4E600800EF1F70F71E80F42217
:10185700D2AFD2A9D2ABD2B9C2BB758951C204E407
:10186700F50EF50FF58AF58CF58BF58DC28CC28ECA
:05187700F561D205221D
:101991008F61C28CC28EEF14600B14600824027038
:0919A10007758951227589112294
:1017AC00C204E4F50EF50FE56114601514601A24FB
:1017BC00027020E4F58AF58CF58BF58DD28CD28EE7
:1017CC0022758DFE758B338006758DFC758B6AC208
:0417DC008CD28E22FB
:03001B0002166961
:10166900C0E0C0F0C083C082C0D075D010E561244D
:10167900FE600B14602124037021050F801D758BFA
:1016890033758DFED204050FE50FC39402400C7526
:101699000F00120A0C8004C28CC28ED0D0D082D026
:0616A90083D0F0D0E03216
:03000B0002187C5C
:10187C00C0E0C0D0200509050EE50EB40302800AB5
:10188C0030050D050EE50EB41E06C28EC28CD204B8
:05189C00D0D0D0E032C5
:100EA400596573004E6F004465627567204D6F6429
:100EB40065204F6E004176657267204D6F64652032
:100EC4004F6E005369657665204D6F6465204F6EE3
:100ED40000536574205369657665005374617274B8
:100EE40020506C6F74005265736574204465766994
:100EF400636500457869740007FF0EA4000000FFD5
:100F040016F308FF0EA8000000FF16F300002309E3
:100F1400FF0EA4000000FF16F30AFF0EA800000055
:100F2400FF16F30000330BFF0EA4000000FF16F3BE
:100F34000CFF0EA8000000FF16F300002A00FF0EAD
:100F4400AB0000230000000DFF0EB900002A0000D2
:100F54000001FF0EC700003300000003FF0ED500A0
:100F64000000FF073804FF0EDF000000FF00090542
:100F7400FF0EEA000000FF15BE06FF0EF70000009A
:0D0F8400FF000807000000FF0F41FF0F876E
:10190900072302000000FF0EFC073302000000FF5E
:0B1919000F13072A02000000FF0F2A36
:10121A00900F8EE493FB740193FA740293F9C0035E
:10122A00C002C001900F10E493FB740193FA740298
:10123A0093F9900001120697900F8EE493FB7401C4
:10124A0093FA740293F9C003C002C001900F27E415
:10125A0093FB740193FA740293F9900001120697B2
:10126A00900F8EE493FB740193FA740293F9C0030E
:10127A00C002C001900F3EE493FB740193FA74021A
:10128A0093F9900001120697900F8EE493FB740174
:10129A0093FA7402938B3A8A3BF53CE4F521C20631
:1012AA00C201F560F55FF55EF55DF565F564F56318
:0E12BA00F562F531F532752220F53DD20222A3
:10177600900F8EE493FB740193FA7402938B3A8A6A
:101786003BF53CE4F521C206121071800E200615C9
:101796003000FA7F03121991120C857F02121991FB
:0617A6001217AC80E822DE
:10107100120003E5216068E4FD7F011219D1AB3A4A
:10108100AA3BA93C900004120667AF21EF3395E01B
:10109100FE7C007D0A12043FE92FF9EA3EFA90FF37
:1010A100F7120667E4FD7F01121831AB3AAA3BA99A
:1010B1003C900004120667AF21EF3395E0FE7C00FF
:1010C1007D0A12043FE92FF9EA3EFA900001120667
:1010D100677D017F011218317B3E7D01E48065E46B
:1010E100FD7F011219D1AB3AAA3BA93C9000041231
:1010F1000667AF21EF3395E0FE7C007D0A12043FC5
:10110100E92FF9EA3EFA900001120667E4FD7F013A
:10111100121831AB3AAA3BA93C900004120667AF02
:1011210021EF3395E0FE7C007D0A12043FE92FF99F
:10113100EA3EFA90000B1206677D017F0112183119
:091141007B3EE4FDFF1219F422CB
:100C8500E566603024FE601D046003020D97AB3AF3
:100C9500AA3BA93C1203F9FF0521E5218FF08485C4
:100CA500F021020D94AB3AAA3BA93C1203F914F5C5
:100CB50021020D94E567603024FE6026046003027E
:100CC5000D971521C3E52164809480500EAB3AAA97
:100CD5003BA93C1203F92521FF8002AF218F210298
:100CE5000D94E4F521020D94E56824FE607B046013
:100CF50003020D97AB3AAA3BA93C90000412066784
:100D0500AF21EF3395E0FE7C007D0A12043FE92F09
:100D1500F9EA3EFA900004120667E94A4B6023ABF4
:100D25003AAA3BA93C900004120667E92FF9EA3E6E
:100D3500FA9000041206678B3A8A3B893CE4F52158
:100D4500804D121925D206AB3AAA3BA93C90000466
:100D5500120667E52175F00AA429F9E43AFA90002C
:100D6500071206671206F08029AB3AAA3BA93C9008
:100D75000001120667E94A4B6018AB3AAA3BA93C49
:100D85009000011206678B3A8A3B893CE4F52112F3
:050D950010710219EAD3
:0100080022D5
:1015BE0075690B756AB8C290C291C2927F021219F8
:1015CE00911217ACE56A4569602F300424C204E518
:1015DE006A156A70021569E56AB4D009E569B4073F
:1015EE0004D292800CE56AB4E807E569B40302D22E
:1015FE00913000D0C291C29222D2907FF47E01121D
:05160E0018C475E7603F
:0116130022B4
:1016F300AB3AAA3BA93C900004120667AF21EF3333
:1017030095E08F82F583740A12065612041224F8A8
:10171300601314601314601314601314601324050E
:101723007011D20222C20222D20122C20122D203AA
:0417330022C20322A9
:0100090022D4
:10073800E4F569F56A120003756F03AB32AA31E478
:10074800FDFF1213E5AB22E4FD7F031219F47B5E73
:100758007D01AF691219F47F021219911217ACE5E5
:100768006A600302088B3000F6E5667003020845EC
:1007780024FE604D046003020830E5691460131418
:10078800601614602224036003020830E5322464F2
:10079800800AE532240A8004E5322401FFE4353179
:1007A800FE7C037DE88031E52224B5600D24FE60DF
:1007B8000E242D707375224B806E75224D806980D2
:1007C80064E56914601B146044146059240370586C
:1007D800AE31AF327C007D641204518C318D328091
:1007E80047AE31AF327C007D641204517E007F0A2F
:1007F800CFCDCFCECCCE1204517C007D0A12043F5F
:10080800C3E5329FF532E5319EF531801BAE31AF3D
:10081800327C007D0A120451C3E5329DF532E53180
:100828009CF5318003752220756F03AB32AA31E441
:10083800FDFF1213E5AB22E4FD7F038033E567601B
:10084800347B207D01AF691219F4E56724FE600D41
:100858000470170569E5695403F569800DE569B405
:100868000305E4F56980037569037B5E7D01AF6963
:100878001219F48008E568147003756A011219EA00
:10088800020767E4F569F56A120003E53DFB7A00A3
:10089800756F02E4FDFF1213E57B25E4FD7F02126C
:1008A80019F47B5E7D01AF691219F4E56A600302F1
:1008B80009583000F6E566605B24FE602704704442
:1008C800E56914601604703CE53D240AFFE433FE34
:1008D8007C007D641204518D3D8029053DE53D7500
:1008E800F064800DE56914600E047018E53D75F03C
:1008F8000A8485F03D800DE53D75F00A84C3E53D29
:1009080095F0F53DE53DFB7A00756F02E4FDFF12B9
:1009180013E58036E567602A7B207D01AF691219EF
:10092800F4E56724FE600D04700D0569E56954015E
:10093800F5698003E4F5697B5E7D01AF691219F4FE
:100948008008E568147003756A011219EA0208B391
:10095800E52224B5601224FE6022242D7039AC31C2
:10096800AD32E412033F8027AC31AD32E412033FCD
:10097800E4FBFA797A78441201168013AC31AD326F
:10098800E412033F7B007A24797478491201168FA8
:10099800608E5F8D5E8C5DAC3DE4120344E4FBFA2F
:1009A80079C8784212021F8F658E648D638C62123B
:1009B8000003756F03AB32AA31E4FDFF1213E5ABF8
:1009C80022E4FD7F031219F4E53DFB7A00756F02FE
:1009D8007D01E4FF1213E5856070855F6F855E6EAB
:1009E800855D6DE4FD7F08120B5885657085646F21
:1009F80085636E85626D7D017F08120B587FB87E16
:040A08000B0218C401
:100D9A00AF0FE4FCFDFEFBFA7901F81204DCA804AB
:100DAA00A905AA06AB07AF8DEFFEE4FCFD2BFBEA13
:100DBA003EFAED39F9EC38F8AF8BE4FEEB2FFFEE93
:100DCA003AFEED39FDEC38FC788212063178823031
:100DDA00B747120618787E1206241204DCC004C033
:100DEA0005C006C0077882120624C000787E120663
:100DFA0018D000C3EF9BFFEE9AFEED99FDEC98FC2C
:100E0A00D003D002D001D000120567E412033A7B66
:100E1A00CC7A8A79C9784E8045120618788A1206E1
:100E2A00241204DCC004C005C006C007788212067A
:100E3A0024C000788A120618D000C3EF9BFFEE9AEE
:100E4A00FEED99FDEC98FCD003D002D001D000123F
:100E5A000567E412033A7BA27A51790F785212019C
:100E6A0016788612063130B714E4FFFEFDFC78824C
:100E7A00120624C31206075004C2B7801520B719F8
:100E8A00E4FFFEFDFC7882120624D312060740090D
:0A0E9A00D2B77FF47E011218C422C3
:1017E000D2B7788612063D00000000788212063DCE
:1017F00000000000787E12063D00000000788A128A
:09180000063D00000000C20322B5
:10001E000203E4E86480F8E933E83360110460F029
:10002E00ED33EC337009E8FCE9FDEAFEEBFF220448
:10003E0060DED3EB9FEA9EE99DE8C2E78CF0C2F743
:10004E0095F0400CE8CCF8E9CDF9EACEFAEBCFFB0F
:10005E001203AF85D0F05804700320D5B3E80470B6
:10006E00075002B2D50203EE92D5EC0460F7E4CC51
:10007E00C0E0C398F8603B94186008400DD0E0FBD8
:10008E000203C6E4FBFAC9FC8028E830E406E4C9A2
:10009E00FBE4CAFCE830E305E4C9CACBFCE854072C
:1000AE006010F8C3E913F9EA13FAEB13FBEC13FC37
:1000BE00D8F130F52FC3E49CFCEF9BFFEE9AFEEDDA
:1000CE0099FDD0E0FBEF4E4D4C701222DB03020384
:1000DE00EBEC2CFCEF33FFEE33FEED33FDED30E7B2
:1000EE00EB0203C6EF2BFFEE3AFEED39FDD0E0FB3F
:1000FE0050130BBB00030203EEED13FDEE13FEEFE8
:08010E0013FFEC13FC0203C611
:10011600EC4D6011E8497017ED33EC3304600DE4E3
:10012600FCFFFEFD22E933E8330470F80203E41213
:1001360003AF58046009E4CC248150062850090214
:1001460003EE2840030203EBC0E0EB4A7044B9809B
:1001560006D0E0FB0203DAEF4E701CBD8008EBFF11
:10016600EAFEE9FD80EBE98DF0A4FEE5F00201FF71
:10017600E9CDF9EAFEEBFFEF89F0A4FCE5F0CE89C4
:10018600F0A42EFFE435F0CD89F0A42DFEE435F081
:100196008067EF4E7005BD80D780C3EF8BF0A4ACAF
:1001A600F0EE8BF0A42CFCE435F0F8EF8AF0A42CEA
:1001B600E5F038FCE433CB8DF0A42CFCE5F03BF8FD
:1001C600EE8AF0A42CFCE5F038F8E433CF89F0A4ED
:1001D6002CFCE5F038CF3400CE89F0A42FFFE5F0F3
:1001E6003EFEE433C98DF0A42EFEE5F039CD8AF04B
:1001F600A42FFFE5F03EFEE43DFD33D0E0FB5007C3
:100206000BBB000F0203EEEC2CFCEF33FFEE33FECC
:06021600ED33FD0203C6FA
:10021C000203EEEC5D046005E8590470030203E48C
:10022C001203AF580460F6EC4860F2EC7004FDFE6B
:10023C00FF22C860DB2481C85009C39860025006B5
:10024C000203EB9850CAF582E9294B4A7005AB8240
:10025C000203DA75F0007C1A7880C3EF9BEE9AEDFE
:10026C0099400DC3EF9BFFEE9AFEED99FDE842F02D
:10027C00DC23ACF0D0E0FFD0E0FED0E0FDAB822080
:10028C00E7101BEB60BAEC2CFCEF33FFEE33FEED0A
:10029C0033FD0203C6E803F830E705C0F075F00043
:1002AC00EF2FFFEE33FEED33FD40B830E7C280AAEE
:1002BC0074F8CC6480CCC86480C8F582046043C3F5
:1002CC00EB9FF5F0EA9E42F0E99D42F0E89C45F088
:1002DC0060305018E5825FFFE582F42B5582FB50AD
:1002EC00210ABA001D09B90019088016E5825BFBCA
:1002FC00E582F42F5582FF50090EBE00050DBD009E
:10030C00010CC3EB9FF5F0EA9E42F0E99D42F0E848
:0D031C009C45F06007CC4820E701B3EC22BF
:10032900ED33EC33600A047003BD8004ECB2E7FCE2
:0103390022A1
:10033A0075F020800E75F010800575F0087D007E3E
:10034A00007F003392D530D5031205F9EC33401003
:10035A00EF33FFEE33FEED33FDEC33FCD5F0ED2247
:0E036A00E5F0247EA2D513CC92E7CDCEFF2283
:10037800EDD2E7CD33EC3392D524814006E4FFFE7D
:10038800FDFC22FCE4CFCECDCC24E0501174FF80DC
:10039800EDC3CC13CCCD13CDCE13CECF13CF047079
:0703A800F030D5DE0205F97B
:1003AF00E9D2E7C933E833F892D5EDD2E7CD33EC94
:0703BF0033FC5002B2D5220D
:1003C600EC30E7100FBF000C0EBE00080DBD000498
:1003D6000BEB6014A2D5EB13FCED92E7FD2274FF44
:1003E600FCFDFEFF22E480F8A2D574FF13FC7D809D
:0303F600E480EFB1
:10136500021941E493A3F8E493A34003F68001F244
:1013750008DFF48029E493A3F85407240CC8C33389
:10138500C4540F4420C8834004F456800146F6DF58
:10139500E4800B0102040810204080901907E47EC8
:1013A500019360BCA3FF543F30E509541FFEE4934D
:1013B500A360010ECF54C025E060A840B8E493A314
:1013C500FAE493A3F8E493A3C8C582C8CAC583CA3F
:1013D500F0A3C8C582C8CAC583CADFE9DEE780BEF7
:0119240000C2
:1003F900BB010689828A83E0225002E722BBFE0202
:09040900E32289828A83E4932234
:10041200BB010CE58229F582E5833AF583E022509F
:1004220006E92582F8E622BBFE06E92582F8E222E9
:0D043200E58229F582E5833AF583E4932203
:10043F00EF8DF0A4A8F0CF8CF0A428CE8DF0A42ED1
:02044F00FE228B
:10045100BC000BBE0029EF8DF084FFADF022E4CC8F
:10046100F875F008EF2FFFEE33FEEC33FCEE9DEC58
:10047100984005FCEE9DFE0FD5F0E9E4CEFD22ED9E
:10048100F8F5F0EE8420D21CFEADF075F008EF2FE8
:10049100FFED33FD4007985006D5F0F222C398FDD9
:0504A1000FD5F0EA2276
:1004A600C2D5EC30E709B2D5E4C39DFDE49CFCEE71
:1004B60030E715B2D5E4C39FFFE49EFE120451C394
:1004C600E49DFDE49CFC800312045130D507C3E48F
:0604D6009FFFE49EFE22E0
:1004DC00E88FF0A4CC8BF0A42CFCE98EF0A42CFCBF
:1004EC008AF0EDA42CFCEA8EF0A4CDA8F08BF0A43D
:1004FC002DCC3825F0FDE98FF0A42CCD35F0FCEB9C
:10050C008EF0A4FEA9F0EB8FF0A4CFC5F02ECD3960
:0F051C00FEE43CFCEAA42DCE35F0FDE43CFC22CD
:10052B0075F008758200EF2FFFEE33FECD33CDCC87
:10053B0033CCC58233C5829BED9AEC99E58298400A
:10054B000CF582EE9BFEED9AFDEC99FC0FD5F0D6E7
:10055B00E4CEFBE4CDFAE4CCF9A88222B800C1B911
:10056B000059BA002DEC8BF084CFCECDFCE5F0CB4F
:10057B00F97818EF2FFFEE33FEED33FDEC33FCEB88
:10058B0033FB10D703994004EB99FB0FD8E5E4F943
:10059B00FA227818EF2FFFEE33FEED33FDEC33FC30
:1005AB00C933C910D7059BE99A4007EC9BFCE99A24
:1005BB00F90FD8E0E4C9FAE4CCFB2275F010EF2F69
:1005CB00FFEE33FEED33FDCC33CCC833C810D70769
:1005DB009BEC9AE899400AED9BFDEC9AFCE899F8A4
:0E05EB000FD5F0DAE4CDFBE4CCFAE4C8F92237
:0E05F900C3E49FFFE49EFEE49DFDE49CFC2213
:10060700EB9FF5F0EA9E42F0E99D42F0E89C45F049
:0106170022C0
:0C061800E6FC08E6FD08E6FE08E6FF220E
:0D062400E6FB08E6F908E6FA08E6CBF82246
:0C063100ECF608EDF608EEF608EFF622F5
:10063D00D083D082E493F608740193F60874029384
:09064D00F608740393F6740473BB
:10065600F5F0C582A4C582C5F0C583A42583F583BC
:010666002271
:10066700BB010DE58229F582E5833AF58302070888
:100677005007E92582F80206F6BBFE07E92582F84E
:1006870002071AE58229F582E5833AF58302072CEA
:10069700BB0120E58229F582E5833AF583D0F0D0C6
:1006A700E0F8D0E0F9D0E0FAD0E0FBE8C0E0C0F035
:1006B7000207115018E92582F8D083D082D0E0F9DB
:1006C700D0E0FAD0E0FBC082C0830206FFBBFE1871
:1006D700E92582F8D083D082D0E0F9D0E0FAD0E0E3
:0906E700FBC082C083020723223C
:0606F0008A838982E47395
:0906F600E6FB08E6FA08E6F92229
:0906FF00EBF608EAF608E9F62220
:09070800E0FBA3E0FAA3E0F922F2
:09071100EBF0A3EAF0A3E9F022E9
:09071A00E2FB08E2FA08E2F92210
:09072300EBF208EAF208E9F22207
:0C072C00E493FB740193FA740293F92229
:00000001FF
