:0300000002129A4F
:0C129A00787FE4F6D8FD75818A0212E12D
:1009C200E55AB4020E7554007555017552077553F8
:1009D200D0800C7554007555327552EA755360E536
:1009E2004B14601214602F14605424037056209527
:1009F20053754B0180193095028046054AE54A70CD
:100A0200020549D39555E54995544038754B02E4A2
:100A1200F549F54A802E30950AE4F54B755F01D20F
:100A2200008021054AE54A70020549D39553E549FC
:100A320095524010755F02D200754B0380063095C7
:100A420003E4F54BE54E14601214602F1460542435
:100A5200037056209453754E0180193094028046DB
:100A6200054DE54D7002054CD39555E54C95544026
:100A720038754E02E4F54CF54D802E30940AE4F5BB
:100A82004E756001D2008021054DE54D7002054C86
:100A9200D39553E54C95524010756002D200754EC5
:100AA200038006309403E4F54EE55114601214609D
:100AB2002E146051240370532093507551018019F4
:100AC20030930280430550E5507002054FD395558F
:100AD200E54F95544035755102E4F54FF5502230FB
:100AE2009309E4F551756101D200220550E5507079
:100AF20002054FD39553E54F9552400F756102D2CF
:0C0B02000075510322309303E4F55122EA
:0A190900E4F55FF560F561C200220D
:10184B00E4F55FF560F561C200F54BF54EF551F52A
:0C185B0049F54AF54CF54DF54FF55022CB
:101758002000051209C280F8E55F60031206CEE595
:10176800606007AA72A9731206CEE5616007AA75C0
:08177800A9761206CE02190940
:0B18FE002000051209C280F802184B00
:1018DF00496E66696E697465001F111B0A0A0A0456
:0118EF0004F4
:1018B400C2B2D2B3D2B47F067E0012000EA2A792A7
:0518C40005C2B4A205FD
:0118C90022FC
:1017CB008F6D1218B440FBC2B2C2B3C2B4856DA008
:1017DB007F067E0012000ED2B47F067E0012000E32
:0317EB00C2B42263
:0E18F000ED60054307C080034307800217CB5D
:10168300AE37AF387C007D641204A67F0A7E00CF9C
:0C169300CDCFCECCCE1204A6EF2430FF49
:10169F008F6D1218B440FBD2B2C2B3C2B4856DA025
:1016AF007F067E0012000ED2B47F067E0012000E5F
:0316BF00C2B42290
:101433007F0F7E001217EE7F381217CB7F057E00D9
:101443001217EE7F381217CB7F057E001217EE7F3F
:10145300381217CB7F057E001217EE7F0C1217CBC5
:101463007F057E001217EE7F061217CB7F057E00E5
:101473001217EE7F401217CBE4F562E5629018E88D
:1014830093FF12169F0562E562C3940840ED7F0146
:101493001217CB7F057E001217EEE4FDFF0218F052
:050003007F010217CB94
:0A1913008B641218F0AF6402169FF7
:10117A0012021F8F698E688D678C661203788E47FC
:10118A008F48AC47AD48EC12033FA804A905AA064C
:10119A00AB07AF69AE68AD67AC66120021E4FBFA33
:1011AA00797A78441201161203788E378F38AB4851
:0611BA00AA47AD65AF6419
:0411C0008A6A8B6B41
:1011C400E4F56C1218F0AE6AAF6B7C007D0A120471
:1011D40051AF05AE6C056C74392EF8A607AE6AAF34
:1011E4006B7C007D0A1204518E6A8F6BE56B456A35
:1011F40070D4E56C6010156C7439256CF8E62430F5
:06120400FF12169F80ECB2
:01120A0022C1
:081326008F648D658A668B67F8
:10132E00E4754601F545F544F543756901E569C374
:10133E009568501DAF46AE45AD44AC43E47B0AFA0A
:10134E00F9F81204DC8F468E458D448C4305698076
:10135E00DCAD65AF641218F0AF681568EF603FAE94
:10136E0066AF67E4FCFDAB46AA45A944A843120547
:10137E006712169BAE66AF67AC45AD461204518C34
:10138E00668D67AF46AE45AD44AC43E47B0AFAF9D1
:0E139E00F81205678F468E458D448C4380BA49
:0113AC00221E
:100B0E008F648D657F287E6B7D6E7C4EAB69AA6887
:100B1E00A967A8661202BC400D7BFF7A1879DFAD7B
:100B2E0065AF640217807F007E247D747C49AB69BB
:100B3E00AA68A967A8661202BC403DAF69AE68AD4F
:100B4E0067AC667B007A247974784912117A7F2E0D
:100B5E0012169FAE37AF387C007D641216981216AF
:100B6E0083AE37AF387C007D0A1204A6ED2430FF29
:100B7E0012169F7F4D020C37E4FFFE7D7A7C44AB4C
:100B8E0069AA68A967A8661202BCAF69AE68AD67AC
:100B9E00AC6660364034E4FBFA797A784412117A06
:100BAE007F2E12169FAE37AF387C007D64121698DA
:100BBE00121683AE37AF387C007D0A1204A6ED24E0
:100BCE0030FF12169F7F4B020C371203788E478F21
:100BDE0048AC47AD48EC12033FA804A905AA06ABE2
:100BEE0007AF69AE68AD67AC661200217B007A4034
:100BFE00791C78461211AE7F2E12169FAE37AF3883
:100C0E007C037DE8121698AE37AF387C037DE81270
:100C1E0004A67F64121690121683AE37AF387C008E
:0D0C2E007D0A1204A6ED2430FF12169F224D
:101780008B6A8A6B896C1218F0AB6AAA6BA96C120F
:1017900003F9FF601012169F7401256CF56CE43597
:0617A0006BF56B80E422F2
:0A15FB008F088D098B0A8A0B890CFA
:10160500E4FF1218F0E4F50D7F2012169F050DE595
:101615000DC3941040F2AD09AF081218F0AB0AAA39
:101625000BA90C1203F9FF601012169F7401250C0B
:09163500F50CE4350BF50B80E423
:01163E002289
:10150E008B628A6389647F011217CBE4FDFF121888
:10151E00F0AB62AA63A9641203F960130564E56473
:10152E007002056314F91203F9FF12169F80E27D13
:10153E0001E4FF1218F0AB65AA66A9671203F96001
:10154E00130567E5677002056614F91203F9FF12B9
:05155E00169F80E2224F
:021882008B6277
:101884001218F0E4F563E563C3956250097F2012F2
:06189400169F056380F0C1
:01189A00222B
:05191D007F0F0217CB53
:051922007F0C0217CB51
:10120B0043726F73732050726F62657320416E640B
:10121B0000507265737320416E7920427574746F40
:10122B006E004D656172737572696E672E2E2E009E
:10123B00506C65617365205761697400546F20535E
:10124B0077697463682043617000536574205A6535
:10125B00726F0046696E6973686564004C4F570086
:10126B00484947480050726F63657373696E672E08
:10127B002E2E004B4559330053484F52545F50525A
:0F128B0045535300523D00496E20004F757400CB
:0218CA00C182D9
:10182E00121810C292C291C29012172C1209C23015
:0D183E0000031214A33003F4120E4E80EFCD
:101810007592477591B8E4F5B275B120C292C29144
:0E182000C29012143312156312184B0213AD4E
:100F2E007565FF75661275671C7BFF7A12790B1259
:100F3E00150E1218FE7565FF75661275673B7BFF01
:100F4E007A12792D12150ED2B77FB87E0B1217EECC
:100F5E0012172C3003FD120D49787B120607787795
:100F6E001206201200037565FF7566127567477BC2
:100F7E00FF7A12791C12150E1218FEC2B77FE87E88
:100F8E00031217EE12172C3003FD120D49787B1247
:100F9E00060778871206207565FF75661275675EFF
:100FAE007BFF7A12795512150ED2B77FD07E0712BB
:100FBE0017EE30023F1200037BFF7A127967E4FDD1
:100FCE00FF1217807877120607AB07AA06E4FD7F9B
:100FDE00061211C07BFF7A12796B7D01E4FF1217A6
:100FEE00807887120607AB07AA067D017F061211CD
:050FFE00C01218FE22E4
:1014A300E55F24FE6007047006B2028002B201E524
:1014B3006024FE602A04702D12184B7F0312189BC0
:1014C3001216C2E4FF12189B12172C12184B1200AB
:1014D300037BFF7A127970E4FDFF1217808006C246
:1014E30090C291C292E56124FE601704701A75657B
:1014F300FF7566127567837BFF7A12797E12150E6C
:0B1503008006D290D291D2920219090A
:100E4E00120D4912172C1200037BFF7A12798FE4D0
:100E5E00FDFF121780787F1206078F698E688D67E7
:100E6E008C66E4FD7F02120B0E300212787B1206A6
:100E7E0007AB07AA067D017F081211C080097B0807
:100E8E007D017F08121882200103020F2DE4FBFD65
:100E9E007F0F121913AB59AA58A957A856C000783C
:100EAE007F120607D000120021AB59AA58A957A8E5
:100EBE005612021FAB5EAA5DA95CA85B1202BC6053
:100ECE0051404FAB59AA58A957A856C000787F1267
:100EDE000607D000120021AB59AA58A957A85612DE
:100EEE00021FC004C005C006C007AF5EAE5DAD5C9C
:100EFE00AC5B120329A804A905AA06AB07D007D03C
:100F0E0006D005D0041202BC50087BFF7A127992EB
:100F1E0080067BFF7A1279967D01E4FF12178022FC
:0417EE008E648F6511
:1017F200E4F566F567C3E5679565E5669564500DA2
:0D1802001218670567E56770EC056680E861
:01180F0022B6
:101867007F017E007D587C03ED1D70011CED4C70DF
:0A187700F7EF1F70011EEF4E70EA3C
:011881002244
:0D000E00EF4E600800EF1F70F71E80F42217
:10156300D2AFD2A9D2ABD2B9C2BB758951D2A478BA
:101573007F12062C00000000C203787B12062C00A9
:10158300000000788312062C000000007877120612
:101593002C00000000788712062C00000000E4F500
:1015A3000EF50FF58AF58CF58BF58DC28CC28EF591
:0215B3005A22BA
:10189B008F5AC28CC28EEF14600B14600824027036
:0918AB000775895122758911228B
:10172C00C203E4F50EF50FE55A146015146012248B
:10173C00027018E4F58AF58CF58BF58DD28CD28E6F
:0C174C0022758DFE758B33C28CD28E226C
:03001B000215B516
:1015B500C0E0C0F0C083C082C0D075D010E55A2409
:1015C500FE600B14602124037021050F801D758BAF
:1015D50033758DFED203050FE50FC39402400C75DC
:1015E5000F001209C28004C28CC28ED0D0D082D026
:0615F50083D0F0D0E032CB
:03000B000217A633
:1017A600C0E0C0D030A409050EE50EB40202800ADE
:1017B60020A40D050EE50EB40F06C28EC28CD20310
:0517C600D0D0D0E0329C
:100D4900C203AF0FE4FCFDFEFBFA7901F81204DCE3
:100D5900A804A905AA06AB07AF8DEFFEE4FCFD2B9D
:100D6900FBEA3EFAED39F9EC38F8AF8BE4FEEB2FEC
:100D7900FFEE3AFEED39FDEC38FC787B12062030A7
:100D8900A45E7F957EBA7D0A7C00787B12061312D9
:100D990004DC7883120620787B120607787712061E
:100DA900131204DCC004C005C006C007787B120614
:100DB90013C0007877120607D000C3EF9BFFEE9AA5
:100DC900FEED99FDEC98FCD003D002D001D00012C1
:100DD900163FEC12033A7BCC7A8A79C9784E805C4B
:100DE9007F367E6E7D017C00787B1206131204DC4F
:100DF9007883120620787B12060778871206131269
:100E090004DCC004C005C006C007787B120613C005
:100E1900007887120607D000C3EF9BFFEE9AFEED1C
:100E290099FDEC98FCD003D002D001D00012163FF6
:100E3900EC12033A7BA27A51790F78521201167893
:050E49007F12062022CB
:10100300596573004E6F004465627567204D6F64C8
:1010130065204F6E005369657665204D6F646520CA
:101023004F6E005365742053696576650053746190
:10103300727420506C6F740052657365742044653C
:101043007669636500457869740007FF1003000043
:1010530000FF16F808FF1007000000FF16F8000055
:101063002309FF1003000000FF16F80AFF10070012
:101073000000FF16F800002C00FF100A00002300F8
:10108300000001FF101800002C00000003FF1026D1
:10109300000000FF071604FF1030000000FF000AE5
:1010A30005FF103B000000FF000906FF1048000089
:0E10B30000FF000806000000FF107BFF10B7D2
:1018CC00072302000000FF104D072C02000000FF50
:0218DC00106496
:1013AD009010BEE493FB740193FA740293F9C00399
:1013BD00C002C001901061E493FB740193FA7402B2
:1013CD0093F99000011206759010BEE493FB740121
:1013DD0093FA740293F9C003C002C001901078E42F
:1013ED0093FB740193FA740293F990000112067540
:1013FD009010BEE493FB740193FA7402938B338ABD
:10140D0034F535E4F521C204C201F559F558F55707
:10141D00F556F55EF55DF55CF55BF52AF52B752258
:06142D0020F536D2022278
:1016C2009010BEE493FB740193FA7402938B338AF5
:1016D20034F535E4F521C2041210C1800E20041540
:1016E2003000FA7F0312189B120C3B7F0212189BE8
:0616F20012172C80E82213
:1010C100120003E5216058E4FD7F011218F0AB33F3
:1010D100AA34A935900004120645E52175F00AA449
:1010E10029F9EA35F0FA90FFF7120645E4FD7F0190
:1010F100121780AB33AA34A935900004120645E5D6
:101101002175F00AA429F9EA35F0FA9000011206D6
:10111100457D017F011217807B3E7D01E48055E40E
:10112100FD7F011218F0AB33AA34A93590000412E7
:101131000645E52175F00AA429F9EA35F0FA90008F
:1011410001120645E4FD7F01121780AB33AA34A9D1
:1011510035900004120645E52175F00AA429F9EA43
:1011610035F0FA90000B1206457D017F01121780C0
:091171007B3EE4FDFF121913227C
:100C3B00E55F603724FE6024046003020D46AB338E
:100C4B00AA34A9351203F9FF0521E5218FF084851C
:100C5B00F021E521B40102D290020D43AB33AA344B
:100C6B00A9351203F914F521020D43E56060272421
:100C7B00FE601D046003020D46AB33AA34A9351286
:100C8B0003F9FF1521E5218FF08485F021020D4337
:100C9B00E4F521020D43E56124FE60760460030256
:100CAB000D46AB33AA34A935900004120645E52155
:100CBB0075F00AA4FFAEF029F9EA3EFA900004128F
:100CCB000645E94A4B6023AB33AA34A9359000049F
:100CDB00120645E92FF9EA3EFA9000041206458BFD
:100CEB00338A348935E4F521804E12184BD204AB8C
:100CFB0033AA34A935900004120645E52175F00A94
:100D0B00A429F9EA35F0FA9000071206451206CE2F
:100D1B008029AB33AA34A935900001120645E94A64
:100D2B004B6018AB33AA34A9359000011206458BE2
:0E0D3B00338A348935E4F5211210C1021909FA
:0100080022D5
:0100090022D4
:1016F800AB33AA34A93590000412064575F00AE503
:1017080021A4F58285F08312041224F8600D146078
:101718000D14600D2403700BD20222C20222D201E2
:0417280022C20122B6
:01000A0022D3
:10071600E4F562F563120003756803AB2BAA2AE4BD
:10072600FDFF121326AB22E4FD7F031219137B5E35
:100736007D01AF621219137F0212189B12172CE566
:100746006360030208693000F6E55F700302082360
:1007560024FE604D04600302080EE5621460131463
:1007660060161460222403600302080EE52B24643D
:10077600800AE52B240A8004E52B2401FFE4352AB0
:10078600FE7C037DE88031E52224B5600D24FE6001
:100796000E242D707375224B806E75224D806980F4
:1007A60064E56214601B1460441460592403705895
:1007B600AE2AAF2B7C007D641204518C2A8D2B80CF
:1007C60047AE2AAF2B7C007D641204517E007F0A5F
:1007D600CFCDCFCECCCE1204517C007D0A12043F81
:1007E600C3E52B9FF52BE52A9EF52A801BAE2AAF83
:1007F6002B7C007D0A120451C3E52B9DF52BE52ABF
:100806009CF52A8003752220756803AB2BAA2AE47F
:10081600FDFF121326AB22E4FD7F038033E5606003
:10082600347B207D01AF62121913E56024FE600D52
:100836000470170562E5625403F562800DE562B443
:100846000305E4F56280037562037B5E7D01AF629A
:100856001219138008E561147003756301121909F2
:10086600020745E4F562F563120003E536FB7A00FC
:10087600756802E4FDFF1213267B25E4FD7F021254
:1008860019137B5E7D01AF62121913E563600302E3
:1008960009363000F6E55F605B24FE60270470448D
:1008A600E56214601604703CE536240AFFE433FE64
:1008B6007C007D641204518D3680290536E5367537
:1008C600F064800DE56214600E047018E53675F06C
:1008D6000A8485F036800DE53675F00A84C3E53660
:1008E60095F0F536E536FB7A00756802E4FDFF12F1
:1008F60013268036E560602A7B207D01AF621219DF
:1009060013E56024FE600D04700D0562E562540176
:10091600F5628003E4F5627B5E7D01AF6212191316
:100926008008E561147003756301121909020891C4
:10093600E52224B5601224FE6022242D7039AC2AEB
:10094600AD2BE412033F8027AC2AAD2BE412033F04
:10095600E4FBFA797A78441201168013AC2AAD2B9F
:10096600E412033F7B007A24797478491201168FCA
:10097600598E588D578C56AC36E4120344E4FBFA74
:1009860079C8784212021F8F5E8E5D8D5C8C5B8506
:100996005969855868855767855666E4FD7F08124C
:1009A6000B0E855E69855D68855C67855B667D0186
:0C09B6007F08120B0E7FB87E0B0217EEBC
:10001E000203E4E86480F8E933E83360110460F029
:10002E00ED33EC337009E8FCE9FDEAFEEBFF220448
:10003E0060DED3EB9FEA9EE99DE8C2E78CF0C2F743
:10004E0095F0400CE8CCF8E9CDF9EACEFAEBCFFB0F
:10005E001203AF85D0F05804700320D5B3E80470B6
:10006E00075002B2D50203EE92D5EC0460F7E4CC51
:10007E00C0E0C398F8603B94186008400DD0E0FBD8
:10008E000203C6E4FBFAC9FC8028E830E406E4C9A2
:10009E00FBE4CAFCE830E305E4C9CACBFCE854072C
:1000AE006010F8C3E913F9EA13FAEB13FBEC13FC37
:1000BE00D8F130F52FC3E49CFCEF9BFFEE9AFEEDDA
:1000CE0099FDD0E0FBEF4E4D4C701222DB03020384
:1000DE00EBEC2CFCEF33FFEE33FEED33FDED30E7B2
:1000EE00EB0203C6EF2BFFEE3AFEED39FDD0E0FB3F
:1000FE0050130BBB00030203EEED13FDEE13FEEFE8
:08010E0013FFEC13FC0203C611
:10011600EC4D6011E8497017ED33EC3304600DE4E3
:10012600FCFFFEFD22E933E8330470F80203E41213
:1001360003AF58046009E4CC248150062850090214
:1001460003EE2840030203EBC0E0EB4A7044B9809B
:1001560006D0E0FB0203DAEF4E701CBD8008EBFF11
:10016600EAFEE9FD80EBE98DF0A4FEE5F00201FF71
:10017600E9CDF9EAFEEBFFEF89F0A4FCE5F0CE89C4
:10018600F0A42EFFE435F0CD89F0A42DFEE435F081
:100196008067EF4E7005BD80D780C3EF8BF0A4ACAF
:1001A600F0EE8BF0A42CFCE435F0F8EF8AF0A42CEA
:1001B600E5F038FCE433CB8DF0A42CFCE5F03BF8FD
:1001C600EE8AF0A42CFCE5F038F8E433CF89F0A4ED
:1001D6002CFCE5F038CF3400CE89F0A42FFFE5F0F3
:1001E6003EFEE433C98DF0A42EFEE5F039CD8AF04B
:1001F600A42FFFE5F03EFEE43DFD33D0E0FB5007C3
:100206000BBB000F0203EEEC2CFCEF33FFEE33FECC
:06021600ED33FD0203C6FA
:10021C000203EEEC5D046005E8590470030203E48C
:10022C001203AF580460F6EC4860F2EC7004FDFE6B
:10023C00FF22C860DB2481C85009C39860025006B5
:10024C000203EB9850CAF582E9294B4A7005AB8240
:10025C000203DA75F0007C1A7880C3EF9BEE9AEDFE
:10026C0099400DC3EF9BFFEE9AFEED99FDE842F02D
:10027C00DC23ACF0D0E0FFD0E0FED0E0FDAB822080
:10028C00E7101BEB60BAEC2CFCEF33FFEE33FEED0A
:10029C0033FD0203C6E803F830E705C0F075F00043
:1002AC00EF2FFFEE33FEED33FD40B830E7C280AAEE
:1002BC0074F8CC6480CCC86480C8F582046043C3F5
:1002CC00EB9FF5F0EA9E42F0E99D42F0E89C45F088
:1002DC0060305018E5825FFFE582F42B5582FB50AD
:1002EC00210ABA001D09B90019088016E5825BFBCA
:1002FC00E582F42F5582FF50090EBE00050DBD009E
:10030C00010CC3EB9FF5F0EA9E42F0E99D42F0E848
:0D031C009C45F06007CC4820E701B3EC22BF
:10032900ED33EC33600A047003BD8004ECB2E7FCE2
:0103390022A1
:10033A0075F020800E75F010800575F0087D007E3E
:10034A00007F003392D530D5031205F9EC33401003
:10035A00EF33FFEE33FEED33FDEC33FCD5F0ED2247
:0E036A00E5F0247EA2D513CC92E7CDCEFF2283
:10037800EDD2E7CD33EC3392D524814006E4FFFE7D
:10038800FDFC22FCE4CFCECDCC24E0501174FF80DC
:10039800EDC3CC13CCCD13CDCE13CECF13CF047079
:0703A800F030D5DE0205F97B
:1003AF00E9D2E7C933E833F892D5EDD2E7CD33EC94
:0703BF0033FC5002B2D5220D
:1003C600EC30E7100FBF000C0EBE00080DBD000498
:1003D6000BEB6014A2D5EB13FCED92E7FD2274FF44
:1003E600FCFDFEFF22E480F8A2D574FF13FC7D809D
:0303F600E480EFB1
:1012A60002182EE493A3F8E493A34003F68001F218
:1012B60008DFF48029E493A3F85407240CC8C33349
:1012C600C4540F4420C8834004F456800146F6DF18
:1012D600E4800B01020408102040809018CAE47EC6
:1012E600019360BCA3FF543F30E509541FFEE4930D
:1012F600A360010ECF54C025E060A840B8E493A3D4
:10130600FAE493A3F8E493A3C8C582C8CAC583CAFE
:10131600F0A3C8C582C8CAC583CADFE9DEE780BEB6
:0118DE000009
:1003F900BB010689828A83E0225002E722BBFE0202
:09040900E32289828A83E4932234
:10041200BB010CE58229F582E5833AF583E022509F
:1004220006E92582F8E622BBFE06E92582F8E222E9
:0D043200E58229F582E5833AF583E4932203
:10043F00EF8DF0A4A8F0CF8CF0A428CE8DF0A42ED1
:02044F00FE228B
:10045100BC000BBE0029EF8DF084FFADF022E4CC8F
:10046100F875F008EF2FFFEE33FEEC33FCEE9DEC58
:10047100984005FCEE9DFE0FD5F0E9E4CEFD22ED9E
:10048100F8F5F0EE8420D21CFEADF075F008EF2FE8
:10049100FFED33FD4007985006D5F0F222C398FDD9
:0504A1000FD5F0EA2276
:1004A600C2D5EC30E709B2D5E4C39DFDE49CFCEE71
:1004B60030E715B2D5E4C39FFFE49EFE120451C394
:1004C600E49DFDE49CFC800312045130D507C3E48F
:0604D6009FFFE49EFE22E0
:1004DC00E88FF0A4CC8BF0A42CFCE98EF0A42CFCBF
:1004EC008AF0EDA42CFCEA8EF0A4CDA8F08BF0A43D
:1004FC002DCC3825F0FDE98FF0A42CCD35F0FCEB9C
:10050C008EF0A4FEA9F0EB8FF0A4CFC5F02ECD3960
:0F051C00FEE43CFCEAA42DCE35F0FDE43CFC22CD
:10052B0075F008758200EF2FFFEE33FECD33CDCC87
:10053B0033CCC58233C5829BED9AEC99E58298400A
:10054B000CF582EE9BFEED9AFDEC99FC0FD5F0D6E7
:10055B00E4CEFBE4CDFAE4CCF9A88222B800C1B911
:10056B000059BA002DEC8BF084CFCECDFCE5F0CB4F
:10057B00F97818EF2FFFEE33FEED33FDEC33FCEB88
:10058B0033FB10D703994004EB99FB0FD8E5E4F943
:10059B00FA227818EF2FFFEE33FEED33FDEC33FC30
:1005AB00C933C910D7059BE99A4007EC9BFCE99A24
:1005BB00F90FD8E0E4C9FAE4CCFB2275F010EF2F69
:1005CB00FFEE33FEED33FDCC33CCC833C810D70769
:1005DB009BEC9AE899400AED9BFDEC9AFCE899F8A4
:0E05EB000FD5F0DAE4CDFBE4CCFAE4C8F92237
:10163F00C2D5E830E70FB2D5E4C39BFBE49AFAE4D6
:10164F0099F9E498F8EC30E717B2D5121675120530
:10165F0067E4C39BFBE49AFAE499F9E498F88003F2
:10166F0012056730D50DE4C39FFFE49EFEE49DFD98
:04167F00E49CFC22C9
:0E05F900C3E49FFFE49EFEE49DFDE49CFC2213
:0C060700E6FC08E6FD08E6FE08E6FF221F
:0D061300E6FB08E6F908E6FA08E6CBF82257
:0C062000ECF608EDF608EEF608EFF62206
:10062C00D083D082E493F608740193F60874029395
:09063C00F608740393F6740473CC
:10064500BB010DE58229F582E5833AF5830206E6CD
:100655005007E92582F80206D4BBFE07E92582F892
:100665000206F8E58229F582E5833AF58302070A51
:10067500BB0120E58229F582E5833AF583D0F0D0E8
:10068500E0F8D0E0F9D0E0FAD0E0FBE8C0E0C0F057
:100695000206EF5018E92582F8D083D082D0E0F920
:1006A500D0E0FAD0E0FBC082C0830206DDBBFE18B5
:1006B500E92582F8D083D082D0E0F9D0E0FAD0E005
:0906C500FBC082C0830207012280
:0606CE008A838982E473B7
:0906D400E6FB08E6FA08E6F9224B
:0906DD00EBF608EAF608E9F62242
:0906E600E0FBA3E0FAA3E0F92215
:0906EF00EBF0A3EAF0A3E9F0220C
:0906F800E2FB08E2FA08E2F92233
:09070100EBF208EAF208E9F22229
:0C070A00E493FB740193FA740293F9224B
:00000001FF
